{
	"data": {
		"bytecode": {
			"linkReferences": {},
			"object": "6080604052600180546001600160a01b03191661f00017905568d5f7a0e3e5d2cc0000600255670de0b6b3a7640000600455600f805460ff1916905561271060105560266011556013805460ff60a01b1916600160a01b1790553480156200006657600080fd5b506200007233620002ec565b336000818152600d60209081526040808320805460ff19166001908117909155600e805491820181559093527fbb7b4a454dc3493923482f07822329ed19e8244eff582cc204f8554c3620c3fd90920180546001600160a01b031916909317909255805160608101825268d5f7a0e3e5d2cc00008152620249f081840190815282518084018452600681526542726f6e7a6560d01b9481019490945291810183905280516014908155915160155591601690620001309082620003f7565b50905050604051806060016040528069085be3cbc1c8d988000081526020016216e36081526020016040518060400160405280600681526020016529b4b63b32b960d11b81525081525060146001600481106200019157620001916200033c565b6003020160008201518160000155602082015181600101556040820151816002019081620001c09190620003f7565b509050506040518060600160405280695396bc536dbd89240000815260200162e4e1c081526020016040518060400160405280600481526020016311dbdb1960e21b81525081525060146002600481106200021f576200021f6200033c565b60030201600082015181600001556020820151816001015560408201518160020190816200024e9190620003f7565b5090505060405180606001604052806a0343e33f80dc000ca0000081526020016308f0d180815260200160405180604001604052806008815260200167506c6174696e756d60c01b8152508152506014600360048110620002b357620002b36200033c565b6003020160008201518160000155602082015181600101556040820151816002019081620002e29190620003f7565b50905050620004c3565b600080546001600160a01b038381166001600160a01b0319831681178455604051919092169283917f8be0079c531659141344cd1fd0a4f28419497f9722a3daafe3b4186f6b6457e09190a35050565b634e487b7160e01b600052603260045260246000fd5b634e487b7160e01b600052604160045260246000fd5b600181811c908216806200037d57607f821691505b6020821081036200039e57634e487b7160e01b600052602260045260246000fd5b50919050565b601f821115620003f257600081815260208120601f850160051c81016020861015620003cd5750805b601f850160051c820191505b81811015620003ee57828155600101620003d9565b5050505b505050565b81516001600160401b0381111562000413576200041362000352565b6200042b8162000424845462000368565b84620003a4565b602080601f8311600181146200046357600084156200044a5750858301515b600019600386901b1c1916600185901b178555620003ee565b600085815260208120601f198616915b82811015620004945788860151825594840194600190910190840162000473565b5085821015620004b35787850151600019600388901b60f8161c191681555b5050505050600190811b01905550565b6144fd80620004d36000396000f3fe6080604052600436106104565760003560e01c8063797327ae1161023f578063b0d2d01111610139578063e06d3af9116100b6578063efe222661161007a578063efe2226614610dfe578063f188df2b14610e14578063f2888dbb14610e41578063f2fde38b14610e61578063f6ef33fd14610e8157600080fd5b8063e06d3af914610d44578063e1b6d9d414610d64578063e6a69ab814610d99578063e93a6c9014610db1578063ed95d02214610dde57600080fd5b8063c85fe8cf116100fd578063c85fe8cf14610c90578063d4aa673b14610cb0578063d9f774fc14610cd0578063dbf0f3e214610cf2578063defe370c14610d1257600080fd5b8063b0d2d01114610be7578063b187bd2614610bfc578063b3eff0ef14610c14578063bd0eb36914610c4f578063c61ce43714610c6f57600080fd5b806390efe56d116101c75780639edfe49e1161018b5780639edfe49e14610b43578063a753594b14610b63578063ae7ab3e814610b92578063afbbc80314610bb2578063b080610814610bd257600080fd5b806390efe56d14610a9c578063914673f714610ace57806395082d2514610afb578063990dc9db14610b105780639972f0e614610b3057600080fd5b806384b813a21161020e57806384b813a2146109fc5780638ae53dbd14610a3e5780638b7bf3eb14610a545780638da5cb5b14610a695780638df70d7314610a8757600080fd5b8063797327ae146109915780637e5cd35f146109b25780637fc5e1e5146109c75780638456cb59146109e757600080fd5b8063429b62e51161035057806364877981116102d8578063715018a61161029c578063715018a6146108fc578063715c68e51461091157806372d30a70146109315780637432feb614610951578063794cb2631461097157600080fd5b8063648779811461085157806367b40cf7146108835780636949faeb146108b057806370480275146108c65780637148ebce146108e657600080fd5b806358ae4e991161031f57806358ae4e991461052a5780635c975abb146107d75780635dc33541146107f15780635fc44d541461081157806362f25ab31461083157600080fd5b8063429b62e51461073857806349e1f831146107685780634cc67b5b146107a1578063530e784f146107b757600080fd5b80631d06022c116103de5780632b3ba681116103a25780632b3ba68114610681578063330227bf146106975780633f4ba83a146106e65780633f8dc65a146106fb57806340a8f5241461072357600080fd5b80631d06022c146105d65780631e724caa146105f65780632282bdd81461062c57806324d7806c146106415780632630c12f1461066157600080fd5b80631430616811610425578063143061681461052a5780631715d0151461054a5780631785f53c1461056057806319262257146105805780631c00ab091461059657600080fd5b806301d768791461047a5780630292ac66146104ba5780630976c65d146104dc57806311117fc8146104f257600080fd5b3661047557346005600082825461046d9190613946565b925050819055005b600080fd5b34801561048657600080fd5b506104a761049536600461396e565b600b6020526000908152604090205481565b6040519081526020015b60405180910390f35b3480156104c657600080fd5b506104da6104d536600461398b565b610e96565b005b3480156104e857600080fd5b506104a760025481565b3480156104fe57600080fd5b5061051261050d36600461398b565b610ea3565b6040516001600160a01b0390911681526020016104b1565b34801561053657600080fd5b506104a76105453660046139a4565b610ecd565b34801561055657600080fd5b506104a760105481565b34801561056c57600080fd5b506104da61057b36600461396e565b610ed6565b34801561058c57600080fd5b506104a761546081565b3480156105a257600080fd5b506105c66105b136600461396e565b60096020526000908152604090205460ff1681565b60405190151581526020016104b1565b3480156105e257600080fd5b506104da6105f136600461398b565b61115b565b34801561060257600080fd5b506104a761061136600461396e565b6001600160a01b031660009081526006602052604090205490565b34801561063857600080fd5b506104da611168565b34801561064d57600080fd5b506105c661065c36600461396e565b611177565b34801561066d57600080fd5b50601354610512906001600160a01b031681565b34801561068d57600080fd5b506104a761271081565b3480156106a357600080fd5b506011546012546013546040805193845260208401929092526001600160a01b03811691830191909152600160a01b900460ff16151560608201526080016104b1565b3480156106f257600080fd5b506104da6111ae565b34801561070757600080fd5b50610710611246565b6040516104b19796959493929190613b2e565b34801561072f57600080fd5b50600a546104a7565b34801561074457600080fd5b506105c661075336600461396e565b600d6020526000908152604090205460ff1681565b34801561077457600080fd5b506105c661078336600461396e565b6001600160a01b031660009081526009602052604090205460ff1690565b3480156107ad57600080fd5b506104a760035481565b3480156107c357600080fd5b506104da6107d236600461396e565b6116ec565b3480156107e357600080fd5b50600f546105c69060ff1681565b3480156107fd57600080fd5b506104a761080c36600461396e565b611765565b34801561081d57600080fd5b506104a761082c36600461398b565b61191a565b34801561083d57600080fd5b5061051261084c36600461398b565b611983565b34801561085d57600080fd5b5061087161086c3660046139a4565b611993565b6040516104b196959493929190613bd4565b34801561088f57600080fd5b506104a761089e36600461396e565b60066020526000908152604090205481565b3480156108bc57600080fd5b506104a760125481565b3480156108d257600080fd5b506104da6108e136600461396e565b611abd565b3480156108f257600080fd5b506104a760115481565b34801561090857600080fd5b506104da611c05565b34801561091d57600080fd5b506104da61092c36600461396e565b611c19565b34801561093d57600080fd5b506104da61094c36600461396e565b611eac565b34801561095d57600080fd5b506104a761096c36600461396e565b6120e1565b34801561097d57600080fd5b506104da61098c366004613c23565b612128565b34801561099d57600080fd5b506105c66109ac36600461396e565b50600190565b3480156109be57600080fd5b506104da61217a565b3480156109d357600080fd5b506104a76109e236600461396e565b6122db565b3480156109f357600080fd5b506104da612309565b348015610a0857600080fd5b50610a1c610a1736600461396e565b6123a6565b60408051941515855260208501939093529183015260608201526080016104b1565b348015610a4a57600080fd5b506104a760045481565b348015610a6057600080fd5b50600e546104a7565b348015610a7557600080fd5b506000546001600160a01b0316610512565b348015610a9357600080fd5b506104da6123f8565b348015610aa857600080fd5b50610abc610ab73660046139a4565b612442565b6040516104b196959493929190613c51565b348015610ada57600080fd5b506104a7610ae936600461396e565b600c6020526000908152604090205481565b348015610b0757600080fd5b506104a7606481565b348015610b1c57600080fd5b506104da610b2b366004613ca9565b6125a0565b6105c6610b3e366004613d16565b612748565b348015610b4f57600080fd5b506104da610b5e366004613d6a565b61286d565b348015610b6f57600080fd5b50610b83610b7e36600461398b565b6128c2565b6040516104b193929190613d87565b348015610b9e57600080fd5b506104da610bad366004613daf565b612975565b348015610bbe57600080fd5b50600154610512906001600160a01b031681565b348015610bde57600080fd5b506104da612a0c565b348015610bf357600080fd5b506104a7612a5a565b348015610c0857600080fd5b50600f5460ff166105c6565b348015610c2057600080fd5b50610c34610c2f36600461396e565b612acd565b604080519384526020840192909252908201526060016104b1565b348015610c5b57600080fd5b506104da610c6a36600461398b565b612b10565b348015610c7b57600080fd5b506013546105c690600160a01b900460ff1681565b348015610c9c57600080fd5b506104da610cab36600461398b565b612b7d565b348015610cbc57600080fd5b506104a7610ccb3660046139a4565b612bda565b348015610cdc57600080fd5b50610ce5612d97565b6040516104b19190613e34565b348015610cfe57600080fd5b506104da610d0d366004613ca9565b612df9565b348015610d1e57600080fd5b50610d32610d2d36600461396e565b612ec3565b6040516104b196959493929190613e47565b348015610d5057600080fd5b506104da610d5f36600461398b565b613081565b348015610d7057600080fd5b50610d84610d7f3660046139a4565b613249565b604080519283526020830191909152016104b1565b348015610da557600080fd5b506104a76301e1338081565b348015610dbd57600080fd5b506104a7610dcc36600461396e565b60086020526000908152604090205481565b348015610dea57600080fd5b506104da610df9366004613e87565b6132d9565b348015610e0a57600080fd5b506104a760055481565b348015610e2057600080fd5b506104a7610e2f36600461396e565b60076020526000908152604090205481565b348015610e4d57600080fd5b506105c6610e5c36600461396e565b613479565b348015610e6d57600080fd5b506104da610e7c36600461396e565b61352b565b348015610e8d57600080fd5b50610ce56135a1565b610e9e613601565b600455565b600e8181548110610eb357600080fd5b6000918252602090912001546001600160a01b0316905081565b60005b92915050565b610ede613601565b6001600160a01b038116610f315760405162461bcd60e51b8152602060048201526015602482015274496e76616c69642061646d696e206164647265737360581b60448201526064015b60405180910390fd5b6001600160a01b0381166000908152600d602052604090205460ff16610f885760405162461bcd60e51b815260206004820152600c60248201526b2737ba1030b71030b236b4b760a11b6044820152606401610f28565b6000546001600160a01b03166001600160a01b0316816001600160a01b031603610ff45760405162461bcd60e51b815260206004820152601c60248201527f43616e6e6f742072656d6f7665206f776e65722061732061646d696e000000006044820152606401610f28565b6001600160a01b0381166000908152600d60205260408120805460ff191690555b600e5481101561111a57816001600160a01b0316600e828154811061103c5761103c613ee7565b6000918252602090912001546001600160a01b03160361110857600e805461106690600190613efd565b8154811061107657611076613ee7565b600091825260209091200154600e80546001600160a01b0390921691839081106110a2576110a2613ee7565b9060005260206000200160006101000a8154816001600160a01b0302191690836001600160a01b03160217905550600e8054806110e1576110e1613f10565b600082815260209020810160001990810180546001600160a01b031916905501905561111a565b8061111281613f26565b915050611015565b506040516001600160a01b03821681527fa3b62bc36326052d97ea62d63c3d60308ed4c3ea8ac079dd8499f1e9c4f80c0f906020015b60405180910390a150565b611163613601565b600255565b611170613601565b6000600455565b6001600160a01b0381166000908152600d602052604081205460ff1680610ed05750506000546001600160a01b0391821691161490565b6111b6613601565b600f5460ff166112015760405162461bcd60e51b815260206004820152601660248201527510dbdb9d1c9858dd081a5cc81b9bdd081c185d5cd95960521b6044820152606401610f28565b600f805460ff19169055604080513381524260208201527f107553d8191d85b405879cf752997865edd48d94e20bda4dd27223c94b31a7cc91015b60405180910390a1565b60008060608060608060606000600160009054906101000a90046001600160a01b03166001600160a01b031663afeea1156040518163ffffffff1660e01b8152600401600060405180830381865afa1580156112a6573d6000803e3d6000fd5b505050506040513d6000823e601f3d908101601f191682016040526112ce919081019061400d565b8051909150600080826001600160401b038111156112ee576112ee613f3f565b604051908082528060200260200182016040528015611317578160200160208202803683370190505b5090506000836001600160401b0381111561133457611334613f3f565b60405190808252806020026020018201604052801561135d578160200160208202803683370190505b5090506000846001600160401b0381111561137a5761137a613f3f565b6040519080825280602002602001820160405280156113ad57816020015b60608152602001906001900390816113985790505b5090506000856001600160401b038111156113ca576113ca613f3f565b6040519080825280602002602001820160405280156113fd57816020015b60608152602001906001900390816113e85790505b50905060005b868160ff16101561165157600154885160009182916001600160a01b0390911690638a11d7c9908c9060ff871690811061143f5761143f613ee7565b60200260200101516040518263ffffffff1660e01b815260040161147291906001600160a01b0391909116815260200190565b600060405180830381865afa15801561148f573d6000803e3d6000fd5b505050506040513d6000823e601f3d908101601f191682016040526114b79190810190614041565b5050509250925050600081111561162e576001548a516000916001600160a01b03169063a43569b3908d9060ff88169081106114f5576114f5613ee7565b60200260200101516040518263ffffffff1660e01b815260040161152891906001600160a01b0391909116815260200190565b600060405180830381865afa158015611545573d6000803e3d6000fd5b505050506040513d6000823e601f3d908101601f1916820160405261156d91908101906140c5565b905082888560ff168151811061158557611585613ee7565b6020026020010190600481111561159e5761159e613a21565b908160048111156115b1576115b1613a21565b8152505081878560ff16815181106115cb576115cb613ee7565b60200260200101818152505080868560ff16815181106115ed576115ed613ee7565b602002602001018190525060405180602001604052806000815250858560ff168151811061161d5761161d613ee7565b60200260200101819052505061163c565b611639600189613946565b97505b5050808061164990614158565b915050611403565b5061165c8587613efd565b600160009054906101000a90046001600160a01b03166001600160a01b0316638b0e9f3f6040518163ffffffff1660e01b8152600401602060405180830381865afa1580156116af573d6000803e3d6000fd5b505050506040513d601f19601f820116820180604052508101906116d39190614177565b909f909e50969c50929a50909850965094509192505050565b6116f4613601565b6001600160a01b0381166117435760405162461bcd60e51b8152602060048201526016602482015275496e76616c6964206f7261636c65206164647265737360501b6044820152606401610f28565b601380546001600160a01b0319166001600160a01b0392909216919091179055565b6001600160a01b03811660009081526009602052604081205460ff1661178d57506000919050565b6001600160a01b0382166000908152600b602052604081205490036117b457506000919050565b600154604051633fa7cafd60e11b81526001600160a01b038481166004830181905260248301526000921690637f4f95fa90604401606060405180830381865afa158015611806573d6000803e3d6000fd5b505050506040513d601f19601f8201168201806040525081019061182a9190614190565b505090508060000361183f5750600092915050565b6001600160a01b0383166000908152600c60205260408120546118629042613efd565b601354909150600090600160a01b900460ff16156118dc5760006118858461191a565b90508060000361189b5750600095945050505050565b6301e133806011546118ad91906141be565b836118c083670de0b6b3a76400006141be565b6118ca91906141be565b6118d491906141d5565b915050611912565b6118ec6301e133806127106141be565b82601054856118fb91906141be565b61190591906141be565b61190f91906141d5565b90505b949350505050565b600060035b6000811261197a576014816004811061193a5761193a613ee7565b60030201548310611968576014816004811061195857611958613ee7565b6003020160010154915050919050565b80611972816141f7565b91505061191f565b50600092915050565b600a8181548110610eb357600080fd5b600154604051638a11d7c960e01b81526001600160a01b038481166004830152600092839283928392839283926060921690638a11d7c990602401600060405180830381865afa1580156119eb573d6000803e3d6000fd5b505050506040513d6000823e601f3d908101601f19168201604052611a139190810190614041565b600154604051633fa7cafd60e11b8152949d50949b509550506001600160a01b039092169250637f4f95fa9150611a65908c9081906004016001600160a01b0392831681529116602082015260400190565b606060405180830381865afa158015611a82573d6000803e3d6000fd5b505050506040513d601f19601f82011682018060405250810190611aa69190614190565b505090519699959850966000969590945092505050565b611ac5613601565b6001600160a01b038116611b135760405162461bcd60e51b8152602060048201526015602482015274496e76616c69642061646d696e206164647265737360581b6044820152606401610f28565b6001600160a01b0381166000908152600d602052604090205460ff1615611b6f5760405162461bcd60e51b815260206004820152601060248201526f20b63932b0b23c9030b71030b236b4b760811b6044820152606401610f28565b6001600160a01b0381166000818152600d60209081526040808320805460ff19166001908117909155600e805491820181559093527fbb7b4a454dc3493923482f07822329ed19e8244eff582cc204f8554c3620c3fd90920180546001600160a01b0319168417905590519182527f44d6d25963f097ad14f29f06854a01f575648a1ef82f30e562ccd3889717e3399101611150565b611c0d613601565b611c17600061365b565b565b600f5460ff1615611c615760405162461bcd60e51b815260206004820152601260248201527110dbdb9d1c9858dd081a5cc81c185d5cd95960721b6044820152606401610f28565b6001600160a01b0381163214611cb95760405162461bcd60e51b815260206004820152601f60248201527f63616c6c65722073686f756c64206265207265616c2076616c696461746f72006044820152606401610f28565b6001600160a01b03811660009081526009602052604090205460ff16611d335760405162461bcd60e51b815260206004820152602960248201527f56616c696461746f72206e6f7420617070726f76656420666f7220616e6e75616044820152686c207265776172647360b81b6064820152608401610f28565b6000611d3e82611765565b905060008111611d905760405162461bcd60e51b815260206004820152601b60248201527f4e6f20616e6e75616c207265776172647320617661696c61626c6500000000006044820152606401610f28565b80471015611db05760405162461bcd60e51b8152600401610f2890614214565b6001600160a01b0382166000908152600c602052604090204290556005548111611df1578060056000828254611de69190613efd565b90915550611df79050565b60006005555b6001600160a01b03821660009081526007602052604081208054839290611e1f908490613946565b90915550506040516001600160a01b0383169082156108fc029083906000818181858888f19350505050158015611e5a573d6000803e3d6000fd5b50604080516001600160a01b03841681526020810183905242918101919091527f66f79629c03cd92f64c49d27760e90fd00ebc6f4ab63c8e3553228d9f62b3c01906060015b60405180910390a15050565b600f5460ff1615611ef45760405162461bcd60e51b815260206004820152601260248201527110dbdb9d1c9858dd081a5cc81c185d5cd95960721b6044820152606401610f28565b6001600160a01b0381163214611f4c5760405162461bcd60e51b815260206004820152601f60248201527f63616c6c65722073686f756c64206265207265616c2076616c696461746f72006044820152606401610f28565b6001600160a01b03811660009081526009602052604090205460ff16611fbf5760405162461bcd60e51b815260206004820152602260248201527f56616c696461746f72206e6f7420617070726f76656420666f72207265776172604482015261647360f01b6064820152608401610f28565b6000611fca82611765565b90506000811161201c5760405162461bcd60e51b815260206004820152601b60248201527f4e6f20616e6e75616c207265776172647320617661696c61626c6500000000006044820152606401610f28565b8047101561203c5760405162461bcd60e51b8152600401610f2890614214565b60015460405162362a7760e01b81526001600160a01b0384811660048301529091169062362a77906024016020604051808303816000875af1158015612086573d6000803e3d6000fd5b505050506040513d601f19601f820116820180604052508101906120aa919061424b565b506001600160a01b0382166000908152600c602052604090204290556005548111611df1578060056000828254611de69190613efd565b6000806120ed83611765565b9050806000036121005750600092915050565b670de0b6b3a76400006011548261211791906141be565b61212191906141d5565b9392505050565b336000908152600d602052604090205460ff168061215057506000546001600160a01b031633145b61216c5760405162461bcd60e51b8152600401610f2890614268565b61217682826136ab565b5050565b336000908152600d602052604090205460ff16806121a257506000546001600160a01b031633145b6121be5760405162461bcd60e51b8152600401610f2890614268565b600a546122065760405162461bcd60e51b81526020600482015260166024820152754e6f20617070726f7665642076616c696461746f727360501b6044820152606401610f28565b6000805b600a548110156122a3576000600a828154811061222957612229613ee7565b60009182526020822001546001600160a01b0316915061225e826001600160a01b031660009081526006602052604090205490565b9050801561228e576001600160a01b038216600090815260066020526040902081905561228b8185613946565b93505b5050808061229b90613f26565b91505061220a565b50436003556040517f4c7cb22838e004dd47d1cb8aabab908f17a2851609c953fb7547c066d5e41acf9061115090600a9084906142ae565b6001600160a01b0381166000908152600660209081526040808320546007909252822054610ed09190613946565b612311613601565b600f5460ff16156123645760405162461bcd60e51b815260206004820152601a60248201527f436f6e747261637420697320616c7265616479207061757365640000000000006044820152606401610f28565b600f805460ff19166001179055604080513381524260208201527f80170b5fcdd2bf1e0660ef4b8851f86685f64d41b1a19de1471947ece8725aac910161123c565b6001600160a01b038116600090815260096020908152604080832054600b835281842054600c9093529083205483928392839260ff90911691906123e988611765565b93509350935093509193509193565b336000908152600d602052604090205460ff168061242057506000546001600160a01b031633145b61243c5760405162461bcd60e51b8152600401610f2890614268565b43600355565b60015460405163a43569b360e01b81526001600160a01b03848116600483015260609283928392600092839283928392169063a43569b390602401600060405180830381865afa15801561249a573d6000803e3d6000fd5b505050506040513d6000823e601f3d908101601f191682016040526124c291908101906140c5565b600154604051633fa7cafd60e11b81526001600160a01b038c811660048301819052602483015292935060009290911690637f4f95fa90604401606060405180830381865afa158015612519573d6000803e3d6000fd5b505050506040513d601f19601f8201168201806040525081019061253d9190614190565b509094509050801561254f5760009392505b8161256f8b6001600160a01b031660009081526006602052604090205490565b604080516020808201835260008083528351918201909352918252929d929c509a5098509396509194509192505050565b336000908152600d602052604090205460ff16806125c857506000546001600160a01b031633145b6125e45760405162461bcd60e51b8152600401610f2890614268565b6001600160a01b0382166126365760405162461bcd60e51b8152602060048201526019602482015278496e76616c696420726563697069656e74206164647265737360381b6044820152606401610f28565b600081116126865760405162461bcd60e51b815260206004820152601d60248201527f416d6f756e74206d7573742062652067726561746572207468616e20300000006044820152606401610f28565b804710156126a65760405162461bcd60e51b8152600401610f2890614214565b60055481116126cc5780600560008282546126c19190613efd565b909155506126d29050565b60006005555b6040516001600160a01b0383169082156108fc029083906000818181858888f19350505050158015612708573d6000803e3d6000fd5b50604080516001600160a01b0384168152602081018390527f8c9a4f13b67cb64d7c6aa1ae0c9bf07694af521a28b93e7060020810ab4bc59f9101611ea0565b60006002543410156127ab5760405162461bcd60e51b815260206004820152602660248201527f506c65617365207374616b65206d696e696d756d2076616c696461746f72207360448201526574616b696e6760d01b6064820152608401610f28565b600154604051634cb9787360e11b81526001600160a01b0390911690639972f0e69034906127e190889088908890600401614307565b60206040518083038185885af11580156127ff573d6000803e3d6000fd5b50505050506040513d601f19601f82011682018060405250810190612824919061424b565b5060408051338152346020820152428183015290517f5af417134f72a9d41143ace85b0a26dce6f550f894f2cbc1eeee8810603d91b69181900360600190a15060019392505050565b612875613601565b60138054821515600160a01b0260ff60a01b199091161790556040517f6f11b565d62315d173899960e4f3b73812b539032680c62a1b233d5ebda3493f9061115090831515815260200190565b601481600481106128d257600080fd5b60030201805460018201546002830180549294509092916128f290614347565b80601f016020809104026020016040519081016040528092919081815260200182805461291e90614347565b801561296b5780601f106129405761010080835404028352916020019161296b565b820191906000526020600020905b81548152906001019060200180831161294e57829003601f168201915b5050505050905083565b336000908152600d602052604090205460ff168061299d57506000546001600160a01b031633145b6129b95760405162461bcd60e51b8152600401610f2890614268565b60005b82811015612a06576129f48484838181106129d9576129d9613ee7565b90506020020160208101906129ee919061396e565b836136ab565b806129fe81613f26565b9150506129bc565b50505050565b612a14613601565b4760056000828254612a269190613efd565b909155505060405133904780156108fc02916000818181858888f19350505050158015612a57573d6000803e3d6000fd5b50565b60015460408051635f322b4960e11b815290516000926001600160a01b03169163be6456929160048083019260209291908290030181865afa158015612aa4573d6000803e3d6000fd5b505050506040513d601f19601f82011682018060405250810190612ac89190614177565b905090565b6000806000612af1846001600160a01b031660009081526006602052604090205490565b9250612afc84611765565b9150612b088284613946565b929491935050565b612b18613601565b61c350811115612b785760405162461bcd60e51b815260206004820152602560248201527f416e6e75616c2072657761726420726174652063616e6e6f7420657863656564604482015264203530302560d81b6064820152608401610f28565b601055565b612b85613601565b43811115612bd55760405162461bcd60e51b815260206004820152601760248201527f43616e6e6f74207365742066757475726520626c6f636b0000000000000000006044820152606401610f28565b600355565b600154604051633fa7cafd60e11b81526001600160a01b03848116600483015283811660248301526000928392911690637f4f95fa90604401606060405180830381865afa158015612c30573d6000803e3d6000fd5b505050506040513d601f19601f82011682018060405250810190612c549190614190565b5091505080600003612c6a576000915050610ed0565b60015460408051631b6f1ba560e31b8152905143926001600160a01b03169163db78dd289160048083019260209291908290030181865afa158015612cb3573d6000803e3d6000fd5b505050506040513d601f19601f82011682018060405250810190612cd79190614381565b612cea906001600160401b031683613946565b1115612d8d5760015460408051631b6f1ba560e31b8152905143926001600160a01b03169163db78dd289160048083019260209291908290030181865afa158015612d39573d6000803e3d6000fd5b505050506040513d601f19601f82011682018060405250810190612d5d9190614381565b612d70906001600160401b031683613946565b612d7a9190613efd565b612d859060026141be565b915050610ed0565b5060009392505050565b6060600e805480602002602001604051908101604052809291908181526020018280548015612def57602002820191906000526020600020905b81546001600160a01b03168152600190910190602001808311612dd1575b5050505050905090565b612e01613601565b6001600160a01b038216612e535760405162461bcd60e51b8152602060048201526019602482015278496e76616c696420726563697069656e74206164647265737360381b6044820152606401610f28565b60008111612ea35760405162461bcd60e51b815260206004820152601d60248201527f416d6f756e74206d7573742062652067726561746572207468616e20300000006044820152606401610f28565b804710156126d25760405162461bcd60e51b8152600401610f2890614214565b600154604051633fa7cafd60e11b81526001600160a01b03838116600483018190526024830152600092606092849283928392839290911690637f4f95fa90604401606060405180830381865afa158015612f22573d6000803e3d6000fd5b505050506040513d601f19601f82011682018060405250810190612f469190614190565b50909250600390505b60148160048110612f6257612f62613ee7565b6003020154831061306657612f78816001613946565b60148260048110612f8b57612f8b613ee7565b6003020160020160148360048110612fa557612fa5613ee7565b600302015460148460048110612fbd57612fbd613ee7565b6003020160010154866001848054612fd490614347565b80601f016020809104026020016040519081016040528092919081815260200182805461300090614347565b801561304d5780601f106130225761010080835404028352916020019161304d565b820191906000526020600020905b81548152906001019060200180831161303057829003601f168201915b5050505050945096509650965096509650965050613078565b80613070816143aa565b915050612f4f565b91939550919395565b6013546001600160a01b03163314806130a457506000546001600160a01b031633145b6130f05760405162461bcd60e51b815260206004820152601e60248201527f4e6f7420617574686f72697a656420746f2075706461746520707269636500006044820152606401610f28565b600081116131405760405162461bcd60e51b815260206004820152601c60248201527f5072696365206d7573742062652067726561746572207468616e2030000000006044820152606401610f28565b620186a08111156131935760405162461bcd60e51b815260206004820152601a60248201527f507269636520746f6f206869676820286d6178202431303030290000000000006044820152606401610f28565b6154606012546131a39190613946565b4210156132075760405162461bcd60e51b815260206004820152602c60248201527f50726963652063616e206f6e6c792062652075706461746564206f6e6365206560448201526b76657279203620686f75727360a01b6064820152608401610f28565b60118190554260128190556040805183815260208101929092527f945c1c4e99aa89f648fbfe3df471b916f719e16d960fcec0737d4d56bd6968389101611150565b600080600160009054906101000a90046001600160a01b03166001600160a01b031663be6456926040518163ffffffff1660e01b8152600401602060405180830381865afa15801561329f573d6000803e3d6000fd5b505050506040513d601f19601f820116820180604052508101906132c39190614177565b6132cd8585612bda565b915091505b9250929050565b6132e1613601565b600485106133265760405162461bcd60e51b8152602060048201526012602482015271092dcecc2d8d2c840e8d2cae440d2dcc8caf60731b6044820152606401610f28565b600084116133845760405162461bcd60e51b815260206004820152602560248201527f5374616b696e6720616d6f756e74206d75737420626520677265617465722074604482015264068616e20360dc1b6064820152608401610f28565b600083116133e05760405162461bcd60e51b8152602060048201526024808201527f52657761726420616d6f756e74206d75737420626520677265617465722074686044820152630616e20360e41b6064820152608401610f28565b604051806060016040528085815260200184815260200183838080601f01602080910402602001604051908101604052809392919081815260200183838082843760009201919091525050509152506014866004811061344257613442613ee7565b600302016000820151816000015560208201518160010155604082015181600201908161346f9190614408565b5050505050505050565b60015460405163f2888dbb60e01b81526001600160a01b038381166004830152600092169063f2888dbb906024016020604051808303816000875af11580156134c6573d6000803e3d6000fd5b505050506040513d601f19601f820116820180604052508101906134ea919061424b565b50604080513381524260208201527f85082129d87b2fe11527cb1b3b7a520aeb5aa6913f88a3d8757fe40d1db02fdd910160405180910390a1506001919050565b613533613601565b6001600160a01b0381166135985760405162461bcd60e51b815260206004820152602660248201527f4f776e61626c653a206e6577206f776e657220697320746865207a65726f206160448201526564647265737360d01b6064820152608401610f28565b612a578161365b565b6060600a805480602002602001604051908101604052809291908181526020018280548015612def576020028201919060005260206000209081546001600160a01b03168152600190910190602001808311612dd1575050505050905090565b6000546001600160a01b03163314611c175760405162461bcd60e51b815260206004820181905260248201527f4f776e61626c653a2063616c6c6572206973206e6f7420746865206f776e65726044820152606401610f28565b600080546001600160a01b038381166001600160a01b0319831681178455604051919092169283917f8be0079c531659141344cd1fd0a4f28419497f9722a3daafe3b4186f6b6457e09190a35050565b6001600160a01b0382166137015760405162461bcd60e51b815260206004820152601960248201527f496e76616c69642076616c696461746f722061646472657373000000000000006044820152606401610f28565b6001600160a01b038216600090815260096020526040902080548215801560ff1983161790925560ff16908290613736575080155b156137a857600a8054600181019091557fc65a7bb8d6351c1cf70c95a316cc6a92839c986682d98bc35f958f4883f9d2a80180546001600160a01b0319166001600160a01b0385169081179091556000908152600b602090815260408083204290819055600c909252909120556138e8565b811580156137b35750805b156138e85760005b600a548110156138c057836001600160a01b0316600a82815481106137e2576137e2613ee7565b6000918252602090912001546001600160a01b0316036138ae57600a805461380c90600190613efd565b8154811061381c5761381c613ee7565b600091825260209091200154600a80546001600160a01b03909216918390811061384857613848613ee7565b9060005260206000200160006101000a8154816001600160a01b0302191690836001600160a01b03160217905550600a80548061388757613887613f10565b600082815260209020810160001990810180546001600160a01b03191690550190556138c0565b806138b881613f26565b9150506137bb565b506001600160a01b0383166000908152600b60209081526040808320839055600c9091528120555b604080516001600160a01b038516815283151560208201527f3425256fcfc5de0e47d9ccefa2353ed8d4176964e8f8d7c56c64d46736f36b90910160405180910390a1505050565b634e487b7160e01b600052601160045260246000fd5b80820180821115610ed057610ed0613930565b6001600160a01b0381168114612a5757600080fd5b60006020828403121561398057600080fd5b813561212181613959565b60006020828403121561399d57600080fd5b5035919050565b600080604083850312156139b757600080fd5b82356139c281613959565b915060208301356139d281613959565b809150509250929050565b600081518084526020808501945080840160005b83811015613a165781516001600160a01b0316875295820195908201906001016139f1565b509495945050505050565b634e487b7160e01b600052602160045260246000fd5b60058110613a5557634e487b7160e01b600052602160045260246000fd5b9052565b600081518084526020808501945080840160005b83811015613a1657815187529582019590820190600101613a6d565b60005b83811015613aa4578181015183820152602001613a8c565b50506000910152565b60008151808452613ac5816020860160208601613a89565b601f01601f19169290920160200192915050565b600081518084526020808501808196508360051b8101915082860160005b85811015613b21578284038952613b0f848351613aad565b98850198935090840190600101613af7565b5091979650505050505050565b87815260006020888184015260e06040840152613b4e60e08401896139dd565b838103606085015287518082528289019183019060005b81811015613b8857613b78838551613a37565b9284019291840191600101613b65565b50508481036080860152613b9c8189613a59565b9250505082810360a0840152613bb28186613ad9565b905082810360c0840152613bc68185613ad9565b9a9950505050505050505050565b86815260c08101613be86020830188613a37565b6040820195909552606081019390935260808301919091526001600160a01b031660a09091015292915050565b8015158114612a5757600080fd5b60008060408385031215613c3657600080fd5b8235613c4181613959565b915060208301356139d281613c15565b60c081526000613c6460c0830189613aad565b8281036020840152613c768189613aad565b90508281036040840152613c8a8188613aad565b60608401969096525050608081019290925260a0909101529392505050565b60008060408385031215613cbc57600080fd5b8235613cc781613959565b946020939093013593505050565b60008083601f840112613ce757600080fd5b5081356001600160401b03811115613cfe57600080fd5b6020830191508360208285010111156132d257600080fd5b600080600060408486031215613d2b57600080fd5b8335613d3681613959565b925060208401356001600160401b03811115613d5157600080fd5b613d5d86828701613cd5565b9497909650939450505050565b600060208284031215613d7c57600080fd5b813561212181613c15565b838152826020820152606060408201526000613da66060830184613aad565b95945050505050565b600080600060408486031215613dc457600080fd5b83356001600160401b0380821115613ddb57600080fd5b818601915086601f830112613def57600080fd5b813581811115613dfe57600080fd5b8760208260051b8501011115613e1357600080fd5b60209283019550935050840135613e2981613c15565b809150509250925092565b60208152600061212160208301846139dd565b86815260c060208201526000613e6060c0830188613aad565b905085604083015284606083015283608083015282151560a0830152979650505050505050565b600080600080600060808688031215613e9f57600080fd5b85359450602086013593506040860135925060608601356001600160401b03811115613eca57600080fd5b613ed688828901613cd5565b969995985093965092949392505050565b634e487b7160e01b600052603260045260246000fd5b81810381811115610ed057610ed0613930565b634e487b7160e01b600052603160045260246000fd5b600060018201613f3857613f38613930565b5060010190565b634e487b7160e01b600052604160045260246000fd5b604051601f8201601f191681016001600160401b0381118282101715613f7d57613f7d613f3f565b604052919050565b600082601f830112613f9657600080fd5b815160206001600160401b03821115613fb157613fb1613f3f565b8160051b613fc0828201613f55565b9283528481018201928281019087851115613fda57600080fd5b83870192505b84831015614002578251613ff381613959565b82529183019190830190613fe0565b979650505050505050565b60006020828403121561401f57600080fd5b81516001600160401b0381111561403557600080fd5b61191284828501613f85565b60008060008060008060c0878903121561405a57600080fd5b865161406581613959565b60208801519096506005811061407a57600080fd5b8095505060408701519350606087015192506080870151915060a08701516001600160401b038111156140ac57600080fd5b6140b889828a01613f85565b9150509295509295509295565b6000602082840312156140d757600080fd5b81516001600160401b03808211156140ee57600080fd5b818401915084601f83011261410257600080fd5b81518181111561411457614114613f3f565b614127601f8201601f1916602001613f55565b915080825285602082850101111561413e57600080fd5b61414f816020840160208601613a89565b50949350505050565b600060ff821660ff810361416e5761416e613930565b60010192915050565b60006020828403121561418957600080fd5b5051919050565b6000806000606084860312156141a557600080fd5b8351925060208401519150604084015190509250925092565b8082028115828204841417610ed057610ed0613930565b6000826141f257634e487b7160e01b600052601260045260246000fd5b500490565b6000600160ff1b820161420c5761420c613930565b506000190190565b6020808252601d908201527f496e73756666696369656e7420636f6e74726163742062616c616e6365000000604082015260600190565b60006020828403121561425d57600080fd5b815161212181613c15565b60208082526026908201527f4e6f7420617574686f72697a65643a206d7573742062652061646d696e206f726040820152651037bbb732b960d11b606082015260800190565b6000604082016040835280855480835260608501915086600052602092508260002060005b828110156142f85781546001600160a01b0316845292840192600191820191016142d3565b50505092019290925292915050565b6001600160a01b03841681526040602082018190528101829052818360608301376000818301606090810191909152601f909201601f1916010192915050565b600181811c9082168061435b57607f821691505b60208210810361437b57634e487b7160e01b600052602260045260246000fd5b50919050565b60006020828403121561439357600080fd5b81516001600160401b038116811461212157600080fd5b60008161420c5761420c613930565b601f82111561440357600081815260208120601f850160051c810160208610156143e05750805b601f850160051c820191505b818110156143ff578281556001016143ec565b5050505b505050565b81516001600160401b0381111561442157614421613f3f565b6144358161442f8454614347565b846143b9565b602080601f83116001811461446a57600084156144525750858301515b600019600386901b1c1916600185901b1785556143ff565b600085815260208120601f198616915b828110156144995788860151825594840194600190910190840161447a565b50858210156144b75787850151600019600388901b60f8161c191681555b5050505050600190811b0190555056fea26469706673582212203b048863aa438f294d67ce0e230d5612fddd0b43c401f05708ae36fcd4f498cf64736f6c63430008110033",
			"opcodes": "PUSH1 0x80 PUSH1 0x40 MSTORE PUSH1 0x1 DUP1 SLOAD PUSH1 0x1 PUSH1 0x1 PUSH1 0xA0 SHL SUB NOT AND PUSH2 0xF000 OR SWAP1 SSTORE PUSH9 0xD5F7A0E3E5D2CC0000 PUSH1 0x2 SSTORE PUSH8 0xDE0B6B3A7640000 PUSH1 0x4 SSTORE PUSH1 0xF DUP1 SLOAD PUSH1 0xFF NOT AND SWAP1 SSTORE PUSH2 0x2710 PUSH1 0x10 SSTORE PUSH1 0x26 PUSH1 0x11 SSTORE PUSH1 0x13 DUP1 SLOAD PUSH1 0xFF PUSH1 0xA0 SHL NOT AND PUSH1 0x1 PUSH1 0xA0 SHL OR SWAP1 SSTORE CALLVALUE DUP1 ISZERO PUSH3 0x66 JUMPI PUSH1 0x0 DUP1 REVERT JUMPDEST POP PUSH3 0x72 CALLER PUSH3 0x2EC JUMP JUMPDEST CALLER PUSH1 0x0 DUP2 DUP2 MSTORE PUSH1 0xD PUSH1 0x20 SWAP1 DUP2 MSTORE PUSH1 0x40 DUP1 DUP4 KECCAK256 DUP1 SLOAD PUSH1 0xFF NOT AND PUSH1 0x1 SWAP1 DUP2 OR SWAP1 SWAP2 SSTORE PUSH1 0xE DUP1 SLOAD SWAP2 DUP3 ADD DUP2 SSTORE SWAP1 SWAP4 MSTORE PUSH32 0xBB7B4A454DC3493923482F07822329ED19E8244EFF582CC204F8554C3620C3FD SWAP1 SWAP3 ADD DUP1 SLOAD PUSH1 0x1 PUSH1 0x1 PUSH1 0xA0 SHL SUB NOT AND SWAP1 SWAP4 OR SWAP1 SWAP3 SSTORE DUP1 MLOAD PUSH1 0x60 DUP2 ADD DUP3 MSTORE PUSH9 0xD5F7A0E3E5D2CC0000 DUP2 MSTORE PUSH3 0x249F0 DUP2 DUP5 ADD SWAP1 DUP2 MSTORE DUP3 MLOAD DUP1 DUP5 ADD DUP5 MSTORE PUSH1 0x6 DUP2 MSTORE PUSH6 0x42726F6E7A65 PUSH1 0xD0 SHL SWAP5 DUP2 ADD SWAP5 SWAP1 SWAP5 MSTORE SWAP2 DUP2 ADD DUP4 SWAP1 MSTORE DUP1 MLOAD PUSH1 0x14 SWAP1 DUP2 SSTORE SWAP2 MLOAD PUSH1 0x15 SSTORE SWAP2 PUSH1 0x16 SWAP1 PUSH3 0x130 SWAP1 DUP3 PUSH3 0x3F7 JUMP JUMPDEST POP SWAP1 POP POP PUSH1 0x40 MLOAD DUP1 PUSH1 0x60 ADD PUSH1 0x40 MSTORE DUP1 PUSH10 0x85BE3CBC1C8D9880000 DUP2 MSTORE PUSH1 0x20 ADD PUSH3 0x16E360 DUP2 MSTORE PUSH1 0x20 ADD PUSH1 0x40 MLOAD DUP1 PUSH1 0x40 ADD PUSH1 0x40 MSTORE DUP1 PUSH1 0x6 DUP2 MSTORE PUSH1 0x20 ADD PUSH6 0x29B4B63B32B9 PUSH1 0xD1 SHL DUP2 MSTORE POP DUP2 MSTORE POP PUSH1 0x14 PUSH1 0x1 PUSH1 0x4 DUP2 LT PUSH3 0x191 JUMPI PUSH3 0x191 PUSH3 0x33C JUMP JUMPDEST PUSH1 0x3 MUL ADD PUSH1 0x0 DUP3 ADD MLOAD DUP2 PUSH1 0x0 ADD SSTORE PUSH1 0x20 DUP3 ADD MLOAD DUP2 PUSH1 0x1 ADD SSTORE PUSH1 0x40 DUP3 ADD MLOAD DUP2 PUSH1 0x2 ADD SWAP1 DUP2 PUSH3 0x1C0 SWAP2 SWAP1 PUSH3 0x3F7 JUMP JUMPDEST POP SWAP1 POP POP PUSH1 0x40 MLOAD DUP1 PUSH1 0x60 ADD PUSH1 0x40 MSTORE DUP1 PUSH10 0x5396BC536DBD89240000 DUP2 MSTORE PUSH1 0x20 ADD PUSH3 0xE4E1C0 DUP2 MSTORE PUSH1 0x20 ADD PUSH1 0x40 MLOAD DUP1 PUSH1 0x40 ADD PUSH1 0x40 MSTORE DUP1 PUSH1 0x4 DUP2 MSTORE PUSH1 0x20 ADD PUSH4 0x11DBDB19 PUSH1 0xE2 SHL DUP2 MSTORE POP DUP2 MSTORE POP PUSH1 0x14 PUSH1 0x2 PUSH1 0x4 DUP2 LT PUSH3 0x21F JUMPI PUSH3 0x21F PUSH3 0x33C JUMP JUMPDEST PUSH1 0x3 MUL ADD PUSH1 0x0 DUP3 ADD MLOAD DUP2 PUSH1 0x0 ADD SSTORE PUSH1 0x20 DUP3 ADD MLOAD DUP2 PUSH1 0x1 ADD SSTORE PUSH1 0x40 DUP3 ADD MLOAD DUP2 PUSH1 0x2 ADD SWAP1 DUP2 PUSH3 0x24E SWAP2 SWAP1 PUSH3 0x3F7 JUMP JUMPDEST POP SWAP1 POP POP PUSH1 0x40 MLOAD DUP1 PUSH1 0x60 ADD PUSH1 0x40 MSTORE DUP1 PUSH11 0x343E33F80DC000CA00000 DUP2 MSTORE PUSH1 0x20 ADD PUSH4 0x8F0D180 DUP2 MSTORE PUSH1 0x20 ADD PUSH1 0x40 MLOAD DUP1 PUSH1 0x40 ADD PUSH1 0x40 MSTORE DUP1 PUSH1 0x8 DUP2 MSTORE PUSH1 0x20 ADD PUSH8 0x506C6174696E756D PUSH1 0xC0 SHL DUP2 MSTORE POP DUP2 MSTORE POP PUSH1 0x14 PUSH1 0x3 PUSH1 0x4 DUP2 LT PUSH3 0x2B3 JUMPI PUSH3 0x2B3 PUSH3 0x33C JUMP JUMPDEST PUSH1 0x3 MUL ADD PUSH1 0x0 DUP3 ADD MLOAD DUP2 PUSH1 0x0 ADD SSTORE PUSH1 0x20 DUP3 ADD MLOAD DUP2 PUSH1 0x1 ADD SSTORE PUSH1 0x40 DUP3 ADD MLOAD DUP2 PUSH1 0x2 ADD SWAP1 DUP2 PUSH3 0x2E2 SWAP2 SWAP1 PUSH3 0x3F7 JUMP JUMPDEST POP SWAP1 POP POP PUSH3 0x4C3 JUMP JUMPDEST PUSH1 0x0 DUP1 SLOAD PUSH1 0x1 PUSH1 0x1 PUSH1 0xA0 SHL SUB DUP4 DUP2 AND PUSH1 0x1 PUSH1 0x1 PUSH1 0xA0 SHL SUB NOT DUP4 AND DUP2 OR DUP5 SSTORE PUSH1 0x40 MLOAD SWAP2 SWAP1 SWAP3 AND SWAP3 DUP4 SWAP2 PUSH32 0x8BE0079C531659141344CD1FD0A4F28419497F9722A3DAAFE3B4186F6B6457E0 SWAP2 SWAP1 LOG3 POP POP JUMP JUMPDEST PUSH4 0x4E487B71 PUSH1 0xE0 SHL PUSH1 0x0 MSTORE PUSH1 0x32 PUSH1 0x4 MSTORE PUSH1 0x24 PUSH1 0x0 REVERT JUMPDEST PUSH4 0x4E487B71 PUSH1 0xE0 SHL PUSH1 0x0 MSTORE PUSH1 0x41 PUSH1 0x4 MSTORE PUSH1 0x24 PUSH1 0x0 REVERT JUMPDEST PUSH1 0x1 DUP2 DUP2 SHR SWAP1 DUP3 AND DUP1 PUSH3 0x37D JUMPI PUSH1 0x7F DUP3 AND SWAP2 POP JUMPDEST PUSH1 0x20 DUP3 LT DUP2 SUB PUSH3 0x39E JUMPI PUSH4 0x4E487B71 PUSH1 0xE0 SHL PUSH1 0x0 MSTORE PUSH1 0x22 PUSH1 0x4 MSTORE PUSH1 0x24 PUSH1 0x0 REVERT JUMPDEST POP SWAP2 SWAP1 POP JUMP JUMPDEST PUSH1 0x1F DUP3 GT ISZERO PUSH3 0x3F2 JUMPI PUSH1 0x0 DUP2 DUP2 MSTORE PUSH1 0x20 DUP2 KECCAK256 PUSH1 0x1F DUP6 ADD PUSH1 0x5 SHR DUP2 ADD PUSH1 0x20 DUP7 LT ISZERO PUSH3 0x3CD JUMPI POP DUP1 JUMPDEST PUSH1 0x1F DUP6 ADD PUSH1 0x5 SHR DUP3 ADD SWAP2 POP JUMPDEST DUP2 DUP2 LT ISZERO PUSH3 0x3EE JUMPI DUP3 DUP2 SSTORE PUSH1 0x1 ADD PUSH3 0x3D9 JUMP JUMPDEST POP POP POP JUMPDEST POP POP POP JUMP JUMPDEST DUP2 MLOAD PUSH1 0x1 PUSH1 0x1 PUSH1 0x40 SHL SUB DUP2 GT ISZERO PUSH3 0x413 JUMPI PUSH3 0x413 PUSH3 0x352 JUMP JUMPDEST PUSH3 0x42B DUP2 PUSH3 0x424 DUP5 SLOAD PUSH3 0x368 JUMP JUMPDEST DUP5 PUSH3 0x3A4 JUMP JUMPDEST PUSH1 0x20 DUP1 PUSH1 0x1F DUP4 GT PUSH1 0x1 DUP2 EQ PUSH3 0x463 JUMPI PUSH1 0x0 DUP5 ISZERO PUSH3 0x44A JUMPI POP DUP6 DUP4 ADD MLOAD JUMPDEST PUSH1 0x0 NOT PUSH1 0x3 DUP7 SWAP1 SHL SHR NOT AND PUSH1 0x1 DUP6 SWAP1 SHL OR DUP6 SSTORE PUSH3 0x3EE JUMP JUMPDEST PUSH1 0x0 DUP6 DUP2 MSTORE PUSH1 0x20 DUP2 KECCAK256 PUSH1 0x1F NOT DUP7 AND SWAP2 JUMPDEST DUP3 DUP2 LT ISZERO PUSH3 0x494 JUMPI DUP9 DUP7 ADD MLOAD DUP3 SSTORE SWAP5 DUP5 ADD SWAP5 PUSH1 0x1 SWAP1 SWAP2 ADD SWAP1 DUP5 ADD PUSH3 0x473 JUMP JUMPDEST POP DUP6 DUP3 LT ISZERO PUSH3 0x4B3 JUMPI DUP8 DUP6 ADD MLOAD PUSH1 0x0 NOT PUSH1 0x3 DUP9 SWAP1 SHL PUSH1 0xF8 AND SHR NOT AND DUP2 SSTORE JUMPDEST POP POP POP POP POP PUSH1 0x1 SWAP1 DUP2 SHL ADD SWAP1 SSTORE POP JUMP JUMPDEST PUSH2 0x44FD DUP1 PUSH3 0x4D3 PUSH1 0x0 CODECOPY PUSH1 0x0 RETURN INVALID PUSH1 0x80 PUSH1 0x40 MSTORE PUSH1 0x4 CALLDATASIZE LT PUSH2 0x456 JUMPI PUSH1 0x0 CALLDATALOAD PUSH1 0xE0 SHR DUP1 PUSH4 0x797327AE GT PUSH2 0x23F JUMPI DUP1 PUSH4 0xB0D2D011 GT PUSH2 0x139 JUMPI DUP1 PUSH4 0xE06D3AF9 GT PUSH2 0xB6 JUMPI DUP1 PUSH4 0xEFE22266 GT PUSH2 0x7A JUMPI DUP1 PUSH4 0xEFE22266 EQ PUSH2 0xDFE JUMPI DUP1 PUSH4 0xF188DF2B EQ PUSH2 0xE14 JUMPI DUP1 PUSH4 0xF2888DBB EQ PUSH2 0xE41 JUMPI DUP1 PUSH4 0xF2FDE38B EQ PUSH2 0xE61 JUMPI DUP1 PUSH4 0xF6EF33FD EQ PUSH2 0xE81 JUMPI PUSH1 0x0 DUP1 REVERT JUMPDEST DUP1 PUSH4 0xE06D3AF9 EQ PUSH2 0xD44 JUMPI DUP1 PUSH4 0xE1B6D9D4 EQ PUSH2 0xD64 JUMPI DUP1 PUSH4 0xE6A69AB8 EQ PUSH2 0xD99 JUMPI DUP1 PUSH4 0xE93A6C90 EQ PUSH2 0xDB1 JUMPI DUP1 PUSH4 0xED95D022 EQ PUSH2 0xDDE JUMPI PUSH1 0x0 DUP1 REVERT JUMPDEST DUP1 PUSH4 0xC85FE8CF GT PUSH2 0xFD JUMPI DUP1 PUSH4 0xC85FE8CF EQ PUSH2 0xC90 JUMPI DUP1 PUSH4 0xD4AA673B EQ PUSH2 0xCB0 JUMPI DUP1 PUSH4 0xD9F774FC EQ PUSH2 0xCD0 JUMPI DUP1 PUSH4 0xDBF0F3E2 EQ PUSH2 0xCF2 JUMPI DUP1 PUSH4 0xDEFE370C EQ PUSH2 0xD12 JUMPI PUSH1 0x0 DUP1 REVERT JUMPDEST DUP1 PUSH4 0xB0D2D011 EQ PUSH2 0xBE7 JUMPI DUP1 PUSH4 0xB187BD26 EQ PUSH2 0xBFC JUMPI DUP1 PUSH4 0xB3EFF0EF EQ PUSH2 0xC14 JUMPI DUP1 PUSH4 0xBD0EB369 EQ PUSH2 0xC4F JUMPI DUP1 PUSH4 0xC61CE437 EQ PUSH2 0xC6F JUMPI PUSH1 0x0 DUP1 REVERT JUMPDEST DUP1 PUSH4 0x90EFE56D GT PUSH2 0x1C7 JUMPI DUP1 PUSH4 0x9EDFE49E GT PUSH2 0x18B JUMPI DUP1 PUSH4 0x9EDFE49E EQ PUSH2 0xB43 JUMPI DUP1 PUSH4 0xA753594B EQ PUSH2 0xB63 JUMPI DUP1 PUSH4 0xAE7AB3E8 EQ PUSH2 0xB92 JUMPI DUP1 PUSH4 0xAFBBC803 EQ PUSH2 0xBB2 JUMPI DUP1 PUSH4 0xB0806108 EQ PUSH2 0xBD2 JUMPI PUSH1 0x0 DUP1 REVERT JUMPDEST DUP1 PUSH4 0x90EFE56D EQ PUSH2 0xA9C JUMPI DUP1 PUSH4 0x914673F7 EQ PUSH2 0xACE JUMPI DUP1 PUSH4 0x95082D25 EQ PUSH2 0xAFB JUMPI DUP1 PUSH4 0x990DC9DB EQ PUSH2 0xB10 JUMPI DUP1 PUSH4 0x9972F0E6 EQ PUSH2 0xB30 JUMPI PUSH1 0x0 DUP1 REVERT JUMPDEST DUP1 PUSH4 0x84B813A2 GT PUSH2 0x20E JUMPI DUP1 PUSH4 0x84B813A2 EQ PUSH2 0x9FC JUMPI DUP1 PUSH4 0x8AE53DBD EQ PUSH2 0xA3E JUMPI DUP1 PUSH4 0x8B7BF3EB EQ PUSH2 0xA54 JUMPI DUP1 PUSH4 0x8DA5CB5B EQ PUSH2 0xA69 JUMPI DUP1 PUSH4 0x8DF70D73 EQ PUSH2 0xA87 JUMPI PUSH1 0x0 DUP1 REVERT JUMPDEST DUP1 PUSH4 0x797327AE EQ PUSH2 0x991 JUMPI DUP1 PUSH4 0x7E5CD35F EQ PUSH2 0x9B2 JUMPI DUP1 PUSH4 0x7FC5E1E5 EQ PUSH2 0x9C7 JUMPI DUP1 PUSH4 0x8456CB59 EQ PUSH2 0x9E7 JUMPI PUSH1 0x0 DUP1 REVERT JUMPDEST DUP1 PUSH4 0x429B62E5 GT PUSH2 0x350 JUMPI DUP1 PUSH4 0x64877981 GT PUSH2 0x2D8 JUMPI DUP1 PUSH4 0x715018A6 GT PUSH2 0x29C JUMPI DUP1 PUSH4 0x715018A6 EQ PUSH2 0x8FC JUMPI DUP1 PUSH4 0x715C68E5 EQ PUSH2 0x911 JUMPI DUP1 PUSH4 0x72D30A70 EQ PUSH2 0x931 JUMPI DUP1 PUSH4 0x7432FEB6 EQ PUSH2 0x951 JUMPI DUP1 PUSH4 0x794CB263 EQ PUSH2 0x971 JUMPI PUSH1 0x0 DUP1 REVERT JUMPDEST DUP1 PUSH4 0x64877981 EQ PUSH2 0x851 JUMPI DUP1 PUSH4 0x67B40CF7 EQ PUSH2 0x883 JUMPI DUP1 PUSH4 0x6949FAEB EQ PUSH2 0x8B0 JUMPI DUP1 PUSH4 0x70480275 EQ PUSH2 0x8C6 JUMPI DUP1 PUSH4 0x7148EBCE EQ PUSH2 0x8E6 JUMPI PUSH1 0x0 DUP1 REVERT JUMPDEST DUP1 PUSH4 0x58AE4E99 GT PUSH2 0x31F JUMPI DUP1 PUSH4 0x58AE4E99 EQ PUSH2 0x52A JUMPI DUP1 PUSH4 0x5C975ABB EQ PUSH2 0x7D7 JUMPI DUP1 PUSH4 0x5DC33541 EQ PUSH2 0x7F1 JUMPI DUP1 PUSH4 0x5FC44D54 EQ PUSH2 0x811 JUMPI DUP1 PUSH4 0x62F25AB3 EQ PUSH2 0x831 JUMPI PUSH1 0x0 DUP1 REVERT JUMPDEST DUP1 PUSH4 0x429B62E5 EQ PUSH2 0x738 JUMPI DUP1 PUSH4 0x49E1F831 EQ PUSH2 0x768 JUMPI DUP1 PUSH4 0x4CC67B5B EQ PUSH2 0x7A1 JUMPI DUP1 PUSH4 0x530E784F EQ PUSH2 0x7B7 JUMPI PUSH1 0x0 DUP1 REVERT JUMPDEST DUP1 PUSH4 0x1D06022C GT PUSH2 0x3DE JUMPI DUP1 PUSH4 0x2B3BA681 GT PUSH2 0x3A2 JUMPI DUP1 PUSH4 0x2B3BA681 EQ PUSH2 0x681 JUMPI DUP1 PUSH4 0x330227BF EQ PUSH2 0x697 JUMPI DUP1 PUSH4 0x3F4BA83A EQ PUSH2 0x6E6 JUMPI DUP1 PUSH4 0x3F8DC65A EQ PUSH2 0x6FB JUMPI DUP1 PUSH4 0x40A8F524 EQ PUSH2 0x723 JUMPI PUSH1 0x0 DUP1 REVERT JUMPDEST DUP1 PUSH4 0x1D06022C EQ PUSH2 0x5D6 JUMPI DUP1 PUSH4 0x1E724CAA EQ PUSH2 0x5F6 JUMPI DUP1 PUSH4 0x2282BDD8 EQ PUSH2 0x62C JUMPI DUP1 PUSH4 0x24D7806C EQ PUSH2 0x641 JUMPI DUP1 PUSH4 0x2630C12F EQ PUSH2 0x661 JUMPI PUSH1 0x0 DUP1 REVERT JUMPDEST DUP1 PUSH4 0x14306168 GT PUSH2 0x425 JUMPI DUP1 PUSH4 0x14306168 EQ PUSH2 0x52A JUMPI DUP1 PUSH4 0x1715D015 EQ PUSH2 0x54A JUMPI DUP1 PUSH4 0x1785F53C EQ PUSH2 0x560 JUMPI DUP1 PUSH4 0x19262257 EQ PUSH2 0x580 JUMPI DUP1 PUSH4 0x1C00AB09 EQ PUSH2 0x596 JUMPI PUSH1 0x0 DUP1 REVERT JUMPDEST DUP1 PUSH4 0x1D76879 EQ PUSH2 0x47A JUMPI DUP1 PUSH4 0x292AC66 EQ PUSH2 0x4BA JUMPI DUP1 PUSH4 0x976C65D EQ PUSH2 0x4DC JUMPI DUP1 PUSH4 0x11117FC8 EQ PUSH2 0x4F2 JUMPI PUSH1 0x0 DUP1 REVERT JUMPDEST CALLDATASIZE PUSH2 0x475 JUMPI CALLVALUE PUSH1 0x5 PUSH1 0x0 DUP3 DUP3 SLOAD PUSH2 0x46D SWAP2 SWAP1 PUSH2 0x3946 JUMP JUMPDEST SWAP3 POP POP DUP2 SWAP1 SSTORE STOP JUMPDEST PUSH1 0x0 DUP1 REVERT JUMPDEST CALLVALUE DUP1 ISZERO PUSH2 0x486 JUMPI PUSH1 0x0 DUP1 REVERT JUMPDEST POP PUSH2 0x4A7 PUSH2 0x495 CALLDATASIZE PUSH1 0x4 PUSH2 0x396E JUMP JUMPDEST PUSH1 0xB PUSH1 0x20 MSTORE PUSH1 0x0 SWAP1 DUP2 MSTORE PUSH1 0x40 SWAP1 KECCAK256 SLOAD DUP2 JUMP JUMPDEST PUSH1 0x40 MLOAD SWAP1 DUP2 MSTORE PUSH1 0x20 ADD JUMPDEST PUSH1 0x40 MLOAD DUP1 SWAP2 SUB SWAP1 RETURN JUMPDEST CALLVALUE DUP1 ISZERO PUSH2 0x4C6 JUMPI PUSH1 0x0 DUP1 REVERT JUMPDEST POP PUSH2 0x4DA PUSH2 0x4D5 CALLDATASIZE PUSH1 0x4 PUSH2 0x398B JUMP JUMPDEST PUSH2 0xE96 JUMP JUMPDEST STOP JUMPDEST CALLVALUE DUP1 ISZERO PUSH2 0x4E8 JUMPI PUSH1 0x0 DUP1 REVERT JUMPDEST POP PUSH2 0x4A7 PUSH1 0x2 SLOAD DUP2 JUMP JUMPDEST CALLVALUE DUP1 ISZERO PUSH2 0x4FE JUMPI PUSH1 0x0 DUP1 REVERT JUMPDEST POP PUSH2 0x512 PUSH2 0x50D CALLDATASIZE PUSH1 0x4 PUSH2 0x398B JUMP JUMPDEST PUSH2 0xEA3 JUMP JUMPDEST PUSH1 0x40 MLOAD PUSH1 0x1 PUSH1 0x1 PUSH1 0xA0 SHL SUB SWAP1 SWAP2 AND DUP2 MSTORE PUSH1 0x20 ADD PUSH2 0x4B1 JUMP JUMPDEST CALLVALUE DUP1 ISZERO PUSH2 0x536 JUMPI PUSH1 0x0 DUP1 REVERT JUMPDEST POP PUSH2 0x4A7 PUSH2 0x545 CALLDATASIZE PUSH1 0x4 PUSH2 0x39A4 JUMP JUMPDEST PUSH2 0xECD JUMP JUMPDEST CALLVALUE DUP1 ISZERO PUSH2 0x556 JUMPI PUSH1 0x0 DUP1 REVERT JUMPDEST POP PUSH2 0x4A7 PUSH1 0x10 SLOAD DUP2 JUMP JUMPDEST CALLVALUE DUP1 ISZERO PUSH2 0x56C JUMPI PUSH1 0x0 DUP1 REVERT JUMPDEST POP PUSH2 0x4DA PUSH2 0x57B CALLDATASIZE PUSH1 0x4 PUSH2 0x396E JUMP JUMPDEST PUSH2 0xED6 JUMP JUMPDEST CALLVALUE DUP1 ISZERO PUSH2 0x58C JUMPI PUSH1 0x0 DUP1 REVERT JUMPDEST POP PUSH2 0x4A7 PUSH2 0x5460 DUP2 JUMP JUMPDEST CALLVALUE DUP1 ISZERO PUSH2 0x5A2 JUMPI PUSH1 0x0 DUP1 REVERT JUMPDEST POP PUSH2 0x5C6 PUSH2 0x5B1 CALLDATASIZE PUSH1 0x4 PUSH2 0x396E JUMP JUMPDEST PUSH1 0x9 PUSH1 0x20 MSTORE PUSH1 0x0 SWAP1 DUP2 MSTORE PUSH1 0x40 SWAP1 KECCAK256 SLOAD PUSH1 0xFF AND DUP2 JUMP JUMPDEST PUSH1 0x40 MLOAD SWAP1 ISZERO ISZERO DUP2 MSTORE PUSH1 0x20 ADD PUSH2 0x4B1 JUMP JUMPDEST CALLVALUE DUP1 ISZERO PUSH2 0x5E2 JUMPI PUSH1 0x0 DUP1 REVERT JUMPDEST POP PUSH2 0x4DA PUSH2 0x5F1 CALLDATASIZE PUSH1 0x4 PUSH2 0x398B JUMP JUMPDEST PUSH2 0x115B JUMP JUMPDEST CALLVALUE DUP1 ISZERO PUSH2 0x602 JUMPI PUSH1 0x0 DUP1 REVERT JUMPDEST POP PUSH2 0x4A7 PUSH2 0x611 CALLDATASIZE PUSH1 0x4 PUSH2 0x396E JUMP JUMPDEST PUSH1 0x1 PUSH1 0x1 PUSH1 0xA0 SHL SUB AND PUSH1 0x0 SWAP1 DUP2 MSTORE PUSH1 0x6 PUSH1 0x20 MSTORE PUSH1 0x40 SWAP1 KECCAK256 SLOAD SWAP1 JUMP JUMPDEST CALLVALUE DUP1 ISZERO PUSH2 0x638 JUMPI PUSH1 0x0 DUP1 REVERT JUMPDEST POP PUSH2 0x4DA PUSH2 0x1168 JUMP JUMPDEST CALLVALUE DUP1 ISZERO PUSH2 0x64D JUMPI PUSH1 0x0 DUP1 REVERT JUMPDEST POP PUSH2 0x5C6 PUSH2 0x65C CALLDATASIZE PUSH1 0x4 PUSH2 0x396E JUMP JUMPDEST PUSH2 0x1177 JUMP JUMPDEST CALLVALUE DUP1 ISZERO PUSH2 0x66D JUMPI PUSH1 0x0 DUP1 REVERT JUMPDEST POP PUSH1 0x13 SLOAD PUSH2 0x512 SWAP1 PUSH1 0x1 PUSH1 0x1 PUSH1 0xA0 SHL SUB AND DUP2 JUMP JUMPDEST CALLVALUE DUP1 ISZERO PUSH2 0x68D JUMPI PUSH1 0x0 DUP1 REVERT JUMPDEST POP PUSH2 0x4A7 PUSH2 0x2710 DUP2 JUMP JUMPDEST CALLVALUE DUP1 ISZERO PUSH2 0x6A3 JUMPI PUSH1 0x0 DUP1 REVERT JUMPDEST POP PUSH1 0x11 SLOAD PUSH1 0x12 SLOAD PUSH1 0x13 SLOAD PUSH1 0x40 DUP1 MLOAD SWAP4 DUP5 MSTORE PUSH1 0x20 DUP5 ADD SWAP3 SWAP1 SWAP3 MSTORE PUSH1 0x1 PUSH1 0x1 PUSH1 0xA0 SHL SUB DUP2 AND SWAP2 DUP4 ADD SWAP2 SWAP1 SWAP2 MSTORE PUSH1 0x1 PUSH1 0xA0 SHL SWAP1 DIV PUSH1 0xFF AND ISZERO ISZERO PUSH1 0x60 DUP3 ADD MSTORE PUSH1 0x80 ADD PUSH2 0x4B1 JUMP JUMPDEST CALLVALUE DUP1 ISZERO PUSH2 0x6F2 JUMPI PUSH1 0x0 DUP1 REVERT JUMPDEST POP PUSH2 0x4DA PUSH2 0x11AE JUMP JUMPDEST CALLVALUE DUP1 ISZERO PUSH2 0x707 JUMPI PUSH1 0x0 DUP1 REVERT JUMPDEST POP PUSH2 0x710 PUSH2 0x1246 JUMP JUMPDEST PUSH1 0x40 MLOAD PUSH2 0x4B1 SWAP8 SWAP7 SWAP6 SWAP5 SWAP4 SWAP3 SWAP2 SWAP1 PUSH2 0x3B2E JUMP JUMPDEST CALLVALUE DUP1 ISZERO PUSH2 0x72F JUMPI PUSH1 0x0 DUP1 REVERT JUMPDEST POP PUSH1 0xA SLOAD PUSH2 0x4A7 JUMP JUMPDEST CALLVALUE DUP1 ISZERO PUSH2 0x744 JUMPI PUSH1 0x0 DUP1 REVERT JUMPDEST POP PUSH2 0x5C6 PUSH2 0x753 CALLDATASIZE PUSH1 0x4 PUSH2 0x396E JUMP JUMPDEST PUSH1 0xD PUSH1 0x20 MSTORE PUSH1 0x0 SWAP1 DUP2 MSTORE PUSH1 0x40 SWAP1 KECCAK256 SLOAD PUSH1 0xFF AND DUP2 JUMP JUMPDEST CALLVALUE DUP1 ISZERO PUSH2 0x774 JUMPI PUSH1 0x0 DUP1 REVERT JUMPDEST POP PUSH2 0x5C6 PUSH2 0x783 CALLDATASIZE PUSH1 0x4 PUSH2 0x396E JUMP JUMPDEST PUSH1 0x1 PUSH1 0x1 PUSH1 0xA0 SHL SUB AND PUSH1 0x0 SWAP1 DUP2 MSTORE PUSH1 0x9 PUSH1 0x20 MSTORE PUSH1 0x40 SWAP1 KECCAK256 SLOAD PUSH1 0xFF AND SWAP1 JUMP JUMPDEST CALLVALUE DUP1 ISZERO PUSH2 0x7AD JUMPI PUSH1 0x0 DUP1 REVERT JUMPDEST POP PUSH2 0x4A7 PUSH1 0x3 SLOAD DUP2 JUMP JUMPDEST CALLVALUE DUP1 ISZERO PUSH2 0x7C3 JUMPI PUSH1 0x0 DUP1 REVERT JUMPDEST POP PUSH2 0x4DA PUSH2 0x7D2 CALLDATASIZE PUSH1 0x4 PUSH2 0x396E JUMP JUMPDEST PUSH2 0x16EC JUMP JUMPDEST CALLVALUE DUP1 ISZERO PUSH2 0x7E3 JUMPI PUSH1 0x0 DUP1 REVERT JUMPDEST POP PUSH1 0xF SLOAD PUSH2 0x5C6 SWAP1 PUSH1 0xFF AND DUP2 JUMP JUMPDEST CALLVALUE DUP1 ISZERO PUSH2 0x7FD JUMPI PUSH1 0x0 DUP1 REVERT JUMPDEST POP PUSH2 0x4A7 PUSH2 0x80C CALLDATASIZE PUSH1 0x4 PUSH2 0x396E JUMP JUMPDEST PUSH2 0x1765 JUMP JUMPDEST CALLVALUE DUP1 ISZERO PUSH2 0x81D JUMPI PUSH1 0x0 DUP1 REVERT JUMPDEST POP PUSH2 0x4A7 PUSH2 0x82C CALLDATASIZE PUSH1 0x4 PUSH2 0x398B JUMP JUMPDEST PUSH2 0x191A JUMP JUMPDEST CALLVALUE DUP1 ISZERO PUSH2 0x83D JUMPI PUSH1 0x0 DUP1 REVERT JUMPDEST POP PUSH2 0x512 PUSH2 0x84C CALLDATASIZE PUSH1 0x4 PUSH2 0x398B JUMP JUMPDEST PUSH2 0x1983 JUMP JUMPDEST CALLVALUE DUP1 ISZERO PUSH2 0x85D JUMPI PUSH1 0x0 DUP1 REVERT JUMPDEST POP PUSH2 0x871 PUSH2 0x86C CALLDATASIZE PUSH1 0x4 PUSH2 0x39A4 JUMP JUMPDEST PUSH2 0x1993 JUMP JUMPDEST PUSH1 0x40 MLOAD PUSH2 0x4B1 SWAP7 SWAP6 SWAP5 SWAP4 SWAP3 SWAP2 SWAP1 PUSH2 0x3BD4 JUMP JUMPDEST CALLVALUE DUP1 ISZERO PUSH2 0x88F JUMPI PUSH1 0x0 DUP1 REVERT JUMPDEST POP PUSH2 0x4A7 PUSH2 0x89E CALLDATASIZE PUSH1 0x4 PUSH2 0x396E JUMP JUMPDEST PUSH1 0x6 PUSH1 0x20 MSTORE PUSH1 0x0 SWAP1 DUP2 MSTORE PUSH1 0x40 SWAP1 KECCAK256 SLOAD DUP2 JUMP JUMPDEST CALLVALUE DUP1 ISZERO PUSH2 0x8BC JUMPI PUSH1 0x0 DUP1 REVERT JUMPDEST POP PUSH2 0x4A7 PUSH1 0x12 SLOAD DUP2 JUMP JUMPDEST CALLVALUE DUP1 ISZERO PUSH2 0x8D2 JUMPI PUSH1 0x0 DUP1 REVERT JUMPDEST POP PUSH2 0x4DA PUSH2 0x8E1 CALLDATASIZE PUSH1 0x4 PUSH2 0x396E JUMP JUMPDEST PUSH2 0x1ABD JUMP JUMPDEST CALLVALUE DUP1 ISZERO PUSH2 0x8F2 JUMPI PUSH1 0x0 DUP1 REVERT JUMPDEST POP PUSH2 0x4A7 PUSH1 0x11 SLOAD DUP2 JUMP JUMPDEST CALLVALUE DUP1 ISZERO PUSH2 0x908 JUMPI PUSH1 0x0 DUP1 REVERT JUMPDEST POP PUSH2 0x4DA PUSH2 0x1C05 JUMP JUMPDEST CALLVALUE DUP1 ISZERO PUSH2 0x91D JUMPI PUSH1 0x0 DUP1 REVERT JUMPDEST POP PUSH2 0x4DA PUSH2 0x92C CALLDATASIZE PUSH1 0x4 PUSH2 0x396E JUMP JUMPDEST PUSH2 0x1C19 JUMP JUMPDEST CALLVALUE DUP1 ISZERO PUSH2 0x93D JUMPI PUSH1 0x0 DUP1 REVERT JUMPDEST POP PUSH2 0x4DA PUSH2 0x94C CALLDATASIZE PUSH1 0x4 PUSH2 0x396E JUMP JUMPDEST PUSH2 0x1EAC JUMP JUMPDEST CALLVALUE DUP1 ISZERO PUSH2 0x95D JUMPI PUSH1 0x0 DUP1 REVERT JUMPDEST POP PUSH2 0x4A7 PUSH2 0x96C CALLDATASIZE PUSH1 0x4 PUSH2 0x396E JUMP JUMPDEST PUSH2 0x20E1 JUMP JUMPDEST CALLVALUE DUP1 ISZERO PUSH2 0x97D JUMPI PUSH1 0x0 DUP1 REVERT JUMPDEST POP PUSH2 0x4DA PUSH2 0x98C CALLDATASIZE PUSH1 0x4 PUSH2 0x3C23 JUMP JUMPDEST PUSH2 0x2128 JUMP JUMPDEST CALLVALUE DUP1 ISZERO PUSH2 0x99D JUMPI PUSH1 0x0 DUP1 REVERT JUMPDEST POP PUSH2 0x5C6 PUSH2 0x9AC CALLDATASIZE PUSH1 0x4 PUSH2 0x396E JUMP JUMPDEST POP PUSH1 0x1 SWAP1 JUMP JUMPDEST CALLVALUE DUP1 ISZERO PUSH2 0x9BE JUMPI PUSH1 0x0 DUP1 REVERT JUMPDEST POP PUSH2 0x4DA PUSH2 0x217A JUMP JUMPDEST CALLVALUE DUP1 ISZERO PUSH2 0x9D3 JUMPI PUSH1 0x0 DUP1 REVERT JUMPDEST POP PUSH2 0x4A7 PUSH2 0x9E2 CALLDATASIZE PUSH1 0x4 PUSH2 0x396E JUMP JUMPDEST PUSH2 0x22DB JUMP JUMPDEST CALLVALUE DUP1 ISZERO PUSH2 0x9F3 JUMPI PUSH1 0x0 DUP1 REVERT JUMPDEST POP PUSH2 0x4DA PUSH2 0x2309 JUMP JUMPDEST CALLVALUE DUP1 ISZERO PUSH2 0xA08 JUMPI PUSH1 0x0 DUP1 REVERT JUMPDEST POP PUSH2 0xA1C PUSH2 0xA17 CALLDATASIZE PUSH1 0x4 PUSH2 0x396E JUMP JUMPDEST PUSH2 0x23A6 JUMP JUMPDEST PUSH1 0x40 DUP1 MLOAD SWAP5 ISZERO ISZERO DUP6 MSTORE PUSH1 0x20 DUP6 ADD SWAP4 SWAP1 SWAP4 MSTORE SWAP2 DUP4 ADD MSTORE PUSH1 0x60 DUP3 ADD MSTORE PUSH1 0x80 ADD PUSH2 0x4B1 JUMP JUMPDEST CALLVALUE DUP1 ISZERO PUSH2 0xA4A JUMPI PUSH1 0x0 DUP1 REVERT JUMPDEST POP PUSH2 0x4A7 PUSH1 0x4 SLOAD DUP2 JUMP JUMPDEST CALLVALUE DUP1 ISZERO PUSH2 0xA60 JUMPI PUSH1 0x0 DUP1 REVERT JUMPDEST POP PUSH1 0xE SLOAD PUSH2 0x4A7 JUMP JUMPDEST CALLVALUE DUP1 ISZERO PUSH2 0xA75 JUMPI PUSH1 0x0 DUP1 REVERT JUMPDEST POP PUSH1 0x0 SLOAD PUSH1 0x1 PUSH1 0x1 PUSH1 0xA0 SHL SUB AND PUSH2 0x512 JUMP JUMPDEST CALLVALUE DUP1 ISZERO PUSH2 0xA93 JUMPI PUSH1 0x0 DUP1 REVERT JUMPDEST POP PUSH2 0x4DA PUSH2 0x23F8 JUMP JUMPDEST CALLVALUE DUP1 ISZERO PUSH2 0xAA8 JUMPI PUSH1 0x0 DUP1 REVERT JUMPDEST POP PUSH2 0xABC PUSH2 0xAB7 CALLDATASIZE PUSH1 0x4 PUSH2 0x39A4 JUMP JUMPDEST PUSH2 0x2442 JUMP JUMPDEST PUSH1 0x40 MLOAD PUSH2 0x4B1 SWAP7 SWAP6 SWAP5 SWAP4 SWAP3 SWAP2 SWAP1 PUSH2 0x3C51 JUMP JUMPDEST CALLVALUE DUP1 ISZERO PUSH2 0xADA JUMPI PUSH1 0x0 DUP1 REVERT JUMPDEST POP PUSH2 0x4A7 PUSH2 0xAE9 CALLDATASIZE PUSH1 0x4 PUSH2 0x396E JUMP JUMPDEST PUSH1 0xC PUSH1 0x20 MSTORE PUSH1 0x0 SWAP1 DUP2 MSTORE PUSH1 0x40 SWAP1 KECCAK256 SLOAD DUP2 JUMP JUMPDEST CALLVALUE DUP1 ISZERO PUSH2 0xB07 JUMPI PUSH1 0x0 DUP1 REVERT JUMPDEST POP PUSH2 0x4A7 PUSH1 0x64 DUP2 JUMP JUMPDEST CALLVALUE DUP1 ISZERO PUSH2 0xB1C JUMPI PUSH1 0x0 DUP1 REVERT JUMPDEST POP PUSH2 0x4DA PUSH2 0xB2B CALLDATASIZE PUSH1 0x4 PUSH2 0x3CA9 JUMP JUMPDEST PUSH2 0x25A0 JUMP JUMPDEST PUSH2 0x5C6 PUSH2 0xB3E CALLDATASIZE PUSH1 0x4 PUSH2 0x3D16 JUMP JUMPDEST PUSH2 0x2748 JUMP JUMPDEST CALLVALUE DUP1 ISZERO PUSH2 0xB4F JUMPI PUSH1 0x0 DUP1 REVERT JUMPDEST POP PUSH2 0x4DA PUSH2 0xB5E CALLDATASIZE PUSH1 0x4 PUSH2 0x3D6A JUMP JUMPDEST PUSH2 0x286D JUMP JUMPDEST CALLVALUE DUP1 ISZERO PUSH2 0xB6F JUMPI PUSH1 0x0 DUP1 REVERT JUMPDEST POP PUSH2 0xB83 PUSH2 0xB7E CALLDATASIZE PUSH1 0x4 PUSH2 0x398B JUMP JUMPDEST PUSH2 0x28C2 JUMP JUMPDEST PUSH1 0x40 MLOAD PUSH2 0x4B1 SWAP4 SWAP3 SWAP2 SWAP1 PUSH2 0x3D87 JUMP JUMPDEST CALLVALUE DUP1 ISZERO PUSH2 0xB9E JUMPI PUSH1 0x0 DUP1 REVERT JUMPDEST POP PUSH2 0x4DA PUSH2 0xBAD CALLDATASIZE PUSH1 0x4 PUSH2 0x3DAF JUMP JUMPDEST PUSH2 0x2975 JUMP JUMPDEST CALLVALUE DUP1 ISZERO PUSH2 0xBBE JUMPI PUSH1 0x0 DUP1 REVERT JUMPDEST POP PUSH1 0x1 SLOAD PUSH2 0x512 SWAP1 PUSH1 0x1 PUSH1 0x1 PUSH1 0xA0 SHL SUB AND DUP2 JUMP JUMPDEST CALLVALUE DUP1 ISZERO PUSH2 0xBDE JUMPI PUSH1 0x0 DUP1 REVERT JUMPDEST POP PUSH2 0x4DA PUSH2 0x2A0C JUMP JUMPDEST CALLVALUE DUP1 ISZERO PUSH2 0xBF3 JUMPI PUSH1 0x0 DUP1 REVERT JUMPDEST POP PUSH2 0x4A7 PUSH2 0x2A5A JUMP JUMPDEST CALLVALUE DUP1 ISZERO PUSH2 0xC08 JUMPI PUSH1 0x0 DUP1 REVERT JUMPDEST POP PUSH1 0xF SLOAD PUSH1 0xFF AND PUSH2 0x5C6 JUMP JUMPDEST CALLVALUE DUP1 ISZERO PUSH2 0xC20 JUMPI PUSH1 0x0 DUP1 REVERT JUMPDEST POP PUSH2 0xC34 PUSH2 0xC2F CALLDATASIZE PUSH1 0x4 PUSH2 0x396E JUMP JUMPDEST PUSH2 0x2ACD JUMP JUMPDEST PUSH1 0x40 DUP1 MLOAD SWAP4 DUP5 MSTORE PUSH1 0x20 DUP5 ADD SWAP3 SWAP1 SWAP3 MSTORE SWAP1 DUP3 ADD MSTORE PUSH1 0x60 ADD PUSH2 0x4B1 JUMP JUMPDEST CALLVALUE DUP1 ISZERO PUSH2 0xC5B JUMPI PUSH1 0x0 DUP1 REVERT JUMPDEST POP PUSH2 0x4DA PUSH2 0xC6A CALLDATASIZE PUSH1 0x4 PUSH2 0x398B JUMP JUMPDEST PUSH2 0x2B10 JUMP JUMPDEST CALLVALUE DUP1 ISZERO PUSH2 0xC7B JUMPI PUSH1 0x0 DUP1 REVERT JUMPDEST POP PUSH1 0x13 SLOAD PUSH2 0x5C6 SWAP1 PUSH1 0x1 PUSH1 0xA0 SHL SWAP1 DIV PUSH1 0xFF AND DUP2 JUMP JUMPDEST CALLVALUE DUP1 ISZERO PUSH2 0xC9C JUMPI PUSH1 0x0 DUP1 REVERT JUMPDEST POP PUSH2 0x4DA PUSH2 0xCAB CALLDATASIZE PUSH1 0x4 PUSH2 0x398B JUMP JUMPDEST PUSH2 0x2B7D JUMP JUMPDEST CALLVALUE DUP1 ISZERO PUSH2 0xCBC JUMPI PUSH1 0x0 DUP1 REVERT JUMPDEST POP PUSH2 0x4A7 PUSH2 0xCCB CALLDATASIZE PUSH1 0x4 PUSH2 0x39A4 JUMP JUMPDEST PUSH2 0x2BDA JUMP JUMPDEST CALLVALUE DUP1 ISZERO PUSH2 0xCDC JUMPI PUSH1 0x0 DUP1 REVERT JUMPDEST POP PUSH2 0xCE5 PUSH2 0x2D97 JUMP JUMPDEST PUSH1 0x40 MLOAD PUSH2 0x4B1 SWAP2 SWAP1 PUSH2 0x3E34 JUMP JUMPDEST CALLVALUE DUP1 ISZERO PUSH2 0xCFE JUMPI PUSH1 0x0 DUP1 REVERT JUMPDEST POP PUSH2 0x4DA PUSH2 0xD0D CALLDATASIZE PUSH1 0x4 PUSH2 0x3CA9 JUMP JUMPDEST PUSH2 0x2DF9 JUMP JUMPDEST CALLVALUE DUP1 ISZERO PUSH2 0xD1E JUMPI PUSH1 0x0 DUP1 REVERT JUMPDEST POP PUSH2 0xD32 PUSH2 0xD2D CALLDATASIZE PUSH1 0x4 PUSH2 0x396E JUMP JUMPDEST PUSH2 0x2EC3 JUMP JUMPDEST PUSH1 0x40 MLOAD PUSH2 0x4B1 SWAP7 SWAP6 SWAP5 SWAP4 SWAP3 SWAP2 SWAP1 PUSH2 0x3E47 JUMP JUMPDEST CALLVALUE DUP1 ISZERO PUSH2 0xD50 JUMPI PUSH1 0x0 DUP1 REVERT JUMPDEST POP PUSH2 0x4DA PUSH2 0xD5F CALLDATASIZE PUSH1 0x4 PUSH2 0x398B JUMP JUMPDEST PUSH2 0x3081 JUMP JUMPDEST CALLVALUE DUP1 ISZERO PUSH2 0xD70 JUMPI PUSH1 0x0 DUP1 REVERT JUMPDEST POP PUSH2 0xD84 PUSH2 0xD7F CALLDATASIZE PUSH1 0x4 PUSH2 0x39A4 JUMP JUMPDEST PUSH2 0x3249 JUMP JUMPDEST PUSH1 0x40 DUP1 MLOAD SWAP3 DUP4 MSTORE PUSH1 0x20 DUP4 ADD SWAP2 SWAP1 SWAP2 MSTORE ADD PUSH2 0x4B1 JUMP JUMPDEST CALLVALUE DUP1 ISZERO PUSH2 0xDA5 JUMPI PUSH1 0x0 DUP1 REVERT JUMPDEST POP PUSH2 0x4A7 PUSH4 0x1E13380 DUP2 JUMP JUMPDEST CALLVALUE DUP1 ISZERO PUSH2 0xDBD JUMPI PUSH1 0x0 DUP1 REVERT JUMPDEST POP PUSH2 0x4A7 PUSH2 0xDCC CALLDATASIZE PUSH1 0x4 PUSH2 0x396E JUMP JUMPDEST PUSH1 0x8 PUSH1 0x20 MSTORE PUSH1 0x0 SWAP1 DUP2 MSTORE PUSH1 0x40 SWAP1 KECCAK256 SLOAD DUP2 JUMP JUMPDEST CALLVALUE DUP1 ISZERO PUSH2 0xDEA JUMPI PUSH1 0x0 DUP1 REVERT JUMPDEST POP PUSH2 0x4DA PUSH2 0xDF9 CALLDATASIZE PUSH1 0x4 PUSH2 0x3E87 JUMP JUMPDEST PUSH2 0x32D9 JUMP JUMPDEST CALLVALUE DUP1 ISZERO PUSH2 0xE0A JUMPI PUSH1 0x0 DUP1 REVERT JUMPDEST POP PUSH2 0x4A7 PUSH1 0x5 SLOAD DUP2 JUMP JUMPDEST CALLVALUE DUP1 ISZERO PUSH2 0xE20 JUMPI PUSH1 0x0 DUP1 REVERT JUMPDEST POP PUSH2 0x4A7 PUSH2 0xE2F CALLDATASIZE PUSH1 0x4 PUSH2 0x396E JUMP JUMPDEST PUSH1 0x7 PUSH1 0x20 MSTORE PUSH1 0x0 SWAP1 DUP2 MSTORE PUSH1 0x40 SWAP1 KECCAK256 SLOAD DUP2 JUMP JUMPDEST CALLVALUE DUP1 ISZERO PUSH2 0xE4D JUMPI PUSH1 0x0 DUP1 REVERT JUMPDEST POP PUSH2 0x5C6 PUSH2 0xE5C CALLDATASIZE PUSH1 0x4 PUSH2 0x396E JUMP JUMPDEST PUSH2 0x3479 JUMP JUMPDEST CALLVALUE DUP1 ISZERO PUSH2 0xE6D JUMPI PUSH1 0x0 DUP1 REVERT JUMPDEST POP PUSH2 0x4DA PUSH2 0xE7C CALLDATASIZE PUSH1 0x4 PUSH2 0x396E JUMP JUMPDEST PUSH2 0x352B JUMP JUMPDEST CALLVALUE DUP1 ISZERO PUSH2 0xE8D JUMPI PUSH1 0x0 DUP1 REVERT JUMPDEST POP PUSH2 0xCE5 PUSH2 0x35A1 JUMP JUMPDEST PUSH2 0xE9E PUSH2 0x3601 JUMP JUMPDEST PUSH1 0x4 SSTORE JUMP JUMPDEST PUSH1 0xE DUP2 DUP2 SLOAD DUP2 LT PUSH2 0xEB3 JUMPI PUSH1 0x0 DUP1 REVERT JUMPDEST PUSH1 0x0 SWAP2 DUP3 MSTORE PUSH1 0x20 SWAP1 SWAP2 KECCAK256 ADD SLOAD PUSH1 0x1 PUSH1 0x1 PUSH1 0xA0 SHL SUB AND SWAP1 POP DUP2 JUMP JUMPDEST PUSH1 0x0 JUMPDEST SWAP3 SWAP2 POP POP JUMP JUMPDEST PUSH2 0xEDE PUSH2 0x3601 JUMP JUMPDEST PUSH1 0x1 PUSH1 0x1 PUSH1 0xA0 SHL SUB DUP2 AND PUSH2 0xF31 JUMPI PUSH1 0x40 MLOAD PUSH3 0x461BCD PUSH1 0xE5 SHL DUP2 MSTORE PUSH1 0x20 PUSH1 0x4 DUP3 ADD MSTORE PUSH1 0x15 PUSH1 0x24 DUP3 ADD MSTORE PUSH21 0x496E76616C69642061646D696E2061646472657373 PUSH1 0x58 SHL PUSH1 0x44 DUP3 ADD MSTORE PUSH1 0x64 ADD JUMPDEST PUSH1 0x40 MLOAD DUP1 SWAP2 SUB SWAP1 REVERT JUMPDEST PUSH1 0x1 PUSH1 0x1 PUSH1 0xA0 SHL SUB DUP2 AND PUSH1 0x0 SWAP1 DUP2 MSTORE PUSH1 0xD PUSH1 0x20 MSTORE PUSH1 0x40 SWAP1 KECCAK256 SLOAD PUSH1 0xFF AND PUSH2 0xF88 JUMPI PUSH1 0x40 MLOAD PUSH3 0x461BCD PUSH1 0xE5 SHL DUP2 MSTORE PUSH1 0x20 PUSH1 0x4 DUP3 ADD MSTORE PUSH1 0xC PUSH1 0x24 DUP3 ADD MSTORE PUSH12 0x2737BA1030B71030B236B4B7 PUSH1 0xA1 SHL PUSH1 0x44 DUP3 ADD MSTORE PUSH1 0x64 ADD PUSH2 0xF28 JUMP JUMPDEST PUSH1 0x0 SLOAD PUSH1 0x1 PUSH1 0x1 PUSH1 0xA0 SHL SUB AND PUSH1 0x1 PUSH1 0x1 PUSH1 0xA0 SHL SUB AND DUP2 PUSH1 0x1 PUSH1 0x1 PUSH1 0xA0 SHL SUB AND SUB PUSH2 0xFF4 JUMPI PUSH1 0x40 MLOAD PUSH3 0x461BCD PUSH1 0xE5 SHL DUP2 MSTORE PUSH1 0x20 PUSH1 0x4 DUP3 ADD MSTORE PUSH1 0x1C PUSH1 0x24 DUP3 ADD MSTORE PUSH32 0x43616E6E6F742072656D6F7665206F776E65722061732061646D696E00000000 PUSH1 0x44 DUP3 ADD MSTORE PUSH1 0x64 ADD PUSH2 0xF28 JUMP JUMPDEST PUSH1 0x1 PUSH1 0x1 PUSH1 0xA0 SHL SUB DUP2 AND PUSH1 0x0 SWAP1 DUP2 MSTORE PUSH1 0xD PUSH1 0x20 MSTORE PUSH1 0x40 DUP2 KECCAK256 DUP1 SLOAD PUSH1 0xFF NOT AND SWAP1 SSTORE JUMPDEST PUSH1 0xE SLOAD DUP2 LT ISZERO PUSH2 0x111A JUMPI DUP2 PUSH1 0x1 PUSH1 0x1 PUSH1 0xA0 SHL SUB AND PUSH1 0xE DUP3 DUP2 SLOAD DUP2 LT PUSH2 0x103C JUMPI PUSH2 0x103C PUSH2 0x3EE7 JUMP JUMPDEST PUSH1 0x0 SWAP2 DUP3 MSTORE PUSH1 0x20 SWAP1 SWAP2 KECCAK256 ADD SLOAD PUSH1 0x1 PUSH1 0x1 PUSH1 0xA0 SHL SUB AND SUB PUSH2 0x1108 JUMPI PUSH1 0xE DUP1 SLOAD PUSH2 0x1066 SWAP1 PUSH1 0x1 SWAP1 PUSH2 0x3EFD JUMP JUMPDEST DUP2 SLOAD DUP2 LT PUSH2 0x1076 JUMPI PUSH2 0x1076 PUSH2 0x3EE7 JUMP JUMPDEST PUSH1 0x0 SWAP2 DUP3 MSTORE PUSH1 0x20 SWAP1 SWAP2 KECCAK256 ADD SLOAD PUSH1 0xE DUP1 SLOAD PUSH1 0x1 PUSH1 0x1 PUSH1 0xA0 SHL SUB SWAP1 SWAP3 AND SWAP2 DUP4 SWAP1 DUP2 LT PUSH2 0x10A2 JUMPI PUSH2 0x10A2 PUSH2 0x3EE7 JUMP JUMPDEST SWAP1 PUSH1 0x0 MSTORE PUSH1 0x20 PUSH1 0x0 KECCAK256 ADD PUSH1 0x0 PUSH2 0x100 EXP DUP2 SLOAD DUP2 PUSH1 0x1 PUSH1 0x1 PUSH1 0xA0 SHL SUB MUL NOT AND SWAP1 DUP4 PUSH1 0x1 PUSH1 0x1 PUSH1 0xA0 SHL SUB AND MUL OR SWAP1 SSTORE POP PUSH1 0xE DUP1 SLOAD DUP1 PUSH2 0x10E1 JUMPI PUSH2 0x10E1 PUSH2 0x3F10 JUMP JUMPDEST PUSH1 0x0 DUP3 DUP2 MSTORE PUSH1 0x20 SWAP1 KECCAK256 DUP2 ADD PUSH1 0x0 NOT SWAP1 DUP2 ADD DUP1 SLOAD PUSH1 0x1 PUSH1 0x1 PUSH1 0xA0 SHL SUB NOT AND SWAP1 SSTORE ADD SWAP1 SSTORE PUSH2 0x111A JUMP JUMPDEST DUP1 PUSH2 0x1112 DUP2 PUSH2 0x3F26 JUMP JUMPDEST SWAP2 POP POP PUSH2 0x1015 JUMP JUMPDEST POP PUSH1 0x40 MLOAD PUSH1 0x1 PUSH1 0x1 PUSH1 0xA0 SHL SUB DUP3 AND DUP2 MSTORE PUSH32 0xA3B62BC36326052D97EA62D63C3D60308ED4C3EA8AC079DD8499F1E9C4F80C0F SWAP1 PUSH1 0x20 ADD JUMPDEST PUSH1 0x40 MLOAD DUP1 SWAP2 SUB SWAP1 LOG1 POP JUMP JUMPDEST PUSH2 0x1163 PUSH2 0x3601 JUMP JUMPDEST PUSH1 0x2 SSTORE JUMP JUMPDEST PUSH2 0x1170 PUSH2 0x3601 JUMP JUMPDEST PUSH1 0x0 PUSH1 0x4 SSTORE JUMP JUMPDEST PUSH1 0x1 PUSH1 0x1 PUSH1 0xA0 SHL SUB DUP2 AND PUSH1 0x0 SWAP1 DUP2 MSTORE PUSH1 0xD PUSH1 0x20 MSTORE PUSH1 0x40 DUP2 KECCAK256 SLOAD PUSH1 0xFF AND DUP1 PUSH2 0xED0 JUMPI POP POP PUSH1 0x0 SLOAD PUSH1 0x1 PUSH1 0x1 PUSH1 0xA0 SHL SUB SWAP2 DUP3 AND SWAP2 AND EQ SWAP1 JUMP JUMPDEST PUSH2 0x11B6 PUSH2 0x3601 JUMP JUMPDEST PUSH1 0xF SLOAD PUSH1 0xFF AND PUSH2 0x1201 JUMPI PUSH1 0x40 MLOAD PUSH3 0x461BCD PUSH1 0xE5 SHL DUP2 MSTORE PUSH1 0x20 PUSH1 0x4 DUP3 ADD MSTORE PUSH1 0x16 PUSH1 0x24 DUP3 ADD MSTORE PUSH22 0x10DBDB9D1C9858DD081A5CC81B9BDD081C185D5CD959 PUSH1 0x52 SHL PUSH1 0x44 DUP3 ADD MSTORE PUSH1 0x64 ADD PUSH2 0xF28 JUMP JUMPDEST PUSH1 0xF DUP1 SLOAD PUSH1 0xFF NOT AND SWAP1 SSTORE PUSH1 0x40 DUP1 MLOAD CALLER DUP2 MSTORE TIMESTAMP PUSH1 0x20 DUP3 ADD MSTORE PUSH32 0x107553D8191D85B405879CF752997865EDD48D94E20BDA4DD27223C94B31A7CC SWAP2 ADD JUMPDEST PUSH1 0x40 MLOAD DUP1 SWAP2 SUB SWAP1 LOG1 JUMP JUMPDEST PUSH1 0x0 DUP1 PUSH1 0x60 DUP1 PUSH1 0x60 DUP1 PUSH1 0x60 PUSH1 0x0 PUSH1 0x1 PUSH1 0x0 SWAP1 SLOAD SWAP1 PUSH2 0x100 EXP SWAP1 DIV PUSH1 0x1 PUSH1 0x1 PUSH1 0xA0 SHL SUB AND PUSH1 0x1 PUSH1 0x1 PUSH1 0xA0 SHL SUB AND PUSH4 0xAFEEA115 PUSH1 0x40 MLOAD DUP2 PUSH4 0xFFFFFFFF AND PUSH1 0xE0 SHL DUP2 MSTORE PUSH1 0x4 ADD PUSH1 0x0 PUSH1 0x40 MLOAD DUP1 DUP4 SUB DUP2 DUP7 GAS STATICCALL ISZERO DUP1 ISZERO PUSH2 0x12A6 JUMPI RETURNDATASIZE PUSH1 0x0 DUP1 RETURNDATACOPY RETURNDATASIZE PUSH1 0x0 REVERT JUMPDEST POP POP POP POP PUSH1 0x40 MLOAD RETURNDATASIZE PUSH1 0x0 DUP3 RETURNDATACOPY PUSH1 0x1F RETURNDATASIZE SWAP1 DUP2 ADD PUSH1 0x1F NOT AND DUP3 ADD PUSH1 0x40 MSTORE PUSH2 0x12CE SWAP2 SWAP1 DUP2 ADD SWAP1 PUSH2 0x400D JUMP JUMPDEST DUP1 MLOAD SWAP1 SWAP2 POP PUSH1 0x0 DUP1 DUP3 PUSH1 0x1 PUSH1 0x1 PUSH1 0x40 SHL SUB DUP2 GT ISZERO PUSH2 0x12EE JUMPI PUSH2 0x12EE PUSH2 0x3F3F JUMP JUMPDEST PUSH1 0x40 MLOAD SWAP1 DUP1 DUP3 MSTORE DUP1 PUSH1 0x20 MUL PUSH1 0x20 ADD DUP3 ADD PUSH1 0x40 MSTORE DUP1 ISZERO PUSH2 0x1317 JUMPI DUP2 PUSH1 0x20 ADD PUSH1 0x20 DUP3 MUL DUP1 CALLDATASIZE DUP4 CALLDATACOPY ADD SWAP1 POP JUMPDEST POP SWAP1 POP PUSH1 0x0 DUP4 PUSH1 0x1 PUSH1 0x1 PUSH1 0x40 SHL SUB DUP2 GT ISZERO PUSH2 0x1334 JUMPI PUSH2 0x1334 PUSH2 0x3F3F JUMP JUMPDEST PUSH1 0x40 MLOAD SWAP1 DUP1 DUP3 MSTORE DUP1 PUSH1 0x20 MUL PUSH1 0x20 ADD DUP3 ADD PUSH1 0x40 MSTORE DUP1 ISZERO PUSH2 0x135D JUMPI DUP2 PUSH1 0x20 ADD PUSH1 0x20 DUP3 MUL DUP1 CALLDATASIZE DUP4 CALLDATACOPY ADD SWAP1 POP JUMPDEST POP SWAP1 POP PUSH1 0x0 DUP5 PUSH1 0x1 PUSH1 0x1 PUSH1 0x40 SHL SUB DUP2 GT ISZERO PUSH2 0x137A JUMPI PUSH2 0x137A PUSH2 0x3F3F JUMP JUMPDEST PUSH1 0x40 MLOAD SWAP1 DUP1 DUP3 MSTORE DUP1 PUSH1 0x20 MUL PUSH1 0x20 ADD DUP3 ADD PUSH1 0x40 MSTORE DUP1 ISZERO PUSH2 0x13AD JUMPI DUP2 PUSH1 0x20 ADD JUMPDEST PUSH1 0x60 DUP2 MSTORE PUSH1 0x20 ADD SWAP1 PUSH1 0x1 SWAP1 SUB SWAP1 DUP2 PUSH2 0x1398 JUMPI SWAP1 POP JUMPDEST POP SWAP1 POP PUSH1 0x0 DUP6 PUSH1 0x1 PUSH1 0x1 PUSH1 0x40 SHL SUB DUP2 GT ISZERO PUSH2 0x13CA JUMPI PUSH2 0x13CA PUSH2 0x3F3F JUMP JUMPDEST PUSH1 0x40 MLOAD SWAP1 DUP1 DUP3 MSTORE DUP1 PUSH1 0x20 MUL PUSH1 0x20 ADD DUP3 ADD PUSH1 0x40 MSTORE DUP1 ISZERO PUSH2 0x13FD JUMPI DUP2 PUSH1 0x20 ADD JUMPDEST PUSH1 0x60 DUP2 MSTORE PUSH1 0x20 ADD SWAP1 PUSH1 0x1 SWAP1 SUB SWAP1 DUP2 PUSH2 0x13E8 JUMPI SWAP1 POP JUMPDEST POP SWAP1 POP PUSH1 0x0 JUMPDEST DUP7 DUP2 PUSH1 0xFF AND LT ISZERO PUSH2 0x1651 JUMPI PUSH1 0x1 SLOAD DUP9 MLOAD PUSH1 0x0 SWAP2 DUP3 SWAP2 PUSH1 0x1 PUSH1 0x1 PUSH1 0xA0 SHL SUB SWAP1 SWAP2 AND SWAP1 PUSH4 0x8A11D7C9 SWAP1 DUP13 SWAP1 PUSH1 0xFF DUP8 AND SWAP1 DUP2 LT PUSH2 0x143F JUMPI PUSH2 0x143F PUSH2 0x3EE7 JUMP JUMPDEST PUSH1 0x20 MUL PUSH1 0x20 ADD ADD MLOAD PUSH1 0x40 MLOAD DUP3 PUSH4 0xFFFFFFFF AND PUSH1 0xE0 SHL DUP2 MSTORE PUSH1 0x4 ADD PUSH2 0x1472 SWAP2 SWAP1 PUSH1 0x1 PUSH1 0x1 PUSH1 0xA0 SHL SUB SWAP2 SWAP1 SWAP2 AND DUP2 MSTORE PUSH1 0x20 ADD SWAP1 JUMP JUMPDEST PUSH1 0x0 PUSH1 0x40 MLOAD DUP1 DUP4 SUB DUP2 DUP7 GAS STATICCALL ISZERO DUP1 ISZERO PUSH2 0x148F JUMPI RETURNDATASIZE PUSH1 0x0 DUP1 RETURNDATACOPY RETURNDATASIZE PUSH1 0x0 REVERT JUMPDEST POP POP POP POP PUSH1 0x40 MLOAD RETURNDATASIZE PUSH1 0x0 DUP3 RETURNDATACOPY PUSH1 0x1F RETURNDATASIZE SWAP1 DUP2 ADD PUSH1 0x1F NOT AND DUP3 ADD PUSH1 0x40 MSTORE PUSH2 0x14B7 SWAP2 SWAP1 DUP2 ADD SWAP1 PUSH2 0x4041 JUMP JUMPDEST POP POP POP SWAP3 POP SWAP3 POP POP PUSH1 0x0 DUP2 GT ISZERO PUSH2 0x162E JUMPI PUSH1 0x1 SLOAD DUP11 MLOAD PUSH1 0x0 SWAP2 PUSH1 0x1 PUSH1 0x1 PUSH1 0xA0 SHL SUB AND SWAP1 PUSH4 0xA43569B3 SWAP1 DUP14 SWAP1 PUSH1 0xFF DUP9 AND SWAP1 DUP2 LT PUSH2 0x14F5 JUMPI PUSH2 0x14F5 PUSH2 0x3EE7 JUMP JUMPDEST PUSH1 0x20 MUL PUSH1 0x20 ADD ADD MLOAD PUSH1 0x40 MLOAD DUP3 PUSH4 0xFFFFFFFF AND PUSH1 0xE0 SHL DUP2 MSTORE PUSH1 0x4 ADD PUSH2 0x1528 SWAP2 SWAP1 PUSH1 0x1 PUSH1 0x1 PUSH1 0xA0 SHL SUB SWAP2 SWAP1 SWAP2 AND DUP2 MSTORE PUSH1 0x20 ADD SWAP1 JUMP JUMPDEST PUSH1 0x0 PUSH1 0x40 MLOAD DUP1 DUP4 SUB DUP2 DUP7 GAS STATICCALL ISZERO DUP1 ISZERO PUSH2 0x1545 JUMPI RETURNDATASIZE PUSH1 0x0 DUP1 RETURNDATACOPY RETURNDATASIZE PUSH1 0x0 REVERT JUMPDEST POP POP POP POP PUSH1 0x40 MLOAD RETURNDATASIZE PUSH1 0x0 DUP3 RETURNDATACOPY PUSH1 0x1F RETURNDATASIZE SWAP1 DUP2 ADD PUSH1 0x1F NOT AND DUP3 ADD PUSH1 0x40 MSTORE PUSH2 0x156D SWAP2 SWAP1 DUP2 ADD SWAP1 PUSH2 0x40C5 JUMP JUMPDEST SWAP1 POP DUP3 DUP9 DUP6 PUSH1 0xFF AND DUP2 MLOAD DUP2 LT PUSH2 0x1585 JUMPI PUSH2 0x1585 PUSH2 0x3EE7 JUMP JUMPDEST PUSH1 0x20 MUL PUSH1 0x20 ADD ADD SWAP1 PUSH1 0x4 DUP2 GT ISZERO PUSH2 0x159E JUMPI PUSH2 0x159E PUSH2 0x3A21 JUMP JUMPDEST SWAP1 DUP2 PUSH1 0x4 DUP2 GT ISZERO PUSH2 0x15B1 JUMPI PUSH2 0x15B1 PUSH2 0x3A21 JUMP JUMPDEST DUP2 MSTORE POP POP DUP2 DUP8 DUP6 PUSH1 0xFF AND DUP2 MLOAD DUP2 LT PUSH2 0x15CB JUMPI PUSH2 0x15CB PUSH2 0x3EE7 JUMP JUMPDEST PUSH1 0x20 MUL PUSH1 0x20 ADD ADD DUP2 DUP2 MSTORE POP POP DUP1 DUP7 DUP6 PUSH1 0xFF AND DUP2 MLOAD DUP2 LT PUSH2 0x15ED JUMPI PUSH2 0x15ED PUSH2 0x3EE7 JUMP JUMPDEST PUSH1 0x20 MUL PUSH1 0x20 ADD ADD DUP2 SWAP1 MSTORE POP PUSH1 0x40 MLOAD DUP1 PUSH1 0x20 ADD PUSH1 0x40 MSTORE DUP1 PUSH1 0x0 DUP2 MSTORE POP DUP6 DUP6 PUSH1 0xFF AND DUP2 MLOAD DUP2 LT PUSH2 0x161D JUMPI PUSH2 0x161D PUSH2 0x3EE7 JUMP JUMPDEST PUSH1 0x20 MUL PUSH1 0x20 ADD ADD DUP2 SWAP1 MSTORE POP POP PUSH2 0x163C JUMP JUMPDEST PUSH2 0x1639 PUSH1 0x1 DUP10 PUSH2 0x3946 JUMP JUMPDEST SWAP8 POP JUMPDEST POP POP DUP1 DUP1 PUSH2 0x1649 SWAP1 PUSH2 0x4158 JUMP JUMPDEST SWAP2 POP POP PUSH2 0x1403 JUMP JUMPDEST POP PUSH2 0x165C DUP6 DUP8 PUSH2 0x3EFD JUMP JUMPDEST PUSH1 0x1 PUSH1 0x0 SWAP1 SLOAD SWAP1 PUSH2 0x100 EXP SWAP1 DIV PUSH1 0x1 PUSH1 0x1 PUSH1 0xA0 SHL SUB AND PUSH1 0x1 PUSH1 0x1 PUSH1 0xA0 SHL SUB AND PUSH4 0x8B0E9F3F PUSH1 0x40 MLOAD DUP2 PUSH4 0xFFFFFFFF AND PUSH1 0xE0 SHL DUP2 MSTORE PUSH1 0x4 ADD PUSH1 0x20 PUSH1 0x40 MLOAD DUP1 DUP4 SUB DUP2 DUP7 GAS STATICCALL ISZERO DUP1 ISZERO PUSH2 0x16AF JUMPI RETURNDATASIZE PUSH1 0x0 DUP1 RETURNDATACOPY RETURNDATASIZE PUSH1 0x0 REVERT JUMPDEST POP POP POP POP PUSH1 0x40 MLOAD RETURNDATASIZE PUSH1 0x1F NOT PUSH1 0x1F DUP3 ADD AND DUP3 ADD DUP1 PUSH1 0x40 MSTORE POP DUP2 ADD SWAP1 PUSH2 0x16D3 SWAP2 SWAP1 PUSH2 0x4177 JUMP JUMPDEST SWAP1 SWAP16 SWAP1 SWAP15 POP SWAP7 SWAP13 POP SWAP3 SWAP11 POP SWAP1 SWAP9 POP SWAP7 POP SWAP5 POP SWAP2 SWAP3 POP POP POP JUMP JUMPDEST PUSH2 0x16F4 PUSH2 0x3601 JUMP JUMPDEST PUSH1 0x1 PUSH1 0x1 PUSH1 0xA0 SHL SUB DUP2 AND PUSH2 0x1743 JUMPI PUSH1 0x40 MLOAD PUSH3 0x461BCD PUSH1 0xE5 SHL DUP2 MSTORE PUSH1 0x20 PUSH1 0x4 DUP3 ADD MSTORE PUSH1 0x16 PUSH1 0x24 DUP3 ADD MSTORE PUSH22 0x496E76616C6964206F7261636C652061646472657373 PUSH1 0x50 SHL PUSH1 0x44 DUP3 ADD MSTORE PUSH1 0x64 ADD PUSH2 0xF28 JUMP JUMPDEST PUSH1 0x13 DUP1 SLOAD PUSH1 0x1 PUSH1 0x1 PUSH1 0xA0 SHL SUB NOT AND PUSH1 0x1 PUSH1 0x1 PUSH1 0xA0 SHL SUB SWAP3 SWAP1 SWAP3 AND SWAP2 SWAP1 SWAP2 OR SWAP1 SSTORE JUMP JUMPDEST PUSH1 0x1 PUSH1 0x1 PUSH1 0xA0 SHL SUB DUP2 AND PUSH1 0x0 SWAP1 DUP2 MSTORE PUSH1 0x9 PUSH1 0x20 MSTORE PUSH1 0x40 DUP2 KECCAK256 SLOAD PUSH1 0xFF AND PUSH2 0x178D JUMPI POP PUSH1 0x0 SWAP2 SWAP1 POP JUMP JUMPDEST PUSH1 0x1 PUSH1 0x1 PUSH1 0xA0 SHL SUB DUP3 AND PUSH1 0x0 SWAP1 DUP2 MSTORE PUSH1 0xB PUSH1 0x20 MSTORE PUSH1 0x40 DUP2 KECCAK256 SLOAD SWAP1 SUB PUSH2 0x17B4 JUMPI POP PUSH1 0x0 SWAP2 SWAP1 POP JUMP JUMPDEST PUSH1 0x1 SLOAD PUSH1 0x40 MLOAD PUSH4 0x3FA7CAFD PUSH1 0xE1 SHL DUP2 MSTORE PUSH1 0x1 PUSH1 0x1 PUSH1 0xA0 SHL SUB DUP5 DUP2 AND PUSH1 0x4 DUP4 ADD DUP2 SWAP1 MSTORE PUSH1 0x24 DUP4 ADD MSTORE PUSH1 0x0 SWAP3 AND SWAP1 PUSH4 0x7F4F95FA SWAP1 PUSH1 0x44 ADD PUSH1 0x60 PUSH1 0x40 MLOAD DUP1 DUP4 SUB DUP2 DUP7 GAS STATICCALL ISZERO DUP1 ISZERO PUSH2 0x1806 JUMPI RETURNDATASIZE PUSH1 0x0 DUP1 RETURNDATACOPY RETURNDATASIZE PUSH1 0x0 REVERT JUMPDEST POP POP POP POP PUSH1 0x40 MLOAD RETURNDATASIZE PUSH1 0x1F NOT PUSH1 0x1F DUP3 ADD AND DUP3 ADD DUP1 PUSH1 0x40 MSTORE POP DUP2 ADD SWAP1 PUSH2 0x182A SWAP2 SWAP1 PUSH2 0x4190 JUMP JUMPDEST POP POP SWAP1 POP DUP1 PUSH1 0x0 SUB PUSH2 0x183F JUMPI POP PUSH1 0x0 SWAP3 SWAP2 POP POP JUMP JUMPDEST PUSH1 0x1 PUSH1 0x1 PUSH1 0xA0 SHL SUB DUP4 AND PUSH1 0x0 SWAP1 DUP2 MSTORE PUSH1 0xC PUSH1 0x20 MSTORE PUSH1 0x40 DUP2 KECCAK256 SLOAD PUSH2 0x1862 SWAP1 TIMESTAMP PUSH2 0x3EFD JUMP JUMPDEST PUSH1 0x13 SLOAD SWAP1 SWAP2 POP PUSH1 0x0 SWAP1 PUSH1 0x1 PUSH1 0xA0 SHL SWAP1 DIV PUSH1 0xFF AND ISZERO PUSH2 0x18DC JUMPI PUSH1 0x0 PUSH2 0x1885 DUP5 PUSH2 0x191A JUMP JUMPDEST SWAP1 POP DUP1 PUSH1 0x0 SUB PUSH2 0x189B JUMPI POP PUSH1 0x0 SWAP6 SWAP5 POP POP POP POP POP JUMP JUMPDEST PUSH4 0x1E13380 PUSH1 0x11 SLOAD PUSH2 0x18AD SWAP2 SWAP1 PUSH2 0x41BE JUMP JUMPDEST DUP4 PUSH2 0x18C0 DUP4 PUSH8 0xDE0B6B3A7640000 PUSH2 0x41BE JUMP JUMPDEST PUSH2 0x18CA SWAP2 SWAP1 PUSH2 0x41BE JUMP JUMPDEST PUSH2 0x18D4 SWAP2 SWAP1 PUSH2 0x41D5 JUMP JUMPDEST SWAP2 POP POP PUSH2 0x1912 JUMP JUMPDEST PUSH2 0x18EC PUSH4 0x1E13380 PUSH2 0x2710 PUSH2 0x41BE JUMP JUMPDEST DUP3 PUSH1 0x10 SLOAD DUP6 PUSH2 0x18FB SWAP2 SWAP1 PUSH2 0x41BE JUMP JUMPDEST PUSH2 0x1905 SWAP2 SWAP1 PUSH2 0x41BE JUMP JUMPDEST PUSH2 0x190F SWAP2 SWAP1 PUSH2 0x41D5 JUMP JUMPDEST SWAP1 POP JUMPDEST SWAP5 SWAP4 POP POP POP POP JUMP JUMPDEST PUSH1 0x0 PUSH1 0x3 JUMPDEST PUSH1 0x0 DUP2 SLT PUSH2 0x197A JUMPI PUSH1 0x14 DUP2 PUSH1 0x4 DUP2 LT PUSH2 0x193A JUMPI PUSH2 0x193A PUSH2 0x3EE7 JUMP JUMPDEST PUSH1 0x3 MUL ADD SLOAD DUP4 LT PUSH2 0x1968 JUMPI PUSH1 0x14 DUP2 PUSH1 0x4 DUP2 LT PUSH2 0x1958 JUMPI PUSH2 0x1958 PUSH2 0x3EE7 JUMP JUMPDEST PUSH1 0x3 MUL ADD PUSH1 0x1 ADD SLOAD SWAP2 POP POP SWAP2 SWAP1 POP JUMP JUMPDEST DUP1 PUSH2 0x1972 DUP2 PUSH2 0x41F7 JUMP JUMPDEST SWAP2 POP POP PUSH2 0x191F JUMP JUMPDEST POP PUSH1 0x0 SWAP3 SWAP2 POP POP JUMP JUMPDEST PUSH1 0xA DUP2 DUP2 SLOAD DUP2 LT PUSH2 0xEB3 JUMPI PUSH1 0x0 DUP1 REVERT JUMPDEST PUSH1 0x1 SLOAD PUSH1 0x40 MLOAD PUSH4 0x8A11D7C9 PUSH1 0xE0 SHL DUP2 MSTORE PUSH1 0x1 PUSH1 0x1 PUSH1 0xA0 SHL SUB DUP5 DUP2 AND PUSH1 0x4 DUP4 ADD MSTORE PUSH1 0x0 SWAP3 DUP4 SWAP3 DUP4 SWAP3 DUP4 SWAP3 DUP4 SWAP3 DUP4 SWAP3 PUSH1 0x60 SWAP3 AND SWAP1 PUSH4 0x8A11D7C9 SWAP1 PUSH1 0x24 ADD PUSH1 0x0 PUSH1 0x40 MLOAD DUP1 DUP4 SUB DUP2 DUP7 GAS STATICCALL ISZERO DUP1 ISZERO PUSH2 0x19EB JUMPI RETURNDATASIZE PUSH1 0x0 DUP1 RETURNDATACOPY RETURNDATASIZE PUSH1 0x0 REVERT JUMPDEST POP POP POP POP PUSH1 0x40 MLOAD RETURNDATASIZE PUSH1 0x0 DUP3 RETURNDATACOPY PUSH1 0x1F RETURNDATASIZE SWAP1 DUP2 ADD PUSH1 0x1F NOT AND DUP3 ADD PUSH1 0x40 MSTORE PUSH2 0x1A13 SWAP2 SWAP1 DUP2 ADD SWAP1 PUSH2 0x4041 JUMP JUMPDEST PUSH1 0x1 SLOAD PUSH1 0x40 MLOAD PUSH4 0x3FA7CAFD PUSH1 0xE1 SHL DUP2 MSTORE SWAP5 SWAP14 POP SWAP5 SWAP12 POP SWAP6 POP POP PUSH1 0x1 PUSH1 0x1 PUSH1 0xA0 SHL SUB SWAP1 SWAP3 AND SWAP3 POP PUSH4 0x7F4F95FA SWAP2 POP PUSH2 0x1A65 SWAP1 DUP13 SWAP1 DUP2 SWAP1 PUSH1 0x4 ADD PUSH1 0x1 PUSH1 0x1 PUSH1 0xA0 SHL SUB SWAP3 DUP4 AND DUP2 MSTORE SWAP2 AND PUSH1 0x20 DUP3 ADD MSTORE PUSH1 0x40 ADD SWAP1 JUMP JUMPDEST PUSH1 0x60 PUSH1 0x40 MLOAD DUP1 DUP4 SUB DUP2 DUP7 GAS STATICCALL ISZERO DUP1 ISZERO PUSH2 0x1A82 JUMPI RETURNDATASIZE PUSH1 0x0 DUP1 RETURNDATACOPY RETURNDATASIZE PUSH1 0x0 REVERT JUMPDEST POP POP POP POP PUSH1 0x40 MLOAD RETURNDATASIZE PUSH1 0x1F NOT PUSH1 0x1F DUP3 ADD AND DUP3 ADD DUP1 PUSH1 0x40 MSTORE POP DUP2 ADD SWAP1 PUSH2 0x1AA6 SWAP2 SWAP1 PUSH2 0x4190 JUMP JUMPDEST POP POP SWAP1 MLOAD SWAP7 SWAP10 SWAP6 SWAP9 POP SWAP7 PUSH1 0x0 SWAP7 SWAP6 SWAP1 SWAP5 POP SWAP3 POP POP POP JUMP JUMPDEST PUSH2 0x1AC5 PUSH2 0x3601 JUMP JUMPDEST PUSH1 0x1 PUSH1 0x1 PUSH1 0xA0 SHL SUB DUP2 AND PUSH2 0x1B13 JUMPI PUSH1 0x40 MLOAD PUSH3 0x461BCD PUSH1 0xE5 SHL DUP2 MSTORE PUSH1 0x20 PUSH1 0x4 DUP3 ADD MSTORE PUSH1 0x15 PUSH1 0x24 DUP3 ADD MSTORE PUSH21 0x496E76616C69642061646D696E2061646472657373 PUSH1 0x58 SHL PUSH1 0x44 DUP3 ADD MSTORE PUSH1 0x64 ADD PUSH2 0xF28 JUMP JUMPDEST PUSH1 0x1 PUSH1 0x1 PUSH1 0xA0 SHL SUB DUP2 AND PUSH1 0x0 SWAP1 DUP2 MSTORE PUSH1 0xD PUSH1 0x20 MSTORE PUSH1 0x40 SWAP1 KECCAK256 SLOAD PUSH1 0xFF AND ISZERO PUSH2 0x1B6F JUMPI PUSH1 0x40 MLOAD PUSH3 0x461BCD PUSH1 0xE5 SHL DUP2 MSTORE PUSH1 0x20 PUSH1 0x4 DUP3 ADD MSTORE PUSH1 0x10 PUSH1 0x24 DUP3 ADD MSTORE PUSH16 0x20B63932B0B23C9030B71030B236B4B7 PUSH1 0x81 SHL PUSH1 0x44 DUP3 ADD MSTORE PUSH1 0x64 ADD PUSH2 0xF28 JUMP JUMPDEST PUSH1 0x1 PUSH1 0x1 PUSH1 0xA0 SHL SUB DUP2 AND PUSH1 0x0 DUP2 DUP2 MSTORE PUSH1 0xD PUSH1 0x20 SWAP1 DUP2 MSTORE PUSH1 0x40 DUP1 DUP4 KECCAK256 DUP1 SLOAD PUSH1 0xFF NOT AND PUSH1 0x1 SWAP1 DUP2 OR SWAP1 SWAP2 SSTORE PUSH1 0xE DUP1 SLOAD SWAP2 DUP3 ADD DUP2 SSTORE SWAP1 SWAP4 MSTORE PUSH32 0xBB7B4A454DC3493923482F07822329ED19E8244EFF582CC204F8554C3620C3FD SWAP1 SWAP3 ADD DUP1 SLOAD PUSH1 0x1 PUSH1 0x1 PUSH1 0xA0 SHL SUB NOT AND DUP5 OR SWAP1 SSTORE SWAP1 MLOAD SWAP2 DUP3 MSTORE PUSH32 0x44D6D25963F097AD14F29F06854A01F575648A1EF82F30E562CCD3889717E339 SWAP2 ADD PUSH2 0x1150 JUMP JUMPDEST PUSH2 0x1C0D PUSH2 0x3601 JUMP JUMPDEST PUSH2 0x1C17 PUSH1 0x0 PUSH2 0x365B JUMP JUMPDEST JUMP JUMPDEST PUSH1 0xF SLOAD PUSH1 0xFF AND ISZERO PUSH2 0x1C61 JUMPI PUSH1 0x40 MLOAD PUSH3 0x461BCD PUSH1 0xE5 SHL DUP2 MSTORE PUSH1 0x20 PUSH1 0x4 DUP3 ADD MSTORE PUSH1 0x12 PUSH1 0x24 DUP3 ADD MSTORE PUSH18 0x10DBDB9D1C9858DD081A5CC81C185D5CD959 PUSH1 0x72 SHL PUSH1 0x44 DUP3 ADD MSTORE PUSH1 0x64 ADD PUSH2 0xF28 JUMP JUMPDEST PUSH1 0x1 PUSH1 0x1 PUSH1 0xA0 SHL SUB DUP2 AND ORIGIN EQ PUSH2 0x1CB9 JUMPI PUSH1 0x40 MLOAD PUSH3 0x461BCD PUSH1 0xE5 SHL DUP2 MSTORE PUSH1 0x20 PUSH1 0x4 DUP3 ADD MSTORE PUSH1 0x1F PUSH1 0x24 DUP3 ADD MSTORE PUSH32 0x63616C6C65722073686F756C64206265207265616C2076616C696461746F7200 PUSH1 0x44 DUP3 ADD MSTORE PUSH1 0x64 ADD PUSH2 0xF28 JUMP JUMPDEST PUSH1 0x1 PUSH1 0x1 PUSH1 0xA0 SHL SUB DUP2 AND PUSH1 0x0 SWAP1 DUP2 MSTORE PUSH1 0x9 PUSH1 0x20 MSTORE PUSH1 0x40 SWAP1 KECCAK256 SLOAD PUSH1 0xFF AND PUSH2 0x1D33 JUMPI PUSH1 0x40 MLOAD PUSH3 0x461BCD PUSH1 0xE5 SHL DUP2 MSTORE PUSH1 0x20 PUSH1 0x4 DUP3 ADD MSTORE PUSH1 0x29 PUSH1 0x24 DUP3 ADD MSTORE PUSH32 0x56616C696461746F72206E6F7420617070726F76656420666F7220616E6E7561 PUSH1 0x44 DUP3 ADD MSTORE PUSH9 0x6C2072657761726473 PUSH1 0xB8 SHL PUSH1 0x64 DUP3 ADD MSTORE PUSH1 0x84 ADD PUSH2 0xF28 JUMP JUMPDEST PUSH1 0x0 PUSH2 0x1D3E DUP3 PUSH2 0x1765 JUMP JUMPDEST SWAP1 POP PUSH1 0x0 DUP2 GT PUSH2 0x1D90 JUMPI PUSH1 0x40 MLOAD PUSH3 0x461BCD PUSH1 0xE5 SHL DUP2 MSTORE PUSH1 0x20 PUSH1 0x4 DUP3 ADD MSTORE PUSH1 0x1B PUSH1 0x24 DUP3 ADD MSTORE PUSH32 0x4E6F20616E6E75616C207265776172647320617661696C61626C650000000000 PUSH1 0x44 DUP3 ADD MSTORE PUSH1 0x64 ADD PUSH2 0xF28 JUMP JUMPDEST DUP1 SELFBALANCE LT ISZERO PUSH2 0x1DB0 JUMPI PUSH1 0x40 MLOAD PUSH3 0x461BCD PUSH1 0xE5 SHL DUP2 MSTORE PUSH1 0x4 ADD PUSH2 0xF28 SWAP1 PUSH2 0x4214 JUMP JUMPDEST PUSH1 0x1 PUSH1 0x1 PUSH1 0xA0 SHL SUB DUP3 AND PUSH1 0x0 SWAP1 DUP2 MSTORE PUSH1 0xC PUSH1 0x20 MSTORE PUSH1 0x40 SWAP1 KECCAK256 TIMESTAMP SWAP1 SSTORE PUSH1 0x5 SLOAD DUP2 GT PUSH2 0x1DF1 JUMPI DUP1 PUSH1 0x5 PUSH1 0x0 DUP3 DUP3 SLOAD PUSH2 0x1DE6 SWAP2 SWAP1 PUSH2 0x3EFD JUMP JUMPDEST SWAP1 SWAP2 SSTORE POP PUSH2 0x1DF7 SWAP1 POP JUMP JUMPDEST PUSH1 0x0 PUSH1 0x5 SSTORE JUMPDEST PUSH1 0x1 PUSH1 0x1 PUSH1 0xA0 SHL SUB DUP3 AND PUSH1 0x0 SWAP1 DUP2 MSTORE PUSH1 0x7 PUSH1 0x20 MSTORE PUSH1 0x40 DUP2 KECCAK256 DUP1 SLOAD DUP4 SWAP3 SWAP1 PUSH2 0x1E1F SWAP1 DUP5 SWAP1 PUSH2 0x3946 JUMP JUMPDEST SWAP1 SWAP2 SSTORE POP POP PUSH1 0x40 MLOAD PUSH1 0x1 PUSH1 0x1 PUSH1 0xA0 SHL SUB DUP4 AND SWAP1 DUP3 ISZERO PUSH2 0x8FC MUL SWAP1 DUP4 SWAP1 PUSH1 0x0 DUP2 DUP2 DUP2 DUP6 DUP9 DUP9 CALL SWAP4 POP POP POP POP ISZERO DUP1 ISZERO PUSH2 0x1E5A JUMPI RETURNDATASIZE PUSH1 0x0 DUP1 RETURNDATACOPY RETURNDATASIZE PUSH1 0x0 REVERT JUMPDEST POP PUSH1 0x40 DUP1 MLOAD PUSH1 0x1 PUSH1 0x1 PUSH1 0xA0 SHL SUB DUP5 AND DUP2 MSTORE PUSH1 0x20 DUP2 ADD DUP4 SWAP1 MSTORE TIMESTAMP SWAP2 DUP2 ADD SWAP2 SWAP1 SWAP2 MSTORE PUSH32 0x66F79629C03CD92F64C49D27760E90FD00EBC6F4AB63C8E3553228D9F62B3C01 SWAP1 PUSH1 0x60 ADD JUMPDEST PUSH1 0x40 MLOAD DUP1 SWAP2 SUB SWAP1 LOG1 POP POP JUMP JUMPDEST PUSH1 0xF SLOAD PUSH1 0xFF AND ISZERO PUSH2 0x1EF4 JUMPI PUSH1 0x40 MLOAD PUSH3 0x461BCD PUSH1 0xE5 SHL DUP2 MSTORE PUSH1 0x20 PUSH1 0x4 DUP3 ADD MSTORE PUSH1 0x12 PUSH1 0x24 DUP3 ADD MSTORE PUSH18 0x10DBDB9D1C9858DD081A5CC81C185D5CD959 PUSH1 0x72 SHL PUSH1 0x44 DUP3 ADD MSTORE PUSH1 0x64 ADD PUSH2 0xF28 JUMP JUMPDEST PUSH1 0x1 PUSH1 0x1 PUSH1 0xA0 SHL SUB DUP2 AND ORIGIN EQ PUSH2 0x1F4C JUMPI PUSH1 0x40 MLOAD PUSH3 0x461BCD PUSH1 0xE5 SHL DUP2 MSTORE PUSH1 0x20 PUSH1 0x4 DUP3 ADD MSTORE PUSH1 0x1F PUSH1 0x24 DUP3 ADD MSTORE PUSH32 0x63616C6C65722073686F756C64206265207265616C2076616C696461746F7200 PUSH1 0x44 DUP3 ADD MSTORE PUSH1 0x64 ADD PUSH2 0xF28 JUMP JUMPDEST PUSH1 0x1 PUSH1 0x1 PUSH1 0xA0 SHL SUB DUP2 AND PUSH1 0x0 SWAP1 DUP2 MSTORE PUSH1 0x9 PUSH1 0x20 MSTORE PUSH1 0x40 SWAP1 KECCAK256 SLOAD PUSH1 0xFF AND PUSH2 0x1FBF JUMPI PUSH1 0x40 MLOAD PUSH3 0x461BCD PUSH1 0xE5 SHL DUP2 MSTORE PUSH1 0x20 PUSH1 0x4 DUP3 ADD MSTORE PUSH1 0x22 PUSH1 0x24 DUP3 ADD MSTORE PUSH32 0x56616C696461746F72206E6F7420617070726F76656420666F72207265776172 PUSH1 0x44 DUP3 ADD MSTORE PUSH2 0x6473 PUSH1 0xF0 SHL PUSH1 0x64 DUP3 ADD MSTORE PUSH1 0x84 ADD PUSH2 0xF28 JUMP JUMPDEST PUSH1 0x0 PUSH2 0x1FCA DUP3 PUSH2 0x1765 JUMP JUMPDEST SWAP1 POP PUSH1 0x0 DUP2 GT PUSH2 0x201C JUMPI PUSH1 0x40 MLOAD PUSH3 0x461BCD PUSH1 0xE5 SHL DUP2 MSTORE PUSH1 0x20 PUSH1 0x4 DUP3 ADD MSTORE PUSH1 0x1B PUSH1 0x24 DUP3 ADD MSTORE PUSH32 0x4E6F20616E6E75616C207265776172647320617661696C61626C650000000000 PUSH1 0x44 DUP3 ADD MSTORE PUSH1 0x64 ADD PUSH2 0xF28 JUMP JUMPDEST DUP1 SELFBALANCE LT ISZERO PUSH2 0x203C JUMPI PUSH1 0x40 MLOAD PUSH3 0x461BCD PUSH1 0xE5 SHL DUP2 MSTORE PUSH1 0x4 ADD PUSH2 0xF28 SWAP1 PUSH2 0x4214 JUMP JUMPDEST PUSH1 0x1 SLOAD PUSH1 0x40 MLOAD PUSH3 0x362A77 PUSH1 0xE0 SHL DUP2 MSTORE PUSH1 0x1 PUSH1 0x1 PUSH1 0xA0 SHL SUB DUP5 DUP2 AND PUSH1 0x4 DUP4 ADD MSTORE SWAP1 SWAP2 AND SWAP1 PUSH3 0x362A77 SWAP1 PUSH1 0x24 ADD PUSH1 0x20 PUSH1 0x40 MLOAD DUP1 DUP4 SUB DUP2 PUSH1 0x0 DUP8 GAS CALL ISZERO DUP1 ISZERO PUSH2 0x2086 JUMPI RETURNDATASIZE PUSH1 0x0 DUP1 RETURNDATACOPY RETURNDATASIZE PUSH1 0x0 REVERT JUMPDEST POP POP POP POP PUSH1 0x40 MLOAD RETURNDATASIZE PUSH1 0x1F NOT PUSH1 0x1F DUP3 ADD AND DUP3 ADD DUP1 PUSH1 0x40 MSTORE POP DUP2 ADD SWAP1 PUSH2 0x20AA SWAP2 SWAP1 PUSH2 0x424B JUMP JUMPDEST POP PUSH1 0x1 PUSH1 0x1 PUSH1 0xA0 SHL SUB DUP3 AND PUSH1 0x0 SWAP1 DUP2 MSTORE PUSH1 0xC PUSH1 0x20 MSTORE PUSH1 0x40 SWAP1 KECCAK256 TIMESTAMP SWAP1 SSTORE PUSH1 0x5 SLOAD DUP2 GT PUSH2 0x1DF1 JUMPI DUP1 PUSH1 0x5 PUSH1 0x0 DUP3 DUP3 SLOAD PUSH2 0x1DE6 SWAP2 SWAP1 PUSH2 0x3EFD JUMP JUMPDEST PUSH1 0x0 DUP1 PUSH2 0x20ED DUP4 PUSH2 0x1765 JUMP JUMPDEST SWAP1 POP DUP1 PUSH1 0x0 SUB PUSH2 0x2100 JUMPI POP PUSH1 0x0 SWAP3 SWAP2 POP POP JUMP JUMPDEST PUSH8 0xDE0B6B3A7640000 PUSH1 0x11 SLOAD DUP3 PUSH2 0x2117 SWAP2 SWAP1 PUSH2 0x41BE JUMP JUMPDEST PUSH2 0x2121 SWAP2 SWAP1 PUSH2 0x41D5 JUMP JUMPDEST SWAP4 SWAP3 POP POP POP JUMP JUMPDEST CALLER PUSH1 0x0 SWAP1 DUP2 MSTORE PUSH1 0xD PUSH1 0x20 MSTORE PUSH1 0x40 SWAP1 KECCAK256 SLOAD PUSH1 0xFF AND DUP1 PUSH2 0x2150 JUMPI POP PUSH1 0x0 SLOAD PUSH1 0x1 PUSH1 0x1 PUSH1 0xA0 SHL SUB AND CALLER EQ JUMPDEST PUSH2 0x216C JUMPI PUSH1 0x40 MLOAD PUSH3 0x461BCD PUSH1 0xE5 SHL DUP2 MSTORE PUSH1 0x4 ADD PUSH2 0xF28 SWAP1 PUSH2 0x4268 JUMP JUMPDEST PUSH2 0x2176 DUP3 DUP3 PUSH2 0x36AB JUMP JUMPDEST POP POP JUMP JUMPDEST CALLER PUSH1 0x0 SWAP1 DUP2 MSTORE PUSH1 0xD PUSH1 0x20 MSTORE PUSH1 0x40 SWAP1 KECCAK256 SLOAD PUSH1 0xFF AND DUP1 PUSH2 0x21A2 JUMPI POP PUSH1 0x0 SLOAD PUSH1 0x1 PUSH1 0x1 PUSH1 0xA0 SHL SUB AND CALLER EQ JUMPDEST PUSH2 0x21BE JUMPI PUSH1 0x40 MLOAD PUSH3 0x461BCD PUSH1 0xE5 SHL DUP2 MSTORE PUSH1 0x4 ADD PUSH2 0xF28 SWAP1 PUSH2 0x4268 JUMP JUMPDEST PUSH1 0xA SLOAD PUSH2 0x2206 JUMPI PUSH1 0x40 MLOAD PUSH3 0x461BCD PUSH1 0xE5 SHL DUP2 MSTORE PUSH1 0x20 PUSH1 0x4 DUP3 ADD MSTORE PUSH1 0x16 PUSH1 0x24 DUP3 ADD MSTORE PUSH22 0x4E6F20617070726F7665642076616C696461746F7273 PUSH1 0x50 SHL PUSH1 0x44 DUP3 ADD MSTORE PUSH1 0x64 ADD PUSH2 0xF28 JUMP JUMPDEST PUSH1 0x0 DUP1 JUMPDEST PUSH1 0xA SLOAD DUP2 LT ISZERO PUSH2 0x22A3 JUMPI PUSH1 0x0 PUSH1 0xA DUP3 DUP2 SLOAD DUP2 LT PUSH2 0x2229 JUMPI PUSH2 0x2229 PUSH2 0x3EE7 JUMP JUMPDEST PUSH1 0x0 SWAP2 DUP3 MSTORE PUSH1 0x20 DUP3 KECCAK256 ADD SLOAD PUSH1 0x1 PUSH1 0x1 PUSH1 0xA0 SHL SUB AND SWAP2 POP PUSH2 0x225E DUP3 PUSH1 0x1 PUSH1 0x1 PUSH1 0xA0 SHL SUB AND PUSH1 0x0 SWAP1 DUP2 MSTORE PUSH1 0x6 PUSH1 0x20 MSTORE PUSH1 0x40 SWAP1 KECCAK256 SLOAD SWAP1 JUMP JUMPDEST SWAP1 POP DUP1 ISZERO PUSH2 0x228E JUMPI PUSH1 0x1 PUSH1 0x1 PUSH1 0xA0 SHL SUB DUP3 AND PUSH1 0x0 SWAP1 DUP2 MSTORE PUSH1 0x6 PUSH1 0x20 MSTORE PUSH1 0x40 SWAP1 KECCAK256 DUP2 SWAP1 SSTORE PUSH2 0x228B DUP2 DUP6 PUSH2 0x3946 JUMP JUMPDEST SWAP4 POP JUMPDEST POP POP DUP1 DUP1 PUSH2 0x229B SWAP1 PUSH2 0x3F26 JUMP JUMPDEST SWAP2 POP POP PUSH2 0x220A JUMP JUMPDEST POP NUMBER PUSH1 0x3 SSTORE PUSH1 0x40 MLOAD PUSH32 0x4C7CB22838E004DD47D1CB8AABAB908F17A2851609C953FB7547C066D5E41ACF SWAP1 PUSH2 0x1150 SWAP1 PUSH1 0xA SWAP1 DUP5 SWAP1 PUSH2 0x42AE JUMP JUMPDEST PUSH1 0x1 PUSH1 0x1 PUSH1 0xA0 SHL SUB DUP2 AND PUSH1 0x0 SWAP1 DUP2 MSTORE PUSH1 0x6 PUSH1 0x20 SWAP1 DUP2 MSTORE PUSH1 0x40 DUP1 DUP4 KECCAK256 SLOAD PUSH1 0x7 SWAP1 SWAP3 MSTORE DUP3 KECCAK256 SLOAD PUSH2 0xED0 SWAP2 SWAP1 PUSH2 0x3946 JUMP JUMPDEST PUSH2 0x2311 PUSH2 0x3601 JUMP JUMPDEST PUSH1 0xF SLOAD PUSH1 0xFF AND ISZERO PUSH2 0x2364 JUMPI PUSH1 0x40 MLOAD PUSH3 0x461BCD PUSH1 0xE5 SHL DUP2 MSTORE PUSH1 0x20 PUSH1 0x4 DUP3 ADD MSTORE PUSH1 0x1A PUSH1 0x24 DUP3 ADD MSTORE PUSH32 0x436F6E747261637420697320616C726561647920706175736564000000000000 PUSH1 0x44 DUP3 ADD MSTORE PUSH1 0x64 ADD PUSH2 0xF28 JUMP JUMPDEST PUSH1 0xF DUP1 SLOAD PUSH1 0xFF NOT AND PUSH1 0x1 OR SWAP1 SSTORE PUSH1 0x40 DUP1 MLOAD CALLER DUP2 MSTORE TIMESTAMP PUSH1 0x20 DUP3 ADD MSTORE PUSH32 0x80170B5FCDD2BF1E0660EF4B8851F86685F64D41B1A19DE1471947ECE8725AAC SWAP2 ADD PUSH2 0x123C JUMP JUMPDEST PUSH1 0x1 PUSH1 0x1 PUSH1 0xA0 SHL SUB DUP2 AND PUSH1 0x0 SWAP1 DUP2 MSTORE PUSH1 0x9 PUSH1 0x20 SWAP1 DUP2 MSTORE PUSH1 0x40 DUP1 DUP4 KECCAK256 SLOAD PUSH1 0xB DUP4 MSTORE DUP2 DUP5 KECCAK256 SLOAD PUSH1 0xC SWAP1 SWAP4 MSTORE SWAP1 DUP4 KECCAK256 SLOAD DUP4 SWAP3 DUP4 SWAP3 DUP4 SWAP3 PUSH1 0xFF SWAP1 SWAP2 AND SWAP2 SWAP1 PUSH2 0x23E9 DUP9 PUSH2 0x1765 JUMP JUMPDEST SWAP4 POP SWAP4 POP SWAP4 POP SWAP4 POP SWAP2 SWAP4 POP SWAP2 SWAP4 JUMP JUMPDEST CALLER PUSH1 0x0 SWAP1 DUP2 MSTORE PUSH1 0xD PUSH1 0x20 MSTORE PUSH1 0x40 SWAP1 KECCAK256 SLOAD PUSH1 0xFF AND DUP1 PUSH2 0x2420 JUMPI POP PUSH1 0x0 SLOAD PUSH1 0x1 PUSH1 0x1 PUSH1 0xA0 SHL SUB AND CALLER EQ JUMPDEST PUSH2 0x243C JUMPI PUSH1 0x40 MLOAD PUSH3 0x461BCD PUSH1 0xE5 SHL DUP2 MSTORE PUSH1 0x4 ADD PUSH2 0xF28 SWAP1 PUSH2 0x4268 JUMP JUMPDEST NUMBER PUSH1 0x3 SSTORE JUMP JUMPDEST PUSH1 0x1 SLOAD PUSH1 0x40 MLOAD PUSH4 0xA43569B3 PUSH1 0xE0 SHL DUP2 MSTORE PUSH1 0x1 PUSH1 0x1 PUSH1 0xA0 SHL SUB DUP5 DUP2 AND PUSH1 0x4 DUP4 ADD MSTORE PUSH1 0x60 SWAP3 DUP4 SWAP3 DUP4 SWAP3 PUSH1 0x0 SWAP3 DUP4 SWAP3 DUP4 SWAP3 DUP4 SWAP3 AND SWAP1 PUSH4 0xA43569B3 SWAP1 PUSH1 0x24 ADD PUSH1 0x0 PUSH1 0x40 MLOAD DUP1 DUP4 SUB DUP2 DUP7 GAS STATICCALL ISZERO DUP1 ISZERO PUSH2 0x249A JUMPI RETURNDATASIZE PUSH1 0x0 DUP1 RETURNDATACOPY RETURNDATASIZE PUSH1 0x0 REVERT JUMPDEST POP POP POP POP PUSH1 0x40 MLOAD RETURNDATASIZE PUSH1 0x0 DUP3 RETURNDATACOPY PUSH1 0x1F RETURNDATASIZE SWAP1 DUP2 ADD PUSH1 0x1F NOT AND DUP3 ADD PUSH1 0x40 MSTORE PUSH2 0x24C2 SWAP2 SWAP1 DUP2 ADD SWAP1 PUSH2 0x40C5 JUMP JUMPDEST PUSH1 0x1 SLOAD PUSH1 0x40 MLOAD PUSH4 0x3FA7CAFD PUSH1 0xE1 SHL DUP2 MSTORE PUSH1 0x1 PUSH1 0x1 PUSH1 0xA0 SHL SUB DUP13 DUP2 AND PUSH1 0x4 DUP4 ADD DUP2 SWAP1 MSTORE PUSH1 0x24 DUP4 ADD MSTORE SWAP3 SWAP4 POP PUSH1 0x0 SWAP3 SWAP1 SWAP2 AND SWAP1 PUSH4 0x7F4F95FA SWAP1 PUSH1 0x44 ADD PUSH1 0x60 PUSH1 0x40 MLOAD DUP1 DUP4 SUB DUP2 DUP7 GAS STATICCALL ISZERO DUP1 ISZERO PUSH2 0x2519 JUMPI RETURNDATASIZE PUSH1 0x0 DUP1 RETURNDATACOPY RETURNDATASIZE PUSH1 0x0 REVERT JUMPDEST POP POP POP POP PUSH1 0x40 MLOAD RETURNDATASIZE PUSH1 0x1F NOT PUSH1 0x1F DUP3 ADD AND DUP3 ADD DUP1 PUSH1 0x40 MSTORE POP DUP2 ADD SWAP1 PUSH2 0x253D SWAP2 SWAP1 PUSH2 0x4190 JUMP JUMPDEST POP SWAP1 SWAP5 POP SWAP1 POP DUP1 ISZERO PUSH2 0x254F JUMPI PUSH1 0x0 SWAP4 SWAP3 POP JUMPDEST DUP2 PUSH2 0x256F DUP12 PUSH1 0x1 PUSH1 0x1 PUSH1 0xA0 SHL SUB AND PUSH1 0x0 SWAP1 DUP2 MSTORE PUSH1 0x6 PUSH1 0x20 MSTORE PUSH1 0x40 SWAP1 KECCAK256 SLOAD SWAP1 JUMP JUMPDEST PUSH1 0x40 DUP1 MLOAD PUSH1 0x20 DUP1 DUP3 ADD DUP4 MSTORE PUSH1 0x0 DUP1 DUP4 MSTORE DUP4 MLOAD SWAP2 DUP3 ADD SWAP1 SWAP4 MSTORE SWAP2 DUP3 MSTORE SWAP3 SWAP14 SWAP3 SWAP13 POP SWAP11 POP SWAP9 POP SWAP4 SWAP7 POP SWAP2 SWAP5 POP SWAP2 SWAP3 POP POP POP JUMP JUMPDEST CALLER PUSH1 0x0 SWAP1 DUP2 MSTORE PUSH1 0xD PUSH1 0x20 MSTORE PUSH1 0x40 SWAP1 KECCAK256 SLOAD PUSH1 0xFF AND DUP1 PUSH2 0x25C8 JUMPI POP PUSH1 0x0 SLOAD PUSH1 0x1 PUSH1 0x1 PUSH1 0xA0 SHL SUB AND CALLER EQ JUMPDEST PUSH2 0x25E4 JUMPI PUSH1 0x40 MLOAD PUSH3 0x461BCD PUSH1 0xE5 SHL DUP2 MSTORE PUSH1 0x4 ADD PUSH2 0xF28 SWAP1 PUSH2 0x4268 JUMP JUMPDEST PUSH1 0x1 PUSH1 0x1 PUSH1 0xA0 SHL SUB DUP3 AND PUSH2 0x2636 JUMPI PUSH1 0x40 MLOAD PUSH3 0x461BCD PUSH1 0xE5 SHL DUP2 MSTORE PUSH1 0x20 PUSH1 0x4 DUP3 ADD MSTORE PUSH1 0x19 PUSH1 0x24 DUP3 ADD MSTORE PUSH25 0x496E76616C696420726563697069656E742061646472657373 PUSH1 0x38 SHL PUSH1 0x44 DUP3 ADD MSTORE PUSH1 0x64 ADD PUSH2 0xF28 JUMP JUMPDEST PUSH1 0x0 DUP2 GT PUSH2 0x2686 JUMPI PUSH1 0x40 MLOAD PUSH3 0x461BCD PUSH1 0xE5 SHL DUP2 MSTORE PUSH1 0x20 PUSH1 0x4 DUP3 ADD MSTORE PUSH1 0x1D PUSH1 0x24 DUP3 ADD MSTORE PUSH32 0x416D6F756E74206D7573742062652067726561746572207468616E2030000000 PUSH1 0x44 DUP3 ADD MSTORE PUSH1 0x64 ADD PUSH2 0xF28 JUMP JUMPDEST DUP1 SELFBALANCE LT ISZERO PUSH2 0x26A6 JUMPI PUSH1 0x40 MLOAD PUSH3 0x461BCD PUSH1 0xE5 SHL DUP2 MSTORE PUSH1 0x4 ADD PUSH2 0xF28 SWAP1 PUSH2 0x4214 JUMP JUMPDEST PUSH1 0x5 SLOAD DUP2 GT PUSH2 0x26CC JUMPI DUP1 PUSH1 0x5 PUSH1 0x0 DUP3 DUP3 SLOAD PUSH2 0x26C1 SWAP2 SWAP1 PUSH2 0x3EFD JUMP JUMPDEST SWAP1 SWAP2 SSTORE POP PUSH2 0x26D2 SWAP1 POP JUMP JUMPDEST PUSH1 0x0 PUSH1 0x5 SSTORE JUMPDEST PUSH1 0x40 MLOAD PUSH1 0x1 PUSH1 0x1 PUSH1 0xA0 SHL SUB DUP4 AND SWAP1 DUP3 ISZERO PUSH2 0x8FC MUL SWAP1 DUP4 SWAP1 PUSH1 0x0 DUP2 DUP2 DUP2 DUP6 DUP9 DUP9 CALL SWAP4 POP POP POP POP ISZERO DUP1 ISZERO PUSH2 0x2708 JUMPI RETURNDATASIZE PUSH1 0x0 DUP1 RETURNDATACOPY RETURNDATASIZE PUSH1 0x0 REVERT JUMPDEST POP PUSH1 0x40 DUP1 MLOAD PUSH1 0x1 PUSH1 0x1 PUSH1 0xA0 SHL SUB DUP5 AND DUP2 MSTORE PUSH1 0x20 DUP2 ADD DUP4 SWAP1 MSTORE PUSH32 0x8C9A4F13B67CB64D7C6AA1AE0C9BF07694AF521A28B93E7060020810AB4BC59F SWAP2 ADD PUSH2 0x1EA0 JUMP JUMPDEST PUSH1 0x0 PUSH1 0x2 SLOAD CALLVALUE LT ISZERO PUSH2 0x27AB JUMPI PUSH1 0x40 MLOAD PUSH3 0x461BCD PUSH1 0xE5 SHL DUP2 MSTORE PUSH1 0x20 PUSH1 0x4 DUP3 ADD MSTORE PUSH1 0x26 PUSH1 0x24 DUP3 ADD MSTORE PUSH32 0x506C65617365207374616B65206D696E696D756D2076616C696461746F722073 PUSH1 0x44 DUP3 ADD MSTORE PUSH6 0x74616B696E67 PUSH1 0xD0 SHL PUSH1 0x64 DUP3 ADD MSTORE PUSH1 0x84 ADD PUSH2 0xF28 JUMP JUMPDEST PUSH1 0x1 SLOAD PUSH1 0x40 MLOAD PUSH4 0x4CB97873 PUSH1 0xE1 SHL DUP2 MSTORE PUSH1 0x1 PUSH1 0x1 PUSH1 0xA0 SHL SUB SWAP1 SWAP2 AND SWAP1 PUSH4 0x9972F0E6 SWAP1 CALLVALUE SWAP1 PUSH2 0x27E1 SWAP1 DUP9 SWAP1 DUP9 SWAP1 DUP9 SWAP1 PUSH1 0x4 ADD PUSH2 0x4307 JUMP JUMPDEST PUSH1 0x20 PUSH1 0x40 MLOAD DUP1 DUP4 SUB DUP2 DUP6 DUP9 GAS CALL ISZERO DUP1 ISZERO PUSH2 0x27FF JUMPI RETURNDATASIZE PUSH1 0x0 DUP1 RETURNDATACOPY RETURNDATASIZE PUSH1 0x0 REVERT JUMPDEST POP POP POP POP POP PUSH1 0x40 MLOAD RETURNDATASIZE PUSH1 0x1F NOT PUSH1 0x1F DUP3 ADD AND DUP3 ADD DUP1 PUSH1 0x40 MSTORE POP DUP2 ADD SWAP1 PUSH2 0x2824 SWAP2 SWAP1 PUSH2 0x424B JUMP JUMPDEST POP PUSH1 0x40 DUP1 MLOAD CALLER DUP2 MSTORE CALLVALUE PUSH1 0x20 DUP3 ADD MSTORE TIMESTAMP DUP2 DUP4 ADD MSTORE SWAP1 MLOAD PUSH32 0x5AF417134F72A9D41143ACE85B0A26DCE6F550F894F2CBC1EEEE8810603D91B6 SWAP2 DUP2 SWAP1 SUB PUSH1 0x60 ADD SWAP1 LOG1 POP PUSH1 0x1 SWAP4 SWAP3 POP POP POP JUMP JUMPDEST PUSH2 0x2875 PUSH2 0x3601 JUMP JUMPDEST PUSH1 0x13 DUP1 SLOAD DUP3 ISZERO ISZERO PUSH1 0x1 PUSH1 0xA0 SHL MUL PUSH1 0xFF PUSH1 0xA0 SHL NOT SWAP1 SWAP2 AND OR SWAP1 SSTORE PUSH1 0x40 MLOAD PUSH32 0x6F11B565D62315D173899960E4F3B73812B539032680C62A1B233D5EBDA3493F SWAP1 PUSH2 0x1150 SWAP1 DUP4 ISZERO ISZERO DUP2 MSTORE PUSH1 0x20 ADD SWAP1 JUMP JUMPDEST PUSH1 0x14 DUP2 PUSH1 0x4 DUP2 LT PUSH2 0x28D2 JUMPI PUSH1 0x0 DUP1 REVERT JUMPDEST PUSH1 0x3 MUL ADD DUP1 SLOAD PUSH1 0x1 DUP3 ADD SLOAD PUSH1 0x2 DUP4 ADD DUP1 SLOAD SWAP3 SWAP5 POP SWAP1 SWAP3 SWAP2 PUSH2 0x28F2 SWAP1 PUSH2 0x4347 JUMP JUMPDEST DUP1 PUSH1 0x1F ADD PUSH1 0x20 DUP1 SWAP2 DIV MUL PUSH1 0x20 ADD PUSH1 0x40 MLOAD SWAP1 DUP2 ADD PUSH1 0x40 MSTORE DUP1 SWAP3 SWAP2 SWAP1 DUP2 DUP2 MSTORE PUSH1 0x20 ADD DUP3 DUP1 SLOAD PUSH2 0x291E SWAP1 PUSH2 0x4347 JUMP JUMPDEST DUP1 ISZERO PUSH2 0x296B JUMPI DUP1 PUSH1 0x1F LT PUSH2 0x2940 JUMPI PUSH2 0x100 DUP1 DUP4 SLOAD DIV MUL DUP4 MSTORE SWAP2 PUSH1 0x20 ADD SWAP2 PUSH2 0x296B JUMP JUMPDEST DUP3 ADD SWAP2 SWAP1 PUSH1 0x0 MSTORE PUSH1 0x20 PUSH1 0x0 KECCAK256 SWAP1 JUMPDEST DUP2 SLOAD DUP2 MSTORE SWAP1 PUSH1 0x1 ADD SWAP1 PUSH1 0x20 ADD DUP1 DUP4 GT PUSH2 0x294E JUMPI DUP3 SWAP1 SUB PUSH1 0x1F AND DUP3 ADD SWAP2 JUMPDEST POP POP POP POP POP SWAP1 POP DUP4 JUMP JUMPDEST CALLER PUSH1 0x0 SWAP1 DUP2 MSTORE PUSH1 0xD PUSH1 0x20 MSTORE PUSH1 0x40 SWAP1 KECCAK256 SLOAD PUSH1 0xFF AND DUP1 PUSH2 0x299D JUMPI POP PUSH1 0x0 SLOAD PUSH1 0x1 PUSH1 0x1 PUSH1 0xA0 SHL SUB AND CALLER EQ JUMPDEST PUSH2 0x29B9 JUMPI PUSH1 0x40 MLOAD PUSH3 0x461BCD PUSH1 0xE5 SHL DUP2 MSTORE PUSH1 0x4 ADD PUSH2 0xF28 SWAP1 PUSH2 0x4268 JUMP JUMPDEST PUSH1 0x0 JUMPDEST DUP3 DUP2 LT ISZERO PUSH2 0x2A06 JUMPI PUSH2 0x29F4 DUP5 DUP5 DUP4 DUP2 DUP2 LT PUSH2 0x29D9 JUMPI PUSH2 0x29D9 PUSH2 0x3EE7 JUMP JUMPDEST SWAP1 POP PUSH1 0x20 MUL ADD PUSH1 0x20 DUP2 ADD SWAP1 PUSH2 0x29EE SWAP2 SWAP1 PUSH2 0x396E JUMP JUMPDEST DUP4 PUSH2 0x36AB JUMP JUMPDEST DUP1 PUSH2 0x29FE DUP2 PUSH2 0x3F26 JUMP JUMPDEST SWAP2 POP POP PUSH2 0x29BC JUMP JUMPDEST POP POP POP POP JUMP JUMPDEST PUSH2 0x2A14 PUSH2 0x3601 JUMP JUMPDEST SELFBALANCE PUSH1 0x5 PUSH1 0x0 DUP3 DUP3 SLOAD PUSH2 0x2A26 SWAP2 SWAP1 PUSH2 0x3EFD JUMP JUMPDEST SWAP1 SWAP2 SSTORE POP POP PUSH1 0x40 MLOAD CALLER SWAP1 SELFBALANCE DUP1 ISZERO PUSH2 0x8FC MUL SWAP2 PUSH1 0x0 DUP2 DUP2 DUP2 DUP6 DUP9 DUP9 CALL SWAP4 POP POP POP POP ISZERO DUP1 ISZERO PUSH2 0x2A57 JUMPI RETURNDATASIZE PUSH1 0x0 DUP1 RETURNDATACOPY RETURNDATASIZE PUSH1 0x0 REVERT JUMPDEST POP JUMP JUMPDEST PUSH1 0x1 SLOAD PUSH1 0x40 DUP1 MLOAD PUSH4 0x5F322B49 PUSH1 0xE1 SHL DUP2 MSTORE SWAP1 MLOAD PUSH1 0x0 SWAP3 PUSH1 0x1 PUSH1 0x1 PUSH1 0xA0 SHL SUB AND SWAP2 PUSH4 0xBE645692 SWAP2 PUSH1 0x4 DUP1 DUP4 ADD SWAP3 PUSH1 0x20 SWAP3 SWAP2 SWAP1 DUP3 SWAP1 SUB ADD DUP2 DUP7 GAS STATICCALL ISZERO DUP1 ISZERO PUSH2 0x2AA4 JUMPI RETURNDATASIZE PUSH1 0x0 DUP1 RETURNDATACOPY RETURNDATASIZE PUSH1 0x0 REVERT JUMPDEST POP POP POP POP PUSH1 0x40 MLOAD RETURNDATASIZE PUSH1 0x1F NOT PUSH1 0x1F DUP3 ADD AND DUP3 ADD DUP1 PUSH1 0x40 MSTORE POP DUP2 ADD SWAP1 PUSH2 0x2AC8 SWAP2 SWAP1 PUSH2 0x4177 JUMP JUMPDEST SWAP1 POP SWAP1 JUMP JUMPDEST PUSH1 0x0 DUP1 PUSH1 0x0 PUSH2 0x2AF1 DUP5 PUSH1 0x1 PUSH1 0x1 PUSH1 0xA0 SHL SUB AND PUSH1 0x0 SWAP1 DUP2 MSTORE PUSH1 0x6 PUSH1 0x20 MSTORE PUSH1 0x40 SWAP1 KECCAK256 SLOAD SWAP1 JUMP JUMPDEST SWAP3 POP PUSH2 0x2AFC DUP5 PUSH2 0x1765 JUMP JUMPDEST SWAP2 POP PUSH2 0x2B08 DUP3 DUP5 PUSH2 0x3946 JUMP JUMPDEST SWAP3 SWAP5 SWAP2 SWAP4 POP POP JUMP JUMPDEST PUSH2 0x2B18 PUSH2 0x3601 JUMP JUMPDEST PUSH2 0xC350 DUP2 GT ISZERO PUSH2 0x2B78 JUMPI PUSH1 0x40 MLOAD PUSH3 0x461BCD PUSH1 0xE5 SHL DUP2 MSTORE PUSH1 0x20 PUSH1 0x4 DUP3 ADD MSTORE PUSH1 0x25 PUSH1 0x24 DUP3 ADD MSTORE PUSH32 0x416E6E75616C2072657761726420726174652063616E6E6F7420657863656564 PUSH1 0x44 DUP3 ADD MSTORE PUSH5 0x2035303025 PUSH1 0xD8 SHL PUSH1 0x64 DUP3 ADD MSTORE PUSH1 0x84 ADD PUSH2 0xF28 JUMP JUMPDEST PUSH1 0x10 SSTORE JUMP JUMPDEST PUSH2 0x2B85 PUSH2 0x3601 JUMP JUMPDEST NUMBER DUP2 GT ISZERO PUSH2 0x2BD5 JUMPI PUSH1 0x40 MLOAD PUSH3 0x461BCD PUSH1 0xE5 SHL DUP2 MSTORE PUSH1 0x20 PUSH1 0x4 DUP3 ADD MSTORE PUSH1 0x17 PUSH1 0x24 DUP3 ADD MSTORE PUSH32 0x43616E6E6F74207365742066757475726520626C6F636B000000000000000000 PUSH1 0x44 DUP3 ADD MSTORE PUSH1 0x64 ADD PUSH2 0xF28 JUMP JUMPDEST PUSH1 0x3 SSTORE JUMP JUMPDEST PUSH1 0x1 SLOAD PUSH1 0x40 MLOAD PUSH4 0x3FA7CAFD PUSH1 0xE1 SHL DUP2 MSTORE PUSH1 0x1 PUSH1 0x1 PUSH1 0xA0 SHL SUB DUP5 DUP2 AND PUSH1 0x4 DUP4 ADD MSTORE DUP4 DUP2 AND PUSH1 0x24 DUP4 ADD MSTORE PUSH1 0x0 SWAP3 DUP4 SWAP3 SWAP2 AND SWAP1 PUSH4 0x7F4F95FA SWAP1 PUSH1 0x44 ADD PUSH1 0x60 PUSH1 0x40 MLOAD DUP1 DUP4 SUB DUP2 DUP7 GAS STATICCALL ISZERO DUP1 ISZERO PUSH2 0x2C30 JUMPI RETURNDATASIZE PUSH1 0x0 DUP1 RETURNDATACOPY RETURNDATASIZE PUSH1 0x0 REVERT JUMPDEST POP POP POP POP PUSH1 0x40 MLOAD RETURNDATASIZE PUSH1 0x1F NOT PUSH1 0x1F DUP3 ADD AND DUP3 ADD DUP1 PUSH1 0x40 MSTORE POP DUP2 ADD SWAP1 PUSH2 0x2C54 SWAP2 SWAP1 PUSH2 0x4190 JUMP JUMPDEST POP SWAP2 POP POP DUP1 PUSH1 0x0 SUB PUSH2 0x2C6A JUMPI PUSH1 0x0 SWAP2 POP POP PUSH2 0xED0 JUMP JUMPDEST PUSH1 0x1 SLOAD PUSH1 0x40 DUP1 MLOAD PUSH4 0x1B6F1BA5 PUSH1 0xE3 SHL DUP2 MSTORE SWAP1 MLOAD NUMBER SWAP3 PUSH1 0x1 PUSH1 0x1 PUSH1 0xA0 SHL SUB AND SWAP2 PUSH4 0xDB78DD28 SWAP2 PUSH1 0x4 DUP1 DUP4 ADD SWAP3 PUSH1 0x20 SWAP3 SWAP2 SWAP1 DUP3 SWAP1 SUB ADD DUP2 DUP7 GAS STATICCALL ISZERO DUP1 ISZERO PUSH2 0x2CB3 JUMPI RETURNDATASIZE PUSH1 0x0 DUP1 RETURNDATACOPY RETURNDATASIZE PUSH1 0x0 REVERT JUMPDEST POP POP POP POP PUSH1 0x40 MLOAD RETURNDATASIZE PUSH1 0x1F NOT PUSH1 0x1F DUP3 ADD AND DUP3 ADD DUP1 PUSH1 0x40 MSTORE POP DUP2 ADD SWAP1 PUSH2 0x2CD7 SWAP2 SWAP1 PUSH2 0x4381 JUMP JUMPDEST PUSH2 0x2CEA SWAP1 PUSH1 0x1 PUSH1 0x1 PUSH1 0x40 SHL SUB AND DUP4 PUSH2 0x3946 JUMP JUMPDEST GT ISZERO PUSH2 0x2D8D JUMPI PUSH1 0x1 SLOAD PUSH1 0x40 DUP1 MLOAD PUSH4 0x1B6F1BA5 PUSH1 0xE3 SHL DUP2 MSTORE SWAP1 MLOAD NUMBER SWAP3 PUSH1 0x1 PUSH1 0x1 PUSH1 0xA0 SHL SUB AND SWAP2 PUSH4 0xDB78DD28 SWAP2 PUSH1 0x4 DUP1 DUP4 ADD SWAP3 PUSH1 0x20 SWAP3 SWAP2 SWAP1 DUP3 SWAP1 SUB ADD DUP2 DUP7 GAS STATICCALL ISZERO DUP1 ISZERO PUSH2 0x2D39 JUMPI RETURNDATASIZE PUSH1 0x0 DUP1 RETURNDATACOPY RETURNDATASIZE PUSH1 0x0 REVERT JUMPDEST POP POP POP POP PUSH1 0x40 MLOAD RETURNDATASIZE PUSH1 0x1F NOT PUSH1 0x1F DUP3 ADD AND DUP3 ADD DUP1 PUSH1 0x40 MSTORE POP DUP2 ADD SWAP1 PUSH2 0x2D5D SWAP2 SWAP1 PUSH2 0x4381 JUMP JUMPDEST PUSH2 0x2D70 SWAP1 PUSH1 0x1 PUSH1 0x1 PUSH1 0x40 SHL SUB AND DUP4 PUSH2 0x3946 JUMP JUMPDEST PUSH2 0x2D7A SWAP2 SWAP1 PUSH2 0x3EFD JUMP JUMPDEST PUSH2 0x2D85 SWAP1 PUSH1 0x2 PUSH2 0x41BE JUMP JUMPDEST SWAP2 POP POP PUSH2 0xED0 JUMP JUMPDEST POP PUSH1 0x0 SWAP4 SWAP3 POP POP POP JUMP JUMPDEST PUSH1 0x60 PUSH1 0xE DUP1 SLOAD DUP1 PUSH1 0x20 MUL PUSH1 0x20 ADD PUSH1 0x40 MLOAD SWAP1 DUP2 ADD PUSH1 0x40 MSTORE DUP1 SWAP3 SWAP2 SWAP1 DUP2 DUP2 MSTORE PUSH1 0x20 ADD DUP3 DUP1 SLOAD DUP1 ISZERO PUSH2 0x2DEF JUMPI PUSH1 0x20 MUL DUP3 ADD SWAP2 SWAP1 PUSH1 0x0 MSTORE PUSH1 0x20 PUSH1 0x0 KECCAK256 SWAP1 JUMPDEST DUP2 SLOAD PUSH1 0x1 PUSH1 0x1 PUSH1 0xA0 SHL SUB AND DUP2 MSTORE PUSH1 0x1 SWAP1 SWAP2 ADD SWAP1 PUSH1 0x20 ADD DUP1 DUP4 GT PUSH2 0x2DD1 JUMPI JUMPDEST POP POP POP POP POP SWAP1 POP SWAP1 JUMP JUMPDEST PUSH2 0x2E01 PUSH2 0x3601 JUMP JUMPDEST PUSH1 0x1 PUSH1 0x1 PUSH1 0xA0 SHL SUB DUP3 AND PUSH2 0x2E53 JUMPI PUSH1 0x40 MLOAD PUSH3 0x461BCD PUSH1 0xE5 SHL DUP2 MSTORE PUSH1 0x20 PUSH1 0x4 DUP3 ADD MSTORE PUSH1 0x19 PUSH1 0x24 DUP3 ADD MSTORE PUSH25 0x496E76616C696420726563697069656E742061646472657373 PUSH1 0x38 SHL PUSH1 0x44 DUP3 ADD MSTORE PUSH1 0x64 ADD PUSH2 0xF28 JUMP JUMPDEST PUSH1 0x0 DUP2 GT PUSH2 0x2EA3 JUMPI PUSH1 0x40 MLOAD PUSH3 0x461BCD PUSH1 0xE5 SHL DUP2 MSTORE PUSH1 0x20 PUSH1 0x4 DUP3 ADD MSTORE PUSH1 0x1D PUSH1 0x24 DUP3 ADD MSTORE PUSH32 0x416D6F756E74206D7573742062652067726561746572207468616E2030000000 PUSH1 0x44 DUP3 ADD MSTORE PUSH1 0x64 ADD PUSH2 0xF28 JUMP JUMPDEST DUP1 SELFBALANCE LT ISZERO PUSH2 0x26D2 JUMPI PUSH1 0x40 MLOAD PUSH3 0x461BCD PUSH1 0xE5 SHL DUP2 MSTORE PUSH1 0x4 ADD PUSH2 0xF28 SWAP1 PUSH2 0x4214 JUMP JUMPDEST PUSH1 0x1 SLOAD PUSH1 0x40 MLOAD PUSH4 0x3FA7CAFD PUSH1 0xE1 SHL DUP2 MSTORE PUSH1 0x1 PUSH1 0x1 PUSH1 0xA0 SHL SUB DUP4 DUP2 AND PUSH1 0x4 DUP4 ADD DUP2 SWAP1 MSTORE PUSH1 0x24 DUP4 ADD MSTORE PUSH1 0x0 SWAP3 PUSH1 0x60 SWAP3 DUP5 SWAP3 DUP4 SWAP3 DUP4 SWAP3 DUP4 SWAP3 SWAP1 SWAP2 AND SWAP1 PUSH4 0x7F4F95FA SWAP1 PUSH1 0x44 ADD PUSH1 0x60 PUSH1 0x40 MLOAD DUP1 DUP4 SUB DUP2 DUP7 GAS STATICCALL ISZERO DUP1 ISZERO PUSH2 0x2F22 JUMPI RETURNDATASIZE PUSH1 0x0 DUP1 RETURNDATACOPY RETURNDATASIZE PUSH1 0x0 REVERT JUMPDEST POP POP POP POP PUSH1 0x40 MLOAD RETURNDATASIZE PUSH1 0x1F NOT PUSH1 0x1F DUP3 ADD AND DUP3 ADD DUP1 PUSH1 0x40 MSTORE POP DUP2 ADD SWAP1 PUSH2 0x2F46 SWAP2 SWAP1 PUSH2 0x4190 JUMP JUMPDEST POP SWAP1 SWAP3 POP PUSH1 0x3 SWAP1 POP JUMPDEST PUSH1 0x14 DUP2 PUSH1 0x4 DUP2 LT PUSH2 0x2F62 JUMPI PUSH2 0x2F62 PUSH2 0x3EE7 JUMP JUMPDEST PUSH1 0x3 MUL ADD SLOAD DUP4 LT PUSH2 0x3066 JUMPI PUSH2 0x2F78 DUP2 PUSH1 0x1 PUSH2 0x3946 JUMP JUMPDEST PUSH1 0x14 DUP3 PUSH1 0x4 DUP2 LT PUSH2 0x2F8B JUMPI PUSH2 0x2F8B PUSH2 0x3EE7 JUMP JUMPDEST PUSH1 0x3 MUL ADD PUSH1 0x2 ADD PUSH1 0x14 DUP4 PUSH1 0x4 DUP2 LT PUSH2 0x2FA5 JUMPI PUSH2 0x2FA5 PUSH2 0x3EE7 JUMP JUMPDEST PUSH1 0x3 MUL ADD SLOAD PUSH1 0x14 DUP5 PUSH1 0x4 DUP2 LT PUSH2 0x2FBD JUMPI PUSH2 0x2FBD PUSH2 0x3EE7 JUMP JUMPDEST PUSH1 0x3 MUL ADD PUSH1 0x1 ADD SLOAD DUP7 PUSH1 0x1 DUP5 DUP1 SLOAD PUSH2 0x2FD4 SWAP1 PUSH2 0x4347 JUMP JUMPDEST DUP1 PUSH1 0x1F ADD PUSH1 0x20 DUP1 SWAP2 DIV MUL PUSH1 0x20 ADD PUSH1 0x40 MLOAD SWAP1 DUP2 ADD PUSH1 0x40 MSTORE DUP1 SWAP3 SWAP2 SWAP1 DUP2 DUP2 MSTORE PUSH1 0x20 ADD DUP3 DUP1 SLOAD PUSH2 0x3000 SWAP1 PUSH2 0x4347 JUMP JUMPDEST DUP1 ISZERO PUSH2 0x304D JUMPI DUP1 PUSH1 0x1F LT PUSH2 0x3022 JUMPI PUSH2 0x100 DUP1 DUP4 SLOAD DIV MUL DUP4 MSTORE SWAP2 PUSH1 0x20 ADD SWAP2 PUSH2 0x304D JUMP JUMPDEST DUP3 ADD SWAP2 SWAP1 PUSH1 0x0 MSTORE PUSH1 0x20 PUSH1 0x0 KECCAK256 SWAP1 JUMPDEST DUP2 SLOAD DUP2 MSTORE SWAP1 PUSH1 0x1 ADD SWAP1 PUSH1 0x20 ADD DUP1 DUP4 GT PUSH2 0x3030 JUMPI DUP3 SWAP1 SUB PUSH1 0x1F AND DUP3 ADD SWAP2 JUMPDEST POP POP POP POP POP SWAP5 POP SWAP7 POP SWAP7 POP SWAP7 POP SWAP7 POP SWAP7 POP SWAP7 POP POP PUSH2 0x3078 JUMP JUMPDEST DUP1 PUSH2 0x3070 DUP2 PUSH2 0x43AA JUMP JUMPDEST SWAP2 POP POP PUSH2 0x2F4F JUMP JUMPDEST SWAP2 SWAP4 SWAP6 POP SWAP2 SWAP4 SWAP6 JUMP JUMPDEST PUSH1 0x13 SLOAD PUSH1 0x1 PUSH1 0x1 PUSH1 0xA0 SHL SUB AND CALLER EQ DUP1 PUSH2 0x30A4 JUMPI POP PUSH1 0x0 SLOAD PUSH1 0x1 PUSH1 0x1 PUSH1 0xA0 SHL SUB AND CALLER EQ JUMPDEST PUSH2 0x30F0 JUMPI PUSH1 0x40 MLOAD PUSH3 0x461BCD PUSH1 0xE5 SHL DUP2 MSTORE PUSH1 0x20 PUSH1 0x4 DUP3 ADD MSTORE PUSH1 0x1E PUSH1 0x24 DUP3 ADD MSTORE PUSH32 0x4E6F7420617574686F72697A656420746F207570646174652070726963650000 PUSH1 0x44 DUP3 ADD MSTORE PUSH1 0x64 ADD PUSH2 0xF28 JUMP JUMPDEST PUSH1 0x0 DUP2 GT PUSH2 0x3140 JUMPI PUSH1 0x40 MLOAD PUSH3 0x461BCD PUSH1 0xE5 SHL DUP2 MSTORE PUSH1 0x20 PUSH1 0x4 DUP3 ADD MSTORE PUSH1 0x1C PUSH1 0x24 DUP3 ADD MSTORE PUSH32 0x5072696365206D7573742062652067726561746572207468616E203000000000 PUSH1 0x44 DUP3 ADD MSTORE PUSH1 0x64 ADD PUSH2 0xF28 JUMP JUMPDEST PUSH3 0x186A0 DUP2 GT ISZERO PUSH2 0x3193 JUMPI PUSH1 0x40 MLOAD PUSH3 0x461BCD PUSH1 0xE5 SHL DUP2 MSTORE PUSH1 0x20 PUSH1 0x4 DUP3 ADD MSTORE PUSH1 0x1A PUSH1 0x24 DUP3 ADD MSTORE PUSH32 0x507269636520746F6F206869676820286D617820243130303029000000000000 PUSH1 0x44 DUP3 ADD MSTORE PUSH1 0x64 ADD PUSH2 0xF28 JUMP JUMPDEST PUSH2 0x5460 PUSH1 0x12 SLOAD PUSH2 0x31A3 SWAP2 SWAP1 PUSH2 0x3946 JUMP JUMPDEST TIMESTAMP LT ISZERO PUSH2 0x3207 JUMPI PUSH1 0x40 MLOAD PUSH3 0x461BCD PUSH1 0xE5 SHL DUP2 MSTORE PUSH1 0x20 PUSH1 0x4 DUP3 ADD MSTORE PUSH1 0x2C PUSH1 0x24 DUP3 ADD MSTORE PUSH32 0x50726963652063616E206F6E6C792062652075706461746564206F6E63652065 PUSH1 0x44 DUP3 ADD MSTORE PUSH12 0x76657279203620686F757273 PUSH1 0xA0 SHL PUSH1 0x64 DUP3 ADD MSTORE PUSH1 0x84 ADD PUSH2 0xF28 JUMP JUMPDEST PUSH1 0x11 DUP2 SWAP1 SSTORE TIMESTAMP PUSH1 0x12 DUP2 SWAP1 SSTORE PUSH1 0x40 DUP1 MLOAD DUP4 DUP2 MSTORE PUSH1 0x20 DUP2 ADD SWAP3 SWAP1 SWAP3 MSTORE PUSH32 0x945C1C4E99AA89F648FBFE3DF471B916F719E16D960FCEC0737D4D56BD696838 SWAP2 ADD PUSH2 0x1150 JUMP JUMPDEST PUSH1 0x0 DUP1 PUSH1 0x1 PUSH1 0x0 SWAP1 SLOAD SWAP1 PUSH2 0x100 EXP SWAP1 DIV PUSH1 0x1 PUSH1 0x1 PUSH1 0xA0 SHL SUB AND PUSH1 0x1 PUSH1 0x1 PUSH1 0xA0 SHL SUB AND PUSH4 0xBE645692 PUSH1 0x40 MLOAD DUP2 PUSH4 0xFFFFFFFF AND PUSH1 0xE0 SHL DUP2 MSTORE PUSH1 0x4 ADD PUSH1 0x20 PUSH1 0x40 MLOAD DUP1 DUP4 SUB DUP2 DUP7 GAS STATICCALL ISZERO DUP1 ISZERO PUSH2 0x329F JUMPI RETURNDATASIZE PUSH1 0x0 DUP1 RETURNDATACOPY RETURNDATASIZE PUSH1 0x0 REVERT JUMPDEST POP POP POP POP PUSH1 0x40 MLOAD RETURNDATASIZE PUSH1 0x1F NOT PUSH1 0x1F DUP3 ADD AND DUP3 ADD DUP1 PUSH1 0x40 MSTORE POP DUP2 ADD SWAP1 PUSH2 0x32C3 SWAP2 SWAP1 PUSH2 0x4177 JUMP JUMPDEST PUSH2 0x32CD DUP6 DUP6 PUSH2 0x2BDA JUMP JUMPDEST SWAP2 POP SWAP2 POP JUMPDEST SWAP3 POP SWAP3 SWAP1 POP JUMP JUMPDEST PUSH2 0x32E1 PUSH2 0x3601 JUMP JUMPDEST PUSH1 0x4 DUP6 LT PUSH2 0x3326 JUMPI PUSH1 0x40 MLOAD PUSH3 0x461BCD PUSH1 0xE5 SHL DUP2 MSTORE PUSH1 0x20 PUSH1 0x4 DUP3 ADD MSTORE PUSH1 0x12 PUSH1 0x24 DUP3 ADD MSTORE PUSH18 0x92DCECC2D8D2C840E8D2CAE440D2DCC8CAF PUSH1 0x73 SHL PUSH1 0x44 DUP3 ADD MSTORE PUSH1 0x64 ADD PUSH2 0xF28 JUMP JUMPDEST PUSH1 0x0 DUP5 GT PUSH2 0x3384 JUMPI PUSH1 0x40 MLOAD PUSH3 0x461BCD PUSH1 0xE5 SHL DUP2 MSTORE PUSH1 0x20 PUSH1 0x4 DUP3 ADD MSTORE PUSH1 0x25 PUSH1 0x24 DUP3 ADD MSTORE PUSH32 0x5374616B696E6720616D6F756E74206D75737420626520677265617465722074 PUSH1 0x44 DUP3 ADD MSTORE PUSH5 0x68616E203 PUSH1 0xDC SHL PUSH1 0x64 DUP3 ADD MSTORE PUSH1 0x84 ADD PUSH2 0xF28 JUMP JUMPDEST PUSH1 0x0 DUP4 GT PUSH2 0x33E0 JUMPI PUSH1 0x40 MLOAD PUSH3 0x461BCD PUSH1 0xE5 SHL DUP2 MSTORE PUSH1 0x20 PUSH1 0x4 DUP3 ADD MSTORE PUSH1 0x24 DUP1 DUP3 ADD MSTORE PUSH32 0x52657761726420616D6F756E74206D7573742062652067726561746572207468 PUSH1 0x44 DUP3 ADD MSTORE PUSH4 0x616E203 PUSH1 0xE4 SHL PUSH1 0x64 DUP3 ADD MSTORE PUSH1 0x84 ADD PUSH2 0xF28 JUMP JUMPDEST PUSH1 0x40 MLOAD DUP1 PUSH1 0x60 ADD PUSH1 0x40 MSTORE DUP1 DUP6 DUP2 MSTORE PUSH1 0x20 ADD DUP5 DUP2 MSTORE PUSH1 0x20 ADD DUP4 DUP4 DUP1 DUP1 PUSH1 0x1F ADD PUSH1 0x20 DUP1 SWAP2 DIV MUL PUSH1 0x20 ADD PUSH1 0x40 MLOAD SWAP1 DUP2 ADD PUSH1 0x40 MSTORE DUP1 SWAP4 SWAP3 SWAP2 SWAP1 DUP2 DUP2 MSTORE PUSH1 0x20 ADD DUP4 DUP4 DUP1 DUP3 DUP5 CALLDATACOPY PUSH1 0x0 SWAP3 ADD SWAP2 SWAP1 SWAP2 MSTORE POP POP POP SWAP2 MSTORE POP PUSH1 0x14 DUP7 PUSH1 0x4 DUP2 LT PUSH2 0x3442 JUMPI PUSH2 0x3442 PUSH2 0x3EE7 JUMP JUMPDEST PUSH1 0x3 MUL ADD PUSH1 0x0 DUP3 ADD MLOAD DUP2 PUSH1 0x0 ADD SSTORE PUSH1 0x20 DUP3 ADD MLOAD DUP2 PUSH1 0x1 ADD SSTORE PUSH1 0x40 DUP3 ADD MLOAD DUP2 PUSH1 0x2 ADD SWAP1 DUP2 PUSH2 0x346F SWAP2 SWAP1 PUSH2 0x4408 JUMP JUMPDEST POP POP POP POP POP POP POP POP JUMP JUMPDEST PUSH1 0x1 SLOAD PUSH1 0x40 MLOAD PUSH4 0xF2888DBB PUSH1 0xE0 SHL DUP2 MSTORE PUSH1 0x1 PUSH1 0x1 PUSH1 0xA0 SHL SUB DUP4 DUP2 AND PUSH1 0x4 DUP4 ADD MSTORE PUSH1 0x0 SWAP3 AND SWAP1 PUSH4 0xF2888DBB SWAP1 PUSH1 0x24 ADD PUSH1 0x20 PUSH1 0x40 MLOAD DUP1 DUP4 SUB DUP2 PUSH1 0x0 DUP8 GAS CALL ISZERO DUP1 ISZERO PUSH2 0x34C6 JUMPI RETURNDATASIZE PUSH1 0x0 DUP1 RETURNDATACOPY RETURNDATASIZE PUSH1 0x0 REVERT JUMPDEST POP POP POP POP PUSH1 0x40 MLOAD RETURNDATASIZE PUSH1 0x1F NOT PUSH1 0x1F DUP3 ADD AND DUP3 ADD DUP1 PUSH1 0x40 MSTORE POP DUP2 ADD SWAP1 PUSH2 0x34EA SWAP2 SWAP1 PUSH2 0x424B JUMP JUMPDEST POP PUSH1 0x40 DUP1 MLOAD CALLER DUP2 MSTORE TIMESTAMP PUSH1 0x20 DUP3 ADD MSTORE PUSH32 0x85082129D87B2FE11527CB1B3B7A520AEB5AA6913F88A3D8757FE40D1DB02FDD SWAP2 ADD PUSH1 0x40 MLOAD DUP1 SWAP2 SUB SWAP1 LOG1 POP PUSH1 0x1 SWAP2 SWAP1 POP JUMP JUMPDEST PUSH2 0x3533 PUSH2 0x3601 JUMP JUMPDEST PUSH1 0x1 PUSH1 0x1 PUSH1 0xA0 SHL SUB DUP2 AND PUSH2 0x3598 JUMPI PUSH1 0x40 MLOAD PUSH3 0x461BCD PUSH1 0xE5 SHL DUP2 MSTORE PUSH1 0x20 PUSH1 0x4 DUP3 ADD MSTORE PUSH1 0x26 PUSH1 0x24 DUP3 ADD MSTORE PUSH32 0x4F776E61626C653A206E6577206F776E657220697320746865207A65726F2061 PUSH1 0x44 DUP3 ADD MSTORE PUSH6 0x646472657373 PUSH1 0xD0 SHL PUSH1 0x64 DUP3 ADD MSTORE PUSH1 0x84 ADD PUSH2 0xF28 JUMP JUMPDEST PUSH2 0x2A57 DUP2 PUSH2 0x365B JUMP JUMPDEST PUSH1 0x60 PUSH1 0xA DUP1 SLOAD DUP1 PUSH1 0x20 MUL PUSH1 0x20 ADD PUSH1 0x40 MLOAD SWAP1 DUP2 ADD PUSH1 0x40 MSTORE DUP1 SWAP3 SWAP2 SWAP1 DUP2 DUP2 MSTORE PUSH1 0x20 ADD DUP3 DUP1 SLOAD DUP1 ISZERO PUSH2 0x2DEF JUMPI PUSH1 0x20 MUL DUP3 ADD SWAP2 SWAP1 PUSH1 0x0 MSTORE PUSH1 0x20 PUSH1 0x0 KECCAK256 SWAP1 DUP2 SLOAD PUSH1 0x1 PUSH1 0x1 PUSH1 0xA0 SHL SUB AND DUP2 MSTORE PUSH1 0x1 SWAP1 SWAP2 ADD SWAP1 PUSH1 0x20 ADD DUP1 DUP4 GT PUSH2 0x2DD1 JUMPI POP POP POP POP POP SWAP1 POP SWAP1 JUMP JUMPDEST PUSH1 0x0 SLOAD PUSH1 0x1 PUSH1 0x1 PUSH1 0xA0 SHL SUB AND CALLER EQ PUSH2 0x1C17 JUMPI PUSH1 0x40 MLOAD PUSH3 0x461BCD PUSH1 0xE5 SHL DUP2 MSTORE PUSH1 0x20 PUSH1 0x4 DUP3 ADD DUP2 SWAP1 MSTORE PUSH1 0x24 DUP3 ADD MSTORE PUSH32 0x4F776E61626C653A2063616C6C6572206973206E6F7420746865206F776E6572 PUSH1 0x44 DUP3 ADD MSTORE PUSH1 0x64 ADD PUSH2 0xF28 JUMP JUMPDEST PUSH1 0x0 DUP1 SLOAD PUSH1 0x1 PUSH1 0x1 PUSH1 0xA0 SHL SUB DUP4 DUP2 AND PUSH1 0x1 PUSH1 0x1 PUSH1 0xA0 SHL SUB NOT DUP4 AND DUP2 OR DUP5 SSTORE PUSH1 0x40 MLOAD SWAP2 SWAP1 SWAP3 AND SWAP3 DUP4 SWAP2 PUSH32 0x8BE0079C531659141344CD1FD0A4F28419497F9722A3DAAFE3B4186F6B6457E0 SWAP2 SWAP1 LOG3 POP POP JUMP JUMPDEST PUSH1 0x1 PUSH1 0x1 PUSH1 0xA0 SHL SUB DUP3 AND PUSH2 0x3701 JUMPI PUSH1 0x40 MLOAD PUSH3 0x461BCD PUSH1 0xE5 SHL DUP2 MSTORE PUSH1 0x20 PUSH1 0x4 DUP3 ADD MSTORE PUSH1 0x19 PUSH1 0x24 DUP3 ADD MSTORE PUSH32 0x496E76616C69642076616C696461746F72206164647265737300000000000000 PUSH1 0x44 DUP3 ADD MSTORE PUSH1 0x64 ADD PUSH2 0xF28 JUMP JUMPDEST PUSH1 0x1 PUSH1 0x1 PUSH1 0xA0 SHL SUB DUP3 AND PUSH1 0x0 SWAP1 DUP2 MSTORE PUSH1 0x9 PUSH1 0x20 MSTORE PUSH1 0x40 SWAP1 KECCAK256 DUP1 SLOAD DUP3 ISZERO DUP1 ISZERO PUSH1 0xFF NOT DUP4 AND OR SWAP1 SWAP3 SSTORE PUSH1 0xFF AND SWAP1 DUP3 SWAP1 PUSH2 0x3736 JUMPI POP DUP1 ISZERO JUMPDEST ISZERO PUSH2 0x37A8 JUMPI PUSH1 0xA DUP1 SLOAD PUSH1 0x1 DUP2 ADD SWAP1 SWAP2 SSTORE PUSH32 0xC65A7BB8D6351C1CF70C95A316CC6A92839C986682D98BC35F958F4883F9D2A8 ADD DUP1 SLOAD PUSH1 0x1 PUSH1 0x1 PUSH1 0xA0 SHL SUB NOT AND PUSH1 0x1 PUSH1 0x1 PUSH1 0xA0 SHL SUB DUP6 AND SWAP1 DUP2 OR SWAP1 SWAP2 SSTORE PUSH1 0x0 SWAP1 DUP2 MSTORE PUSH1 0xB PUSH1 0x20 SWAP1 DUP2 MSTORE PUSH1 0x40 DUP1 DUP4 KECCAK256 TIMESTAMP SWAP1 DUP2 SWAP1 SSTORE PUSH1 0xC SWAP1 SWAP3 MSTORE SWAP1 SWAP2 KECCAK256 SSTORE PUSH2 0x38E8 JUMP JUMPDEST DUP2 ISZERO DUP1 ISZERO PUSH2 0x37B3 JUMPI POP DUP1 JUMPDEST ISZERO PUSH2 0x38E8 JUMPI PUSH1 0x0 JUMPDEST PUSH1 0xA SLOAD DUP2 LT ISZERO PUSH2 0x38C0 JUMPI DUP4 PUSH1 0x1 PUSH1 0x1 PUSH1 0xA0 SHL SUB AND PUSH1 0xA DUP3 DUP2 SLOAD DUP2 LT PUSH2 0x37E2 JUMPI PUSH2 0x37E2 PUSH2 0x3EE7 JUMP JUMPDEST PUSH1 0x0 SWAP2 DUP3 MSTORE PUSH1 0x20 SWAP1 SWAP2 KECCAK256 ADD SLOAD PUSH1 0x1 PUSH1 0x1 PUSH1 0xA0 SHL SUB AND SUB PUSH2 0x38AE JUMPI PUSH1 0xA DUP1 SLOAD PUSH2 0x380C SWAP1 PUSH1 0x1 SWAP1 PUSH2 0x3EFD JUMP JUMPDEST DUP2 SLOAD DUP2 LT PUSH2 0x381C JUMPI PUSH2 0x381C PUSH2 0x3EE7 JUMP JUMPDEST PUSH1 0x0 SWAP2 DUP3 MSTORE PUSH1 0x20 SWAP1 SWAP2 KECCAK256 ADD SLOAD PUSH1 0xA DUP1 SLOAD PUSH1 0x1 PUSH1 0x1 PUSH1 0xA0 SHL SUB SWAP1 SWAP3 AND SWAP2 DUP4 SWAP1 DUP2 LT PUSH2 0x3848 JUMPI PUSH2 0x3848 PUSH2 0x3EE7 JUMP JUMPDEST SWAP1 PUSH1 0x0 MSTORE PUSH1 0x20 PUSH1 0x0 KECCAK256 ADD PUSH1 0x0 PUSH2 0x100 EXP DUP2 SLOAD DUP2 PUSH1 0x1 PUSH1 0x1 PUSH1 0xA0 SHL SUB MUL NOT AND SWAP1 DUP4 PUSH1 0x1 PUSH1 0x1 PUSH1 0xA0 SHL SUB AND MUL OR SWAP1 SSTORE POP PUSH1 0xA DUP1 SLOAD DUP1 PUSH2 0x3887 JUMPI PUSH2 0x3887 PUSH2 0x3F10 JUMP JUMPDEST PUSH1 0x0 DUP3 DUP2 MSTORE PUSH1 0x20 SWAP1 KECCAK256 DUP2 ADD PUSH1 0x0 NOT SWAP1 DUP2 ADD DUP1 SLOAD PUSH1 0x1 PUSH1 0x1 PUSH1 0xA0 SHL SUB NOT AND SWAP1 SSTORE ADD SWAP1 SSTORE PUSH2 0x38C0 JUMP JUMPDEST DUP1 PUSH2 0x38B8 DUP2 PUSH2 0x3F26 JUMP JUMPDEST SWAP2 POP POP PUSH2 0x37BB JUMP JUMPDEST POP PUSH1 0x1 PUSH1 0x1 PUSH1 0xA0 SHL SUB DUP4 AND PUSH1 0x0 SWAP1 DUP2 MSTORE PUSH1 0xB PUSH1 0x20 SWAP1 DUP2 MSTORE PUSH1 0x40 DUP1 DUP4 KECCAK256 DUP4 SWAP1 SSTORE PUSH1 0xC SWAP1 SWAP2 MSTORE DUP2 KECCAK256 SSTORE JUMPDEST PUSH1 0x40 DUP1 MLOAD PUSH1 0x1 PUSH1 0x1 PUSH1 0xA0 SHL SUB DUP6 AND DUP2 MSTORE DUP4 ISZERO ISZERO PUSH1 0x20 DUP3 ADD MSTORE PUSH32 0x3425256FCFC5DE0E47D9CCEFA2353ED8D4176964E8F8D7C56C64D46736F36B90 SWAP2 ADD PUSH1 0x40 MLOAD DUP1 SWAP2 SUB SWAP1 LOG1 POP POP POP JUMP JUMPDEST PUSH4 0x4E487B71 PUSH1 0xE0 SHL PUSH1 0x0 MSTORE PUSH1 0x11 PUSH1 0x4 MSTORE PUSH1 0x24 PUSH1 0x0 REVERT JUMPDEST DUP1 DUP3 ADD DUP1 DUP3 GT ISZERO PUSH2 0xED0 JUMPI PUSH2 0xED0 PUSH2 0x3930 JUMP JUMPDEST PUSH1 0x1 PUSH1 0x1 PUSH1 0xA0 SHL SUB DUP2 AND DUP2 EQ PUSH2 0x2A57 JUMPI PUSH1 0x0 DUP1 REVERT JUMPDEST PUSH1 0x0 PUSH1 0x20 DUP3 DUP5 SUB SLT ISZERO PUSH2 0x3980 JUMPI PUSH1 0x0 DUP1 REVERT JUMPDEST DUP2 CALLDATALOAD PUSH2 0x2121 DUP2 PUSH2 0x3959 JUMP JUMPDEST PUSH1 0x0 PUSH1 0x20 DUP3 DUP5 SUB SLT ISZERO PUSH2 0x399D JUMPI PUSH1 0x0 DUP1 REVERT JUMPDEST POP CALLDATALOAD SWAP2 SWAP1 POP JUMP JUMPDEST PUSH1 0x0 DUP1 PUSH1 0x40 DUP4 DUP6 SUB SLT ISZERO PUSH2 0x39B7 JUMPI PUSH1 0x0 DUP1 REVERT JUMPDEST DUP3 CALLDATALOAD PUSH2 0x39C2 DUP2 PUSH2 0x3959 JUMP JUMPDEST SWAP2 POP PUSH1 0x20 DUP4 ADD CALLDATALOAD PUSH2 0x39D2 DUP2 PUSH2 0x3959 JUMP JUMPDEST DUP1 SWAP2 POP POP SWAP3 POP SWAP3 SWAP1 POP JUMP JUMPDEST PUSH1 0x0 DUP2 MLOAD DUP1 DUP5 MSTORE PUSH1 0x20 DUP1 DUP6 ADD SWAP5 POP DUP1 DUP5 ADD PUSH1 0x0 JUMPDEST DUP4 DUP2 LT ISZERO PUSH2 0x3A16 JUMPI DUP2 MLOAD PUSH1 0x1 PUSH1 0x1 PUSH1 0xA0 SHL SUB AND DUP8 MSTORE SWAP6 DUP3 ADD SWAP6 SWAP1 DUP3 ADD SWAP1 PUSH1 0x1 ADD PUSH2 0x39F1 JUMP JUMPDEST POP SWAP5 SWAP6 SWAP5 POP POP POP POP POP JUMP JUMPDEST PUSH4 0x4E487B71 PUSH1 0xE0 SHL PUSH1 0x0 MSTORE PUSH1 0x21 PUSH1 0x4 MSTORE PUSH1 0x24 PUSH1 0x0 REVERT JUMPDEST PUSH1 0x5 DUP2 LT PUSH2 0x3A55 JUMPI PUSH4 0x4E487B71 PUSH1 0xE0 SHL PUSH1 0x0 MSTORE PUSH1 0x21 PUSH1 0x4 MSTORE PUSH1 0x24 PUSH1 0x0 REVERT JUMPDEST SWAP1 MSTORE JUMP JUMPDEST PUSH1 0x0 DUP2 MLOAD DUP1 DUP5 MSTORE PUSH1 0x20 DUP1 DUP6 ADD SWAP5 POP DUP1 DUP5 ADD PUSH1 0x0 JUMPDEST DUP4 DUP2 LT ISZERO PUSH2 0x3A16 JUMPI DUP2 MLOAD DUP8 MSTORE SWAP6 DUP3 ADD SWAP6 SWAP1 DUP3 ADD SWAP1 PUSH1 0x1 ADD PUSH2 0x3A6D JUMP JUMPDEST PUSH1 0x0 JUMPDEST DUP4 DUP2 LT ISZERO PUSH2 0x3AA4 JUMPI DUP2 DUP2 ADD MLOAD DUP4 DUP3 ADD MSTORE PUSH1 0x20 ADD PUSH2 0x3A8C JUMP JUMPDEST POP POP PUSH1 0x0 SWAP2 ADD MSTORE JUMP JUMPDEST PUSH1 0x0 DUP2 MLOAD DUP1 DUP5 MSTORE PUSH2 0x3AC5 DUP2 PUSH1 0x20 DUP7 ADD PUSH1 0x20 DUP7 ADD PUSH2 0x3A89 JUMP JUMPDEST PUSH1 0x1F ADD PUSH1 0x1F NOT AND SWAP3 SWAP1 SWAP3 ADD PUSH1 0x20 ADD SWAP3 SWAP2 POP POP JUMP JUMPDEST PUSH1 0x0 DUP2 MLOAD DUP1 DUP5 MSTORE PUSH1 0x20 DUP1 DUP6 ADD DUP1 DUP2 SWAP7 POP DUP4 PUSH1 0x5 SHL DUP2 ADD SWAP2 POP DUP3 DUP7 ADD PUSH1 0x0 JUMPDEST DUP6 DUP2 LT ISZERO PUSH2 0x3B21 JUMPI DUP3 DUP5 SUB DUP10 MSTORE PUSH2 0x3B0F DUP5 DUP4 MLOAD PUSH2 0x3AAD JUMP JUMPDEST SWAP9 DUP6 ADD SWAP9 SWAP4 POP SWAP1 DUP5 ADD SWAP1 PUSH1 0x1 ADD PUSH2 0x3AF7 JUMP JUMPDEST POP SWAP2 SWAP8 SWAP7 POP POP POP POP POP POP POP JUMP JUMPDEST DUP8 DUP2 MSTORE PUSH1 0x0 PUSH1 0x20 DUP9 DUP2 DUP5 ADD MSTORE PUSH1 0xE0 PUSH1 0x40 DUP5 ADD MSTORE PUSH2 0x3B4E PUSH1 0xE0 DUP5 ADD DUP10 PUSH2 0x39DD JUMP JUMPDEST DUP4 DUP2 SUB PUSH1 0x60 DUP6 ADD MSTORE DUP8 MLOAD DUP1 DUP3 MSTORE DUP3 DUP10 ADD SWAP2 DUP4 ADD SWAP1 PUSH1 0x0 JUMPDEST DUP2 DUP2 LT ISZERO PUSH2 0x3B88 JUMPI PUSH2 0x3B78 DUP4 DUP6 MLOAD PUSH2 0x3A37 JUMP JUMPDEST SWAP3 DUP5 ADD SWAP3 SWAP2 DUP5 ADD SWAP2 PUSH1 0x1 ADD PUSH2 0x3B65 JUMP JUMPDEST POP POP DUP5 DUP2 SUB PUSH1 0x80 DUP7 ADD MSTORE PUSH2 0x3B9C DUP2 DUP10 PUSH2 0x3A59 JUMP JUMPDEST SWAP3 POP POP POP DUP3 DUP2 SUB PUSH1 0xA0 DUP5 ADD MSTORE PUSH2 0x3BB2 DUP2 DUP7 PUSH2 0x3AD9 JUMP JUMPDEST SWAP1 POP DUP3 DUP2 SUB PUSH1 0xC0 DUP5 ADD MSTORE PUSH2 0x3BC6 DUP2 DUP6 PUSH2 0x3AD9 JUMP JUMPDEST SWAP11 SWAP10 POP POP POP POP POP POP POP POP POP POP JUMP JUMPDEST DUP7 DUP2 MSTORE PUSH1 0xC0 DUP2 ADD PUSH2 0x3BE8 PUSH1 0x20 DUP4 ADD DUP9 PUSH2 0x3A37 JUMP JUMPDEST PUSH1 0x40 DUP3 ADD SWAP6 SWAP1 SWAP6 MSTORE PUSH1 0x60 DUP2 ADD SWAP4 SWAP1 SWAP4 MSTORE PUSH1 0x80 DUP4 ADD SWAP2 SWAP1 SWAP2 MSTORE PUSH1 0x1 PUSH1 0x1 PUSH1 0xA0 SHL SUB AND PUSH1 0xA0 SWAP1 SWAP2 ADD MSTORE SWAP3 SWAP2 POP POP JUMP JUMPDEST DUP1 ISZERO ISZERO DUP2 EQ PUSH2 0x2A57 JUMPI PUSH1 0x0 DUP1 REVERT JUMPDEST PUSH1 0x0 DUP1 PUSH1 0x40 DUP4 DUP6 SUB SLT ISZERO PUSH2 0x3C36 JUMPI PUSH1 0x0 DUP1 REVERT JUMPDEST DUP3 CALLDATALOAD PUSH2 0x3C41 DUP2 PUSH2 0x3959 JUMP JUMPDEST SWAP2 POP PUSH1 0x20 DUP4 ADD CALLDATALOAD PUSH2 0x39D2 DUP2 PUSH2 0x3C15 JUMP JUMPDEST PUSH1 0xC0 DUP2 MSTORE PUSH1 0x0 PUSH2 0x3C64 PUSH1 0xC0 DUP4 ADD DUP10 PUSH2 0x3AAD JUMP JUMPDEST DUP3 DUP2 SUB PUSH1 0x20 DUP5 ADD MSTORE PUSH2 0x3C76 DUP2 DUP10 PUSH2 0x3AAD JUMP JUMPDEST SWAP1 POP DUP3 DUP2 SUB PUSH1 0x40 DUP5 ADD MSTORE PUSH2 0x3C8A DUP2 DUP9 PUSH2 0x3AAD JUMP JUMPDEST PUSH1 0x60 DUP5 ADD SWAP7 SWAP1 SWAP7 MSTORE POP POP PUSH1 0x80 DUP2 ADD SWAP3 SWAP1 SWAP3 MSTORE PUSH1 0xA0 SWAP1 SWAP2 ADD MSTORE SWAP4 SWAP3 POP POP POP JUMP JUMPDEST PUSH1 0x0 DUP1 PUSH1 0x40 DUP4 DUP6 SUB SLT ISZERO PUSH2 0x3CBC JUMPI PUSH1 0x0 DUP1 REVERT JUMPDEST DUP3 CALLDATALOAD PUSH2 0x3CC7 DUP2 PUSH2 0x3959 JUMP JUMPDEST SWAP5 PUSH1 0x20 SWAP4 SWAP1 SWAP4 ADD CALLDATALOAD SWAP4 POP POP POP JUMP JUMPDEST PUSH1 0x0 DUP1 DUP4 PUSH1 0x1F DUP5 ADD SLT PUSH2 0x3CE7 JUMPI PUSH1 0x0 DUP1 REVERT JUMPDEST POP DUP2 CALLDATALOAD PUSH1 0x1 PUSH1 0x1 PUSH1 0x40 SHL SUB DUP2 GT ISZERO PUSH2 0x3CFE JUMPI PUSH1 0x0 DUP1 REVERT JUMPDEST PUSH1 0x20 DUP4 ADD SWAP2 POP DUP4 PUSH1 0x20 DUP3 DUP6 ADD ADD GT ISZERO PUSH2 0x32D2 JUMPI PUSH1 0x0 DUP1 REVERT JUMPDEST PUSH1 0x0 DUP1 PUSH1 0x0 PUSH1 0x40 DUP5 DUP7 SUB SLT ISZERO PUSH2 0x3D2B JUMPI PUSH1 0x0 DUP1 REVERT JUMPDEST DUP4 CALLDATALOAD PUSH2 0x3D36 DUP2 PUSH2 0x3959 JUMP JUMPDEST SWAP3 POP PUSH1 0x20 DUP5 ADD CALLDATALOAD PUSH1 0x1 PUSH1 0x1 PUSH1 0x40 SHL SUB DUP2 GT ISZERO PUSH2 0x3D51 JUMPI PUSH1 0x0 DUP1 REVERT JUMPDEST PUSH2 0x3D5D DUP7 DUP3 DUP8 ADD PUSH2 0x3CD5 JUMP JUMPDEST SWAP5 SWAP8 SWAP1 SWAP7 POP SWAP4 SWAP5 POP POP POP POP JUMP JUMPDEST PUSH1 0x0 PUSH1 0x20 DUP3 DUP5 SUB SLT ISZERO PUSH2 0x3D7C JUMPI PUSH1 0x0 DUP1 REVERT JUMPDEST DUP2 CALLDATALOAD PUSH2 0x2121 DUP2 PUSH2 0x3C15 JUMP JUMPDEST DUP4 DUP2 MSTORE DUP3 PUSH1 0x20 DUP3 ADD MSTORE PUSH1 0x60 PUSH1 0x40 DUP3 ADD MSTORE PUSH1 0x0 PUSH2 0x3DA6 PUSH1 0x60 DUP4 ADD DUP5 PUSH2 0x3AAD JUMP JUMPDEST SWAP6 SWAP5 POP POP POP POP POP JUMP JUMPDEST PUSH1 0x0 DUP1 PUSH1 0x0 PUSH1 0x40 DUP5 DUP7 SUB SLT ISZERO PUSH2 0x3DC4 JUMPI PUSH1 0x0 DUP1 REVERT JUMPDEST DUP4 CALLDATALOAD PUSH1 0x1 PUSH1 0x1 PUSH1 0x40 SHL SUB DUP1 DUP3 GT ISZERO PUSH2 0x3DDB JUMPI PUSH1 0x0 DUP1 REVERT JUMPDEST DUP2 DUP7 ADD SWAP2 POP DUP7 PUSH1 0x1F DUP4 ADD SLT PUSH2 0x3DEF JUMPI PUSH1 0x0 DUP1 REVERT JUMPDEST DUP2 CALLDATALOAD DUP2 DUP2 GT ISZERO PUSH2 0x3DFE JUMPI PUSH1 0x0 DUP1 REVERT JUMPDEST DUP8 PUSH1 0x20 DUP3 PUSH1 0x5 SHL DUP6 ADD ADD GT ISZERO PUSH2 0x3E13 JUMPI PUSH1 0x0 DUP1 REVERT JUMPDEST PUSH1 0x20 SWAP3 DUP4 ADD SWAP6 POP SWAP4 POP POP DUP5 ADD CALLDATALOAD PUSH2 0x3E29 DUP2 PUSH2 0x3C15 JUMP JUMPDEST DUP1 SWAP2 POP POP SWAP3 POP SWAP3 POP SWAP3 JUMP JUMPDEST PUSH1 0x20 DUP2 MSTORE PUSH1 0x0 PUSH2 0x2121 PUSH1 0x20 DUP4 ADD DUP5 PUSH2 0x39DD JUMP JUMPDEST DUP7 DUP2 MSTORE PUSH1 0xC0 PUSH1 0x20 DUP3 ADD MSTORE PUSH1 0x0 PUSH2 0x3E60 PUSH1 0xC0 DUP4 ADD DUP9 PUSH2 0x3AAD JUMP JUMPDEST SWAP1 POP DUP6 PUSH1 0x40 DUP4 ADD MSTORE DUP5 PUSH1 0x60 DUP4 ADD MSTORE DUP4 PUSH1 0x80 DUP4 ADD MSTORE DUP3 ISZERO ISZERO PUSH1 0xA0 DUP4 ADD MSTORE SWAP8 SWAP7 POP POP POP POP POP POP POP JUMP JUMPDEST PUSH1 0x0 DUP1 PUSH1 0x0 DUP1 PUSH1 0x0 PUSH1 0x80 DUP7 DUP9 SUB SLT ISZERO PUSH2 0x3E9F JUMPI PUSH1 0x0 DUP1 REVERT JUMPDEST DUP6 CALLDATALOAD SWAP5 POP PUSH1 0x20 DUP7 ADD CALLDATALOAD SWAP4 POP PUSH1 0x40 DUP7 ADD CALLDATALOAD SWAP3 POP PUSH1 0x60 DUP7 ADD CALLDATALOAD PUSH1 0x1 PUSH1 0x1 PUSH1 0x40 SHL SUB DUP2 GT ISZERO PUSH2 0x3ECA JUMPI PUSH1 0x0 DUP1 REVERT JUMPDEST PUSH2 0x3ED6 DUP9 DUP3 DUP10 ADD PUSH2 0x3CD5 JUMP JUMPDEST SWAP7 SWAP10 SWAP6 SWAP9 POP SWAP4 SWAP7 POP SWAP3 SWAP5 SWAP4 SWAP3 POP POP POP JUMP JUMPDEST PUSH4 0x4E487B71 PUSH1 0xE0 SHL PUSH1 0x0 MSTORE PUSH1 0x32 PUSH1 0x4 MSTORE PUSH1 0x24 PUSH1 0x0 REVERT JUMPDEST DUP2 DUP2 SUB DUP2 DUP2 GT ISZERO PUSH2 0xED0 JUMPI PUSH2 0xED0 PUSH2 0x3930 JUMP JUMPDEST PUSH4 0x4E487B71 PUSH1 0xE0 SHL PUSH1 0x0 MSTORE PUSH1 0x31 PUSH1 0x4 MSTORE PUSH1 0x24 PUSH1 0x0 REVERT JUMPDEST PUSH1 0x0 PUSH1 0x1 DUP3 ADD PUSH2 0x3F38 JUMPI PUSH2 0x3F38 PUSH2 0x3930 JUMP JUMPDEST POP PUSH1 0x1 ADD SWAP1 JUMP JUMPDEST PUSH4 0x4E487B71 PUSH1 0xE0 SHL PUSH1 0x0 MSTORE PUSH1 0x41 PUSH1 0x4 MSTORE PUSH1 0x24 PUSH1 0x0 REVERT JUMPDEST PUSH1 0x40 MLOAD PUSH1 0x1F DUP3 ADD PUSH1 0x1F NOT AND DUP2 ADD PUSH1 0x1 PUSH1 0x1 PUSH1 0x40 SHL SUB DUP2 GT DUP3 DUP3 LT OR ISZERO PUSH2 0x3F7D JUMPI PUSH2 0x3F7D PUSH2 0x3F3F JUMP JUMPDEST PUSH1 0x40 MSTORE SWAP2 SWAP1 POP JUMP JUMPDEST PUSH1 0x0 DUP3 PUSH1 0x1F DUP4 ADD SLT PUSH2 0x3F96 JUMPI PUSH1 0x0 DUP1 REVERT JUMPDEST DUP2 MLOAD PUSH1 0x20 PUSH1 0x1 PUSH1 0x1 PUSH1 0x40 SHL SUB DUP3 GT ISZERO PUSH2 0x3FB1 JUMPI PUSH2 0x3FB1 PUSH2 0x3F3F JUMP JUMPDEST DUP2 PUSH1 0x5 SHL PUSH2 0x3FC0 DUP3 DUP3 ADD PUSH2 0x3F55 JUMP JUMPDEST SWAP3 DUP4 MSTORE DUP5 DUP2 ADD DUP3 ADD SWAP3 DUP3 DUP2 ADD SWAP1 DUP8 DUP6 GT ISZERO PUSH2 0x3FDA JUMPI PUSH1 0x0 DUP1 REVERT JUMPDEST DUP4 DUP8 ADD SWAP3 POP JUMPDEST DUP5 DUP4 LT ISZERO PUSH2 0x4002 JUMPI DUP3 MLOAD PUSH2 0x3FF3 DUP2 PUSH2 0x3959 JUMP JUMPDEST DUP3 MSTORE SWAP2 DUP4 ADD SWAP2 SWAP1 DUP4 ADD SWAP1 PUSH2 0x3FE0 JUMP JUMPDEST SWAP8 SWAP7 POP POP POP POP POP POP POP JUMP JUMPDEST PUSH1 0x0 PUSH1 0x20 DUP3 DUP5 SUB SLT ISZERO PUSH2 0x401F JUMPI PUSH1 0x0 DUP1 REVERT JUMPDEST DUP2 MLOAD PUSH1 0x1 PUSH1 0x1 PUSH1 0x40 SHL SUB DUP2 GT ISZERO PUSH2 0x4035 JUMPI PUSH1 0x0 DUP1 REVERT JUMPDEST PUSH2 0x1912 DUP5 DUP3 DUP6 ADD PUSH2 0x3F85 JUMP JUMPDEST PUSH1 0x0 DUP1 PUSH1 0x0 DUP1 PUSH1 0x0 DUP1 PUSH1 0xC0 DUP8 DUP10 SUB SLT ISZERO PUSH2 0x405A JUMPI PUSH1 0x0 DUP1 REVERT JUMPDEST DUP7 MLOAD PUSH2 0x4065 DUP2 PUSH2 0x3959 JUMP JUMPDEST PUSH1 0x20 DUP9 ADD MLOAD SWAP1 SWAP7 POP PUSH1 0x5 DUP2 LT PUSH2 0x407A JUMPI PUSH1 0x0 DUP1 REVERT JUMPDEST DUP1 SWAP6 POP POP PUSH1 0x40 DUP8 ADD MLOAD SWAP4 POP PUSH1 0x60 DUP8 ADD MLOAD SWAP3 POP PUSH1 0x80 DUP8 ADD MLOAD SWAP2 POP PUSH1 0xA0 DUP8 ADD MLOAD PUSH1 0x1 PUSH1 0x1 PUSH1 0x40 SHL SUB DUP2 GT ISZERO PUSH2 0x40AC JUMPI PUSH1 0x0 DUP1 REVERT JUMPDEST PUSH2 0x40B8 DUP10 DUP3 DUP11 ADD PUSH2 0x3F85 JUMP JUMPDEST SWAP2 POP POP SWAP3 SWAP6 POP SWAP3 SWAP6 POP SWAP3 SWAP6 JUMP JUMPDEST PUSH1 0x0 PUSH1 0x20 DUP3 DUP5 SUB SLT ISZERO PUSH2 0x40D7 JUMPI PUSH1 0x0 DUP1 REVERT JUMPDEST DUP2 MLOAD PUSH1 0x1 PUSH1 0x1 PUSH1 0x40 SHL SUB DUP1 DUP3 GT ISZERO PUSH2 0x40EE JUMPI PUSH1 0x0 DUP1 REVERT JUMPDEST DUP2 DUP5 ADD SWAP2 POP DUP5 PUSH1 0x1F DUP4 ADD SLT PUSH2 0x4102 JUMPI PUSH1 0x0 DUP1 REVERT JUMPDEST DUP2 MLOAD DUP2 DUP2 GT ISZERO PUSH2 0x4114 JUMPI PUSH2 0x4114 PUSH2 0x3F3F JUMP JUMPDEST PUSH2 0x4127 PUSH1 0x1F DUP3 ADD PUSH1 0x1F NOT AND PUSH1 0x20 ADD PUSH2 0x3F55 JUMP JUMPDEST SWAP2 POP DUP1 DUP3 MSTORE DUP6 PUSH1 0x20 DUP3 DUP6 ADD ADD GT ISZERO PUSH2 0x413E JUMPI PUSH1 0x0 DUP1 REVERT JUMPDEST PUSH2 0x414F DUP2 PUSH1 0x20 DUP5 ADD PUSH1 0x20 DUP7 ADD PUSH2 0x3A89 JUMP JUMPDEST POP SWAP5 SWAP4 POP POP POP POP JUMP JUMPDEST PUSH1 0x0 PUSH1 0xFF DUP3 AND PUSH1 0xFF DUP2 SUB PUSH2 0x416E JUMPI PUSH2 0x416E PUSH2 0x3930 JUMP JUMPDEST PUSH1 0x1 ADD SWAP3 SWAP2 POP POP JUMP JUMPDEST PUSH1 0x0 PUSH1 0x20 DUP3 DUP5 SUB SLT ISZERO PUSH2 0x4189 JUMPI PUSH1 0x0 DUP1 REVERT JUMPDEST POP MLOAD SWAP2 SWAP1 POP JUMP JUMPDEST PUSH1 0x0 DUP1 PUSH1 0x0 PUSH1 0x60 DUP5 DUP7 SUB SLT ISZERO PUSH2 0x41A5 JUMPI PUSH1 0x0 DUP1 REVERT JUMPDEST DUP4 MLOAD SWAP3 POP PUSH1 0x20 DUP5 ADD MLOAD SWAP2 POP PUSH1 0x40 DUP5 ADD MLOAD SWAP1 POP SWAP3 POP SWAP3 POP SWAP3 JUMP JUMPDEST DUP1 DUP3 MUL DUP2 ISZERO DUP3 DUP3 DIV DUP5 EQ OR PUSH2 0xED0 JUMPI PUSH2 0xED0 PUSH2 0x3930 JUMP JUMPDEST PUSH1 0x0 DUP3 PUSH2 0x41F2 JUMPI PUSH4 0x4E487B71 PUSH1 0xE0 SHL PUSH1 0x0 MSTORE PUSH1 0x12 PUSH1 0x4 MSTORE PUSH1 0x24 PUSH1 0x0 REVERT JUMPDEST POP DIV SWAP1 JUMP JUMPDEST PUSH1 0x0 PUSH1 0x1 PUSH1 0xFF SHL DUP3 ADD PUSH2 0x420C JUMPI PUSH2 0x420C PUSH2 0x3930 JUMP JUMPDEST POP PUSH1 0x0 NOT ADD SWAP1 JUMP JUMPDEST PUSH1 0x20 DUP1 DUP3 MSTORE PUSH1 0x1D SWAP1 DUP3 ADD MSTORE PUSH32 0x496E73756666696369656E7420636F6E74726163742062616C616E6365000000 PUSH1 0x40 DUP3 ADD MSTORE PUSH1 0x60 ADD SWAP1 JUMP JUMPDEST PUSH1 0x0 PUSH1 0x20 DUP3 DUP5 SUB SLT ISZERO PUSH2 0x425D JUMPI PUSH1 0x0 DUP1 REVERT JUMPDEST DUP2 MLOAD PUSH2 0x2121 DUP2 PUSH2 0x3C15 JUMP JUMPDEST PUSH1 0x20 DUP1 DUP3 MSTORE PUSH1 0x26 SWAP1 DUP3 ADD MSTORE PUSH32 0x4E6F7420617574686F72697A65643A206D7573742062652061646D696E206F72 PUSH1 0x40 DUP3 ADD MSTORE PUSH6 0x1037BBB732B9 PUSH1 0xD1 SHL PUSH1 0x60 DUP3 ADD MSTORE PUSH1 0x80 ADD SWAP1 JUMP JUMPDEST PUSH1 0x0 PUSH1 0x40 DUP3 ADD PUSH1 0x40 DUP4 MSTORE DUP1 DUP6 SLOAD DUP1 DUP4 MSTORE PUSH1 0x60 DUP6 ADD SWAP2 POP DUP7 PUSH1 0x0 MSTORE PUSH1 0x20 SWAP3 POP DUP3 PUSH1 0x0 KECCAK256 PUSH1 0x0 JUMPDEST DUP3 DUP2 LT ISZERO PUSH2 0x42F8 JUMPI DUP2 SLOAD PUSH1 0x1 PUSH1 0x1 PUSH1 0xA0 SHL SUB AND DUP5 MSTORE SWAP3 DUP5 ADD SWAP3 PUSH1 0x1 SWAP2 DUP3 ADD SWAP2 ADD PUSH2 0x42D3 JUMP JUMPDEST POP POP POP SWAP3 ADD SWAP3 SWAP1 SWAP3 MSTORE SWAP3 SWAP2 POP POP JUMP JUMPDEST PUSH1 0x1 PUSH1 0x1 PUSH1 0xA0 SHL SUB DUP5 AND DUP2 MSTORE PUSH1 0x40 PUSH1 0x20 DUP3 ADD DUP2 SWAP1 MSTORE DUP2 ADD DUP3 SWAP1 MSTORE DUP2 DUP4 PUSH1 0x60 DUP4 ADD CALLDATACOPY PUSH1 0x0 DUP2 DUP4 ADD PUSH1 0x60 SWAP1 DUP2 ADD SWAP2 SWAP1 SWAP2 MSTORE PUSH1 0x1F SWAP1 SWAP3 ADD PUSH1 0x1F NOT AND ADD ADD SWAP3 SWAP2 POP POP JUMP JUMPDEST PUSH1 0x1 DUP2 DUP2 SHR SWAP1 DUP3 AND DUP1 PUSH2 0x435B JUMPI PUSH1 0x7F DUP3 AND SWAP2 POP JUMPDEST PUSH1 0x20 DUP3 LT DUP2 SUB PUSH2 0x437B JUMPI PUSH4 0x4E487B71 PUSH1 0xE0 SHL PUSH1 0x0 MSTORE PUSH1 0x22 PUSH1 0x4 MSTORE PUSH1 0x24 PUSH1 0x0 REVERT JUMPDEST POP SWAP2 SWAP1 POP JUMP JUMPDEST PUSH1 0x0 PUSH1 0x20 DUP3 DUP5 SUB SLT ISZERO PUSH2 0x4393 JUMPI PUSH1 0x0 DUP1 REVERT JUMPDEST DUP2 MLOAD PUSH1 0x1 PUSH1 0x1 PUSH1 0x40 SHL SUB DUP2 AND DUP2 EQ PUSH2 0x2121 JUMPI PUSH1 0x0 DUP1 REVERT JUMPDEST PUSH1 0x0 DUP2 PUSH2 0x420C JUMPI PUSH2 0x420C PUSH2 0x3930 JUMP JUMPDEST PUSH1 0x1F DUP3 GT ISZERO PUSH2 0x4403 JUMPI PUSH1 0x0 DUP2 DUP2 MSTORE PUSH1 0x20 DUP2 KECCAK256 PUSH1 0x1F DUP6 ADD PUSH1 0x5 SHR DUP2 ADD PUSH1 0x20 DUP7 LT ISZERO PUSH2 0x43E0 JUMPI POP DUP1 JUMPDEST PUSH1 0x1F DUP6 ADD PUSH1 0x5 SHR DUP3 ADD SWAP2 POP JUMPDEST DUP2 DUP2 LT ISZERO PUSH2 0x43FF JUMPI DUP3 DUP2 SSTORE PUSH1 0x1 ADD PUSH2 0x43EC JUMP JUMPDEST POP POP POP JUMPDEST POP POP POP JUMP JUMPDEST DUP2 MLOAD PUSH1 0x1 PUSH1 0x1 PUSH1 0x40 SHL SUB DUP2 GT ISZERO PUSH2 0x4421 JUMPI PUSH2 0x4421 PUSH2 0x3F3F JUMP JUMPDEST PUSH2 0x4435 DUP2 PUSH2 0x442F DUP5 SLOAD PUSH2 0x4347 JUMP JUMPDEST DUP5 PUSH2 0x43B9 JUMP JUMPDEST PUSH1 0x20 DUP1 PUSH1 0x1F DUP4 GT PUSH1 0x1 DUP2 EQ PUSH2 0x446A JUMPI PUSH1 0x0 DUP5 ISZERO PUSH2 0x4452 JUMPI POP DUP6 DUP4 ADD MLOAD JUMPDEST PUSH1 0x0 NOT PUSH1 0x3 DUP7 SWAP1 SHL SHR NOT AND PUSH1 0x1 DUP6 SWAP1 SHL OR DUP6 SSTORE PUSH2 0x43FF JUMP JUMPDEST PUSH1 0x0 DUP6 DUP2 MSTORE PUSH1 0x20 DUP2 KECCAK256 PUSH1 0x1F NOT DUP7 AND SWAP2 JUMPDEST DUP3 DUP2 LT ISZERO PUSH2 0x4499 JUMPI DUP9 DUP7 ADD MLOAD DUP3 SSTORE SWAP5 DUP5 ADD SWAP5 PUSH1 0x1 SWAP1 SWAP2 ADD SWAP1 DUP5 ADD PUSH2 0x447A JUMP JUMPDEST POP DUP6 DUP3 LT ISZERO PUSH2 0x44B7 JUMPI DUP8 DUP6 ADD MLOAD PUSH1 0x0 NOT PUSH1 0x3 DUP9 SWAP1 SHL PUSH1 0xF8 AND SHR NOT AND DUP2 SSTORE JUMPDEST POP POP POP POP POP PUSH1 0x1 SWAP1 DUP2 SHL ADD SWAP1 SSTORE POP JUMP INVALID LOG2 PUSH5 0x6970667358 0x22 SLT KECCAK256 EXTCODESIZE DIV DUP9 PUSH4 0xAA438F29 0x4D PUSH8 0xCE0E230D5612FDDD SIGNEXTEND NUMBER 0xC4 ADD CREATE JUMPI ADDMOD 0xAE CALLDATASIZE 0xFC 0xD4 DELEGATECALL SWAP9 0xCF PUSH5 0x736F6C6343 STOP ADDMOD GT STOP CALLER "
		},
		"gasEstimates": {
			"creation": {
				"codeDepositCost": "3532200",
				"executionCost": "infinite",
				"totalCost": "infinite"
			},
			"external": {
				"PRICE_PRECISION()": "296",
				"PRICE_UPDATE_COOLDOWN()": "319",
				"RATE_PRECISION()": "252",
				"SECONDS_PER_YEAR()": "295",
				"addAdmin(address)": "78711",
				"adminList(uint256)": "4750",
				"admins(address)": "2594",
				"annualRewardRate()": "2375",
				"approvalTimestamp(address)": "2572",
				"approvedForRewards(address)": "2682",
				"approvedValidators(uint256)": "4770",
				"calculateDollarValueOfReward(address)": "infinite",
				"changeAnnualRewardRate(uint256)": "24648",
				"changeExtraRewardsPerBlock(uint256)": "24580",
				"changeMinimumValidatorStaking(uint256)": "24557",
				"checkValidator(address)": "424",
				"createOrEditValidator(address,string)": "infinite",
				"disableBlockRewards()": "7427",
				"distributeRewardsToApproved()": "infinite",
				"emergencyTransfer(address,uint256)": "infinite",
				"extraRewardsPerBlock()": "2374",
				"getAdminCount()": "2393",
				"getAdminList()": "infinite",
				"getAllValidatorInfo()": "infinite",
				"getApprovedValidators()": "infinite",
				"getApprovedValidatorsCount()": "2437",
				"getPriceInfo()": "6692",
				"getTotalAvailableRewards(address)": "infinite",
				"getValidatorApprovalInfo(address)": "infinite",
				"getValidatorTierInfo(address)": "infinite",
				"getValidatorTierReward(uint256)": "infinite",
				"isAdmin(address)": "4849",
				"isPaused()": "2394",
				"isValidatorApprovedForRewards(address)": "2634",
				"lastAnnualRewardClaim(address)": "2592",
				"lastClaimBlock(address)": "2635",
				"lastPriceUpdate()": "2396",
				"lastRewardedBlock()": "2397",
				"minimumStakingAmount()": "infinite",
				"minimumValidatorStaking()": "2398",
				"owner()": "2465",
				"pause()": "30134",
				"paused()": "2400",
				"priceOracle()": "2494",
				"removeAdmin(address)": "infinite",
				"renounceOwnership()": "infinite",
				"rescueCoins()": "infinite",
				"resetLastRewardedBlock()": "26741",
				"rewardBalance(address)": "2592",
				"rewardFund()": "2350",
				"setLastRewardedBlock(uint256)": "24580",
				"setMultipleValidatorRewardApproval(address[],bool)": "infinite",
				"setPriceOracle(address)": "26899",
				"setValidatorRewardApproval(address,bool)": "infinite",
				"splendorPriceUSD()": "2440",
				"stakingValidations(address,address)": "infinite",
				"toggleRewardSystem(bool)": "27854",
				"totalProfitEarned(address)": "infinite",
				"totalProfitWithdrawn(address)": "2590",
				"transferFunds(address,uint256)": "infinite",
				"transferOwnership(address)": "infinite",
				"unpause()": "30091",
				"unstake(address)": "infinite",
				"updateSplendorPrice(uint256)": "52396",
				"updateValidatorTier(uint256,uint256,uint256,string)": "infinite",
				"useTierBasedRewards()": "2483",
				"valContract()": "2470",
				"validatorSpecificInfo1(address,address)": "infinite",
				"validatorSpecificInfo2(address,address)": "infinite",
				"validatorTiers(uint256)": "infinite",
				"viewAnnualStakingReward(address)": "infinite",
				"viewValidatorRewards(address)": "2611",
				"waitingUnstaking(address,address)": "infinite",
				"waitingWithdrawProfit(address,address)": "infinite",
				"waitingWithdrawStaking(address,address)": "infinite",
				"withdrawAnnualStakingReward(address)": "infinite",
				"withdrawStakingReward(address)": "infinite"
			},
			"internal": {
				"_distributeRewards()": "infinite",
				"_setValidatorRewardApproval(address,bool)": "infinite"
			}
		},
		"methodIdentifiers": {
			"PRICE_PRECISION()": "95082d25",
			"PRICE_UPDATE_COOLDOWN()": "19262257",
			"RATE_PRECISION()": "2b3ba681",
			"SECONDS_PER_YEAR()": "e6a69ab8",
			"addAdmin(address)": "70480275",
			"adminList(uint256)": "11117fc8",
			"admins(address)": "429b62e5",
			"annualRewardRate()": "1715d015",
			"approvalTimestamp(address)": "01d76879",
			"approvedForRewards(address)": "1c00ab09",
			"approvedValidators(uint256)": "62f25ab3",
			"calculateDollarValueOfReward(address)": "7432feb6",
			"changeAnnualRewardRate(uint256)": "bd0eb369",
			"changeExtraRewardsPerBlock(uint256)": "0292ac66",
			"changeMinimumValidatorStaking(uint256)": "1d06022c",
			"checkValidator(address)": "797327ae",
			"createOrEditValidator(address,string)": "9972f0e6",
			"disableBlockRewards()": "2282bdd8",
			"distributeRewardsToApproved()": "7e5cd35f",
			"emergencyTransfer(address,uint256)": "dbf0f3e2",
			"extraRewardsPerBlock()": "8ae53dbd",
			"getAdminCount()": "8b7bf3eb",
			"getAdminList()": "d9f774fc",
			"getAllValidatorInfo()": "3f8dc65a",
			"getApprovedValidators()": "f6ef33fd",
			"getApprovedValidatorsCount()": "40a8f524",
			"getPriceInfo()": "330227bf",
			"getTotalAvailableRewards(address)": "b3eff0ef",
			"getValidatorApprovalInfo(address)": "84b813a2",
			"getValidatorTierInfo(address)": "defe370c",
			"getValidatorTierReward(uint256)": "5fc44d54",
			"isAdmin(address)": "24d7806c",
			"isPaused()": "b187bd26",
			"isValidatorApprovedForRewards(address)": "49e1f831",
			"lastAnnualRewardClaim(address)": "914673f7",
			"lastClaimBlock(address)": "e93a6c90",
			"lastPriceUpdate()": "6949faeb",
			"lastRewardedBlock()": "4cc67b5b",
			"minimumStakingAmount()": "b0d2d011",
			"minimumValidatorStaking()": "0976c65d",
			"owner()": "8da5cb5b",
			"pause()": "8456cb59",
			"paused()": "5c975abb",
			"priceOracle()": "2630c12f",
			"removeAdmin(address)": "1785f53c",
			"renounceOwnership()": "715018a6",
			"rescueCoins()": "b0806108",
			"resetLastRewardedBlock()": "8df70d73",
			"rewardBalance(address)": "67b40cf7",
			"rewardFund()": "efe22266",
			"setLastRewardedBlock(uint256)": "c85fe8cf",
			"setMultipleValidatorRewardApproval(address[],bool)": "ae7ab3e8",
			"setPriceOracle(address)": "530e784f",
			"setValidatorRewardApproval(address,bool)": "794cb263",
			"splendorPriceUSD()": "7148ebce",
			"stakingValidations(address,address)": "e1b6d9d4",
			"toggleRewardSystem(bool)": "9edfe49e",
			"totalProfitEarned(address)": "7fc5e1e5",
			"totalProfitWithdrawn(address)": "f188df2b",
			"transferFunds(address,uint256)": "990dc9db",
			"transferOwnership(address)": "f2fde38b",
			"unpause()": "3f4ba83a",
			"unstake(address)": "f2888dbb",
			"updateSplendorPrice(uint256)": "e06d3af9",
			"updateValidatorTier(uint256,uint256,uint256,string)": "ed95d022",
			"useTierBasedRewards()": "c61ce437",
			"valContract()": "afbbc803",
			"validatorSpecificInfo1(address,address)": "90efe56d",
			"validatorSpecificInfo2(address,address)": "64877981",
			"validatorTiers(uint256)": "a753594b",
			"viewAnnualStakingReward(address)": "5dc33541",
			"viewValidatorRewards(address)": "1e724caa",
			"waitingUnstaking(address,address)": "14306168",
			"waitingWithdrawProfit(address,address)": "58ae4e99",
			"waitingWithdrawStaking(address,address)": "d4aa673b",
			"withdrawAnnualStakingReward(address)": "715c68e5",
			"withdrawStakingReward(address)": "72d30a70"
		}
	},
	"abi": [
		{
			"inputs": [],
			"stateMutability": "nonpayable",
			"type": "constructor"
		},
		{
			"anonymous": false,
			"inputs": [
				{
					"indexed": false,
					"internalType": "address",
					"name": "admin",
					"type": "address"
				}
			],
			"name": "AdminAdded",
			"type": "event"
		},
		{
			"anonymous": false,
			"inputs": [
				{
					"indexed": false,
					"internalType": "address",
					"name": "admin",
					"type": "address"
				}
			],
			"name": "AdminRemoved",
			"type": "event"
		},
		{
			"anonymous": false,
			"inputs": [
				{
					"indexed": false,
					"internalType": "uint256",
					"name": "dollarAmountInCents",
					"type": "uint256"
				}
			],
			"name": "AnnualDollarRewardUpdated",
			"type": "event"
		},
		{
			"anonymous": false,
			"inputs": [
				{
					"indexed": false,
					"internalType": "address",
					"name": "by",
					"type": "address"
				},
				{
					"indexed": false,
					"internalType": "uint256",
					"name": "timestamp",
					"type": "uint256"
				}
			],
			"name": "ContractPaused",
			"type": "event"
		},
		{
			"anonymous": false,
			"inputs": [
				{
					"indexed": false,
					"internalType": "address",
					"name": "by",
					"type": "address"
				},
				{
					"indexed": false,
					"internalType": "uint256",
					"name": "timestamp",
					"type": "uint256"
				}
			],
			"name": "ContractUnpaused",
			"type": "event"
		},
		{
			"anonymous": false,
			"inputs": [
				{
					"indexed": false,
					"internalType": "address",
					"name": "to",
					"type": "address"
				},
				{
					"indexed": false,
					"internalType": "uint256",
					"name": "amount",
					"type": "uint256"
				}
			],
			"name": "FundsTransferred",
			"type": "event"
		},
		{
			"anonymous": false,
			"inputs": [
				{
					"indexed": true,
					"internalType": "address",
					"name": "previousOwner",
					"type": "address"
				},
				{
					"indexed": true,
					"internalType": "address",
					"name": "newOwner",
					"type": "address"
				}
			],
			"name": "OwnershipTransferred",
			"type": "event"
		},
		{
			"anonymous": false,
			"inputs": [
				{
					"indexed": false,
					"internalType": "uint256",
					"name": "newPriceInCents",
					"type": "uint256"
				},
				{
					"indexed": false,
					"internalType": "uint256",
					"name": "timestamp",
					"type": "uint256"
				}
			],
			"name": "PriceUpdated",
			"type": "event"
		},
		{
			"anonymous": false,
			"inputs": [
				{
					"indexed": false,
					"internalType": "bool",
					"name": "useDollarBased",
					"type": "bool"
				}
			],
			"name": "RewardSystemToggled",
			"type": "event"
		},
		{
			"anonymous": false,
			"inputs": [
				{
					"indexed": false,
					"internalType": "address[]",
					"name": "validators",
					"type": "address[]"
				},
				{
					"indexed": false,
					"internalType": "uint256",
					"name": "totalAmount",
					"type": "uint256"
				}
			],
			"name": "RewardsDistributed",
			"type": "event"
		},
		{
			"anonymous": false,
			"inputs": [
				{
					"indexed": false,
					"internalType": "address",
					"name": "validator",
					"type": "address"
				},
				{
					"indexed": false,
					"internalType": "uint256",
					"name": "amount",
					"type": "uint256"
				},
				{
					"indexed": false,
					"internalType": "uint256",
					"name": "timestamp",
					"type": "uint256"
				}
			],
			"name": "Stake",
			"type": "event"
		},
		{
			"anonymous": false,
			"inputs": [
				{
					"indexed": false,
					"internalType": "address",
					"name": "validator",
					"type": "address"
				},
				{
					"indexed": false,
					"internalType": "uint256",
					"name": "timestamp",
					"type": "uint256"
				}
			],
			"name": "Unstake",
			"type": "event"
		},
		{
			"anonymous": false,
			"inputs": [
				{
					"indexed": false,
					"internalType": "address",
					"name": "validator",
					"type": "address"
				},
				{
					"indexed": false,
					"internalType": "bool",
					"name": "approved",
					"type": "bool"
				}
			],
			"name": "ValidatorApprovedForRewards",
			"type": "event"
		},
		{
			"anonymous": false,
			"inputs": [
				{
					"indexed": false,
					"internalType": "address",
					"name": "validator",
					"type": "address"
				},
				{
					"indexed": false,
					"internalType": "uint256",
					"name": "amount",
					"type": "uint256"
				},
				{
					"indexed": false,
					"internalType": "uint256",
					"name": "timestamp",
					"type": "uint256"
				}
			],
			"name": "WithdrawProfit",
			"type": "event"
		},
		{
			"inputs": [],
			"name": "PRICE_PRECISION",
			"outputs": [
				{
					"internalType": "uint256",
					"name": "",
					"type": "uint256"
				}
			],
			"stateMutability": "view",
			"type": "function"
		},
		{
			"inputs": [],
			"name": "PRICE_UPDATE_COOLDOWN",
			"outputs": [
				{
					"internalType": "uint256",
					"name": "",
					"type": "uint256"
				}
			],
			"stateMutability": "view",
			"type": "function"
		},
		{
			"inputs": [],
			"name": "RATE_PRECISION",
			"outputs": [
				{
					"internalType": "uint256",
					"name": "",
					"type": "uint256"
				}
			],
			"stateMutability": "view",
			"type": "function"
		},
		{
			"inputs": [],
			"name": "SECONDS_PER_YEAR",
			"outputs": [
				{
					"internalType": "uint256",
					"name": "",
					"type": "uint256"
				}
			],
			"stateMutability": "view",
			"type": "function"
		},
		{
			"inputs": [
				{
					"internalType": "address",
					"name": "newAdmin",
					"type": "address"
				}
			],
			"name": "addAdmin",
			"outputs": [],
			"stateMutability": "nonpayable",
			"type": "function"
		},
		{
			"inputs": [
				{
					"internalType": "uint256",
					"name": "",
					"type": "uint256"
				}
			],
			"name": "adminList",
			"outputs": [
				{
					"internalType": "address",
					"name": "",
					"type": "address"
				}
			],
			"stateMutability": "view",
			"type": "function"
		},
		{
			"inputs": [
				{
					"internalType": "address",
					"name": "",
					"type": "address"
				}
			],
			"name": "admins",
			"outputs": [
				{
					"internalType": "bool",
					"name": "",
					"type": "bool"
				}
			],
			"stateMutability": "view",
			"type": "function"
		},
		{
			"inputs": [],
			"name": "annualRewardRate",
			"outputs": [
				{
					"internalType": "uint256",
					"name": "",
					"type": "uint256"
				}
			],
			"stateMutability": "view",
			"type": "function"
		},
		{
			"inputs": [
				{
					"internalType": "address",
					"name": "",
					"type": "address"
				}
			],
			"name": "approvalTimestamp",
			"outputs": [
				{
					"internalType": "uint256",
					"name": "",
					"type": "uint256"
				}
			],
			"stateMutability": "view",
			"type": "function"
		},
		{
			"inputs": [
				{
					"internalType": "address",
					"name": "",
					"type": "address"
				}
			],
			"name": "approvedForRewards",
			"outputs": [
				{
					"internalType": "bool",
					"name": "",
					"type": "bool"
				}
			],
			"stateMutability": "view",
			"type": "function"
		},
		{
			"inputs": [
				{
					"internalType": "uint256",
					"name": "",
					"type": "uint256"
				}
			],
			"name": "approvedValidators",
			"outputs": [
				{
					"internalType": "address",
					"name": "",
					"type": "address"
				}
			],
			"stateMutability": "view",
			"type": "function"
		},
		{
			"inputs": [
				{
					"internalType": "address",
					"name": "validator",
					"type": "address"
				}
			],
			"name": "calculateDollarValueOfReward",
			"outputs": [
				{
					"internalType": "uint256",
					"name": "dollarValueInCents",
					"type": "uint256"
				}
			],
			"stateMutability": "view",
			"type": "function"
		},
		{
			"inputs": [
				{
					"internalType": "uint256",
					"name": "newRate",
					"type": "uint256"
				}
			],
			"name": "changeAnnualRewardRate",
			"outputs": [],
			"stateMutability": "nonpayable",
			"type": "function"
		},
		{
			"inputs": [
				{
					"internalType": "uint256",
					"name": "amount",
					"type": "uint256"
				}
			],
			"name": "changeExtraRewardsPerBlock",
			"outputs": [],
			"stateMutability": "nonpayable",
			"type": "function"
		},
		{
			"inputs": [
				{
					"internalType": "uint256",
					"name": "amount",
					"type": "uint256"
				}
			],
			"name": "changeMinimumValidatorStaking",
			"outputs": [],
			"stateMutability": "nonpayable",
			"type": "function"
		},
		{
			"inputs": [
				{
					"internalType": "address",
					"name": "",
					"type": "address"
				}
			],
			"name": "checkValidator",
			"outputs": [
				{
					"internalType": "bool",
					"name": "",
					"type": "bool"
				}
			],
			"stateMutability": "pure",
			"type": "function"
		},
		{
			"inputs": [
				{
					"internalType": "address payable",
					"name": "feeAddr",
					"type": "address"
				},
				{
					"internalType": "string",
					"name": "moniker",
					"type": "string"
				}
			],
			"name": "createOrEditValidator",
			"outputs": [
				{
					"internalType": "bool",
					"name": "",
					"type": "bool"
				}
			],
			"stateMutability": "payable",
			"type": "function"
		},
		{
			"inputs": [],
			"name": "disableBlockRewards",
			"outputs": [],
			"stateMutability": "nonpayable",
			"type": "function"
		},
		{
			"inputs": [],
			"name": "distributeRewardsToApproved",
			"outputs": [],
			"stateMutability": "nonpayable",
			"type": "function"
		},
		{
			"inputs": [
				{
					"internalType": "address payable",
					"name": "to",
					"type": "address"
				},
				{
					"internalType": "uint256",
					"name": "amount",
					"type": "uint256"
				}
			],
			"name": "emergencyTransfer",
			"outputs": [],
			"stateMutability": "nonpayable",
			"type": "function"
		},
		{
			"inputs": [],
			"name": "extraRewardsPerBlock",
			"outputs": [
				{
					"internalType": "uint256",
					"name": "",
					"type": "uint256"
				}
			],
			"stateMutability": "view",
			"type": "function"
		},
		{
			"inputs": [],
			"name": "getAdminCount",
			"outputs": [
				{
					"internalType": "uint256",
					"name": "",
					"type": "uint256"
				}
			],
			"stateMutability": "view",
			"type": "function"
		},
		{
			"inputs": [],
			"name": "getAdminList",
			"outputs": [
				{
					"internalType": "address[]",
					"name": "",
					"type": "address[]"
				}
			],
			"stateMutability": "view",
			"type": "function"
		},
		{
			"inputs": [],
			"name": "getAllValidatorInfo",
			"outputs": [
				{
					"internalType": "uint256",
					"name": "totalValidatorCount",
					"type": "uint256"
				},
				{
					"internalType": "uint256",
					"name": "totalStakedCoins",
					"type": "uint256"
				},
				{
					"internalType": "address[]",
					"name": "",
					"type": "address[]"
				},
				{
					"internalType": "enum InterfaceValidator.Status[]",
					"name": "",
					"type": "uint8[]"
				},
				{
					"internalType": "uint256[]",
					"name": "",
					"type": "uint256[]"
				},
				{
					"internalType": "string[]",
					"name": "",
					"type": "string[]"
				},
				{
					"internalType": "string[]",
					"name": "",
					"type": "string[]"
				}
			],
			"stateMutability": "view",
			"type": "function"
		},
		{
			"inputs": [],
			"name": "getApprovedValidators",
			"outputs": [
				{
					"internalType": "address[]",
					"name": "",
					"type": "address[]"
				}
			],
			"stateMutability": "view",
			"type": "function"
		},
		{
			"inputs": [],
			"name": "getApprovedValidatorsCount",
			"outputs": [
				{
					"internalType": "uint256",
					"name": "",
					"type": "uint256"
				}
			],
			"stateMutability": "view",
			"type": "function"
		},
		{
			"inputs": [],
			"name": "getPriceInfo",
			"outputs": [
				{
					"internalType": "uint256",
					"name": "currentPriceInCents",
					"type": "uint256"
				},
				{
					"internalType": "uint256",
					"name": "lastUpdate",
					"type": "uint256"
				},
				{
					"internalType": "address",
					"name": "oracle",
					"type": "address"
				},
				{
					"internalType": "bool",
					"name": "isTierBasedRewards",
					"type": "bool"
				}
			],
			"stateMutability": "view",
			"type": "function"
		},
		{
			"inputs": [
				{
					"internalType": "address",
					"name": "validator",
					"type": "address"
				}
			],
			"name": "getTotalAvailableRewards",
			"outputs": [
				{
					"internalType": "uint256",
					"name": "blockRewards",
					"type": "uint256"
				},
				{
					"internalType": "uint256",
					"name": "annualRewards",
					"type": "uint256"
				},
				{
					"internalType": "uint256",
					"name": "totalRewards",
					"type": "uint256"
				}
			],
			"stateMutability": "view",
			"type": "function"
		},
		{
			"inputs": [
				{
					"internalType": "address",
					"name": "validator",
					"type": "address"
				}
			],
			"name": "getValidatorApprovalInfo",
			"outputs": [
				{
					"internalType": "bool",
					"name": "isApproved",
					"type": "bool"
				},
				{
					"internalType": "uint256",
					"name": "approvedTimestamp",
					"type": "uint256"
				},
				{
					"internalType": "uint256",
					"name": "lastClaimTimestamp",
					"type": "uint256"
				},
				{
					"internalType": "uint256",
					"name": "availableAnnualReward",
					"type": "uint256"
				}
			],
			"stateMutability": "view",
			"type": "function"
		},
		{
			"inputs": [
				{
					"internalType": "address",
					"name": "validator",
					"type": "address"
				}
			],
			"name": "getValidatorTierInfo",
			"outputs": [
				{
					"internalType": "uint256",
					"name": "currentTier",
					"type": "uint256"
				},
				{
					"internalType": "string",
					"name": "tierName",
					"type": "string"
				},
				{
					"internalType": "uint256",
					"name": "minStakingRequired",
					"type": "uint256"
				},
				{
					"internalType": "uint256",
					"name": "annualRewardCents",
					"type": "uint256"
				},
				{
					"internalType": "uint256",
					"name": "stakedAmount",
					"type": "uint256"
				},
				{
					"internalType": "bool",
					"name": "meetsRequirement",
					"type": "bool"
				}
			],
			"stateMutability": "view",
			"type": "function"
		},
		{
			"inputs": [
				{
					"internalType": "uint256",
					"name": "stakedAmount",
					"type": "uint256"
				}
			],
			"name": "getValidatorTierReward",
			"outputs": [
				{
					"internalType": "uint256",
					"name": "tierRewardCents",
					"type": "uint256"
				}
			],
			"stateMutability": "view",
			"type": "function"
		},
		{
			"inputs": [
				{
					"internalType": "address",
					"name": "account",
					"type": "address"
				}
			],
			"name": "isAdmin",
			"outputs": [
				{
					"internalType": "bool",
					"name": "",
					"type": "bool"
				}
			],
			"stateMutability": "view",
			"type": "function"
		},
		{
			"inputs": [],
			"name": "isPaused",
			"outputs": [
				{
					"internalType": "bool",
					"name": "",
					"type": "bool"
				}
			],
			"stateMutability": "view",
			"type": "function"
		},
		{
			"inputs": [
				{
					"internalType": "address",
					"name": "validator",
					"type": "address"
				}
			],
			"name": "isValidatorApprovedForRewards",
			"outputs": [
				{
					"internalType": "bool",
					"name": "",
					"type": "bool"
				}
			],
			"stateMutability": "view",
			"type": "function"
		},
		{
			"inputs": [
				{
					"internalType": "address",
					"name": "",
					"type": "address"
				}
			],
			"name": "lastAnnualRewardClaim",
			"outputs": [
				{
					"internalType": "uint256",
					"name": "",
					"type": "uint256"
				}
			],
			"stateMutability": "view",
			"type": "function"
		},
		{
			"inputs": [
				{
					"internalType": "address",
					"name": "",
					"type": "address"
				}
			],
			"name": "lastClaimBlock",
			"outputs": [
				{
					"internalType": "uint256",
					"name": "",
					"type": "uint256"
				}
			],
			"stateMutability": "view",
			"type": "function"
		},
		{
			"inputs": [],
			"name": "lastPriceUpdate",
			"outputs": [
				{
					"internalType": "uint256",
					"name": "",
					"type": "uint256"
				}
			],
			"stateMutability": "view",
			"type": "function"
		},
		{
			"inputs": [],
			"name": "lastRewardedBlock",
			"outputs": [
				{
					"internalType": "uint256",
					"name": "",
					"type": "uint256"
				}
			],
			"stateMutability": "view",
			"type": "function"
		},
		{
			"inputs": [],
			"name": "minimumStakingAmount",
			"outputs": [
				{
					"internalType": "uint256",
					"name": "",
					"type": "uint256"
				}
			],
			"stateMutability": "view",
			"type": "function"
		},
		{
			"inputs": [],
			"name": "minimumValidatorStaking",
			"outputs": [
				{
					"internalType": "uint256",
					"name": "",
					"type": "uint256"
				}
			],
			"stateMutability": "view",
			"type": "function"
		},
		{
			"inputs": [],
			"name": "owner",
			"outputs": [
				{
					"internalType": "address",
					"name": "",
					"type": "address"
				}
			],
			"stateMutability": "view",
			"type": "function"
		},
		{
			"inputs": [],
			"name": "pause",
			"outputs": [],
			"stateMutability": "nonpayable",
			"type": "function"
		},
		{
			"inputs": [],
			"name": "paused",
			"outputs": [
				{
					"internalType": "bool",
					"name": "",
					"type": "bool"
				}
			],
			"stateMutability": "view",
			"type": "function"
		},
		{
			"inputs": [],
			"name": "priceOracle",
			"outputs": [
				{
					"internalType": "address",
					"name": "",
					"type": "address"
				}
			],
			"stateMutability": "view",
			"type": "function"
		},
		{
			"inputs": [
				{
					"internalType": "address",
					"name": "admin",
					"type": "address"
				}
			],
			"name": "removeAdmin",
			"outputs": [],
			"stateMutability": "nonpayable",
			"type": "function"
		},
		{
			"inputs": [],
			"name": "renounceOwnership",
			"outputs": [],
			"stateMutability": "nonpayable",
			"type": "function"
		},
		{
			"inputs": [],
			"name": "rescueCoins",
			"outputs": [],
			"stateMutability": "nonpayable",
			"type": "function"
		},
		{
			"inputs": [],
			"name": "resetLastRewardedBlock",
			"outputs": [],
			"stateMutability": "nonpayable",
			"type": "function"
		},
		{
			"inputs": [
				{
					"internalType": "address",
					"name": "",
					"type": "address"
				}
			],
			"name": "rewardBalance",
			"outputs": [
				{
					"internalType": "uint256",
					"name": "",
					"type": "uint256"
				}
			],
			"stateMutability": "view",
			"type": "function"
		},
		{
			"inputs": [],
			"name": "rewardFund",
			"outputs": [
				{
					"internalType": "uint256",
					"name": "",
					"type": "uint256"
				}
			],
			"stateMutability": "view",
			"type": "function"
		},
		{
			"inputs": [
				{
					"internalType": "uint256",
					"name": "blockNumber",
					"type": "uint256"
				}
			],
			"name": "setLastRewardedBlock",
			"outputs": [],
			"stateMutability": "nonpayable",
			"type": "function"
		},
		{
			"inputs": [
				{
					"internalType": "address[]",
					"name": "validators",
					"type": "address[]"
				},
				{
					"internalType": "bool",
					"name": "approved",
					"type": "bool"
				}
			],
			"name": "setMultipleValidatorRewardApproval",
			"outputs": [],
			"stateMutability": "nonpayable",
			"type": "function"
		},
		{
			"inputs": [
				{
					"internalType": "address",
					"name": "newOracle",
					"type": "address"
				}
			],
			"name": "setPriceOracle",
			"outputs": [],
			"stateMutability": "nonpayable",
			"type": "function"
		},
		{
			"inputs": [
				{
					"internalType": "address",
					"name": "validator",
					"type": "address"
				},
				{
					"internalType": "bool",
					"name": "approved",
					"type": "bool"
				}
			],
			"name": "setValidatorRewardApproval",
			"outputs": [],
			"stateMutability": "nonpayable",
			"type": "function"
		},
		{
			"inputs": [],
			"name": "splendorPriceUSD",
			"outputs": [
				{
					"internalType": "uint256",
					"name": "",
					"type": "uint256"
				}
			],
			"stateMutability": "view",
			"type": "function"
		},
		{
			"inputs": [
				{
					"internalType": "address",
					"name": "user",
					"type": "address"
				},
				{
					"internalType": "address",
					"name": "validatorAddress",
					"type": "address"
				}
			],
			"name": "stakingValidations",
			"outputs": [
				{
					"internalType": "uint256",
					"name": "minimumStakingAmt",
					"type": "uint256"
				},
				{
					"internalType": "uint256",
					"name": "stakingWaiting",
					"type": "uint256"
				}
			],
			"stateMutability": "view",
			"type": "function"
		},
		{
			"inputs": [
				{
					"internalType": "bool",
					"name": "useTierBased",
					"type": "bool"
				}
			],
			"name": "toggleRewardSystem",
			"outputs": [],
			"stateMutability": "nonpayable",
			"type": "function"
		},
		{
			"inputs": [
				{
					"internalType": "address",
					"name": "validator",
					"type": "address"
				}
			],
			"name": "totalProfitEarned",
			"outputs": [
				{
					"internalType": "uint256",
					"name": "",
					"type": "uint256"
				}
			],
			"stateMutability": "view",
			"type": "function"
		},
		{
			"inputs": [
				{
					"internalType": "address",
					"name": "",
					"type": "address"
				}
			],
			"name": "totalProfitWithdrawn",
			"outputs": [
				{
					"internalType": "uint256",
					"name": "",
					"type": "uint256"
				}
			],
			"stateMutability": "view",
			"type": "function"
		},
		{
			"inputs": [
				{
					"internalType": "address payable",
					"name": "to",
					"type": "address"
				},
				{
					"internalType": "uint256",
					"name": "amount",
					"type": "uint256"
				}
			],
			"name": "transferFunds",
			"outputs": [],
			"stateMutability": "nonpayable",
			"type": "function"
		},
		{
			"inputs": [
				{
					"internalType": "address",
					"name": "newOwner",
					"type": "address"
				}
			],
			"name": "transferOwnership",
			"outputs": [],
			"stateMutability": "nonpayable",
			"type": "function"
		},
		{
			"inputs": [],
			"name": "unpause",
			"outputs": [],
			"stateMutability": "nonpayable",
			"type": "function"
		},
		{
			"inputs": [
				{
					"internalType": "address",
					"name": "validator",
					"type": "address"
				}
			],
			"name": "unstake",
			"outputs": [
				{
					"internalType": "bool",
					"name": "",
					"type": "bool"
				}
			],
			"stateMutability": "nonpayable",
			"type": "function"
		},
		{
			"inputs": [
				{
					"internalType": "uint256",
					"name": "newPriceInCents",
					"type": "uint256"
				}
			],
			"name": "updateSplendorPrice",
			"outputs": [],
			"stateMutability": "nonpayable",
			"type": "function"
		},
		{
			"inputs": [
				{
					"internalType": "uint256",
					"name": "tierIndex",
					"type": "uint256"
				},
				{
					"internalType": "uint256",
					"name": "minStakingAmount",
					"type": "uint256"
				},
				{
					"internalType": "uint256",
					"name": "annualRewardCents",
					"type": "uint256"
				},
				{
					"internalType": "string",
					"name": "tierName",
					"type": "string"
				}
			],
			"name": "updateValidatorTier",
			"outputs": [],
			"stateMutability": "nonpayable",
			"type": "function"
		},
		{
			"inputs": [],
			"name": "useTierBasedRewards",
			"outputs": [
				{
					"internalType": "bool",
					"name": "",
					"type": "bool"
				}
			],
			"stateMutability": "view",
			"type": "function"
		},
		{
			"inputs": [],
			"name": "valContract",
			"outputs": [
				{
					"internalType": "contract InterfaceValidator",
					"name": "",
					"type": "address"
				}
			],
			"stateMutability": "view",
			"type": "function"
		},
		{
			"inputs": [
				{
					"internalType": "address",
					"name": "validatorAddress",
					"type": "address"
				},
				{
					"internalType": "address",
					"name": "",
					"type": "address"
				}
			],
			"name": "validatorSpecificInfo1",
			"outputs": [
				{
					"internalType": "string",
					"name": "identityName",
					"type": "string"
				},
				{
					"internalType": "string",
					"name": "website",
					"type": "string"
				},
				{
					"internalType": "string",
					"name": "otherDetails",
					"type": "string"
				},
				{
					"internalType": "uint256",
					"name": "withdrawableRewards",
					"type": "uint256"
				},
				{
					"internalType": "uint256",
					"name": "stakedCoins",
					"type": "uint256"
				},
				{
					"internalType": "uint256",
					"name": "waitingBlocksForUnstake",
					"type": "uint256"
				}
			],
			"stateMutability": "view",
			"type": "function"
		},
		{
			"inputs": [
				{
					"internalType": "address",
					"name": "validatorAddress",
					"type": "address"
				},
				{
					"internalType": "address",
					"name": "user",
					"type": "address"
				}
			],
			"name": "validatorSpecificInfo2",
			"outputs": [
				{
					"internalType": "uint256",
					"name": "totalStakedCoins",
					"type": "uint256"
				},
				{
					"internalType": "enum InterfaceValidator.Status",
					"name": "status",
					"type": "uint8"
				},
				{
					"internalType": "uint256",
					"name": "selfStakedCoins",
					"type": "uint256"
				},
				{
					"internalType": "uint256",
					"name": "masterVoters",
					"type": "uint256"
				},
				{
					"internalType": "uint256",
					"name": "stakers",
					"type": "uint256"
				},
				{
					"internalType": "address",
					"name": "",
					"type": "address"
				}
			],
			"stateMutability": "view",
			"type": "function"
		},
		{
			"inputs": [
				{
					"internalType": "uint256",
					"name": "",
					"type": "uint256"
				}
			],
			"name": "validatorTiers",
			"outputs": [
				{
					"internalType": "uint256",
					"name": "minStakingAmount",
					"type": "uint256"
				},
				{
					"internalType": "uint256",
					"name": "annualRewardCents",
					"type": "uint256"
				},
				{
					"internalType": "string",
					"name": "tierName",
					"type": "string"
				}
			],
			"stateMutability": "view",
			"type": "function"
		},
		{
			"inputs": [
				{
					"internalType": "address",
					"name": "validator",
					"type": "address"
				}
			],
			"name": "viewAnnualStakingReward",
			"outputs": [
				{
					"internalType": "uint256",
					"name": "",
					"type": "uint256"
				}
			],
			"stateMutability": "view",
			"type": "function"
		},
		{
			"inputs": [
				{
					"internalType": "address",
					"name": "validator",
					"type": "address"
				}
			],
			"name": "viewValidatorRewards",
			"outputs": [
				{
					"internalType": "uint256",
					"name": "rewardAmount",
					"type": "uint256"
				}
			],
			"stateMutability": "view",
			"type": "function"
		},
		{
			"inputs": [
				{
					"internalType": "address",
					"name": "",
					"type": "address"
				},
				{
					"internalType": "address",
					"name": "",
					"type": "address"
				}
			],
			"name": "waitingUnstaking",
			"outputs": [
				{
					"internalType": "uint256",
					"name": "",
					"type": "uint256"
				}
			],
			"stateMutability": "pure",
			"type": "function"
		},
		{
			"inputs": [
				{
					"internalType": "address",
					"name": "",
					"type": "address"
				},
				{
					"internalType": "address",
					"name": "",
					"type": "address"
				}
			],
			"name": "waitingWithdrawProfit",
			"outputs": [
				{
					"internalType": "uint256",
					"name": "",
					"type": "uint256"
				}
			],
			"stateMutability": "pure",
			"type": "function"
		},
		{
			"inputs": [
				{
					"internalType": "address",
					"name": "user",
					"type": "address"
				},
				{
					"internalType": "address",
					"name": "validatorAddress",
					"type": "address"
				}
			],
			"name": "waitingWithdrawStaking",
			"outputs": [
				{
					"internalType": "uint256",
					"name": "",
					"type": "uint256"
				}
			],
			"stateMutability": "view",
			"type": "function"
		},
		{
			"inputs": [
				{
					"internalType": "address",
					"name": "validator",
					"type": "address"
				}
			],
			"name": "withdrawAnnualStakingReward",
			"outputs": [],
			"stateMutability": "nonpayable",
			"type": "function"
		},
		{
			"inputs": [
				{
					"internalType": "address",
					"name": "validator",
					"type": "address"
				}
			],
			"name": "withdrawStakingReward",
			"outputs": [],
			"stateMutability": "nonpayable",
			"type": "function"
		},
		{
			"stateMutability": "payable",
			"type": "receive"
		}
	]
}