{
	"WalletBlocklist.sol": {
		"WalletBlocklist": {
			"abi": [
				{
					"anonymous": false,
					"inputs": [
						{
							"indexed": true,
							"internalType": "address",
							"name": "admin",
							"type": "address"
						}
					],
					"name": "AdminAdded",
					"type": "event"
				},
				{
					"anonymous": false,
					"inputs": [
						{
							"indexed": true,
							"internalType": "address",
							"name": "admin",
							"type": "address"
						}
					],
					"name": "AdminRemoved",
					"type": "event"
				},
				{
					"anonymous": false,
					"inputs": [
						{
							"indexed": true,
							"internalType": "address",
							"name": "previousAdmin",
							"type": "address"
						},
						{
							"indexed": true,
							"internalType": "address",
							"name": "newAdmin",
							"type": "address"
						}
					],
					"name": "AdminTransferred",
					"type": "event"
				},
				{
					"anonymous": false,
					"inputs": [
						{
							"indexed": false,
							"internalType": "uint256",
							"name": "timestamp",
							"type": "uint256"
						}
					],
					"name": "BlocklistCleared",
					"type": "event"
				},
				{
					"anonymous": false,
					"inputs": [
						{
							"indexed": true,
							"internalType": "address",
							"name": "wallet",
							"type": "address"
						},
						{
							"indexed": false,
							"internalType": "string",
							"name": "reason",
							"type": "string"
						},
						{
							"indexed": false,
							"internalType": "uint256",
							"name": "timestamp",
							"type": "uint256"
						}
					],
					"name": "WalletBlocklisted",
					"type": "event"
				},
				{
					"anonymous": false,
					"inputs": [
						{
							"indexed": true,
							"internalType": "address",
							"name": "wallet",
							"type": "address"
						},
						{
							"indexed": false,
							"internalType": "uint256",
							"name": "timestamp",
							"type": "uint256"
						}
					],
					"name": "WalletUnblocklisted",
					"type": "event"
				},
				{
					"inputs": [],
					"name": "BronzeValidatorStaking",
					"outputs": [
						{
							"internalType": "uint256",
							"name": "",
							"type": "uint256"
						}
					],
					"stateMutability": "view",
					"type": "function"
				},
				{
					"inputs": [],
					"name": "GoldValidatorStaking",
					"outputs": [
						{
							"internalType": "uint256",
							"name": "",
							"type": "uint256"
						}
					],
					"stateMutability": "view",
					"type": "function"
				},
				{
					"inputs": [],
					"name": "MaxValidators",
					"outputs": [
						{
							"internalType": "uint16",
							"name": "",
							"type": "uint16"
						}
					],
					"stateMutability": "view",
					"type": "function"
				},
				{
					"inputs": [],
					"name": "MinimalStakingCoin",
					"outputs": [
						{
							"internalType": "uint256",
							"name": "",
							"type": "uint256"
						}
					],
					"stateMutability": "view",
					"type": "function"
				},
				{
					"inputs": [],
					"name": "PlatinumValidatorStaking",
					"outputs": [
						{
							"internalType": "uint256",
							"name": "",
							"type": "uint256"
						}
					],
					"stateMutability": "view",
					"type": "function"
				},
				{
					"inputs": [],
					"name": "ProposalAddr",
					"outputs": [
						{
							"internalType": "address",
							"name": "",
							"type": "address"
						}
					],
					"stateMutability": "view",
					"type": "function"
				},
				{
					"inputs": [],
					"name": "PunishContractAddr",
					"outputs": [
						{
							"internalType": "address",
							"name": "",
							"type": "address"
						}
					],
					"stateMutability": "view",
					"type": "function"
				},
				{
					"inputs": [],
					"name": "SilverValidatorStaking",
					"outputs": [
						{
							"internalType": "uint256",
							"name": "",
							"type": "uint256"
						}
					],
					"stateMutability": "view",
					"type": "function"
				},
				{
					"inputs": [],
					"name": "SlashingContractAddr",
					"outputs": [
						{
							"internalType": "address",
							"name": "",
							"type": "address"
						}
					],
					"stateMutability": "view",
					"type": "function"
				},
				{
					"inputs": [],
					"name": "StakingLockPeriod",
					"outputs": [
						{
							"internalType": "uint64",
							"name": "",
							"type": "uint64"
						}
					],
					"stateMutability": "view",
					"type": "function"
				},
				{
					"inputs": [],
					"name": "ValidatorContractAddr",
					"outputs": [
						{
							"internalType": "address payable",
							"name": "",
							"type": "address"
						}
					],
					"stateMutability": "view",
					"type": "function"
				},
				{
					"inputs": [],
					"name": "WalletBlocklistAddr",
					"outputs": [
						{
							"internalType": "address",
							"name": "",
							"type": "address"
						}
					],
					"stateMutability": "view",
					"type": "function"
				},
				{
					"inputs": [
						{
							"internalType": "address",
							"name": "_admin",
							"type": "address"
						}
					],
					"name": "addAdmin",
					"outputs": [],
					"stateMutability": "nonpayable",
					"type": "function"
				},
				{
					"inputs": [
						{
							"internalType": "address",
							"name": "wallet",
							"type": "address"
						},
						{
							"internalType": "string",
							"name": "reason",
							"type": "string"
						}
					],
					"name": "addToBlocklist",
					"outputs": [],
					"stateMutability": "nonpayable",
					"type": "function"
				},
				{
					"inputs": [
						{
							"internalType": "address[]",
							"name": "wallets",
							"type": "address[]"
						},
						{
							"internalType": "string[]",
							"name": "reasons",
							"type": "string[]"
						}
					],
					"name": "addToBlocklistBatch",
					"outputs": [],
					"stateMutability": "nonpayable",
					"type": "function"
				},
				{
					"inputs": [],
					"name": "admin",
					"outputs": [
						{
							"internalType": "address",
							"name": "",
							"type": "address"
						}
					],
					"stateMutability": "view",
					"type": "function"
				},
				{
					"inputs": [
						{
							"internalType": "address",
							"name": "",
							"type": "address"
						}
					],
					"name": "admins",
					"outputs": [
						{
							"internalType": "bool",
							"name": "",
							"type": "bool"
						}
					],
					"stateMutability": "view",
					"type": "function"
				},
				{
					"inputs": [],
					"name": "clearBlocklist",
					"outputs": [],
					"stateMutability": "nonpayable",
					"type": "function"
				},
				{
					"inputs": [],
					"name": "creatorPartPercent",
					"outputs": [
						{
							"internalType": "uint256",
							"name": "",
							"type": "uint256"
						}
					],
					"stateMutability": "view",
					"type": "function"
				},
				{
					"inputs": [],
					"name": "deinitialize",
					"outputs": [],
					"stateMutability": "nonpayable",
					"type": "function"
				},
				{
					"inputs": [],
					"name": "extraRewardsPerBlock",
					"outputs": [
						{
							"internalType": "uint256",
							"name": "",
							"type": "uint256"
						}
					],
					"stateMutability": "view",
					"type": "function"
				},
				{
					"inputs": [],
					"name": "getAllBlocklisted",
					"outputs": [
						{
							"internalType": "address[]",
							"name": "",
							"type": "address[]"
						}
					],
					"stateMutability": "view",
					"type": "function"
				},
				{
					"inputs": [],
					"name": "getBlocklistCount",
					"outputs": [
						{
							"internalType": "uint256",
							"name": "",
							"type": "uint256"
						}
					],
					"stateMutability": "view",
					"type": "function"
				},
				{
					"inputs": [
						{
							"internalType": "address",
							"name": "wallet",
							"type": "address"
						}
					],
					"name": "getBlocklistInfo",
					"outputs": [
						{
							"internalType": "bool",
							"name": "isBlocked",
							"type": "bool"
						},
						{
							"internalType": "uint256",
							"name": "timestamp",
							"type": "uint256"
						},
						{
							"internalType": "string",
							"name": "reason",
							"type": "string"
						}
					],
					"stateMutability": "view",
					"type": "function"
				},
				{
					"inputs": [
						{
							"internalType": "uint256",
							"name": "offset",
							"type": "uint256"
						},
						{
							"internalType": "uint256",
							"name": "limit",
							"type": "uint256"
						}
					],
					"name": "getBlocklistedPaginated",
					"outputs": [
						{
							"internalType": "address[]",
							"name": "",
							"type": "address[]"
						}
					],
					"stateMutability": "view",
					"type": "function"
				},
				{
					"inputs": [],
					"name": "initialize",
					"outputs": [],
					"stateMutability": "nonpayable",
					"type": "function"
				},
				{
					"inputs": [],
					"name": "initialized",
					"outputs": [
						{
							"internalType": "bool",
							"name": "",
							"type": "bool"
						}
					],
					"stateMutability": "view",
					"type": "function"
				},
				{
					"inputs": [
						{
							"internalType": "address",
							"name": "_address",
							"type": "address"
						}
					],
					"name": "isAdmin",
					"outputs": [
						{
							"internalType": "bool",
							"name": "",
							"type": "bool"
						}
					],
					"stateMutability": "view",
					"type": "function"
				},
				{
					"inputs": [
						{
							"internalType": "address",
							"name": "wallet",
							"type": "address"
						}
					],
					"name": "isBlocklisted",
					"outputs": [
						{
							"internalType": "bool",
							"name": "",
							"type": "bool"
						}
					],
					"stateMutability": "view",
					"type": "function"
				},
				{
					"inputs": [],
					"name": "minimumValidatorStaking",
					"outputs": [
						{
							"internalType": "uint256",
							"name": "",
							"type": "uint256"
						}
					],
					"stateMutability": "view",
					"type": "function"
				},
				{
					"inputs": [
						{
							"internalType": "address",
							"name": "_admin",
							"type": "address"
						}
					],
					"name": "removeAdmin",
					"outputs": [],
					"stateMutability": "nonpayable",
					"type": "function"
				},
				{
					"inputs": [
						{
							"internalType": "address",
							"name": "wallet",
							"type": "address"
						}
					],
					"name": "removeFromBlocklist",
					"outputs": [],
					"stateMutability": "nonpayable",
					"type": "function"
				},
				{
					"inputs": [
						{
							"internalType": "address[]",
							"name": "wallets",
							"type": "address[]"
						}
					],
					"name": "removeFromBlocklistBatch",
					"outputs": [],
					"stateMutability": "nonpayable",
					"type": "function"
				},
				{
					"inputs": [],
					"name": "rewardFund",
					"outputs": [
						{
							"internalType": "uint256",
							"name": "",
							"type": "uint256"
						}
					],
					"stateMutability": "view",
					"type": "function"
				},
				{
					"inputs": [
						{
							"internalType": "address",
							"name": "_admin",
							"type": "address"
						}
					],
					"name": "setAdmin",
					"outputs": [],
					"stateMutability": "nonpayable",
					"type": "function"
				},
				{
					"inputs": [],
					"name": "stakerPartPercent",
					"outputs": [
						{
							"internalType": "uint256",
							"name": "",
							"type": "uint256"
						}
					],
					"stateMutability": "view",
					"type": "function"
				},
				{
					"inputs": [],
					"name": "totalRewards",
					"outputs": [
						{
							"internalType": "uint256",
							"name": "",
							"type": "uint256"
						}
					],
					"stateMutability": "view",
					"type": "function"
				},
				{
					"inputs": [],
					"name": "validatorPartPercent",
					"outputs": [
						{
							"internalType": "uint256",
							"name": "",
							"type": "uint256"
						}
					],
					"stateMutability": "view",
					"type": "function"
				}
			],
			"devdoc": {
				"details": "Contract for managing blocklisted/paused wallets to prevent bad actors from transferring native coins",
				"kind": "dev",
				"methods": {
					"addToBlocklist(address,string)": {
						"details": "Add a wallet to the blocklist",
						"params": {
							"reason": "The reason for blocklisting",
							"wallet": "The address to blocklist"
						}
					},
					"addToBlocklistBatch(address[],string[])": {
						"details": "Add multiple wallets to the blocklist in batch",
						"params": {
							"reasons": "Array of reasons for blocklisting (must match wallets length)",
							"wallets": "Array of addresses to blocklist"
						}
					},
					"clearBlocklist()": {
						"details": "Clear the entire blocklist (emergency function)"
					},
					"getAllBlocklisted()": {
						"details": "Get all blocklisted addresses",
						"returns": {
							"_0": "Array of all blocklisted addresses"
						}
					},
					"getBlocklistCount()": {
						"details": "Get the total number of blocklisted addresses",
						"returns": {
							"_0": "The count of blocklisted addresses"
						}
					},
					"getBlocklistInfo(address)": {
						"details": "Get blocklist information for a wallet",
						"params": {
							"wallet": "The address to query"
						},
						"returns": {
							"isBlocked": "True if the wallet is blocklisted",
							"reason": "The reason for blocklisting",
							"timestamp": "When the wallet was blocklisted"
						}
					},
					"getBlocklistedPaginated(uint256,uint256)": {
						"details": "Get blocklisted addresses with pagination",
						"params": {
							"limit": "Number of addresses to return",
							"offset": "Starting index"
						},
						"returns": {
							"_0": "Array of blocklisted addresses"
						}
					},
					"initialize()": {
						"details": "Constructor - automatically sets the hardcoded admin address"
					},
					"isBlocklisted(address)": {
						"details": "Check if a wallet is blocklisted",
						"params": {
							"wallet": "The address to check"
						},
						"returns": {
							"_0": "bool True if the wallet is blocklisted"
						}
					},
					"removeFromBlocklist(address)": {
						"details": "Remove a wallet from the blocklist",
						"params": {
							"wallet": "The address to remove from blocklist"
						}
					},
					"removeFromBlocklistBatch(address[])": {
						"details": "Remove multiple wallets from the blocklist in batch",
						"params": {
							"wallets": "Array of addresses to remove from blocklist"
						}
					}
				},
				"title": "WalletBlocklist",
				"version": 1
			},
			"evm": {
				"assembly": "    /* \"WalletBlocklist.sol\":327:8880  contract WalletBlocklist is Params {... */\n  mstore(0x40, 0x80)\n  callvalue\n  dup1\n  iszero\n  tag_1\n  jumpi\n  0x00\n  dup1\n  revert\ntag_1:\n  pop\n  dataSize(sub_0)\n  dup1\n  dataOffset(sub_0)\n  0x00\n  codecopy\n  0x00\n  return\nstop\n\nsub_0: assembly {\n        /* \"WalletBlocklist.sol\":327:8880  contract WalletBlocklist is Params {... */\n      mstore(0x40, 0x80)\n      callvalue\n      dup1\n      iszero\n      tag_1\n      jumpi\n      0x00\n      dup1\n      revert\n    tag_1:\n      pop\n      jumpi(tag_2, lt(calldatasize, 0x04))\n      shr(0xe0, calldataload(0x00))\n      dup1\n      0x704b6c02\n      gt\n      tag_41\n      jumpi\n      dup1\n      0xc967f90f\n      gt\n      tag_42\n      jumpi\n      dup1\n      0xdb78dd28\n      gt\n      tag_43\n      jumpi\n      dup1\n      0xdb78dd28\n      eq\n      tag_36\n      jumpi\n      dup1\n      0xebf8868d\n      eq\n      tag_37\n      jumpi\n      dup1\n      0xefe22266\n      eq\n      tag_38\n      jumpi\n      dup1\n      0xf851a440\n      eq\n      tag_39\n      jumpi\n      dup1\n      0xfc3e90e3\n      eq\n      tag_40\n      jumpi\n      0x00\n      dup1\n      revert\n    tag_43:\n      dup1\n      0xc967f90f\n      eq\n      tag_31\n      jumpi\n      dup1\n      0xcad0ebf1\n      eq\n      tag_32\n      jumpi\n      dup1\n      0xcd779d21\n      eq\n      tag_33\n      jumpi\n      dup1\n      0xd5074883\n      eq\n      tag_34\n      jumpi\n      dup1\n      0xdaa77ea2\n      eq\n      tag_35\n      jumpi\n      0x00\n      dup1\n      revert\n    tag_42:\n      dup1\n      0x989cf56c\n      gt\n      tag_44\n      jumpi\n      dup1\n      0x989cf56c\n      eq\n      tag_26\n      jumpi\n      dup1\n      0xa314637e\n      eq\n      tag_27\n      jumpi\n      dup1\n      0xa39774a9\n      eq\n      tag_28\n      jumpi\n      dup1\n      0xbe645692\n      eq\n      tag_29\n      jumpi\n      dup1\n      0xc47ca91b\n      eq\n      tag_30\n      jumpi\n      0x00\n      dup1\n      revert\n    tag_44:\n      dup1\n      0x704b6c02\n      eq\n      tag_22\n      jumpi\n      dup1\n      0x8129fc1c\n      eq\n      tag_23\n      jumpi\n      dup1\n      0x8ae53dbd\n      eq\n      tag_24\n      jumpi\n      dup1\n      0x8e204c43\n      eq\n      tag_25\n      jumpi\n      0x00\n      dup1\n      revert\n    tag_41:\n      dup1\n      0x31a2cac9\n      gt\n      tag_45\n      jumpi\n      dup1\n      0x4463ecf3\n      gt\n      tag_46\n      jumpi\n      dup1\n      0x4463ecf3\n      eq\n      tag_17\n      jumpi\n      dup1\n      0x591271f9\n      eq\n      tag_18\n      jumpi\n      dup1\n      0x592ca850\n      eq\n      tag_19\n      jumpi\n      dup1\n      0x6233be5d\n      eq\n      tag_20\n      jumpi\n      dup1\n      0x70480275\n      eq\n      tag_21\n      jumpi\n      0x00\n      dup1\n      revert\n    tag_46:\n      dup1\n      0x31a2cac9\n      eq\n      tag_12\n      jumpi\n      dup1\n      0x32dc3b94\n      eq\n      tag_13\n      jumpi\n      dup1\n      0x3a061bd3\n      eq\n      tag_14\n      jumpi\n      dup1\n      0x42127ee7\n      eq\n      tag_15\n      jumpi\n      dup1\n      0x429b62e5\n      eq\n      tag_16\n      jumpi\n      0x00\n      dup1\n      revert\n    tag_45:\n      dup1\n      0x158ef93e\n      gt\n      tag_47\n      jumpi\n      dup1\n      0x158ef93e\n      eq\n      tag_7\n      jumpi\n      dup1\n      0x1785f53c\n      eq\n      tag_8\n      jumpi\n      dup1\n      0x182637b8\n      eq\n      tag_9\n      jumpi\n      dup1\n      0x1b5e358c\n      eq\n      tag_10\n      jumpi\n      dup1\n      0x24d7806c\n      eq\n      tag_11\n      jumpi\n      0x00\n      dup1\n      revert\n    tag_47:\n      dup1\n      0x0976c65d\n      eq\n      tag_3\n      jumpi\n      dup1\n      0x0a0b5e51\n      eq\n      tag_3\n      jumpi\n      dup1\n      0x0e15561a\n      eq\n      tag_5\n      jumpi\n      dup1\n      0x1584589e\n      eq\n      tag_6\n      jumpi\n    tag_2:\n      0x00\n      dup1\n      revert\n        /* \"Params.sol\":1660:1732  uint256 public constant minimumValidatorStaking = BronzeValidatorStaking */\n    tag_3:\n      tag_48\n        /* \"Params.sol\":1310:1320  3947 ether */\n      0xd5f7a0e3e5d2cc0000\n        /* \"Params.sol\":1660:1732  uint256 public constant minimumValidatorStaking = BronzeValidatorStaking */\n      dup2\n      jump\n    tag_48:\n      mload(0x40)\n        /* \"#utility.yul\":160:185   */\n      swap1\n      dup2\n      mstore\n        /* \"#utility.yul\":148:150   */\n      0x20\n        /* \"#utility.yul\":133:151   */\n      add\n        /* \"Params.sol\":1660:1732  uint256 public constant minimumValidatorStaking = BronzeValidatorStaking */\n    tag_50:\n      mload(0x40)\n      dup1\n      swap2\n      sub\n      swap1\n      return\n        /* \"Params.sol\":2273:2300  uint256 public totalRewards */\n    tag_5:\n      tag_48\n      sload(0x03)\n      dup2\n      jump\n        /* \"WalletBlocklist.sol\":1501:1580  function deinitialize() external onlyAdmin {... */\n    tag_6:\n      tag_58\n      tag_59\n      jump\t// in\n    tag_58:\n      stop\n        /* \"Params.sol\":79:102  bool public initialized */\n    tag_7:\n      sload(0x00)\n      tag_60\n      swap1\n      0xff\n      and\n      dup2\n      jump\n    tag_60:\n      mload(0x40)\n        /* \"#utility.yul\":361:375   */\n      swap1\n      iszero\n        /* \"#utility.yul\":354:376   */\n      iszero\n        /* \"#utility.yul\":336:377   */\n      dup2\n      mstore\n        /* \"#utility.yul\":324:326   */\n      0x20\n        /* \"#utility.yul\":309:327   */\n      add\n        /* \"Params.sol\":79:102  bool public initialized */\n      tag_50\n        /* \"#utility.yul\":196:383   */\n      jump\n        /* \"Params.sol\":4139:4447  function removeAdmin(address _admin) external onlyAdmin {... */\n    tag_8:\n      tag_58\n      tag_65\n      calldatasize\n      0x04\n      tag_66\n      jump\t// in\n    tag_65:\n      tag_67\n      jump\t// in\n        /* \"Params.sol\":757:854  address... */\n    tag_9:\n      tag_68\n        /* \"Params.sol\":812:854  0x000000000000000000000000000000000000f007 */\n      0xf007\n        /* \"Params.sol\":757:854  address... */\n      dup2\n      jump\n    tag_68:\n      mload(0x40)\n      sub(shl(0xa0, 0x01), 0x01)\n        /* \"#utility.yul\":921:953   */\n      swap1\n      swap2\n      and\n        /* \"#utility.yul\":903:954   */\n      dup2\n      mstore\n        /* \"#utility.yul\":891:893   */\n      0x20\n        /* \"#utility.yul\":876:894   */\n      add\n        /* \"Params.sol\":757:854  address... */\n      tag_50\n        /* \"#utility.yul\":757:960   */\n      jump\n        /* \"Params.sol\":561:656  address... */\n    tag_10:\n      tag_68\n        /* \"Params.sol\":614:656  0x000000000000000000000000000000000000F001 */\n      0xf001\n        /* \"Params.sol\":561:656  address... */\n      dup2\n      jump\n        /* \"Params.sol\":4453:4578  function isAdmin(address _address) external view returns (bool) {... */\n    tag_11:\n      tag_60\n      tag_76\n      calldatasize\n      0x04\n      tag_66\n      jump\t// in\n    tag_76:\n      tag_77\n      jump\t// in\n        /* \"WalletBlocklist.sol\":6569:6865  function getBlocklistInfo(address wallet) ... */\n    tag_12:\n      tag_79\n      tag_80\n      calldatasize\n      0x04\n      tag_66\n      jump\t// in\n    tag_80:\n      tag_81\n      jump\t// in\n    tag_79:\n      mload(0x40)\n      tag_50\n      swap4\n      swap3\n      swap2\n      swap1\n      tag_83\n      jump\t// in\n        /* \"Params.sol\":1340:1400  uint256 public constant SilverValidatorStaking = 39474 ether */\n    tag_13:\n      tag_48\n        /* \"Params.sol\":1389:1400  39474 ether */\n      0x085be3cbc1c8d9880000\n        /* \"Params.sol\":1340:1400  uint256 public constant SilverValidatorStaking = 39474 ether */\n      dup2\n      jump\n        /* \"Params.sol\":440:555  address payable... */\n    tag_14:\n      tag_68\n        /* \"Params.sol\":512:554  0x000000000000000000000000000000000000f000 */\n      0xf000\n        /* \"Params.sol\":440:555  address payable... */\n      dup2\n      jump\n        /* \"Params.sol\":1914:1963  uint public constant validatorPartPercent = 60000 */\n    tag_15:\n      tag_48\n        /* \"Params.sol\":1958:1963  60000 */\n      0xea60\n        /* \"Params.sol\":1914:1963  uint public constant validatorPartPercent = 60000 */\n      dup2\n      jump\n        /* \"Params.sol\":158:196  mapping(address => bool) public admins */\n    tag_16:\n      tag_60\n      tag_95\n      calldatasize\n      0x04\n      tag_66\n      jump\t// in\n    tag_95:\n      mstore(0x20, 0x01)\n      0x00\n      swap1\n      dup2\n      mstore\n      0x40\n      swap1\n      keccak256\n      sload\n      0xff\n      and\n      dup2\n      jump\n        /* \"WalletBlocklist.sol\":6983:7097  function getAllBlocklisted() external view returns (address[] memory) {... */\n    tag_17:\n      tag_98\n      tag_99\n      jump\t// in\n    tag_98:\n      mload(0x40)\n      tag_50\n      swap2\n      swap1\n      tag_101\n      jump\t// in\n        /* \"Params.sol\":860:956  address... */\n    tag_18:\n      tag_68\n        /* \"Params.sol\":914:956  0x0000000000000000000000000000000000001007 */\n      0x1007\n        /* \"Params.sol\":860:956  address... */\n      dup2\n      jump\n        /* \"WalletBlocklist.sol\":3777:4605  function removeFromBlocklist(address wallet) ... */\n    tag_19:\n      tag_58\n      tag_106\n      calldatasize\n      0x04\n      tag_66\n      jump\t// in\n    tag_106:\n      tag_107\n      jump\t// in\n        /* \"Params.sol\":662:751  address... */\n    tag_20:\n      tag_68\n        /* \"Params.sol\":709:751  0x000000000000000000000000000000000000F002 */\n      0xf002\n        /* \"Params.sol\":662:751  address... */\n      dup2\n      jump\n        /* \"Params.sol\":3891:4133  function addAdmin(address _admin) external onlyAdmin {... */\n    tag_21:\n      tag_58\n      tag_112\n      calldatasize\n      0x04\n      tag_66\n      jump\t// in\n    tag_112:\n      tag_113\n      jump\t// in\n        /* \"Params.sol\":3613:3885  function setAdmin(address _admin) external onlyAdmin {... */\n    tag_22:\n      tag_58\n      tag_115\n      calldatasize\n      0x04\n      tag_66\n      jump\t// in\n    tag_115:\n      tag_116\n      jump\t// in\n        /* \"WalletBlocklist.sol\":1248:1495  function initialize() external onlyNotInitialized {... */\n    tag_23:\n      tag_58\n      tag_118\n      jump\t// in\n        /* \"Params.sol\":2131:2185  uint256 public constant extraRewardsPerBlock = 1 ether */\n    tag_24:\n      tag_48\n        /* \"Params.sol\":2178:2185  1 ether */\n      0x0de0b6b3a7640000\n        /* \"Params.sol\":2131:2185  uint256 public constant extraRewardsPerBlock = 1 ether */\n      dup2\n      jump\n        /* \"WalletBlocklist.sol\":6159:6284  function isBlocklisted(address wallet) onlyInitialized external view returns (bool) {... */\n    tag_25:\n      tag_60\n      tag_123\n      calldatasize\n      0x04\n      tag_66\n      jump\t// in\n    tag_123:\n      tag_124\n      jump\t// in\n        /* \"WalletBlocklist.sol\":7231:7343  function getBlocklistCount() external view returns (uint256) {... */\n    tag_26:\n        /* \"WalletBlocklist.sol\":7309:7329  blocklistedAddresses */\n      0x07\n        /* \"WalletBlocklist.sol\":7309:7336  blocklistedAddresses.length */\n      sload\n        /* \"WalletBlocklist.sol\":7231:7343  function getBlocklistCount() external view returns (uint256) {... */\n      jump(tag_48)\n        /* \"WalletBlocklist.sol\":1743:2371  function addToBlocklist(address wallet, string calldata reason) ... */\n    tag_27:\n      tag_58\n      tag_130\n      calldatasize\n      0x04\n      tag_131\n      jump\t// in\n    tag_130:\n      tag_132\n      jump\t// in\n        /* \"WalletBlocklist.sol\":8361:8878  function clearBlocklist() external onlyAdmin onlyInitialized {... */\n    tag_28:\n      tag_58\n      tag_134\n      jump\t// in\n        /* \"Params.sol\":1166:1219  uint256 public constant MinimalStakingCoin = 32 ether */\n    tag_29:\n      tag_48\n        /* \"Params.sol\":1211:1219  32 ether */\n      0x01bc16d674ec800000\n        /* \"Params.sol\":1166:1219  uint256 public constant MinimalStakingCoin = 32 ether */\n      dup2\n      jump\n        /* \"WalletBlocklist.sol\":2594:3646  function addToBlocklistBatch(address[] calldata wallets, string[] calldata reasons) ... */\n    tag_30:\n      tag_58\n      tag_139\n      calldatasize\n      0x04\n      tag_140\n      jump\t// in\n    tag_139:\n      tag_141\n      jump\t// in\n        /* \"Params.sol\":984:1028  uint16 public constant MaxValidators = 10000 */\n    tag_31:\n      tag_142\n        /* \"Params.sol\":1023:1028  10000 */\n      0x2710\n        /* \"Params.sol\":984:1028  uint16 public constant MaxValidators = 10000 */\n      dup2\n      jump\n    tag_142:\n      mload(0x40)\n        /* \"#utility.yul\":4567:4573   */\n      0xffff\n        /* \"#utility.yul\":4555:4574   */\n      swap1\n      swap2\n      and\n        /* \"#utility.yul\":4537:4575   */\n      dup2\n      mstore\n        /* \"#utility.yul\":4525:4527   */\n      0x20\n        /* \"#utility.yul\":4510:4528   */\n      add\n        /* \"Params.sol\":984:1028  uint16 public constant MaxValidators = 10000 */\n      tag_50\n        /* \"#utility.yul\":4393:4581   */\n      jump\n        /* \"Params.sol\":1503:1567  uint256 public constant PlatinumValidatorStaking = 3947368 ether */\n    tag_32:\n      tag_48\n        /* \"Params.sol\":1554:1567  3947368 ether */\n      0x0343e33f80dc000ca00000\n        /* \"Params.sol\":1503:1567  uint256 public constant PlatinumValidatorStaking = 3947368 ether */\n      dup2\n      jump\n        /* \"Params.sol\":1813:1859  uint public constant stakerPartPercent = 30000 */\n    tag_33:\n      tag_48\n        /* \"Params.sol\":1854:1859  30000 */\n      0x7530\n        /* \"Params.sol\":1813:1859  uint public constant stakerPartPercent = 30000 */\n      dup2\n      jump\n        /* \"Params.sol\":1422:1481  uint256 public constant GoldValidatorStaking = 394737 ether */\n    tag_34:\n      tag_48\n        /* \"Params.sol\":1469:1481  394737 ether */\n      0x5396bc536dbd89240000\n        /* \"Params.sol\":1422:1481  uint256 public constant GoldValidatorStaking = 394737 ether */\n      dup2\n      jump\n        /* \"Params.sol\":2031:2078  uint public constant creatorPartPercent = 10000 */\n    tag_35:\n      tag_48\n        /* \"Params.sol\":2073:2078  10000 */\n      0x2710\n        /* \"Params.sol\":2031:2078  uint public constant creatorPartPercent = 10000 */\n      dup2\n      jump\n        /* \"Params.sol\":1109:1160  uint64 public constant StakingLockPeriod = 31536000 */\n    tag_36:\n      tag_158\n        /* \"Params.sol\":1152:1160  31536000 */\n      0x01e13380\n        /* \"Params.sol\":1109:1160  uint64 public constant StakingLockPeriod = 31536000 */\n      dup2\n      jump\n    tag_158:\n      mload(0x40)\n        /* \"#utility.yul\":4760:4778   */\n      0xffffffffffffffff\n        /* \"#utility.yul\":4748:4779   */\n      swap1\n      swap2\n      and\n        /* \"#utility.yul\":4730:4780   */\n      dup2\n      mstore\n        /* \"#utility.yul\":4718:4720   */\n      0x20\n        /* \"#utility.yul\":4703:4721   */\n      add\n        /* \"Params.sol\":1109:1160  uint64 public constant StakingLockPeriod = 31536000 */\n      tag_50\n        /* \"#utility.yul\":4586:4786   */\n      jump\n        /* \"WalletBlocklist.sol\":7555:8210  function getBlocklistedPaginated(uint256 offset, uint256 limit) ... */\n    tag_37:\n      tag_98\n      tag_163\n      calldatasize\n      0x04\n      tag_164\n      jump\t// in\n    tag_163:\n      tag_165\n      jump\t// in\n        /* \"Params.sol\":2241:2266  uint256 public rewardFund */\n    tag_38:\n      tag_48\n      sload(0x02)\n      dup2\n      jump\n        /* \"Params.sol\":132:152  address public admin */\n    tag_39:\n      sload(0x00)\n      tag_68\n      swap1\n      0x0100\n      swap1\n      div\n      sub(shl(0xa0, 0x01), 0x01)\n      and\n      dup2\n      jump\n        /* \"WalletBlocklist.sol\":4761:5992  function removeFromBlocklistBatch(address[] calldata wallets) ... */\n    tag_40:\n      tag_58\n      tag_174\n      calldatasize\n      0x04\n      tag_175\n      jump\t// in\n    tag_174:\n      tag_176\n      jump\t// in\n        /* \"WalletBlocklist.sol\":1501:1580  function deinitialize() external onlyAdmin {... */\n    tag_59:\n        /* \"Params.sol\":3513:3518  admin */\n      sload(0x00)\n      0x0100\n      swap1\n      div\n      sub(shl(0xa0, 0x01), 0x01)\n      and\n        /* \"Params.sol\":3499:3509  msg.sender */\n      caller\n        /* \"Params.sol\":3499:3518  msg.sender == admin */\n      eq\n      dup1\n        /* \"Params.sol\":3499:3540  msg.sender == admin || admins[msg.sender] */\n      tag_178\n      jumpi\n      pop\n        /* \"Params.sol\":3529:3539  msg.sender */\n      caller\n        /* \"Params.sol\":3522:3540  admins[msg.sender] */\n      0x00\n      swap1\n      dup2\n      mstore\n        /* \"Params.sol\":3522:3528  admins */\n      0x01\n        /* \"Params.sol\":3522:3540  admins[msg.sender] */\n      0x20\n      mstore\n      0x40\n      swap1\n      keccak256\n      sload\n      0xff\n      and\n        /* \"Params.sol\":3499:3540  msg.sender == admin || admins[msg.sender] */\n    tag_178:\n        /* \"Params.sol\":3491:3555  require(msg.sender == admin || admins[msg.sender], \"Admin only\") */\n      tag_179\n      jumpi\n      mload(0x40)\n      shl(0xe5, 0x461bcd)\n      dup2\n      mstore\n      0x04\n      add\n      tag_180\n      swap1\n      tag_181\n      jump\t// in\n    tag_180:\n      mload(0x40)\n      dup1\n      swap2\n      sub\n      swap1\n      revert\n    tag_179:\n        /* \"WalletBlocklist.sol\":1568:1573  false */\n      0x00\n        /* \"WalletBlocklist.sol\":1554:1573  initialized = false */\n      dup1\n      sload\n      not(0xff)\n      and\n      swap1\n      sstore\n        /* \"WalletBlocklist.sol\":1501:1580  function deinitialize() external onlyAdmin {... */\n      jump\t// out\n        /* \"Params.sol\":4139:4447  function removeAdmin(address _admin) external onlyAdmin {... */\n    tag_67:\n        /* \"Params.sol\":3513:3518  admin */\n      sload(0x00)\n      0x0100\n      swap1\n      div\n      sub(shl(0xa0, 0x01), 0x01)\n      and\n        /* \"Params.sol\":3499:3509  msg.sender */\n      caller\n        /* \"Params.sol\":3499:3518  msg.sender == admin */\n      eq\n      dup1\n        /* \"Params.sol\":3499:3540  msg.sender == admin || admins[msg.sender] */\n      tag_184\n      jumpi\n      pop\n        /* \"Params.sol\":3529:3539  msg.sender */\n      caller\n        /* \"Params.sol\":3522:3540  admins[msg.sender] */\n      0x00\n      swap1\n      dup2\n      mstore\n        /* \"Params.sol\":3522:3528  admins */\n      0x01\n        /* \"Params.sol\":3522:3540  admins[msg.sender] */\n      0x20\n      mstore\n      0x40\n      swap1\n      keccak256\n      sload\n      0xff\n      and\n        /* \"Params.sol\":3499:3540  msg.sender == admin || admins[msg.sender] */\n    tag_184:\n        /* \"Params.sol\":3491:3555  require(msg.sender == admin || admins[msg.sender], \"Admin only\") */\n      tag_185\n      jumpi\n      mload(0x40)\n      shl(0xe5, 0x461bcd)\n      dup2\n      mstore\n      0x04\n      add\n      tag_180\n      swap1\n      tag_181\n      jump\t// in\n    tag_185:\n      sub(shl(0xa0, 0x01), 0x01)\n        /* \"Params.sol\":4213:4233  _admin != address(0) */\n      dup2\n      and\n        /* \"Params.sol\":4205:4259  require(_admin != address(0), \"Invalid admin address\") */\n      tag_188\n      jumpi\n      mload(0x40)\n      shl(0xe5, 0x461bcd)\n      dup2\n      mstore\n      0x04\n      add\n      tag_180\n      swap1\n      tag_190\n      jump\t// in\n    tag_188:\n      sub(shl(0xa0, 0x01), 0x01)\n        /* \"Params.sol\":4277:4291  admins[_admin] */\n      dup2\n      and\n      0x00\n      swap1\n      dup2\n      mstore\n        /* \"Params.sol\":4277:4283  admins */\n      0x01\n        /* \"Params.sol\":4277:4291  admins[_admin] */\n      0x20\n      mstore\n      0x40\n      swap1\n      keccak256\n      sload\n      0xff\n      and\n        /* \"Params.sol\":4269:4308  require(admins[_admin], \"Not an admin\") */\n      tag_191\n      jumpi\n      mload(0x40)\n      shl(0xe5, 0x461bcd)\n      dup2\n      mstore\n        /* \"#utility.yul\":6377:6379   */\n      0x20\n        /* \"Params.sol\":4269:4308  require(admins[_admin], \"Not an admin\") */\n      0x04\n      dup3\n      add\n        /* \"#utility.yul\":6359:6380   */\n      mstore\n        /* \"#utility.yul\":6416:6418   */\n      0x0c\n        /* \"#utility.yul\":6396:6414   */\n      0x24\n      dup3\n      add\n        /* \"#utility.yul\":6389:6419   */\n      mstore\n      shl(0xa1, 0x2737ba1030b71030b236b4b7)\n        /* \"#utility.yul\":6435:6453   */\n      0x44\n      dup3\n      add\n        /* \"#utility.yul\":6428:6470   */\n      mstore\n        /* \"#utility.yul\":6487:6505   */\n      0x64\n      add\n        /* \"Params.sol\":4269:4308  require(admins[_admin], \"Not an admin\") */\n      tag_180\n        /* \"#utility.yul\":6175:6511   */\n      jump\n        /* \"Params.sol\":4269:4308  require(admins[_admin], \"Not an admin\") */\n    tag_191:\n        /* \"Params.sol\":4336:4341  admin */\n      sload(0x00)\n      sub(shl(0xa0, 0x01), 0x01)\n      0x0100\n      swap1\n      swap2\n      div\n      dup2\n      and\n        /* \"Params.sol\":4326:4341  _admin != admin */\n      swap1\n      dup3\n      and\n      sub\n        /* \"Params.sol\":4318:4373  require(_admin != admin, \"Cannot remove primary admin\") */\n      tag_194\n      jumpi\n      mload(0x40)\n      shl(0xe5, 0x461bcd)\n      dup2\n      mstore\n        /* \"#utility.yul\":6718:6720   */\n      0x20\n        /* \"Params.sol\":4318:4373  require(_admin != admin, \"Cannot remove primary admin\") */\n      0x04\n      dup3\n      add\n        /* \"#utility.yul\":6700:6721   */\n      mstore\n        /* \"#utility.yul\":6757:6759   */\n      0x1b\n        /* \"#utility.yul\":6737:6755   */\n      0x24\n      dup3\n      add\n        /* \"#utility.yul\":6730:6760   */\n      mstore\n        /* \"#utility.yul\":6796:6825   */\n      0x43616e6e6f742072656d6f7665207072696d6172792061646d696e0000000000\n        /* \"#utility.yul\":6776:6794   */\n      0x44\n      dup3\n      add\n        /* \"#utility.yul\":6769:6826   */\n      mstore\n        /* \"#utility.yul\":6843:6861   */\n      0x64\n      add\n        /* \"Params.sol\":4318:4373  require(_admin != admin, \"Cannot remove primary admin\") */\n      tag_180\n        /* \"#utility.yul\":6516:6867   */\n      jump\n        /* \"Params.sol\":4318:4373  require(_admin != admin, \"Cannot remove primary admin\") */\n    tag_194:\n      sub(shl(0xa0, 0x01), 0x01)\n        /* \"Params.sol\":4383:4397  admins[_admin] */\n      dup2\n      and\n        /* \"Params.sol\":4400:4405  false */\n      0x00\n        /* \"Params.sol\":4383:4397  admins[_admin] */\n      dup2\n      dup2\n      mstore\n        /* \"Params.sol\":4383:4389  admins */\n      0x01\n        /* \"Params.sol\":4383:4397  admins[_admin] */\n      0x20\n      mstore\n      0x40\n      dup1\n      dup3\n      keccak256\n        /* \"Params.sol\":4383:4405  admins[_admin] = false */\n      dup1\n      sload\n      not(0xff)\n      and\n      swap1\n      sstore\n        /* \"Params.sol\":4420:4440  AdminRemoved(_admin) */\n      mload\n      0xa3b62bc36326052d97ea62d63c3d60308ed4c3ea8ac079dd8499f1e9c4f80c0f\n      swap2\n        /* \"Params.sol\":4400:4405  false */\n      swap1\n        /* \"Params.sol\":4420:4440  AdminRemoved(_admin) */\n      log2\n        /* \"Params.sol\":4139:4447  function removeAdmin(address _admin) external onlyAdmin {... */\n      pop\n      jump\t// out\n        /* \"Params.sol\":4453:4578  function isAdmin(address _address) external view returns (bool) {... */\n    tag_77:\n        /* \"Params.sol\":4511:4515  bool */\n      0x00\n        /* \"Params.sol\":4546:4551  admin */\n      dup1\n      sload\n      sub(shl(0xa0, 0x01), 0x01)\n        /* \"Params.sol\":4534:4551  _address == admin */\n      dup4\n      dup2\n      and\n        /* \"Params.sol\":4546:4551  admin */\n      0x0100\n      swap1\n      swap3\n      div\n      and\n        /* \"Params.sol\":4534:4551  _address == admin */\n      eq\n      dup1\n        /* \"Params.sol\":4534:4571  _address == admin || admins[_address] */\n      tag_198\n      jumpi\n      pop\n      sub(shl(0xa0, 0x01), 0x01)\n        /* \"Params.sol\":4555:4571  admins[_address] */\n      dup3\n      and\n      0x00\n      swap1\n      dup2\n      mstore\n        /* \"Params.sol\":4555:4561  admins */\n      0x01\n        /* \"Params.sol\":4555:4571  admins[_address] */\n      0x20\n      mstore\n      0x40\n      swap1\n      keccak256\n      sload\n      0xff\n      and\n        /* \"Params.sol\":4534:4571  _address == admin || admins[_address] */\n    tag_198:\n        /* \"Params.sol\":4527:4571  return _address == admin || admins[_address] */\n      swap3\n        /* \"Params.sol\":4453:4578  function isAdmin(address _address) external view returns (bool) {... */\n      swap2\n      pop\n      pop\n      jump\t// out\n        /* \"WalletBlocklist.sol\":6569:6865  function getBlocklistInfo(address wallet) ... */\n    tag_81:\n      sub(shl(0xa0, 0x01), 0x01)\n        /* \"WalletBlocklist.sol\":6754:6771  blocklist[wallet] */\n      dup2\n      and\n        /* \"WalletBlocklist.sol\":6661:6675  bool isBlocked */\n      0x00\n        /* \"WalletBlocklist.sol\":6754:6771  blocklist[wallet] */\n      swap1\n      dup2\n      mstore\n        /* \"WalletBlocklist.sol\":6754:6763  blocklist */\n      0x04\n        /* \"WalletBlocklist.sol\":6754:6771  blocklist[wallet] */\n      0x20\n      swap1\n      dup2\n      mstore\n      0x40\n      dup1\n      dup4\n      keccak256\n      sload\n        /* \"WalletBlocklist.sol\":6785:6803  blocklistTimestamp */\n      0x05\n        /* \"WalletBlocklist.sol\":6785:6811  blocklistTimestamp[wallet] */\n      dup4\n      mstore\n      dup2\n      dup5\n      keccak256\n      sload\n        /* \"WalletBlocklist.sol\":6825:6840  blocklistReason */\n      0x06\n        /* \"WalletBlocklist.sol\":6825:6848  blocklistReason[wallet] */\n      swap1\n      swap4\n      mstore\n      swap1\n      dup4\n      keccak256\n        /* \"WalletBlocklist.sol\":6733:6858  return (... */\n      dup1\n      sload\n        /* \"WalletBlocklist.sol\":6661:6675  bool isBlocked */\n      dup5\n      swap4\n        /* \"WalletBlocklist.sol\":6696:6716  string memory reason */\n      0x60\n      swap4\n        /* \"WalletBlocklist.sol\":6754:6771  blocklist[wallet] */\n      0xff\n      and\n      swap3\n        /* \"WalletBlocklist.sol\":6785:6811  blocklistTimestamp[wallet] */\n      swap1\n      swap2\n        /* \"WalletBlocklist.sol\":6825:6848  blocklistReason[wallet] */\n      dup2\n      swap1\n        /* \"WalletBlocklist.sol\":6733:6858  return (... */\n      tag_200\n      swap1\n      tag_201\n      jump\t// in\n    tag_200:\n      dup1\n      0x1f\n      add\n      0x20\n      dup1\n      swap2\n      div\n      mul\n      0x20\n      add\n      mload(0x40)\n      swap1\n      dup2\n      add\n      0x40\n      mstore\n      dup1\n      swap3\n      swap2\n      swap1\n      dup2\n      dup2\n      mstore\n      0x20\n      add\n      dup3\n      dup1\n      sload\n      tag_202\n      swap1\n      tag_201\n      jump\t// in\n    tag_202:\n      dup1\n      iszero\n      tag_203\n      jumpi\n      dup1\n      0x1f\n      lt\n      tag_204\n      jumpi\n      0x0100\n      dup1\n      dup4\n      sload\n      div\n      mul\n      dup4\n      mstore\n      swap2\n      0x20\n      add\n      swap2\n      jump(tag_203)\n    tag_204:\n      dup3\n      add\n      swap2\n      swap1\n      0x00\n      mstore\n      keccak256(0x00, 0x20)\n      swap1\n    tag_205:\n      dup2\n      sload\n      dup2\n      mstore\n      swap1\n      0x01\n      add\n      swap1\n      0x20\n      add\n      dup1\n      dup4\n      gt\n      tag_205\n      jumpi\n      dup3\n      swap1\n      sub\n      0x1f\n      and\n      dup3\n      add\n      swap2\n    tag_203:\n      pop\n      pop\n      pop\n      pop\n      pop\n      swap1\n      pop\n      swap3\n      pop\n      swap3\n      pop\n      swap3\n      pop\n        /* \"WalletBlocklist.sol\":6569:6865  function getBlocklistInfo(address wallet) ... */\n      swap2\n      swap4\n      swap1\n      swap3\n      pop\n      jump\t// out\n        /* \"WalletBlocklist.sol\":6983:7097  function getAllBlocklisted() external view returns (address[] memory) {... */\n    tag_99:\n        /* \"WalletBlocklist.sol\":7035:7051  address[] memory */\n      0x60\n        /* \"WalletBlocklist.sol\":7070:7090  blocklistedAddresses */\n      0x07\n        /* \"WalletBlocklist.sol\":7063:7090  return blocklistedAddresses */\n      dup1\n      sload\n      dup1\n      0x20\n      mul\n      0x20\n      add\n      mload(0x40)\n      swap1\n      dup2\n      add\n      0x40\n      mstore\n      dup1\n      swap3\n      swap2\n      swap1\n      dup2\n      dup2\n      mstore\n      0x20\n      add\n      dup3\n      dup1\n      sload\n      dup1\n      iszero\n      tag_207\n      jumpi\n      0x20\n      mul\n      dup3\n      add\n      swap2\n      swap1\n      0x00\n      mstore\n      keccak256(0x00, 0x20)\n      swap1\n    tag_208:\n      dup2\n      sload\n      sub(shl(0xa0, 0x01), 0x01)\n      and\n      dup2\n      mstore\n      0x01\n      swap1\n      swap2\n      add\n      swap1\n      0x20\n      add\n      dup1\n      dup4\n      gt\n      tag_208\n      jumpi\n    tag_207:\n      pop\n      pop\n      pop\n      pop\n      pop\n      swap1\n      pop\n        /* \"WalletBlocklist.sol\":6983:7097  function getAllBlocklisted() external view returns (address[] memory) {... */\n      swap1\n      jump\t// out\n        /* \"WalletBlocklist.sol\":3777:4605  function removeFromBlocklist(address wallet) ... */\n    tag_107:\n        /* \"Params.sol\":3513:3518  admin */\n      sload(0x00)\n      0x0100\n      swap1\n      div\n      sub(shl(0xa0, 0x01), 0x01)\n      and\n        /* \"Params.sol\":3499:3509  msg.sender */\n      caller\n        /* \"Params.sol\":3499:3518  msg.sender == admin */\n      eq\n      dup1\n        /* \"Params.sol\":3499:3540  msg.sender == admin || admins[msg.sender] */\n      tag_210\n      jumpi\n      pop\n        /* \"Params.sol\":3529:3539  msg.sender */\n      caller\n        /* \"Params.sol\":3522:3540  admins[msg.sender] */\n      0x00\n      swap1\n      dup2\n      mstore\n        /* \"Params.sol\":3522:3528  admins */\n      0x01\n        /* \"Params.sol\":3522:3540  admins[msg.sender] */\n      0x20\n      mstore\n      0x40\n      swap1\n      keccak256\n      sload\n      0xff\n      and\n        /* \"Params.sol\":3499:3540  msg.sender == admin || admins[msg.sender] */\n    tag_210:\n        /* \"Params.sol\":3491:3555  require(msg.sender == admin || admins[msg.sender], \"Admin only\") */\n      tag_211\n      jumpi\n      mload(0x40)\n      shl(0xe5, 0x461bcd)\n      dup2\n      mstore\n      0x04\n      add\n      tag_180\n      swap1\n      tag_181\n      jump\t// in\n    tag_211:\n        /* \"Params.sol\":2568:2579  initialized */\n      and(0xff, sload(0x00))\n        /* \"Params.sol\":2560:2596  require(initialized, \"Not init yet\") */\n      tag_214\n      jumpi\n      mload(0x40)\n      shl(0xe5, 0x461bcd)\n      dup2\n      mstore\n      0x04\n      add\n      tag_180\n      swap1\n      tag_216\n      jump\t// in\n    tag_214:\n      sub(shl(0xa0, 0x01), 0x01)\n        /* \"WalletBlocklist.sol\":3907:3924  blocklist[wallet] */\n      dup2\n      and\n      0x00\n      swap1\n      dup2\n      mstore\n        /* \"WalletBlocklist.sol\":3907:3916  blocklist */\n      0x04\n        /* \"WalletBlocklist.sol\":3907:3924  blocklist[wallet] */\n      0x20\n      mstore\n      0x40\n      swap1\n      keccak256\n      sload\n      0xff\n      and\n        /* \"WalletBlocklist.sol\":3899:3951  require(blocklist[wallet], \"Wallet not blocklisted\") */\n      tag_218\n      jumpi\n      mload(0x40)\n      shl(0xe5, 0x461bcd)\n      dup2\n      mstore\n        /* \"#utility.yul\":7800:7802   */\n      0x20\n        /* \"WalletBlocklist.sol\":3899:3951  require(blocklist[wallet], \"Wallet not blocklisted\") */\n      0x04\n      dup3\n      add\n        /* \"#utility.yul\":7782:7803   */\n      mstore\n        /* \"#utility.yul\":7839:7841   */\n      0x16\n        /* \"#utility.yul\":7819:7837   */\n      0x24\n      dup3\n      add\n        /* \"#utility.yul\":7812:7842   */\n      mstore\n      shl(0x52, 0x15d85b1b195d081b9bdd08189b1bd8dadb1a5cdd1959)\n        /* \"#utility.yul\":7858:7876   */\n      0x44\n      dup3\n      add\n        /* \"#utility.yul\":7851:7903   */\n      mstore\n        /* \"#utility.yul\":7920:7938   */\n      0x64\n      add\n        /* \"WalletBlocklist.sol\":3899:3951  require(blocklist[wallet], \"Wallet not blocklisted\") */\n      tag_180\n        /* \"#utility.yul\":7598:7944   */\n      jump\n        /* \"WalletBlocklist.sol\":3899:3951  require(blocklist[wallet], \"Wallet not blocklisted\") */\n    tag_218:\n      sub(shl(0xa0, 0x01), 0x01)\n        /* \"WalletBlocklist.sol\":3970:3987  blocklist[wallet] */\n      dup2\n      and\n        /* \"WalletBlocklist.sol\":3990:3995  false */\n      0x00\n        /* \"WalletBlocklist.sol\":3970:3987  blocklist[wallet] */\n      swap1\n      dup2\n      mstore\n        /* \"WalletBlocklist.sol\":3970:3979  blocklist */\n      0x04\n        /* \"WalletBlocklist.sol\":3970:3987  blocklist[wallet] */\n      0x20\n      swap1\n      dup2\n      mstore\n      0x40\n      dup1\n      dup4\n      keccak256\n        /* \"WalletBlocklist.sol\":3970:3995  blocklist[wallet] = false */\n      dup1\n      sload\n      not(0xff)\n      and\n      swap1\n      sstore\n        /* \"WalletBlocklist.sol\":4059:4073  blocklistIndex */\n      0x08\n        /* \"WalletBlocklist.sol\":4059:4081  blocklistIndex[wallet] */\n      swap1\n      swap2\n      mstore\n      dup2\n      keccak256\n      sload\n        /* \"WalletBlocklist.sol\":4111:4131  blocklistedAddresses */\n      0x07\n        /* \"WalletBlocklist.sol\":4111:4138  blocklistedAddresses.length */\n      sload\n        /* \"WalletBlocklist.sol\":4059:4081  blocklistIndex[wallet] */\n      swap1\n      swap2\n        /* \"WalletBlocklist.sol\":3990:3995  false */\n      swap1\n        /* \"WalletBlocklist.sol\":4111:4142  blocklistedAddresses.length - 1 */\n      tag_221\n      swap1\n        /* \"WalletBlocklist.sol\":3970:3995  blocklist[wallet] = false */\n      0x01\n      swap1\n        /* \"WalletBlocklist.sol\":4111:4142  blocklistedAddresses.length - 1 */\n      tag_222\n      jump\t// in\n    tag_221:\n        /* \"WalletBlocklist.sol\":4091:4142  uint256 lastIndex = blocklistedAddresses.length - 1 */\n      swap1\n      pop\n        /* \"WalletBlocklist.sol\":4174:4183  lastIndex */\n      dup1\n        /* \"WalletBlocklist.sol\":4165:4170  index */\n      dup3\n        /* \"WalletBlocklist.sol\":4165:4183  index != lastIndex */\n      eq\n        /* \"WalletBlocklist.sol\":4161:4364  if (index != lastIndex) {... */\n      tag_223\n      jumpi\n        /* \"WalletBlocklist.sol\":4199:4217  address lastWallet */\n      0x00\n        /* \"WalletBlocklist.sol\":4220:4240  blocklistedAddresses */\n      0x07\n        /* \"WalletBlocklist.sol\":4241:4250  lastIndex */\n      dup3\n        /* \"WalletBlocklist.sol\":4220:4251  blocklistedAddresses[lastIndex] */\n      dup2\n      sload\n      dup2\n      lt\n      tag_225\n      jumpi\n      tag_225\n      tag_226\n      jump\t// in\n    tag_225:\n      0x00\n      swap2\n      dup3\n      mstore\n      0x20\n      swap1\n      swap2\n      keccak256\n      add\n      sload\n        /* \"WalletBlocklist.sol\":4265:4285  blocklistedAddresses */\n      0x07\n        /* \"WalletBlocklist.sol\":4265:4292  blocklistedAddresses[index] */\n      dup1\n      sload\n      sub(shl(0xa0, 0x01), 0x01)\n        /* \"WalletBlocklist.sol\":4220:4251  blocklistedAddresses[lastIndex] */\n      swap1\n      swap3\n      and\n      swap3\n      pop\n      dup3\n      swap2\n        /* \"WalletBlocklist.sol\":4286:4291  index */\n      dup6\n      swap1\n        /* \"WalletBlocklist.sol\":4265:4292  blocklistedAddresses[index] */\n      dup2\n      lt\n      tag_229\n      jumpi\n      tag_229\n      tag_226\n      jump\t// in\n    tag_229:\n      0x00\n      swap2\n      dup3\n      mstore\n      0x20\n      dup1\n      dup4\n      keccak256\n      swap2\n      swap1\n      swap2\n      add\n        /* \"WalletBlocklist.sol\":4265:4305  blocklistedAddresses[index] = lastWallet */\n      dup1\n      sload\n      not(sub(shl(0xa0, 0x01), 0x01))\n      and\n      sub(shl(0xa0, 0x01), 0x01)\n      swap5\n      dup6\n      and\n      or\n      swap1\n      sstore\n        /* \"WalletBlocklist.sol\":4319:4345  blocklistIndex[lastWallet] */\n      swap3\n      swap1\n      swap2\n      and\n      dup2\n      mstore\n        /* \"WalletBlocklist.sol\":4319:4333  blocklistIndex */\n      0x08\n        /* \"WalletBlocklist.sol\":4319:4345  blocklistIndex[lastWallet] */\n      swap1\n      swap2\n      mstore\n      0x40\n      swap1\n      keccak256\n        /* \"WalletBlocklist.sol\":4319:4353  blocklistIndex[lastWallet] = index */\n      dup3\n      swap1\n      sstore\n        /* \"WalletBlocklist.sol\":4161:4364  if (index != lastIndex) {... */\n    tag_223:\n        /* \"WalletBlocklist.sol\":4382:4402  blocklistedAddresses */\n      0x07\n        /* \"WalletBlocklist.sol\":4382:4408  blocklistedAddresses.pop() */\n      dup1\n      sload\n      dup1\n      tag_232\n      jumpi\n      tag_232\n      tag_233\n      jump\t// in\n    tag_232:\n      0x00\n      dup3\n      dup2\n      mstore\n      0x20\n      dup1\n      dup3\n      keccak256\n      dup4\n      add\n      not(0x00)\n      swap1\n      dup2\n      add\n      dup1\n      sload\n      not(sub(shl(0xa0, 0x01), 0x01))\n      and\n      swap1\n      sstore\n      swap1\n      swap3\n      add\n      swap1\n      swap3\n      sstore\n      sub(shl(0xa0, 0x01), 0x01)\n        /* \"WalletBlocklist.sol\":4425:4447  blocklistIndex[wallet] */\n      dup6\n      and\n      dup3\n      mstore\n        /* \"WalletBlocklist.sol\":4425:4439  blocklistIndex */\n      0x08\n        /* \"WalletBlocklist.sol\":4425:4447  blocklistIndex[wallet] */\n      dup2\n      mstore\n      0x40\n      dup1\n      dup4\n      keccak256\n        /* \"WalletBlocklist.sol\":4418:4447  delete blocklistIndex[wallet] */\n      dup4\n      swap1\n      sstore\n        /* \"WalletBlocklist.sol\":4464:4482  blocklistTimestamp */\n      0x05\n        /* \"WalletBlocklist.sol\":4464:4490  blocklistTimestamp[wallet] */\n      dup3\n      mstore\n      dup1\n      dup4\n      keccak256\n        /* \"WalletBlocklist.sol\":4457:4490  delete blocklistTimestamp[wallet] */\n      dup4\n      swap1\n      sstore\n        /* \"WalletBlocklist.sol\":4507:4522  blocklistReason */\n      0x06\n        /* \"WalletBlocklist.sol\":4507:4530  blocklistReason[wallet] */\n      swap1\n      swap2\n      mstore\n      dup2\n      keccak256\n        /* \"WalletBlocklist.sol\":4500:4530  delete blocklistReason[wallet] */\n      tag_235\n      swap2\n      tag_236\n      jump\t// in\n    tag_235:\n        /* \"WalletBlocklist.sol\":4574:4580  wallet */\n      dup3\n      sub(shl(0xa0, 0x01), 0x01)\n        /* \"WalletBlocklist.sol\":4554:4598  WalletUnblocklisted(wallet, block.timestamp) */\n      and\n      0x740dec1c486dcabe21d37c6d335721bef4bbd5cd295cc5879c5481006c26b906\n        /* \"WalletBlocklist.sol\":4582:4597  block.timestamp */\n      timestamp\n        /* \"WalletBlocklist.sol\":4554:4598  WalletUnblocklisted(wallet, block.timestamp) */\n      mload(0x40)\n      tag_237\n      swap2\n        /* \"#utility.yul\":160:185   */\n      dup2\n      mstore\n        /* \"#utility.yul\":148:150   */\n      0x20\n        /* \"#utility.yul\":133:151   */\n      add\n      swap1\n        /* \"#utility.yul\":14:191   */\n      jump\n        /* \"WalletBlocklist.sol\":4554:4598  WalletUnblocklisted(wallet, block.timestamp) */\n    tag_237:\n      mload(0x40)\n      dup1\n      swap2\n      sub\n      swap1\n      log2\n        /* \"WalletBlocklist.sol\":3889:4605  {... */\n      pop\n      pop\n        /* \"WalletBlocklist.sol\":3777:4605  function removeFromBlocklist(address wallet) ... */\n      pop\n      jump\t// out\n        /* \"Params.sol\":3891:4133  function addAdmin(address _admin) external onlyAdmin {... */\n    tag_113:\n        /* \"Params.sol\":3513:3518  admin */\n      sload(0x00)\n      0x0100\n      swap1\n      div\n      sub(shl(0xa0, 0x01), 0x01)\n      and\n        /* \"Params.sol\":3499:3509  msg.sender */\n      caller\n        /* \"Params.sol\":3499:3518  msg.sender == admin */\n      eq\n      dup1\n        /* \"Params.sol\":3499:3540  msg.sender == admin || admins[msg.sender] */\n      tag_239\n      jumpi\n      pop\n        /* \"Params.sol\":3529:3539  msg.sender */\n      caller\n        /* \"Params.sol\":3522:3540  admins[msg.sender] */\n      0x00\n      swap1\n      dup2\n      mstore\n        /* \"Params.sol\":3522:3528  admins */\n      0x01\n        /* \"Params.sol\":3522:3540  admins[msg.sender] */\n      0x20\n      mstore\n      0x40\n      swap1\n      keccak256\n      sload\n      0xff\n      and\n        /* \"Params.sol\":3499:3540  msg.sender == admin || admins[msg.sender] */\n    tag_239:\n        /* \"Params.sol\":3491:3555  require(msg.sender == admin || admins[msg.sender], \"Admin only\") */\n      tag_240\n      jumpi\n      mload(0x40)\n      shl(0xe5, 0x461bcd)\n      dup2\n      mstore\n      0x04\n      add\n      tag_180\n      swap1\n      tag_181\n      jump\t// in\n    tag_240:\n      sub(shl(0xa0, 0x01), 0x01)\n        /* \"Params.sol\":3962:3982  _admin != address(0) */\n      dup2\n      and\n        /* \"Params.sol\":3954:4008  require(_admin != address(0), \"Invalid admin address\") */\n      tag_243\n      jumpi\n      mload(0x40)\n      shl(0xe5, 0x461bcd)\n      dup2\n      mstore\n      0x04\n      add\n      tag_180\n      swap1\n      tag_190\n      jump\t// in\n    tag_243:\n      sub(shl(0xa0, 0x01), 0x01)\n        /* \"Params.sol\":4027:4041  admins[_admin] */\n      dup2\n      and\n      0x00\n      swap1\n      dup2\n      mstore\n        /* \"Params.sol\":4027:4033  admins */\n      0x01\n        /* \"Params.sol\":4027:4041  admins[_admin] */\n      0x20\n      mstore\n      0x40\n      swap1\n      keccak256\n      sload\n      0xff\n      and\n        /* \"Params.sol\":4026:4041  !admins[_admin] */\n      iszero\n        /* \"Params.sol\":4018:4062  require(!admins[_admin], \"Already an admin\") */\n      tag_245\n      jumpi\n      mload(0x40)\n      shl(0xe5, 0x461bcd)\n      dup2\n      mstore\n        /* \"#utility.yul\":8680:8682   */\n      0x20\n        /* \"Params.sol\":4018:4062  require(!admins[_admin], \"Already an admin\") */\n      0x04\n      dup3\n      add\n        /* \"#utility.yul\":8662:8683   */\n      mstore\n        /* \"#utility.yul\":8719:8721   */\n      0x10\n        /* \"#utility.yul\":8699:8717   */\n      0x24\n      dup3\n      add\n        /* \"#utility.yul\":8692:8722   */\n      mstore\n      shl(0x81, 0x20b63932b0b23c9030b71030b236b4b7)\n        /* \"#utility.yul\":8738:8756   */\n      0x44\n      dup3\n      add\n        /* \"#utility.yul\":8731:8777   */\n      mstore\n        /* \"#utility.yul\":8794:8812   */\n      0x64\n      add\n        /* \"Params.sol\":4018:4062  require(!admins[_admin], \"Already an admin\") */\n      tag_180\n        /* \"#utility.yul\":8478:8818   */\n      jump\n        /* \"Params.sol\":4018:4062  require(!admins[_admin], \"Already an admin\") */\n    tag_245:\n      sub(shl(0xa0, 0x01), 0x01)\n        /* \"Params.sol\":4072:4086  admins[_admin] */\n      dup2\n      and\n      0x00\n      dup2\n      dup2\n      mstore\n        /* \"Params.sol\":4089:4093  true */\n      0x01\n        /* \"Params.sol\":4072:4086  admins[_admin] */\n      0x20\n      dup2\n      swap1\n      mstore\n      0x40\n      dup1\n      dup4\n      keccak256\n        /* \"Params.sol\":4072:4093  admins[_admin] = true */\n      dup1\n      sload\n      not(0xff)\n      and\n      swap1\n      swap3\n      or\n      swap1\n      swap2\n      sstore\n        /* \"Params.sol\":4108:4126  AdminAdded(_admin) */\n      mload\n      0x44d6d25963f097ad14f29f06854a01f575648a1ef82f30e562ccd3889717e339\n      swap2\n        /* \"Params.sol\":4072:4086  admins[_admin] */\n      swap1\n        /* \"Params.sol\":4108:4126  AdminAdded(_admin) */\n      log2\n        /* \"Params.sol\":3891:4133  function addAdmin(address _admin) external onlyAdmin {... */\n      pop\n      jump\t// out\n        /* \"Params.sol\":3613:3885  function setAdmin(address _admin) external onlyAdmin {... */\n    tag_116:\n        /* \"Params.sol\":3513:3518  admin */\n      sload(0x00)\n      0x0100\n      swap1\n      div\n      sub(shl(0xa0, 0x01), 0x01)\n      and\n        /* \"Params.sol\":3499:3509  msg.sender */\n      caller\n        /* \"Params.sol\":3499:3518  msg.sender == admin */\n      eq\n      dup1\n        /* \"Params.sol\":3499:3540  msg.sender == admin || admins[msg.sender] */\n      tag_249\n      jumpi\n      pop\n        /* \"Params.sol\":3529:3539  msg.sender */\n      caller\n        /* \"Params.sol\":3522:3540  admins[msg.sender] */\n      0x00\n      swap1\n      dup2\n      mstore\n        /* \"Params.sol\":3522:3528  admins */\n      0x01\n        /* \"Params.sol\":3522:3540  admins[msg.sender] */\n      0x20\n      mstore\n      0x40\n      swap1\n      keccak256\n      sload\n      0xff\n      and\n        /* \"Params.sol\":3499:3540  msg.sender == admin || admins[msg.sender] */\n    tag_249:\n        /* \"Params.sol\":3491:3555  require(msg.sender == admin || admins[msg.sender], \"Admin only\") */\n      tag_250\n      jumpi\n      mload(0x40)\n      shl(0xe5, 0x461bcd)\n      dup2\n      mstore\n      0x04\n      add\n      tag_180\n      swap1\n      tag_181\n      jump\t// in\n    tag_250:\n      sub(shl(0xa0, 0x01), 0x01)\n        /* \"Params.sol\":3684:3704  _admin != address(0) */\n      dup2\n      and\n        /* \"Params.sol\":3676:3730  require(_admin != address(0), \"Invalid admin address\") */\n      tag_253\n      jumpi\n      mload(0x40)\n      shl(0xe5, 0x461bcd)\n      dup2\n      mstore\n      0x04\n      add\n      tag_180\n      swap1\n      tag_190\n      jump\t// in\n    tag_253:\n        /* \"Params.sol\":3740:3761  address previousAdmin */\n      0x00\n        /* \"Params.sol\":3764:3769  admin */\n      dup1\n      sload\n      sub(shl(0xa0, 0x01), 0x01)\n        /* \"Params.sol\":3779:3793  admin = _admin */\n      dup4\n      dup2\n      and\n        /* \"Params.sol\":3764:3769  admin */\n      0x0100\n        /* \"Params.sol\":3779:3793  admin = _admin */\n      dup2\n      dup2\n      mul\n      not(sub(shl(0xa8, 0x01), 0x0100))\n      dup6\n      and\n      or\n      dup6\n      sstore\n        /* \"Params.sol\":3803:3817  admins[_admin] */\n      dup2\n      dup6\n      mstore\n        /* \"Params.sol\":3764:3769  admin */\n      0x01\n        /* \"Params.sol\":3803:3817  admins[_admin] */\n      0x20\n      dup2\n      swap1\n      mstore\n      0x40\n      dup1\n      dup8\n      keccak256\n        /* \"Params.sol\":3803:3824  admins[_admin] = true */\n      dup1\n      sload\n      not(0xff)\n      and\n      swap1\n      swap3\n      or\n      swap1\n      swap2\n      sstore\n        /* \"Params.sol\":3839:3878  AdminTransferred(previousAdmin, _admin) */\n      mload\n        /* \"Params.sol\":3764:3769  admin */\n      swap4\n      div\n      swap2\n      swap1\n      swap2\n      and\n      swap3\n        /* \"Params.sol\":3779:3793  admin = _admin */\n      swap1\n      swap2\n        /* \"Params.sol\":3764:3769  admin */\n      dup4\n      swap2\n        /* \"Params.sol\":3839:3878  AdminTransferred(previousAdmin, _admin) */\n      0xf8ccb027dfcd135e000e9d45e6cc2d662578a8825d4c45b5e32e0adf67e79ec6\n      swap2\n      log3\n        /* \"Params.sol\":3666:3885  {... */\n      pop\n        /* \"Params.sol\":3613:3885  function setAdmin(address _admin) external onlyAdmin {... */\n      pop\n      jump\t// out\n        /* \"WalletBlocklist.sol\":1248:1495  function initialize() external onlyNotInitialized {... */\n    tag_118:\n        /* \"Params.sol\":2464:2475  initialized */\n      and(0xff, sload(0x00))\n        /* \"Params.sol\":2463:2475  !initialized */\n      iszero\n        /* \"Params.sol\":2455:2499  require(!initialized, \"Already initialized\") */\n      tag_256\n      jumpi\n      mload(0x40)\n      shl(0xe5, 0x461bcd)\n      dup2\n      mstore\n        /* \"#utility.yul\":9025:9027   */\n      0x20\n        /* \"Params.sol\":2455:2499  require(!initialized, \"Already initialized\") */\n      0x04\n      dup3\n      add\n        /* \"#utility.yul\":9007:9028   */\n      mstore\n        /* \"#utility.yul\":9064:9066   */\n      0x13\n        /* \"#utility.yul\":9044:9062   */\n      0x24\n      dup3\n      add\n        /* \"#utility.yul\":9037:9067   */\n      mstore\n      shl(0x6a, 0x105b1c9958591e481a5b9a5d1a585b1a5e9959)\n        /* \"#utility.yul\":9083:9101   */\n      0x44\n      dup3\n      add\n        /* \"#utility.yul\":9076:9125   */\n      mstore\n        /* \"#utility.yul\":9142:9160   */\n      0x64\n      add\n        /* \"Params.sol\":2455:2499  require(!initialized, \"Already initialized\") */\n      tag_180\n        /* \"#utility.yul\":8823:9166   */\n      jump\n        /* \"Params.sol\":2455:2499  require(!initialized, \"Already initialized\") */\n    tag_256:\n        /* \"WalletBlocklist.sol\":1343:1348  admin */\n      0x00\n        /* \"WalletBlocklist.sol\":1343:1393  admin = 0xFCd0191364967c9e5052488208533D62C10805FA */\n      dup1\n      sload\n        /* \"WalletBlocklist.sol\":1351:1393  0xFCd0191364967c9e5052488208533D62C10805FA */\n      0xfcd0191364967c9e5052488208533d62c10805fa\n        /* \"WalletBlocklist.sol\":1403:1453  admins[0xFCd0191364967c9e5052488208533D62C10805FA] */\n      dup3\n      mstore\n        /* \"WalletBlocklist.sol\":1343:1348  admin */\n      0x01\n        /* \"WalletBlocklist.sol\":1403:1453  admins[0xFCd0191364967c9e5052488208533D62C10805FA] */\n      0x20\n      dup2\n      swap1\n      mstore\n      0x87dfb223da1c78ec706acf158e88f571a69e268117df6e3e4af970ad7f291459\n        /* \"WalletBlocklist.sol\":1403:1460  admins[0xFCd0191364967c9e5052488208533D62C10805FA] = true */\n      dup1\n      sload\n      not(0xff)\n      and\n      swap1\n      swap2\n      or\n      swap1\n      sstore\n      not(sub(shl(0xa8, 0x01), 0x01))\n        /* \"WalletBlocklist.sol\":1470:1488  initialized = true */\n      and\n      0xfcd0191364967c9e5052488208533d62c10805fa01\n      or\n      swap1\n      sstore\n        /* \"WalletBlocklist.sol\":1248:1495  function initialize() external onlyNotInitialized {... */\n      jump\t// out\n        /* \"WalletBlocklist.sol\":6159:6284  function isBlocklisted(address wallet) onlyInitialized external view returns (bool) {... */\n    tag_124:\n        /* \"WalletBlocklist.sol\":6237:6241  bool */\n      0x00\n        /* \"Params.sol\":2568:2579  initialized */\n      dup1\n      sload\n      0xff\n      and\n        /* \"Params.sol\":2560:2596  require(initialized, \"Not init yet\") */\n      tag_261\n      jumpi\n      mload(0x40)\n      shl(0xe5, 0x461bcd)\n      dup2\n      mstore\n      0x04\n      add\n      tag_180\n      swap1\n      tag_216\n      jump\t// in\n    tag_261:\n      pop\n      sub(shl(0xa0, 0x01), 0x01)\n        /* \"WalletBlocklist.sol\":6260:6277  blocklist[wallet] */\n      dup2\n      and\n      0x00\n      swap1\n      dup2\n      mstore\n        /* \"WalletBlocklist.sol\":6260:6269  blocklist */\n      0x04\n        /* \"WalletBlocklist.sol\":6260:6277  blocklist[wallet] */\n      0x20\n      mstore\n      0x40\n      swap1\n      keccak256\n      sload\n      0xff\n      and\n        /* \"Params.sol\":2606:2607  _ */\n    tag_263:\n        /* \"WalletBlocklist.sol\":6159:6284  function isBlocklisted(address wallet) onlyInitialized external view returns (bool) {... */\n      swap2\n      swap1\n      pop\n      jump\t// out\n        /* \"WalletBlocklist.sol\":1743:2371  function addToBlocklist(address wallet, string calldata reason) ... */\n    tag_132:\n        /* \"Params.sol\":3513:3518  admin */\n      sload(0x00)\n      0x0100\n      swap1\n      div\n      sub(shl(0xa0, 0x01), 0x01)\n      and\n        /* \"Params.sol\":3499:3509  msg.sender */\n      caller\n        /* \"Params.sol\":3499:3518  msg.sender == admin */\n      eq\n      dup1\n        /* \"Params.sol\":3499:3540  msg.sender == admin || admins[msg.sender] */\n      tag_266\n      jumpi\n      pop\n        /* \"Params.sol\":3529:3539  msg.sender */\n      caller\n        /* \"Params.sol\":3522:3540  admins[msg.sender] */\n      0x00\n      swap1\n      dup2\n      mstore\n        /* \"Params.sol\":3522:3528  admins */\n      0x01\n        /* \"Params.sol\":3522:3540  admins[msg.sender] */\n      0x20\n      mstore\n      0x40\n      swap1\n      keccak256\n      sload\n      0xff\n      and\n        /* \"Params.sol\":3499:3540  msg.sender == admin || admins[msg.sender] */\n    tag_266:\n        /* \"Params.sol\":3491:3555  require(msg.sender == admin || admins[msg.sender], \"Admin only\") */\n      tag_267\n      jumpi\n      mload(0x40)\n      shl(0xe5, 0x461bcd)\n      dup2\n      mstore\n      0x04\n      add\n      tag_180\n      swap1\n      tag_181\n      jump\t// in\n    tag_267:\n        /* \"Params.sol\":2568:2579  initialized */\n      and(0xff, sload(0x00))\n        /* \"Params.sol\":2560:2596  require(initialized, \"Not init yet\") */\n      tag_270\n      jumpi\n      mload(0x40)\n      shl(0xe5, 0x461bcd)\n      dup2\n      mstore\n      0x04\n      add\n      tag_180\n      swap1\n      tag_216\n      jump\t// in\n    tag_270:\n      sub(shl(0xa0, 0x01), 0x01)\n        /* \"WalletBlocklist.sol\":1892:1912  wallet != address(0) */\n      dup4\n      and\n        /* \"WalletBlocklist.sol\":1884:1946  require(wallet != address(0), \"Cannot blocklist zero address\") */\n      tag_273\n      jumpi\n      mload(0x40)\n      shl(0xe5, 0x461bcd)\n      dup2\n      mstore\n        /* \"#utility.yul\":9373:9375   */\n      0x20\n        /* \"WalletBlocklist.sol\":1884:1946  require(wallet != address(0), \"Cannot blocklist zero address\") */\n      0x04\n      dup3\n      add\n        /* \"#utility.yul\":9355:9376   */\n      mstore\n        /* \"#utility.yul\":9412:9414   */\n      0x1d\n        /* \"#utility.yul\":9392:9410   */\n      0x24\n      dup3\n      add\n        /* \"#utility.yul\":9385:9415   */\n      mstore\n        /* \"#utility.yul\":9451:9482   */\n      0x43616e6e6f7420626c6f636b6c697374207a65726f2061646472657373000000\n        /* \"#utility.yul\":9431:9449   */\n      0x44\n      dup3\n      add\n        /* \"#utility.yul\":9424:9483   */\n      mstore\n        /* \"#utility.yul\":9500:9518   */\n      0x64\n      add\n        /* \"WalletBlocklist.sol\":1884:1946  require(wallet != address(0), \"Cannot blocklist zero address\") */\n      tag_180\n        /* \"#utility.yul\":9171:9524   */\n      jump\n        /* \"WalletBlocklist.sol\":1884:1946  require(wallet != address(0), \"Cannot blocklist zero address\") */\n    tag_273:\n      sub(shl(0xa0, 0x01), 0x01)\n        /* \"WalletBlocklist.sol\":1965:1982  blocklist[wallet] */\n      dup4\n      and\n      0x00\n      swap1\n      dup2\n      mstore\n        /* \"WalletBlocklist.sol\":1965:1974  blocklist */\n      0x04\n        /* \"WalletBlocklist.sol\":1965:1982  blocklist[wallet] */\n      0x20\n      mstore\n      0x40\n      swap1\n      keccak256\n      sload\n      0xff\n      and\n        /* \"WalletBlocklist.sol\":1964:1982  !blocklist[wallet] */\n      iszero\n        /* \"WalletBlocklist.sol\":1956:2013  require(!blocklist[wallet], \"Wallet already blocklisted\") */\n      tag_276\n      jumpi\n      mload(0x40)\n      shl(0xe5, 0x461bcd)\n      dup2\n      mstore\n        /* \"#utility.yul\":9731:9733   */\n      0x20\n        /* \"WalletBlocklist.sol\":1956:2013  require(!blocklist[wallet], \"Wallet already blocklisted\") */\n      0x04\n      dup3\n      add\n        /* \"#utility.yul\":9713:9734   */\n      mstore\n        /* \"#utility.yul\":9770:9772   */\n      0x1a\n        /* \"#utility.yul\":9750:9768   */\n      0x24\n      dup3\n      add\n        /* \"#utility.yul\":9743:9773   */\n      mstore\n        /* \"#utility.yul\":9809:9837   */\n      0x57616c6c657420616c726561647920626c6f636b6c6973746564000000000000\n        /* \"#utility.yul\":9789:9807   */\n      0x44\n      dup3\n      add\n        /* \"#utility.yul\":9782:9838   */\n      mstore\n        /* \"#utility.yul\":9855:9873   */\n      0x64\n      add\n        /* \"WalletBlocklist.sol\":1956:2013  require(!blocklist[wallet], \"Wallet already blocklisted\") */\n      tag_180\n        /* \"#utility.yul\":9529:9879   */\n      jump\n        /* \"WalletBlocklist.sol\":1956:2013  require(!blocklist[wallet], \"Wallet already blocklisted\") */\n    tag_276:\n      sub(shl(0xa0, 0x01), 0x01)\n        /* \"WalletBlocklist.sol\":2032:2049  blocklist[wallet] */\n      dup4\n      and\n      0x00\n      swap1\n      dup2\n      mstore\n        /* \"WalletBlocklist.sol\":2032:2041  blocklist */\n      0x04\n        /* \"WalletBlocklist.sol\":2032:2049  blocklist[wallet] */\n      0x20\n      swap1\n      dup2\n      mstore\n      0x40\n      dup1\n      dup4\n      keccak256\n        /* \"WalletBlocklist.sol\":2032:2056  blocklist[wallet] = true */\n      dup1\n      sload\n      not(0xff)\n      and\n        /* \"WalletBlocklist.sol\":2052:2056  true */\n      0x01\n        /* \"WalletBlocklist.sol\":2032:2056  blocklist[wallet] = true */\n      or\n      swap1\n      sstore\n        /* \"WalletBlocklist.sol\":2066:2084  blocklistTimestamp */\n      0x05\n        /* \"WalletBlocklist.sol\":2066:2092  blocklistTimestamp[wallet] */\n      dup3\n      mstore\n      dup1\n      dup4\n      keccak256\n        /* \"WalletBlocklist.sol\":2095:2110  block.timestamp */\n      timestamp\n        /* \"WalletBlocklist.sol\":2066:2110  blocklistTimestamp[wallet] = block.timestamp */\n      swap1\n      sstore\n        /* \"WalletBlocklist.sol\":2120:2135  blocklistReason */\n      0x06\n        /* \"WalletBlocklist.sol\":2120:2143  blocklistReason[wallet] */\n      swap1\n      swap2\n      mstore\n      swap1\n      keccak256\n        /* \"WalletBlocklist.sol\":2120:2152  blocklistReason[wallet] = reason */\n      tag_279\n        /* \"WalletBlocklist.sol\":2146:2152  reason */\n      dup3\n      dup5\n        /* \"WalletBlocklist.sol\":2120:2143  blocklistReason[wallet] */\n      dup4\n        /* \"WalletBlocklist.sol\":2120:2152  blocklistReason[wallet] = reason */\n      tag_280\n      jump\t// in\n    tag_279:\n      pop\n        /* \"WalletBlocklist.sol\":2220:2240  blocklistedAddresses */\n      0x07\n        /* \"WalletBlocklist.sol\":2220:2247  blocklistedAddresses.length */\n      dup1\n      sload\n      sub(shl(0xa0, 0x01), 0x01)\n        /* \"WalletBlocklist.sol\":2195:2217  blocklistIndex[wallet] */\n      dup6\n      and\n      0x00\n      dup2\n      dup2\n      mstore\n        /* \"WalletBlocklist.sol\":2195:2209  blocklistIndex */\n      0x08\n        /* \"WalletBlocklist.sol\":2195:2217  blocklistIndex[wallet] */\n      0x20\n      mstore\n      0x40\n      dup1\n      dup3\n      keccak256\n        /* \"WalletBlocklist.sol\":2195:2247  blocklistIndex[wallet] = blocklistedAddresses.length */\n      dup5\n      swap1\n      sstore\n        /* \"WalletBlocklist.sol\":2257:2290  blocklistedAddresses.push(wallet) */\n      0x01\n      dup5\n      add\n      dup6\n      sstore\n      swap4\n      swap1\n      mstore\n      0xa66cc928b5edb82af9bd49922954155ab7b0942694bea4ce44661d9a8736c688\n      swap1\n      swap2\n      add\n      dup1\n      sload\n      not(sub(shl(0xa0, 0x01), 0x01))\n      and\n      dup3\n      or\n      swap1\n      sstore\n        /* \"WalletBlocklist.sol\":2314:2364  WalletBlocklisted(wallet, reason, block.timestamp) */\n      swap1\n      mload\n      0x6cc60bce05cd62d4ecc0b1b0c2edf39a939f3e2e8df97f2ab44e003e2b690f8d\n      swap1\n      tag_237\n      swap1\n        /* \"WalletBlocklist.sol\":2340:2346  reason */\n      dup6\n      swap1\n      dup6\n      swap1\n        /* \"WalletBlocklist.sol\":2348:2363  block.timestamp */\n      timestamp\n      swap1\n        /* \"WalletBlocklist.sol\":2314:2364  WalletBlocklisted(wallet, reason, block.timestamp) */\n      tag_283\n      jump\t// in\n        /* \"WalletBlocklist.sol\":8361:8878  function clearBlocklist() external onlyAdmin onlyInitialized {... */\n    tag_134:\n        /* \"Params.sol\":3513:3518  admin */\n      sload(0x00)\n      0x0100\n      swap1\n      div\n      sub(shl(0xa0, 0x01), 0x01)\n      and\n        /* \"Params.sol\":3499:3509  msg.sender */\n      caller\n        /* \"Params.sol\":3499:3518  msg.sender == admin */\n      eq\n      dup1\n        /* \"Params.sol\":3499:3540  msg.sender == admin || admins[msg.sender] */\n      tag_285\n      jumpi\n      pop\n        /* \"Params.sol\":3529:3539  msg.sender */\n      caller\n        /* \"Params.sol\":3522:3540  admins[msg.sender] */\n      0x00\n      swap1\n      dup2\n      mstore\n        /* \"Params.sol\":3522:3528  admins */\n      0x01\n        /* \"Params.sol\":3522:3540  admins[msg.sender] */\n      0x20\n      mstore\n      0x40\n      swap1\n      keccak256\n      sload\n      0xff\n      and\n        /* \"Params.sol\":3499:3540  msg.sender == admin || admins[msg.sender] */\n    tag_285:\n        /* \"Params.sol\":3491:3555  require(msg.sender == admin || admins[msg.sender], \"Admin only\") */\n      tag_286\n      jumpi\n      mload(0x40)\n      shl(0xe5, 0x461bcd)\n      dup2\n      mstore\n      0x04\n      add\n      tag_180\n      swap1\n      tag_181\n      jump\t// in\n    tag_286:\n        /* \"Params.sol\":2568:2579  initialized */\n      and(0xff, sload(0x00))\n        /* \"Params.sol\":2560:2596  require(initialized, \"Not init yet\") */\n      tag_289\n      jumpi\n      mload(0x40)\n      shl(0xe5, 0x461bcd)\n      dup2\n      mstore\n      0x04\n      add\n      tag_180\n      swap1\n      tag_216\n      jump\t// in\n    tag_289:\n        /* \"WalletBlocklist.sol\":8449:8469  blocklistedAddresses */\n      0x07\n        /* \"WalletBlocklist.sol\":8449:8476  blocklistedAddresses.length */\n      sload\n        /* \"WalletBlocklist.sol\":8432:8446  uint256 length */\n      0x00\n        /* \"WalletBlocklist.sol\":8495:8769  for (uint256 i = 0; i < length; i++) {... */\n    tag_292:\n        /* \"WalletBlocklist.sol\":8519:8525  length */\n      dup2\n        /* \"WalletBlocklist.sol\":8515:8516  i */\n      dup2\n        /* \"WalletBlocklist.sol\":8515:8525  i < length */\n      lt\n        /* \"WalletBlocklist.sol\":8495:8769  for (uint256 i = 0; i < length; i++) {... */\n      iszero\n      tag_293\n      jumpi\n        /* \"WalletBlocklist.sol\":8546:8560  address wallet */\n      0x00\n        /* \"WalletBlocklist.sol\":8563:8583  blocklistedAddresses */\n      0x07\n        /* \"WalletBlocklist.sol\":8584:8585  i */\n      dup3\n        /* \"WalletBlocklist.sol\":8563:8586  blocklistedAddresses[i] */\n      dup2\n      sload\n      dup2\n      lt\n      tag_296\n      jumpi\n      tag_296\n      tag_226\n      jump\t// in\n    tag_296:\n      0x00\n      swap2\n      dup3\n      mstore\n      0x20\n      dup1\n      dup4\n      keccak256\n      swap1\n      swap2\n      add\n      sload\n      sub(shl(0xa0, 0x01), 0x01)\n      and\n        /* \"WalletBlocklist.sol\":8607:8624  blocklist[wallet] */\n      dup1\n      dup4\n      mstore\n        /* \"WalletBlocklist.sol\":8607:8616  blocklist */\n      0x04\n        /* \"WalletBlocklist.sol\":8607:8624  blocklist[wallet] */\n      dup3\n      mstore\n      0x40\n      dup1\n      dup5\n      keccak256\n        /* \"WalletBlocklist.sol\":8600:8624  delete blocklist[wallet] */\n      dup1\n      sload\n      not(0xff)\n      and\n      swap1\n      sstore\n        /* \"WalletBlocklist.sol\":8645:8663  blocklistTimestamp */\n      0x05\n        /* \"WalletBlocklist.sol\":8645:8671  blocklistTimestamp[wallet] */\n      dup4\n      mstore\n      dup1\n      dup5\n      keccak256\n        /* \"WalletBlocklist.sol\":8638:8671  delete blocklistTimestamp[wallet] */\n      dup5\n      swap1\n      sstore\n        /* \"WalletBlocklist.sol\":8692:8707  blocklistReason */\n      0x06\n        /* \"WalletBlocklist.sol\":8692:8715  blocklistReason[wallet] */\n      swap1\n      swap3\n      mstore\n      swap1\n      dup3\n      keccak256\n        /* \"WalletBlocklist.sol\":8563:8586  blocklistedAddresses[i] */\n      swap1\n      swap3\n      pop\n        /* \"WalletBlocklist.sol\":8685:8715  delete blocklistReason[wallet] */\n      tag_298\n      swap2\n      tag_236\n      jump\t// in\n    tag_298:\n      sub(shl(0xa0, 0x01), 0x01)\n        /* \"WalletBlocklist.sol\":8736:8758  blocklistIndex[wallet] */\n      and\n      0x00\n      swap1\n      dup2\n      mstore\n        /* \"WalletBlocklist.sol\":8736:8750  blocklistIndex */\n      0x08\n        /* \"WalletBlocklist.sol\":8736:8758  blocklistIndex[wallet] */\n      0x20\n      mstore\n      0x40\n      dup2\n      keccak256\n        /* \"WalletBlocklist.sol\":8729:8758  delete blocklistIndex[wallet] */\n      sstore\n        /* \"WalletBlocklist.sol\":8527:8530  i++ */\n      dup1\n      tag_299\n      dup2\n      tag_300\n      jump\t// in\n    tag_299:\n      swap2\n      pop\n      pop\n        /* \"WalletBlocklist.sol\":8495:8769  for (uint256 i = 0; i < length; i++) {... */\n      jump(tag_292)\n    tag_293:\n      pop\n        /* \"WalletBlocklist.sol\":8787:8814  delete blocklistedAddresses */\n      tag_301\n        /* \"WalletBlocklist.sol\":8794:8814  blocklistedAddresses */\n      0x07\n      0x00\n        /* \"WalletBlocklist.sol\":8787:8814  delete blocklistedAddresses */\n      tag_302\n      jump\t// in\n    tag_301:\n        /* \"WalletBlocklist.sol\":8838:8871  BlocklistCleared(block.timestamp) */\n      mload(0x40)\n        /* \"WalletBlocklist.sol\":8855:8870  block.timestamp */\n      timestamp\n        /* \"#utility.yul\":160:185   */\n      dup2\n      mstore\n        /* \"WalletBlocklist.sol\":8838:8871  BlocklistCleared(block.timestamp) */\n      0xddcdcea11d845d60e4d8a91f78d9c4ee80be729fcded0e0a220bc3b49ba18a29\n      swap1\n        /* \"#utility.yul\":148:150   */\n      0x20\n        /* \"#utility.yul\":133:151   */\n      add\n        /* \"WalletBlocklist.sol\":8838:8871  BlocklistCleared(block.timestamp) */\n      mload(0x40)\n      dup1\n      swap2\n      sub\n      swap1\n      log1\n        /* \"WalletBlocklist.sol\":8422:8878  {... */\n      pop\n        /* \"WalletBlocklist.sol\":8361:8878  function clearBlocklist() external onlyAdmin onlyInitialized {... */\n      jump\t// out\n        /* \"WalletBlocklist.sol\":2594:3646  function addToBlocklistBatch(address[] calldata wallets, string[] calldata reasons) ... */\n    tag_141:\n        /* \"Params.sol\":3513:3518  admin */\n      sload(0x00)\n      0x0100\n      swap1\n      div\n      sub(shl(0xa0, 0x01), 0x01)\n      and\n        /* \"Params.sol\":3499:3509  msg.sender */\n      caller\n        /* \"Params.sol\":3499:3518  msg.sender == admin */\n      eq\n      dup1\n        /* \"Params.sol\":3499:3540  msg.sender == admin || admins[msg.sender] */\n      tag_305\n      jumpi\n      pop\n        /* \"Params.sol\":3529:3539  msg.sender */\n      caller\n        /* \"Params.sol\":3522:3540  admins[msg.sender] */\n      0x00\n      swap1\n      dup2\n      mstore\n        /* \"Params.sol\":3522:3528  admins */\n      0x01\n        /* \"Params.sol\":3522:3540  admins[msg.sender] */\n      0x20\n      mstore\n      0x40\n      swap1\n      keccak256\n      sload\n      0xff\n      and\n        /* \"Params.sol\":3499:3540  msg.sender == admin || admins[msg.sender] */\n    tag_305:\n        /* \"Params.sol\":3491:3555  require(msg.sender == admin || admins[msg.sender], \"Admin only\") */\n      tag_306\n      jumpi\n      mload(0x40)\n      shl(0xe5, 0x461bcd)\n      dup2\n      mstore\n      0x04\n      add\n      tag_180\n      swap1\n      tag_181\n      jump\t// in\n    tag_306:\n        /* \"Params.sol\":2568:2579  initialized */\n      and(0xff, sload(0x00))\n        /* \"Params.sol\":2560:2596  require(initialized, \"Not init yet\") */\n      tag_309\n      jumpi\n      mload(0x40)\n      shl(0xe5, 0x461bcd)\n      dup2\n      mstore\n      0x04\n      add\n      tag_180\n      swap1\n      tag_216\n      jump\t// in\n    tag_309:\n        /* \"WalletBlocklist.sol\":2763:2795  wallets.length == reasons.length */\n      dup3\n      dup2\n      eq\n        /* \"WalletBlocklist.sol\":2755:2822  require(wallets.length == reasons.length, \"Arrays length mismatch\") */\n      tag_312\n      jumpi\n      mload(0x40)\n      shl(0xe5, 0x461bcd)\n      dup2\n      mstore\n        /* \"#utility.yul\":12884:12886   */\n      0x20\n        /* \"WalletBlocklist.sol\":2755:2822  require(wallets.length == reasons.length, \"Arrays length mismatch\") */\n      0x04\n      dup3\n      add\n        /* \"#utility.yul\":12866:12887   */\n      mstore\n        /* \"#utility.yul\":12923:12925   */\n      0x16\n        /* \"#utility.yul\":12903:12921   */\n      0x24\n      dup3\n      add\n        /* \"#utility.yul\":12896:12926   */\n      mstore\n      shl(0x53, 0x082e4e4c2f2e640d8cadccee8d040dad2e6dac2e8c6d)\n        /* \"#utility.yul\":12942:12960   */\n      0x44\n      dup3\n      add\n        /* \"#utility.yul\":12935:12987   */\n      mstore\n        /* \"#utility.yul\":13004:13022   */\n      0x64\n      add\n        /* \"WalletBlocklist.sol\":2755:2822  require(wallets.length == reasons.length, \"Arrays length mismatch\") */\n      tag_180\n        /* \"#utility.yul\":12682:13028   */\n      jump\n        /* \"WalletBlocklist.sol\":2755:2822  require(wallets.length == reasons.length, \"Arrays length mismatch\") */\n    tag_312:\n        /* \"WalletBlocklist.sol\":2840:2858  wallets.length > 0 */\n      dup3\n        /* \"WalletBlocklist.sol\":2832:2875  require(wallets.length > 0, \"Empty arrays\") */\n      tag_315\n      jumpi\n      mload(0x40)\n      shl(0xe5, 0x461bcd)\n      dup2\n      mstore\n        /* \"#utility.yul\":13235:13237   */\n      0x20\n        /* \"WalletBlocklist.sol\":2832:2875  require(wallets.length > 0, \"Empty arrays\") */\n      0x04\n      dup3\n      add\n        /* \"#utility.yul\":13217:13238   */\n      mstore\n        /* \"#utility.yul\":13274:13276   */\n      0x0c\n        /* \"#utility.yul\":13254:13272   */\n      0x24\n      dup3\n      add\n        /* \"#utility.yul\":13247:13277   */\n      mstore\n      shl(0xa0, 0x456d70747920617272617973)\n        /* \"#utility.yul\":13293:13311   */\n      0x44\n      dup3\n      add\n        /* \"#utility.yul\":13286:13328   */\n      mstore\n        /* \"#utility.yul\":13345:13363   */\n      0x64\n      add\n        /* \"WalletBlocklist.sol\":2832:2875  require(wallets.length > 0, \"Empty arrays\") */\n      tag_180\n        /* \"#utility.yul\":13033:13369   */\n      jump\n        /* \"WalletBlocklist.sol\":2832:2875  require(wallets.length > 0, \"Empty arrays\") */\n    tag_315:\n        /* \"WalletBlocklist.sol\":2911:2914  100 */\n      0x64\n        /* \"WalletBlocklist.sol\":2893:2914  wallets.length <= 100 */\n      dup4\n      gt\n      iszero\n        /* \"WalletBlocklist.sol\":2885:2934  require(wallets.length <= 100, \"Batch too large\") */\n      tag_318\n      jumpi\n      mload(0x40)\n      shl(0xe5, 0x461bcd)\n      dup2\n      mstore\n        /* \"#utility.yul\":13576:13578   */\n      0x20\n        /* \"WalletBlocklist.sol\":2885:2934  require(wallets.length <= 100, \"Batch too large\") */\n      0x04\n      dup3\n      add\n        /* \"#utility.yul\":13558:13579   */\n      mstore\n        /* \"#utility.yul\":13615:13617   */\n      0x0f\n        /* \"#utility.yul\":13595:13613   */\n      0x24\n      dup3\n      add\n        /* \"#utility.yul\":13588:13618   */\n      mstore\n      shl(0x88, 0x426174636820746f6f206c61726765)\n        /* \"#utility.yul\":13634:13652   */\n      0x44\n      dup3\n      add\n        /* \"#utility.yul\":13627:13672   */\n      mstore\n        /* \"#utility.yul\":13689:13707   */\n      0x64\n      add\n        /* \"WalletBlocklist.sol\":2885:2934  require(wallets.length <= 100, \"Batch too large\") */\n      tag_180\n        /* \"#utility.yul\":13374:13713   */\n      jump\n        /* \"WalletBlocklist.sol\":2885:2934  require(wallets.length <= 100, \"Batch too large\") */\n    tag_318:\n        /* \"WalletBlocklist.sol\":2986:2995  uint256 i */\n      0x00\n        /* \"WalletBlocklist.sol\":2981:3640  for (uint256 i = 0; i < wallets.length; i++) {... */\n    tag_321:\n        /* \"WalletBlocklist.sol\":3001:3019  i < wallets.length */\n      dup4\n      dup2\n      lt\n        /* \"WalletBlocklist.sol\":2981:3640  for (uint256 i = 0; i < wallets.length; i++) {... */\n      iszero\n      tag_322\n      jumpi\n        /* \"WalletBlocklist.sol\":3040:3054  address wallet */\n      0x00\n        /* \"WalletBlocklist.sol\":3057:3064  wallets */\n      dup6\n      dup6\n        /* \"WalletBlocklist.sol\":3065:3066  i */\n      dup4\n        /* \"WalletBlocklist.sol\":3057:3067  wallets[i] */\n      dup2\n      dup2\n      lt\n      tag_325\n      jumpi\n      tag_325\n      tag_226\n      jump\t// in\n    tag_325:\n      swap1\n      pop\n      0x20\n      mul\n      add\n      0x20\n      dup2\n      add\n      swap1\n      tag_326\n      swap2\n      swap1\n      tag_66\n      jump\t// in\n    tag_326:\n        /* \"WalletBlocklist.sol\":3040:3067  address wallet = wallets[i] */\n      swap1\n      pop\n      sub(shl(0xa0, 0x01), 0x01)\n        /* \"WalletBlocklist.sol\":3098:3118  wallet == address(0) */\n      dup2\n      and\n      iszero\n      dup1\n        /* \"WalletBlocklist.sol\":3098:3139  wallet == address(0) || blocklist[wallet] */\n      tag_327\n      jumpi\n      pop\n      sub(shl(0xa0, 0x01), 0x01)\n        /* \"WalletBlocklist.sol\":3122:3139  blocklist[wallet] */\n      dup2\n      and\n      0x00\n      swap1\n      dup2\n      mstore\n        /* \"WalletBlocklist.sol\":3122:3131  blocklist */\n      0x04\n        /* \"WalletBlocklist.sol\":3122:3139  blocklist[wallet] */\n      0x20\n      mstore\n      0x40\n      swap1\n      keccak256\n      sload\n      0xff\n      and\n        /* \"WalletBlocklist.sol\":3098:3139  wallet == address(0) || blocklist[wallet] */\n    tag_327:\n        /* \"WalletBlocklist.sol\":3094:3231  if (wallet == address(0) || blocklist[wallet]) {... */\n      iszero\n      tag_328\n      jumpi\n        /* \"WalletBlocklist.sol\":3159:3167  continue */\n      pop\n      jump(tag_323)\n        /* \"WalletBlocklist.sol\":3094:3231  if (wallet == address(0) || blocklist[wallet]) {... */\n    tag_328:\n      sub(shl(0xa0, 0x01), 0x01)\n        /* \"WalletBlocklist.sol\":3257:3274  blocklist[wallet] */\n      dup2\n      and\n      0x00\n      swap1\n      dup2\n      mstore\n        /* \"WalletBlocklist.sol\":3257:3266  blocklist */\n      0x04\n        /* \"WalletBlocklist.sol\":3257:3274  blocklist[wallet] */\n      0x20\n      swap1\n      dup2\n      mstore\n      0x40\n      dup1\n      dup4\n      keccak256\n        /* \"WalletBlocklist.sol\":3257:3281  blocklist[wallet] = true */\n      dup1\n      sload\n      not(0xff)\n      and\n        /* \"WalletBlocklist.sol\":3277:3281  true */\n      0x01\n        /* \"WalletBlocklist.sol\":3257:3281  blocklist[wallet] = true */\n      or\n      swap1\n      sstore\n        /* \"WalletBlocklist.sol\":3295:3313  blocklistTimestamp */\n      0x05\n        /* \"WalletBlocklist.sol\":3295:3321  blocklistTimestamp[wallet] */\n      swap1\n      swap2\n      mstore\n      swap1\n      keccak256\n        /* \"WalletBlocklist.sol\":3324:3339  block.timestamp */\n      timestamp\n        /* \"WalletBlocklist.sol\":3295:3339  blocklistTimestamp[wallet] = block.timestamp */\n      swap1\n      sstore\n        /* \"WalletBlocklist.sol\":3379:3386  reasons */\n      dup4\n      dup4\n        /* \"WalletBlocklist.sol\":3387:3388  i */\n      dup4\n        /* \"WalletBlocklist.sol\":3379:3389  reasons[i] */\n      dup2\n      dup2\n      lt\n      tag_330\n      jumpi\n      tag_330\n      tag_226\n      jump\t// in\n    tag_330:\n      swap1\n      pop\n      0x20\n      mul\n      dup2\n      add\n      swap1\n      tag_331\n      swap2\n      swap1\n      tag_332\n      jump\t// in\n    tag_331:\n      sub(shl(0xa0, 0x01), 0x01)\n        /* \"WalletBlocklist.sol\":3353:3376  blocklistReason[wallet] */\n      dup4\n      and\n      0x00\n      swap1\n      dup2\n      mstore\n        /* \"WalletBlocklist.sol\":3353:3368  blocklistReason */\n      0x06\n        /* \"WalletBlocklist.sol\":3353:3376  blocklistReason[wallet] */\n      0x20\n      mstore\n      0x40\n      swap1\n      keccak256\n      swap2\n        /* \"WalletBlocklist.sol\":3353:3389  blocklistReason[wallet] = reasons[i] */\n      tag_333\n      swap2\n      swap1\n        /* \"WalletBlocklist.sol\":3353:3376  blocklistReason[wallet] */\n      dup4\n        /* \"WalletBlocklist.sol\":3353:3389  blocklistReason[wallet] = reasons[i] */\n      tag_280\n      jump\t// in\n    tag_333:\n      pop\n        /* \"WalletBlocklist.sol\":3469:3489  blocklistedAddresses */\n      0x07\n        /* \"WalletBlocklist.sol\":3469:3496  blocklistedAddresses.length */\n      dup1\n      sload\n      sub(shl(0xa0, 0x01), 0x01)\n        /* \"WalletBlocklist.sol\":3444:3466  blocklistIndex[wallet] */\n      dup4\n      and\n      0x00\n      dup2\n      dup2\n      mstore\n        /* \"WalletBlocklist.sol\":3444:3458  blocklistIndex */\n      0x08\n        /* \"WalletBlocklist.sol\":3444:3466  blocklistIndex[wallet] */\n      0x20\n      mstore\n      0x40\n      dup2\n      keccak256\n        /* \"WalletBlocklist.sol\":3444:3496  blocklistIndex[wallet] = blocklistedAddresses.length */\n      dup4\n      swap1\n      sstore\n        /* \"WalletBlocklist.sol\":3510:3543  blocklistedAddresses.push(wallet) */\n      0x01\n      dup4\n      add\n      dup5\n      sstore\n      swap3\n      swap1\n      swap3\n      mstore\n      0xa66cc928b5edb82af9bd49922954155ab7b0942694bea4ce44661d9a8736c688\n      add\n      dup1\n      sload\n      not(sub(shl(0xa0, 0x01), 0x01))\n      and\n      dup3\n      or\n      swap1\n      sstore\n        /* \"WalletBlocklist.sol\":3575:3629  WalletBlocklisted(wallet, reasons[i], block.timestamp) */\n      0x6cc60bce05cd62d4ecc0b1b0c2edf39a939f3e2e8df97f2ab44e003e2b690f8d\n        /* \"WalletBlocklist.sol\":3601:3608  reasons */\n      dup6\n      dup6\n        /* \"WalletBlocklist.sol\":3609:3610  i */\n      dup6\n        /* \"WalletBlocklist.sol\":3601:3611  reasons[i] */\n      dup2\n      dup2\n      lt\n      tag_336\n      jumpi\n      tag_336\n      tag_226\n      jump\t// in\n    tag_336:\n      swap1\n      pop\n      0x20\n      mul\n      dup2\n      add\n      swap1\n      tag_337\n      swap2\n      swap1\n      tag_332\n      jump\t// in\n    tag_337:\n        /* \"WalletBlocklist.sol\":3613:3628  block.timestamp */\n      timestamp\n        /* \"WalletBlocklist.sol\":3575:3629  WalletBlocklisted(wallet, reasons[i], block.timestamp) */\n      mload(0x40)\n      tag_338\n      swap4\n      swap3\n      swap2\n      swap1\n      tag_283\n      jump\t// in\n    tag_338:\n      mload(0x40)\n      dup1\n      swap2\n      sub\n      swap1\n      log2\n        /* \"WalletBlocklist.sol\":3026:3640  {... */\n      pop\n        /* \"WalletBlocklist.sol\":2981:3640  for (uint256 i = 0; i < wallets.length; i++) {... */\n    tag_323:\n        /* \"WalletBlocklist.sol\":3021:3024  i++ */\n      dup1\n      tag_339\n      dup2\n      tag_300\n      jump\t// in\n    tag_339:\n      swap2\n      pop\n      pop\n        /* \"WalletBlocklist.sol\":2981:3640  for (uint256 i = 0; i < wallets.length; i++) {... */\n      jump(tag_321)\n    tag_322:\n      pop\n        /* \"WalletBlocklist.sol\":2594:3646  function addToBlocklistBatch(address[] calldata wallets, string[] calldata reasons) ... */\n      pop\n      pop\n      pop\n      pop\n      jump\t// out\n        /* \"WalletBlocklist.sol\":7555:8210  function getBlocklistedPaginated(uint256 offset, uint256 limit) ... */\n    tag_165:\n        /* \"WalletBlocklist.sol\":7719:7739  blocklistedAddresses */\n      0x07\n        /* \"WalletBlocklist.sol\":7719:7746  blocklistedAddresses.length */\n      sload\n        /* \"WalletBlocklist.sol\":7669:7685  address[] memory */\n      0x60\n      swap1\n        /* \"WalletBlocklist.sol\":7710:7746  offset < blocklistedAddresses.length */\n      dup4\n      lt\n        /* \"WalletBlocklist.sol\":7702:7771  require(offset < blocklistedAddresses.length, \"Offset out of bounds\") */\n      tag_341\n      jumpi\n      mload(0x40)\n      shl(0xe5, 0x461bcd)\n      dup2\n      mstore\n        /* \"#utility.yul\":14447:14449   */\n      0x20\n        /* \"WalletBlocklist.sol\":7702:7771  require(offset < blocklistedAddresses.length, \"Offset out of bounds\") */\n      0x04\n      dup3\n      add\n        /* \"#utility.yul\":14429:14450   */\n      mstore\n        /* \"#utility.yul\":14486:14488   */\n      0x14\n        /* \"#utility.yul\":14466:14484   */\n      0x24\n      dup3\n      add\n        /* \"#utility.yul\":14459:14489   */\n      mstore\n      shl(0x60, 0x4f6666736574206f7574206f6620626f756e6473)\n        /* \"#utility.yul\":14505:14523   */\n      0x44\n      dup3\n      add\n        /* \"#utility.yul\":14498:14548   */\n      mstore\n        /* \"#utility.yul\":14565:14583   */\n      0x64\n      add\n        /* \"WalletBlocklist.sol\":7702:7771  require(offset < blocklistedAddresses.length, \"Offset out of bounds\") */\n      tag_180\n        /* \"#utility.yul\":14245:14589   */\n      jump\n        /* \"WalletBlocklist.sol\":7702:7771  require(offset < blocklistedAddresses.length, \"Offset out of bounds\") */\n    tag_341:\n        /* \"WalletBlocklist.sol\":7790:7801  uint256 end */\n      0x00\n        /* \"WalletBlocklist.sol\":7804:7818  offset + limit */\n      tag_344\n        /* \"WalletBlocklist.sol\":7813:7818  limit */\n      dup4\n        /* \"WalletBlocklist.sol\":7804:7810  offset */\n      dup6\n        /* \"WalletBlocklist.sol\":7804:7818  offset + limit */\n      tag_345\n      jump\t// in\n    tag_344:\n        /* \"WalletBlocklist.sol\":7838:7858  blocklistedAddresses */\n      0x07\n        /* \"WalletBlocklist.sol\":7838:7865  blocklistedAddresses.length */\n      sload\n        /* \"WalletBlocklist.sol\":7790:7818  uint256 end = offset + limit */\n      swap1\n      swap2\n      pop\n        /* \"WalletBlocklist.sol\":7832:7865  end > blocklistedAddresses.length */\n      dup2\n      gt\n        /* \"WalletBlocklist.sol\":7828:7925  if (end > blocklistedAddresses.length) {... */\n      iszero\n      tag_346\n      jumpi\n      pop\n        /* \"WalletBlocklist.sol\":7887:7907  blocklistedAddresses */\n      0x07\n        /* \"WalletBlocklist.sol\":7887:7914  blocklistedAddresses.length */\n      sload\n        /* \"WalletBlocklist.sol\":7828:7925  if (end > blocklistedAddresses.length) {... */\n    tag_346:\n        /* \"WalletBlocklist.sol\":7943:7963  uint256 resultLength */\n      0x00\n        /* \"WalletBlocklist.sol\":7966:7978  end - offset */\n      tag_347\n        /* \"WalletBlocklist.sol\":7972:7978  offset */\n      dup6\n        /* \"WalletBlocklist.sol\":7966:7969  end */\n      dup4\n        /* \"WalletBlocklist.sol\":7966:7978  end - offset */\n      tag_222\n      jump\t// in\n    tag_347:\n        /* \"WalletBlocklist.sol\":7943:7978  uint256 resultLength = end - offset */\n      swap1\n      pop\n        /* \"WalletBlocklist.sol\":7988:8011  address[] memory result */\n      0x00\n        /* \"WalletBlocklist.sol\":8028:8040  resultLength */\n      dup2\n        /* \"WalletBlocklist.sol\":8014:8041  new address[](resultLength) */\n      0xffffffffffffffff\n      dup2\n      gt\n      iszero\n      tag_349\n      jumpi\n      tag_349\n      tag_350\n      jump\t// in\n    tag_349:\n      mload(0x40)\n      swap1\n      dup1\n      dup3\n      mstore\n      dup1\n      0x20\n      mul\n      0x20\n      add\n      dup3\n      add\n      0x40\n      mstore\n      dup1\n      iszero\n      tag_351\n      jumpi\n      dup2\n      0x20\n      add\n      0x20\n      dup3\n      mul\n      dup1\n      calldatasize\n      dup4\n      calldatacopy\n      add\n      swap1\n      pop\n    tag_351:\n      pop\n        /* \"WalletBlocklist.sol\":7988:8041  address[] memory result = new address[](resultLength) */\n      swap1\n      pop\n        /* \"WalletBlocklist.sol\":8065:8074  uint256 i */\n      0x00\n        /* \"WalletBlocklist.sol\":8060:8172  for (uint256 i = 0; i < resultLength; i++) {... */\n    tag_352:\n        /* \"WalletBlocklist.sol\":8084:8096  resultLength */\n      dup3\n        /* \"WalletBlocklist.sol\":8080:8081  i */\n      dup2\n        /* \"WalletBlocklist.sol\":8080:8096  i < resultLength */\n      lt\n        /* \"WalletBlocklist.sol\":8060:8172  for (uint256 i = 0; i < resultLength; i++) {... */\n      iszero\n      tag_353\n      jumpi\n        /* \"WalletBlocklist.sol\":8129:8149  blocklistedAddresses */\n      0x07\n        /* \"WalletBlocklist.sol\":8150:8160  offset + i */\n      tag_355\n        /* \"WalletBlocklist.sol\":8159:8160  i */\n      dup3\n        /* \"WalletBlocklist.sol\":8150:8156  offset */\n      dup10\n        /* \"WalletBlocklist.sol\":8150:8160  offset + i */\n      tag_345\n      jump\t// in\n    tag_355:\n        /* \"WalletBlocklist.sol\":8129:8161  blocklistedAddresses[offset + i] */\n      dup2\n      sload\n      dup2\n      lt\n      tag_357\n      jumpi\n      tag_357\n      tag_226\n      jump\t// in\n    tag_357:\n      swap1\n      0x00\n      mstore\n      keccak256(0x00, 0x20)\n      add\n      0x00\n      swap1\n      sload\n      swap1\n      0x0100\n      exp\n      swap1\n      div\n      sub(shl(0xa0, 0x01), 0x01)\n      and\n        /* \"WalletBlocklist.sol\":8117:8123  result */\n      dup3\n        /* \"WalletBlocklist.sol\":8124:8125  i */\n      dup3\n        /* \"WalletBlocklist.sol\":8117:8126  result[i] */\n      dup2\n      mload\n      dup2\n      lt\n      tag_360\n      jumpi\n      tag_360\n      tag_226\n      jump\t// in\n    tag_360:\n      sub(shl(0xa0, 0x01), 0x01)\n        /* \"WalletBlocklist.sol\":8117:8161  result[i] = blocklistedAddresses[offset + i] */\n      swap1\n      swap3\n      and\n        /* \"WalletBlocklist.sol\":8117:8126  result[i] */\n      0x20\n      swap3\n      dup4\n      mul\n      swap2\n      swap1\n      swap2\n      add\n      swap1\n      swap2\n      add\n        /* \"WalletBlocklist.sol\":8117:8161  result[i] = blocklistedAddresses[offset + i] */\n      mstore\n        /* \"WalletBlocklist.sol\":8098:8101  i++ */\n      dup1\n      tag_361\n      dup2\n      tag_300\n      jump\t// in\n    tag_361:\n      swap2\n      pop\n      pop\n        /* \"WalletBlocklist.sol\":8060:8172  for (uint256 i = 0; i < resultLength; i++) {... */\n      jump(tag_352)\n    tag_353:\n      pop\n        /* \"WalletBlocklist.sol\":8197:8203  result */\n      swap6\n        /* \"WalletBlocklist.sol\":7555:8210  function getBlocklistedPaginated(uint256 offset, uint256 limit) ... */\n      swap5\n      pop\n      pop\n      pop\n      pop\n      pop\n      jump\t// out\n        /* \"WalletBlocklist.sol\":4761:5992  function removeFromBlocklistBatch(address[] calldata wallets) ... */\n    tag_176:\n        /* \"Params.sol\":3513:3518  admin */\n      sload(0x00)\n      0x0100\n      swap1\n      div\n      sub(shl(0xa0, 0x01), 0x01)\n      and\n        /* \"Params.sol\":3499:3509  msg.sender */\n      caller\n        /* \"Params.sol\":3499:3518  msg.sender == admin */\n      eq\n      dup1\n        /* \"Params.sol\":3499:3540  msg.sender == admin || admins[msg.sender] */\n      tag_363\n      jumpi\n      pop\n        /* \"Params.sol\":3529:3539  msg.sender */\n      caller\n        /* \"Params.sol\":3522:3540  admins[msg.sender] */\n      0x00\n      swap1\n      dup2\n      mstore\n        /* \"Params.sol\":3522:3528  admins */\n      0x01\n        /* \"Params.sol\":3522:3540  admins[msg.sender] */\n      0x20\n      mstore\n      0x40\n      swap1\n      keccak256\n      sload\n      0xff\n      and\n        /* \"Params.sol\":3499:3540  msg.sender == admin || admins[msg.sender] */\n    tag_363:\n        /* \"Params.sol\":3491:3555  require(msg.sender == admin || admins[msg.sender], \"Admin only\") */\n      tag_364\n      jumpi\n      mload(0x40)\n      shl(0xe5, 0x461bcd)\n      dup2\n      mstore\n      0x04\n      add\n      tag_180\n      swap1\n      tag_181\n      jump\t// in\n    tag_364:\n        /* \"Params.sol\":2568:2579  initialized */\n      and(0xff, sload(0x00))\n        /* \"Params.sol\":2560:2596  require(initialized, \"Not init yet\") */\n      tag_367\n      jumpi\n      mload(0x40)\n      shl(0xe5, 0x461bcd)\n      dup2\n      mstore\n      0x04\n      add\n      tag_180\n      swap1\n      tag_216\n      jump\t// in\n    tag_367:\n        /* \"WalletBlocklist.sol\":4908:4926  wallets.length > 0 */\n      dup1\n        /* \"WalletBlocklist.sol\":4900:4942  require(wallets.length > 0, \"Empty array\") */\n      tag_370\n      jumpi\n      mload(0x40)\n      shl(0xe5, 0x461bcd)\n      dup2\n      mstore\n        /* \"#utility.yul\":14926:14928   */\n      0x20\n        /* \"WalletBlocklist.sol\":4900:4942  require(wallets.length > 0, \"Empty array\") */\n      0x04\n      dup3\n      add\n        /* \"#utility.yul\":14908:14929   */\n      mstore\n        /* \"#utility.yul\":14965:14967   */\n      0x0b\n        /* \"#utility.yul\":14945:14963   */\n      0x24\n      dup3\n      add\n        /* \"#utility.yul\":14938:14968   */\n      mstore\n      shl(0xa8, 0x456d707479206172726179)\n        /* \"#utility.yul\":14984:15002   */\n      0x44\n      dup3\n      add\n        /* \"#utility.yul\":14977:15018   */\n      mstore\n        /* \"#utility.yul\":15035:15053   */\n      0x64\n      add\n        /* \"WalletBlocklist.sol\":4900:4942  require(wallets.length > 0, \"Empty array\") */\n      tag_180\n        /* \"#utility.yul\":14724:15059   */\n      jump\n        /* \"WalletBlocklist.sol\":4900:4942  require(wallets.length > 0, \"Empty array\") */\n    tag_370:\n        /* \"WalletBlocklist.sol\":4978:4981  100 */\n      0x64\n        /* \"WalletBlocklist.sol\":4960:4981  wallets.length <= 100 */\n      dup2\n      gt\n      iszero\n        /* \"WalletBlocklist.sol\":4952:5001  require(wallets.length <= 100, \"Batch too large\") */\n      tag_373\n      jumpi\n      mload(0x40)\n      shl(0xe5, 0x461bcd)\n      dup2\n      mstore\n        /* \"#utility.yul\":13576:13578   */\n      0x20\n        /* \"WalletBlocklist.sol\":4952:5001  require(wallets.length <= 100, \"Batch too large\") */\n      0x04\n      dup3\n      add\n        /* \"#utility.yul\":13558:13579   */\n      mstore\n        /* \"#utility.yul\":13615:13617   */\n      0x0f\n        /* \"#utility.yul\":13595:13613   */\n      0x24\n      dup3\n      add\n        /* \"#utility.yul\":13588:13618   */\n      mstore\n      shl(0x88, 0x426174636820746f6f206c61726765)\n        /* \"#utility.yul\":13634:13652   */\n      0x44\n      dup3\n      add\n        /* \"#utility.yul\":13627:13672   */\n      mstore\n        /* \"#utility.yul\":13689:13707   */\n      0x64\n      add\n        /* \"WalletBlocklist.sol\":4952:5001  require(wallets.length <= 100, \"Batch too large\") */\n      tag_180\n        /* \"#utility.yul\":13374:13713   */\n      jump\n        /* \"WalletBlocklist.sol\":4952:5001  require(wallets.length <= 100, \"Batch too large\") */\n    tag_373:\n        /* \"WalletBlocklist.sol\":5053:5062  uint256 i */\n      0x00\n        /* \"WalletBlocklist.sol\":5048:5986  for (uint256 i = 0; i < wallets.length; i++) {... */\n    tag_375:\n        /* \"WalletBlocklist.sol\":5068:5086  i < wallets.length */\n      dup2\n      dup2\n      lt\n        /* \"WalletBlocklist.sol\":5048:5986  for (uint256 i = 0; i < wallets.length; i++) {... */\n      iszero\n      tag_376\n      jumpi\n        /* \"WalletBlocklist.sol\":5107:5121  address wallet */\n      0x00\n        /* \"WalletBlocklist.sol\":5124:5131  wallets */\n      dup4\n      dup4\n        /* \"WalletBlocklist.sol\":5132:5133  i */\n      dup4\n        /* \"WalletBlocklist.sol\":5124:5134  wallets[i] */\n      dup2\n      dup2\n      lt\n      tag_379\n      jumpi\n      tag_379\n      tag_226\n      jump\t// in\n    tag_379:\n      swap1\n      pop\n      0x20\n      mul\n      add\n      0x20\n      dup2\n      add\n      swap1\n      tag_380\n      swap2\n      swap1\n      tag_66\n      jump\t// in\n    tag_380:\n      sub(shl(0xa0, 0x01), 0x01)\n        /* \"WalletBlocklist.sol\":5166:5183  blocklist[wallet] */\n      dup2\n      and\n      0x00\n      swap1\n      dup2\n      mstore\n        /* \"WalletBlocklist.sol\":5166:5175  blocklist */\n      0x04\n        /* \"WalletBlocklist.sol\":5166:5183  blocklist[wallet] */\n      0x20\n      mstore\n      0x40\n      swap1\n      keccak256\n      sload\n        /* \"WalletBlocklist.sol\":5107:5134  address wallet = wallets[i] */\n      swap1\n      swap2\n      pop\n        /* \"WalletBlocklist.sol\":5166:5183  blocklist[wallet] */\n      0xff\n      and\n        /* \"WalletBlocklist.sol\":5161:5253  if (!blocklist[wallet]) {... */\n      tag_381\n      jumpi\n        /* \"WalletBlocklist.sol\":5203:5211  continue */\n      pop\n      jump(tag_377)\n        /* \"WalletBlocklist.sol\":5161:5253  if (!blocklist[wallet]) {... */\n    tag_381:\n      sub(shl(0xa0, 0x01), 0x01)\n        /* \"WalletBlocklist.sol\":5279:5296  blocklist[wallet] */\n      dup2\n      and\n        /* \"WalletBlocklist.sol\":5299:5304  false */\n      0x00\n        /* \"WalletBlocklist.sol\":5279:5296  blocklist[wallet] */\n      swap1\n      dup2\n      mstore\n        /* \"WalletBlocklist.sol\":5279:5288  blocklist */\n      0x04\n        /* \"WalletBlocklist.sol\":5279:5296  blocklist[wallet] */\n      0x20\n      swap1\n      dup2\n      mstore\n      0x40\n      dup1\n      dup4\n      keccak256\n        /* \"WalletBlocklist.sol\":5279:5304  blocklist[wallet] = false */\n      dup1\n      sload\n      not(0xff)\n      and\n      swap1\n      sstore\n        /* \"WalletBlocklist.sol\":5380:5394  blocklistIndex */\n      0x08\n        /* \"WalletBlocklist.sol\":5380:5402  blocklistIndex[wallet] */\n      swap1\n      swap2\n      mstore\n      dup2\n      keccak256\n      sload\n        /* \"WalletBlocklist.sol\":5436:5456  blocklistedAddresses */\n      0x07\n        /* \"WalletBlocklist.sol\":5436:5463  blocklistedAddresses.length */\n      sload\n        /* \"WalletBlocklist.sol\":5380:5402  blocklistIndex[wallet] */\n      swap1\n      swap2\n        /* \"WalletBlocklist.sol\":5299:5304  false */\n      swap1\n        /* \"WalletBlocklist.sol\":5436:5467  blocklistedAddresses.length - 1 */\n      tag_382\n      swap1\n        /* \"WalletBlocklist.sol\":5279:5304  blocklist[wallet] = false */\n      0x01\n      swap1\n        /* \"WalletBlocklist.sol\":5436:5467  blocklistedAddresses.length - 1 */\n      tag_222\n      jump\t// in\n    tag_382:\n        /* \"WalletBlocklist.sol\":5416:5467  uint256 lastIndex = blocklistedAddresses.length - 1 */\n      swap1\n      pop\n        /* \"WalletBlocklist.sol\":5507:5516  lastIndex */\n      dup1\n        /* \"WalletBlocklist.sol\":5498:5503  index */\n      dup3\n        /* \"WalletBlocklist.sol\":5498:5516  index != lastIndex */\n      eq\n        /* \"WalletBlocklist.sol\":5494:5713  if (index != lastIndex) {... */\n      tag_383\n      jumpi\n        /* \"WalletBlocklist.sol\":5536:5554  address lastWallet */\n      0x00\n        /* \"WalletBlocklist.sol\":5557:5577  blocklistedAddresses */\n      0x07\n        /* \"WalletBlocklist.sol\":5578:5587  lastIndex */\n      dup3\n        /* \"WalletBlocklist.sol\":5557:5588  blocklistedAddresses[lastIndex] */\n      dup2\n      sload\n      dup2\n      lt\n      tag_385\n      jumpi\n      tag_385\n      tag_226\n      jump\t// in\n    tag_385:\n      0x00\n      swap2\n      dup3\n      mstore\n      0x20\n      swap1\n      swap2\n      keccak256\n      add\n      sload\n        /* \"WalletBlocklist.sol\":5606:5626  blocklistedAddresses */\n      0x07\n        /* \"WalletBlocklist.sol\":5606:5633  blocklistedAddresses[index] */\n      dup1\n      sload\n      sub(shl(0xa0, 0x01), 0x01)\n        /* \"WalletBlocklist.sol\":5557:5588  blocklistedAddresses[lastIndex] */\n      swap1\n      swap3\n      and\n      swap3\n      pop\n      dup3\n      swap2\n        /* \"WalletBlocklist.sol\":5627:5632  index */\n      dup6\n      swap1\n        /* \"WalletBlocklist.sol\":5606:5633  blocklistedAddresses[index] */\n      dup2\n      lt\n      tag_388\n      jumpi\n      tag_388\n      tag_226\n      jump\t// in\n    tag_388:\n      0x00\n      swap2\n      dup3\n      mstore\n      0x20\n      dup1\n      dup4\n      keccak256\n      swap2\n      swap1\n      swap2\n      add\n        /* \"WalletBlocklist.sol\":5606:5646  blocklistedAddresses[index] = lastWallet */\n      dup1\n      sload\n      not(sub(shl(0xa0, 0x01), 0x01))\n      and\n      sub(shl(0xa0, 0x01), 0x01)\n      swap5\n      dup6\n      and\n      or\n      swap1\n      sstore\n        /* \"WalletBlocklist.sol\":5664:5690  blocklistIndex[lastWallet] */\n      swap3\n      swap1\n      swap2\n      and\n      dup2\n      mstore\n        /* \"WalletBlocklist.sol\":5664:5678  blocklistIndex */\n      0x08\n        /* \"WalletBlocklist.sol\":5664:5690  blocklistIndex[lastWallet] */\n      swap1\n      swap2\n      mstore\n      0x40\n      swap1\n      keccak256\n        /* \"WalletBlocklist.sol\":5664:5698  blocklistIndex[lastWallet] = index */\n      dup3\n      swap1\n      sstore\n        /* \"WalletBlocklist.sol\":5494:5713  if (index != lastIndex) {... */\n    tag_383:\n        /* \"WalletBlocklist.sol\":5739:5759  blocklistedAddresses */\n      0x07\n        /* \"WalletBlocklist.sol\":5739:5765  blocklistedAddresses.pop() */\n      dup1\n      sload\n      dup1\n      tag_391\n      jumpi\n      tag_391\n      tag_233\n      jump\t// in\n    tag_391:\n      0x00\n      dup3\n      dup2\n      mstore\n      0x20\n      dup1\n      dup3\n      keccak256\n      dup4\n      add\n      not(0x00)\n      swap1\n      dup2\n      add\n      dup1\n      sload\n      not(sub(shl(0xa0, 0x01), 0x01))\n      and\n      swap1\n      sstore\n      swap1\n      swap3\n      add\n      swap1\n      swap3\n      sstore\n      sub(shl(0xa0, 0x01), 0x01)\n        /* \"WalletBlocklist.sol\":5786:5808  blocklistIndex[wallet] */\n      dup6\n      and\n      dup3\n      mstore\n        /* \"WalletBlocklist.sol\":5786:5800  blocklistIndex */\n      0x08\n        /* \"WalletBlocklist.sol\":5786:5808  blocklistIndex[wallet] */\n      dup2\n      mstore\n      0x40\n      dup1\n      dup4\n      keccak256\n        /* \"WalletBlocklist.sol\":5779:5808  delete blocklistIndex[wallet] */\n      dup4\n      swap1\n      sstore\n        /* \"WalletBlocklist.sol\":5829:5847  blocklistTimestamp */\n      0x05\n        /* \"WalletBlocklist.sol\":5829:5855  blocklistTimestamp[wallet] */\n      dup3\n      mstore\n      dup1\n      dup4\n      keccak256\n        /* \"WalletBlocklist.sol\":5822:5855  delete blocklistTimestamp[wallet] */\n      dup4\n      swap1\n      sstore\n        /* \"WalletBlocklist.sol\":5876:5891  blocklistReason */\n      0x06\n        /* \"WalletBlocklist.sol\":5876:5899  blocklistReason[wallet] */\n      swap1\n      swap2\n      mstore\n      dup2\n      keccak256\n        /* \"WalletBlocklist.sol\":5869:5899  delete blocklistReason[wallet] */\n      tag_393\n      swap2\n      tag_236\n      jump\t// in\n    tag_393:\n        /* \"WalletBlocklist.sol\":5951:5957  wallet */\n      dup3\n      sub(shl(0xa0, 0x01), 0x01)\n        /* \"WalletBlocklist.sol\":5931:5975  WalletUnblocklisted(wallet, block.timestamp) */\n      and\n      0x740dec1c486dcabe21d37c6d335721bef4bbd5cd295cc5879c5481006c26b906\n        /* \"WalletBlocklist.sol\":5959:5974  block.timestamp */\n      timestamp\n        /* \"WalletBlocklist.sol\":5931:5975  WalletUnblocklisted(wallet, block.timestamp) */\n      mload(0x40)\n      tag_394\n      swap2\n        /* \"#utility.yul\":160:185   */\n      dup2\n      mstore\n        /* \"#utility.yul\":148:150   */\n      0x20\n        /* \"#utility.yul\":133:151   */\n      add\n      swap1\n        /* \"#utility.yul\":14:191   */\n      jump\n        /* \"WalletBlocklist.sol\":5931:5975  WalletUnblocklisted(wallet, block.timestamp) */\n    tag_394:\n      mload(0x40)\n      dup1\n      swap2\n      sub\n      swap1\n      log2\n        /* \"WalletBlocklist.sol\":5093:5986  {... */\n      pop\n      pop\n      pop\n        /* \"WalletBlocklist.sol\":5048:5986  for (uint256 i = 0; i < wallets.length; i++) {... */\n    tag_377:\n        /* \"WalletBlocklist.sol\":5088:5091  i++ */\n      dup1\n      tag_395\n      dup2\n      tag_300\n      jump\t// in\n    tag_395:\n      swap2\n      pop\n      pop\n        /* \"WalletBlocklist.sol\":5048:5986  for (uint256 i = 0; i < wallets.length; i++) {... */\n      jump(tag_375)\n    tag_376:\n      pop\n        /* \"WalletBlocklist.sol\":4761:5992  function removeFromBlocklistBatch(address[] calldata wallets) ... */\n      pop\n      pop\n      jump\t// out\n    tag_236:\n      pop\n      dup1\n      sload\n      tag_396\n      swap1\n      tag_201\n      jump\t// in\n    tag_396:\n      0x00\n      dup3\n      sstore\n      dup1\n      0x1f\n      lt\n      tag_398\n      jumpi\n      pop\n      pop\n      jump\t// out\n    tag_398:\n      0x1f\n      add\n      0x20\n      swap1\n      div\n      swap1\n      0x00\n      mstore\n      keccak256(0x00, 0x20)\n      swap1\n      dup2\n      add\n      swap1\n      tag_399\n      swap2\n      swap1\n      tag_400\n      jump\t// in\n    tag_399:\n      pop\n      jump\t// out\n    tag_302:\n      pop\n      dup1\n      sload\n      0x00\n      dup3\n      sstore\n      swap1\n      0x00\n      mstore\n      keccak256(0x00, 0x20)\n      swap1\n      dup2\n      add\n      swap1\n      tag_399\n      swap2\n      swap1\n    tag_400:\n    tag_403:\n      dup1\n      dup3\n      gt\n      iszero\n      tag_404\n      jumpi\n      0x00\n      dup2\n      sstore\n      0x01\n      add\n      jump(tag_403)\n    tag_404:\n      pop\n      swap1\n      jump\t// out\n        /* \"#utility.yul\":388:561   */\n    tag_405:\n        /* \"#utility.yul\":456:476   */\n      dup1\n      calldataload\n      sub(shl(0xa0, 0x01), 0x01)\n        /* \"#utility.yul\":505:536   */\n      dup2\n      and\n        /* \"#utility.yul\":495:537   */\n      dup2\n      eq\n        /* \"#utility.yul\":485:555   */\n      tag_263\n      jumpi\n        /* \"#utility.yul\":551:552   */\n      0x00\n        /* \"#utility.yul\":548:549   */\n      dup1\n        /* \"#utility.yul\":541:553   */\n      revert\n        /* \"#utility.yul\":566:752   */\n    tag_66:\n        /* \"#utility.yul\":625:631   */\n      0x00\n        /* \"#utility.yul\":678:680   */\n      0x20\n        /* \"#utility.yul\":666:675   */\n      dup3\n        /* \"#utility.yul\":657:664   */\n      dup5\n        /* \"#utility.yul\":653:676   */\n      sub\n        /* \"#utility.yul\":649:681   */\n      slt\n        /* \"#utility.yul\":646:698   */\n      iszero\n      tag_417\n      jumpi\n        /* \"#utility.yul\":694:695   */\n      0x00\n        /* \"#utility.yul\":691:692   */\n      dup1\n        /* \"#utility.yul\":684:696   */\n      revert\n        /* \"#utility.yul\":646:698   */\n    tag_417:\n        /* \"#utility.yul\":717:746   */\n      tag_418\n        /* \"#utility.yul\":736:745   */\n      dup3\n        /* \"#utility.yul\":717:746   */\n      tag_405\n      jump\t// in\n    tag_418:\n        /* \"#utility.yul\":707:746   */\n      swap4\n        /* \"#utility.yul\":566:752   */\n      swap3\n      pop\n      pop\n      pop\n      jump\t// out\n        /* \"#utility.yul\":965:1668   */\n    tag_83:\n        /* \"#utility.yul\":1178:1184   */\n      dup4\n        /* \"#utility.yul\":1171:1185   */\n      iszero\n        /* \"#utility.yul\":1164:1186   */\n      iszero\n        /* \"#utility.yul\":1153:1162   */\n      dup2\n        /* \"#utility.yul\":1146:1187   */\n      mstore\n        /* \"#utility.yul\":1127:1131   */\n      0x00\n        /* \"#utility.yul\":1206:1208   */\n      0x20\n        /* \"#utility.yul\":1244:1250   */\n      dup5\n        /* \"#utility.yul\":1239:1241   */\n      dup2\n        /* \"#utility.yul\":1228:1237   */\n      dup5\n        /* \"#utility.yul\":1224:1242   */\n      add\n        /* \"#utility.yul\":1217:1251   */\n      mstore\n        /* \"#utility.yul\":1287:1289   */\n      0x60\n        /* \"#utility.yul\":1282:1284   */\n      0x40\n        /* \"#utility.yul\":1271:1280   */\n      dup5\n        /* \"#utility.yul\":1267:1285   */\n      add\n        /* \"#utility.yul\":1260:1290   */\n      mstore\n        /* \"#utility.yul\":1319:1325   */\n      dup4\n        /* \"#utility.yul\":1313:1326   */\n      mload\n        /* \"#utility.yul\":1362:1368   */\n      dup1\n        /* \"#utility.yul\":1357:1359   */\n      0x60\n        /* \"#utility.yul\":1346:1355   */\n      dup6\n        /* \"#utility.yul\":1342:1360   */\n      add\n        /* \"#utility.yul\":1335:1369   */\n      mstore\n        /* \"#utility.yul\":1387:1388   */\n      0x00\n        /* \"#utility.yul\":1397:1538   */\n    tag_421:\n        /* \"#utility.yul\":1411:1417   */\n      dup2\n        /* \"#utility.yul\":1408:1409   */\n      dup2\n        /* \"#utility.yul\":1405:1418   */\n      lt\n        /* \"#utility.yul\":1397:1538   */\n      iszero\n      tag_423\n      jumpi\n        /* \"#utility.yul\":1507:1521   */\n      dup6\n      dup2\n      add\n        /* \"#utility.yul\":1503:1526   */\n      dup4\n      add\n        /* \"#utility.yul\":1497:1527   */\n      mload\n        /* \"#utility.yul\":1472:1489   */\n      dup6\n      dup3\n      add\n        /* \"#utility.yul\":1491:1494   */\n      0x80\n        /* \"#utility.yul\":1468:1495   */\n      add\n        /* \"#utility.yul\":1461:1528   */\n      mstore\n        /* \"#utility.yul\":1426:1436   */\n      dup3\n      add\n        /* \"#utility.yul\":1397:1538   */\n      jump(tag_421)\n    tag_423:\n        /* \"#utility.yul\":1401:1404   */\n      pop\n        /* \"#utility.yul\":1588:1589   */\n      0x00\n        /* \"#utility.yul\":1582:1585   */\n      0x80\n        /* \"#utility.yul\":1573:1579   */\n      dup3\n        /* \"#utility.yul\":1562:1571   */\n      dup7\n        /* \"#utility.yul\":1558:1580   */\n      add\n        /* \"#utility.yul\":1554:1586   */\n      add\n        /* \"#utility.yul\":1547:1590   */\n      mstore\n        /* \"#utility.yul\":1658:1661   */\n      0x80\n        /* \"#utility.yul\":1651:1653   */\n      0x1f\n        /* \"#utility.yul\":1647:1654   */\n      not\n        /* \"#utility.yul\":1642:1644   */\n      0x1f\n        /* \"#utility.yul\":1634:1640   */\n      dup4\n        /* \"#utility.yul\":1630:1645   */\n      add\n        /* \"#utility.yul\":1626:1655   */\n      and\n        /* \"#utility.yul\":1615:1624   */\n      dup6\n        /* \"#utility.yul\":1611:1656   */\n      add\n        /* \"#utility.yul\":1607:1662   */\n      add\n        /* \"#utility.yul\":1599:1662   */\n      swap3\n      pop\n      pop\n      pop\n        /* \"#utility.yul\":965:1668   */\n      swap5\n      swap4\n      pop\n      pop\n      pop\n      pop\n      jump\t// out\n        /* \"#utility.yul\":1897:2555   */\n    tag_101:\n        /* \"#utility.yul\":2068:2070   */\n      0x20\n        /* \"#utility.yul\":2120:2141   */\n      dup1\n      dup3\n      mstore\n        /* \"#utility.yul\":2190:2203   */\n      dup3\n      mload\n        /* \"#utility.yul\":2093:2111   */\n      dup3\n      dup3\n      add\n        /* \"#utility.yul\":2212:2234   */\n      dup2\n      swap1\n      mstore\n        /* \"#utility.yul\":2039:2043   */\n      0x00\n      swap2\n        /* \"#utility.yul\":2068:2070   */\n      swap1\n        /* \"#utility.yul\":2291:2306   */\n      dup5\n      dup3\n      add\n      swap1\n        /* \"#utility.yul\":2265:2267   */\n      0x40\n        /* \"#utility.yul\":2250:2268   */\n      dup6\n      add\n      swap1\n        /* \"#utility.yul\":2039:2043   */\n      dup5\n        /* \"#utility.yul\":2334:2529   */\n    tag_426:\n        /* \"#utility.yul\":2348:2354   */\n      dup2\n        /* \"#utility.yul\":2345:2346   */\n      dup2\n        /* \"#utility.yul\":2342:2355   */\n      lt\n        /* \"#utility.yul\":2334:2529   */\n      iszero\n      tag_428\n      jumpi\n        /* \"#utility.yul\":2413:2426   */\n      dup4\n      mload\n      sub(shl(0xa0, 0x01), 0x01)\n        /* \"#utility.yul\":2409:2448   */\n      and\n        /* \"#utility.yul\":2397:2449   */\n      dup4\n      mstore\n        /* \"#utility.yul\":2504:2519   */\n      swap3\n      dup5\n      add\n      swap3\n        /* \"#utility.yul\":2469:2481   */\n      swap2\n      dup5\n      add\n      swap2\n        /* \"#utility.yul\":2445:2446   */\n      0x01\n        /* \"#utility.yul\":2363:2372   */\n      add\n        /* \"#utility.yul\":2334:2529   */\n      jump(tag_426)\n    tag_428:\n      pop\n        /* \"#utility.yul\":2546:2549   */\n      swap1\n      swap7\n        /* \"#utility.yul\":1897:2555   */\n      swap6\n      pop\n      pop\n      pop\n      pop\n      pop\n      pop\n      jump\t// out\n        /* \"#utility.yul\":2560:3226   */\n    tag_131:\n        /* \"#utility.yul\":2640:2646   */\n      0x00\n        /* \"#utility.yul\":2648:2654   */\n      dup1\n        /* \"#utility.yul\":2656:2662   */\n      0x00\n        /* \"#utility.yul\":2709:2711   */\n      0x40\n        /* \"#utility.yul\":2697:2706   */\n      dup5\n        /* \"#utility.yul\":2688:2695   */\n      dup7\n        /* \"#utility.yul\":2684:2707   */\n      sub\n        /* \"#utility.yul\":2680:2712   */\n      slt\n        /* \"#utility.yul\":2677:2729   */\n      iszero\n      tag_430\n      jumpi\n        /* \"#utility.yul\":2725:2726   */\n      0x00\n        /* \"#utility.yul\":2722:2723   */\n      dup1\n        /* \"#utility.yul\":2715:2727   */\n      revert\n        /* \"#utility.yul\":2677:2729   */\n    tag_430:\n        /* \"#utility.yul\":2748:2777   */\n      tag_431\n        /* \"#utility.yul\":2767:2776   */\n      dup5\n        /* \"#utility.yul\":2748:2777   */\n      tag_405\n      jump\t// in\n    tag_431:\n        /* \"#utility.yul\":2738:2777   */\n      swap3\n      pop\n        /* \"#utility.yul\":2828:2830   */\n      0x20\n        /* \"#utility.yul\":2817:2826   */\n      dup5\n        /* \"#utility.yul\":2813:2831   */\n      add\n        /* \"#utility.yul\":2800:2832   */\n      calldataload\n        /* \"#utility.yul\":2851:2869   */\n      0xffffffffffffffff\n        /* \"#utility.yul\":2892:2894   */\n      dup1\n        /* \"#utility.yul\":2884:2890   */\n      dup3\n        /* \"#utility.yul\":2881:2895   */\n      gt\n        /* \"#utility.yul\":2878:2912   */\n      iszero\n      tag_432\n      jumpi\n        /* \"#utility.yul\":2908:2909   */\n      0x00\n        /* \"#utility.yul\":2905:2906   */\n      dup1\n        /* \"#utility.yul\":2898:2910   */\n      revert\n        /* \"#utility.yul\":2878:2912   */\n    tag_432:\n        /* \"#utility.yul\":2946:2952   */\n      dup2\n        /* \"#utility.yul\":2935:2944   */\n      dup7\n        /* \"#utility.yul\":2931:2953   */\n      add\n        /* \"#utility.yul\":2921:2953   */\n      swap2\n      pop\n        /* \"#utility.yul\":2991:2998   */\n      dup7\n        /* \"#utility.yul\":2984:2988   */\n      0x1f\n        /* \"#utility.yul\":2980:2982   */\n      dup4\n        /* \"#utility.yul\":2976:2989   */\n      add\n        /* \"#utility.yul\":2972:2999   */\n      slt\n        /* \"#utility.yul\":2962:3017   */\n      tag_433\n      jumpi\n        /* \"#utility.yul\":3013:3014   */\n      0x00\n        /* \"#utility.yul\":3010:3011   */\n      dup1\n        /* \"#utility.yul\":3003:3015   */\n      revert\n        /* \"#utility.yul\":2962:3017   */\n    tag_433:\n        /* \"#utility.yul\":3053:3055   */\n      dup2\n        /* \"#utility.yul\":3040:3056   */\n      calldataload\n        /* \"#utility.yul\":3079:3081   */\n      dup2\n        /* \"#utility.yul\":3071:3077   */\n      dup2\n        /* \"#utility.yul\":3068:3082   */\n      gt\n        /* \"#utility.yul\":3065:3099   */\n      iszero\n      tag_434\n      jumpi\n        /* \"#utility.yul\":3095:3096   */\n      0x00\n        /* \"#utility.yul\":3092:3093   */\n      dup1\n        /* \"#utility.yul\":3085:3097   */\n      revert\n        /* \"#utility.yul\":3065:3099   */\n    tag_434:\n        /* \"#utility.yul\":3140:3147   */\n      dup8\n        /* \"#utility.yul\":3135:3137   */\n      0x20\n        /* \"#utility.yul\":3126:3132   */\n      dup3\n        /* \"#utility.yul\":3122:3124   */\n      dup6\n        /* \"#utility.yul\":3118:3133   */\n      add\n        /* \"#utility.yul\":3114:3138   */\n      add\n        /* \"#utility.yul\":3111:3148   */\n      gt\n        /* \"#utility.yul\":3108:3165   */\n      iszero\n      tag_435\n      jumpi\n        /* \"#utility.yul\":3161:3162   */\n      0x00\n        /* \"#utility.yul\":3158:3159   */\n      dup1\n        /* \"#utility.yul\":3151:3163   */\n      revert\n        /* \"#utility.yul\":3108:3165   */\n    tag_435:\n        /* \"#utility.yul\":3192:3194   */\n      0x20\n        /* \"#utility.yul\":3188:3190   */\n      dup4\n        /* \"#utility.yul\":3184:3195   */\n      add\n        /* \"#utility.yul\":3174:3195   */\n      swap5\n      pop\n        /* \"#utility.yul\":3214:3220   */\n      dup1\n        /* \"#utility.yul\":3204:3220   */\n      swap4\n      pop\n      pop\n      pop\n      pop\n        /* \"#utility.yul\":2560:3226   */\n      swap3\n      pop\n      swap3\n      pop\n      swap3\n      jump\t// out\n        /* \"#utility.yul\":3231:3598   */\n    tag_406:\n        /* \"#utility.yul\":3294:3302   */\n      0x00\n        /* \"#utility.yul\":3304:3310   */\n      dup1\n        /* \"#utility.yul\":3358:3361   */\n      dup4\n        /* \"#utility.yul\":3351:3355   */\n      0x1f\n        /* \"#utility.yul\":3343:3349   */\n      dup5\n        /* \"#utility.yul\":3339:3356   */\n      add\n        /* \"#utility.yul\":3335:3362   */\n      slt\n        /* \"#utility.yul\":3325:3380   */\n      tag_437\n      jumpi\n        /* \"#utility.yul\":3376:3377   */\n      0x00\n        /* \"#utility.yul\":3373:3374   */\n      dup1\n        /* \"#utility.yul\":3366:3378   */\n      revert\n        /* \"#utility.yul\":3325:3380   */\n    tag_437:\n      pop\n        /* \"#utility.yul\":3399:3419   */\n      dup2\n      calldataload\n        /* \"#utility.yul\":3442:3460   */\n      0xffffffffffffffff\n        /* \"#utility.yul\":3431:3461   */\n      dup2\n      gt\n        /* \"#utility.yul\":3428:3478   */\n      iszero\n      tag_438\n      jumpi\n        /* \"#utility.yul\":3474:3475   */\n      0x00\n        /* \"#utility.yul\":3471:3472   */\n      dup1\n        /* \"#utility.yul\":3464:3476   */\n      revert\n        /* \"#utility.yul\":3428:3478   */\n    tag_438:\n        /* \"#utility.yul\":3511:3515   */\n      0x20\n        /* \"#utility.yul\":3503:3509   */\n      dup4\n        /* \"#utility.yul\":3499:3516   */\n      add\n        /* \"#utility.yul\":3487:3516   */\n      swap2\n      pop\n        /* \"#utility.yul\":3571:3574   */\n      dup4\n        /* \"#utility.yul\":3564:3568   */\n      0x20\n        /* \"#utility.yul\":3554:3560   */\n      dup3\n        /* \"#utility.yul\":3551:3552   */\n      0x05\n        /* \"#utility.yul\":3547:3561   */\n      shl\n        /* \"#utility.yul\":3539:3545   */\n      dup6\n        /* \"#utility.yul\":3535:3562   */\n      add\n        /* \"#utility.yul\":3531:3569   */\n      add\n        /* \"#utility.yul\":3528:3575   */\n      gt\n        /* \"#utility.yul\":3525:3592   */\n      iszero\n      tag_439\n      jumpi\n        /* \"#utility.yul\":3588:3589   */\n      0x00\n        /* \"#utility.yul\":3585:3586   */\n      dup1\n        /* \"#utility.yul\":3578:3590   */\n      revert\n        /* \"#utility.yul\":3525:3592   */\n    tag_439:\n        /* \"#utility.yul\":3231:3598   */\n      swap3\n      pop\n      swap3\n      swap1\n      pop\n      jump\t// out\n        /* \"#utility.yul\":3603:4388   */\n    tag_140:\n        /* \"#utility.yul\":3737:3743   */\n      0x00\n        /* \"#utility.yul\":3745:3751   */\n      dup1\n        /* \"#utility.yul\":3753:3759   */\n      0x00\n        /* \"#utility.yul\":3761:3767   */\n      dup1\n        /* \"#utility.yul\":3814:3816   */\n      0x40\n        /* \"#utility.yul\":3802:3811   */\n      dup6\n        /* \"#utility.yul\":3793:3800   */\n      dup8\n        /* \"#utility.yul\":3789:3812   */\n      sub\n        /* \"#utility.yul\":3785:3817   */\n      slt\n        /* \"#utility.yul\":3782:3834   */\n      iszero\n      tag_441\n      jumpi\n        /* \"#utility.yul\":3830:3831   */\n      0x00\n        /* \"#utility.yul\":3827:3828   */\n      dup1\n        /* \"#utility.yul\":3820:3832   */\n      revert\n        /* \"#utility.yul\":3782:3834   */\n    tag_441:\n        /* \"#utility.yul\":3870:3879   */\n      dup5\n        /* \"#utility.yul\":3857:3880   */\n      calldataload\n        /* \"#utility.yul\":3899:3917   */\n      0xffffffffffffffff\n        /* \"#utility.yul\":3940:3942   */\n      dup1\n        /* \"#utility.yul\":3932:3938   */\n      dup3\n        /* \"#utility.yul\":3929:3943   */\n      gt\n        /* \"#utility.yul\":3926:3960   */\n      iszero\n      tag_442\n      jumpi\n        /* \"#utility.yul\":3956:3957   */\n      0x00\n        /* \"#utility.yul\":3953:3954   */\n      dup1\n        /* \"#utility.yul\":3946:3958   */\n      revert\n        /* \"#utility.yul\":3926:3960   */\n    tag_442:\n        /* \"#utility.yul\":3995:4065   */\n      tag_443\n        /* \"#utility.yul\":4057:4064   */\n      dup9\n        /* \"#utility.yul\":4048:4054   */\n      dup4\n        /* \"#utility.yul\":4037:4046   */\n      dup10\n        /* \"#utility.yul\":4033:4055   */\n      add\n        /* \"#utility.yul\":3995:4065   */\n      tag_406\n      jump\t// in\n    tag_443:\n        /* \"#utility.yul\":4084:4092   */\n      swap1\n      swap7\n      pop\n        /* \"#utility.yul\":3969:4065   */\n      swap5\n      pop\n        /* \"#utility.yul\":4172:4174   */\n      0x20\n        /* \"#utility.yul\":4157:4175   */\n      dup8\n      add\n        /* \"#utility.yul\":4144:4176   */\n      calldataload\n      swap2\n      pop\n        /* \"#utility.yul\":4188:4204   */\n      dup1\n      dup3\n      gt\n        /* \"#utility.yul\":4185:4221   */\n      iszero\n      tag_444\n      jumpi\n        /* \"#utility.yul\":4217:4218   */\n      0x00\n        /* \"#utility.yul\":4214:4215   */\n      dup1\n        /* \"#utility.yul\":4207:4219   */\n      revert\n        /* \"#utility.yul\":4185:4221   */\n    tag_444:\n      pop\n        /* \"#utility.yul\":4256:4328   */\n      tag_445\n        /* \"#utility.yul\":4320:4327   */\n      dup8\n        /* \"#utility.yul\":4309:4317   */\n      dup3\n        /* \"#utility.yul\":4298:4307   */\n      dup9\n        /* \"#utility.yul\":4294:4318   */\n      add\n        /* \"#utility.yul\":4256:4328   */\n      tag_406\n      jump\t// in\n    tag_445:\n        /* \"#utility.yul\":3603:4388   */\n      swap6\n      swap9\n      swap5\n      swap8\n      pop\n        /* \"#utility.yul\":4347:4355   */\n      swap6\n      pop\n      pop\n      pop\n      pop\n        /* \"#utility.yul\":3603:4388   */\n      jump\t// out\n        /* \"#utility.yul\":4791:5039   */\n    tag_164:\n        /* \"#utility.yul\":4859:4865   */\n      0x00\n        /* \"#utility.yul\":4867:4873   */\n      dup1\n        /* \"#utility.yul\":4920:4922   */\n      0x40\n        /* \"#utility.yul\":4908:4917   */\n      dup4\n        /* \"#utility.yul\":4899:4906   */\n      dup6\n        /* \"#utility.yul\":4895:4918   */\n      sub\n        /* \"#utility.yul\":4891:4923   */\n      slt\n        /* \"#utility.yul\":4888:4940   */\n      iszero\n      tag_449\n      jumpi\n        /* \"#utility.yul\":4936:4937   */\n      0x00\n        /* \"#utility.yul\":4933:4934   */\n      dup1\n        /* \"#utility.yul\":4926:4938   */\n      revert\n        /* \"#utility.yul\":4888:4940   */\n    tag_449:\n      pop\n      pop\n        /* \"#utility.yul\":4959:4982   */\n      dup1\n      calldataload\n      swap3\n        /* \"#utility.yul\":5029:5031   */\n      0x20\n        /* \"#utility.yul\":5014:5032   */\n      swap1\n      swap2\n      add\n        /* \"#utility.yul\":5001:5033   */\n      calldataload\n      swap2\n      pop\n        /* \"#utility.yul\":4791:5039   */\n      jump\t// out\n        /* \"#utility.yul\":5044:5481   */\n    tag_175:\n        /* \"#utility.yul\":5130:5136   */\n      0x00\n        /* \"#utility.yul\":5138:5144   */\n      dup1\n        /* \"#utility.yul\":5191:5193   */\n      0x20\n        /* \"#utility.yul\":5179:5188   */\n      dup4\n        /* \"#utility.yul\":5170:5177   */\n      dup6\n        /* \"#utility.yul\":5166:5189   */\n      sub\n        /* \"#utility.yul\":5162:5194   */\n      slt\n        /* \"#utility.yul\":5159:5211   */\n      iszero\n      tag_451\n      jumpi\n        /* \"#utility.yul\":5207:5208   */\n      0x00\n        /* \"#utility.yul\":5204:5205   */\n      dup1\n        /* \"#utility.yul\":5197:5209   */\n      revert\n        /* \"#utility.yul\":5159:5211   */\n    tag_451:\n        /* \"#utility.yul\":5247:5256   */\n      dup3\n        /* \"#utility.yul\":5234:5257   */\n      calldataload\n        /* \"#utility.yul\":5280:5298   */\n      0xffffffffffffffff\n        /* \"#utility.yul\":5272:5278   */\n      dup2\n        /* \"#utility.yul\":5269:5299   */\n      gt\n        /* \"#utility.yul\":5266:5316   */\n      iszero\n      tag_452\n      jumpi\n        /* \"#utility.yul\":5312:5313   */\n      0x00\n        /* \"#utility.yul\":5309:5310   */\n      dup1\n        /* \"#utility.yul\":5302:5314   */\n      revert\n        /* \"#utility.yul\":5266:5316   */\n    tag_452:\n        /* \"#utility.yul\":5351:5421   */\n      tag_453\n        /* \"#utility.yul\":5413:5420   */\n      dup6\n        /* \"#utility.yul\":5404:5410   */\n      dup3\n        /* \"#utility.yul\":5393:5402   */\n      dup7\n        /* \"#utility.yul\":5389:5411   */\n      add\n        /* \"#utility.yul\":5351:5421   */\n      tag_406\n      jump\t// in\n    tag_453:\n        /* \"#utility.yul\":5440:5448   */\n      swap1\n      swap7\n        /* \"#utility.yul\":5325:5421   */\n      swap1\n      swap6\n      pop\n        /* \"#utility.yul\":5044:5481   */\n      swap4\n      pop\n      pop\n      pop\n      pop\n      jump\t// out\n        /* \"#utility.yul\":5486:5820   */\n    tag_181:\n        /* \"#utility.yul\":5688:5690   */\n      0x20\n        /* \"#utility.yul\":5670:5691   */\n      dup1\n      dup3\n      mstore\n        /* \"#utility.yul\":5727:5729   */\n      0x0a\n        /* \"#utility.yul\":5707:5725   */\n      swap1\n      dup3\n      add\n        /* \"#utility.yul\":5700:5730   */\n      mstore\n      shl(0xb0, 0x41646d696e206f6e6c79)\n        /* \"#utility.yul\":5761:5763   */\n      0x40\n        /* \"#utility.yul\":5746:5764   */\n      dup3\n      add\n        /* \"#utility.yul\":5739:5779   */\n      mstore\n        /* \"#utility.yul\":5811:5813   */\n      0x60\n        /* \"#utility.yul\":5796:5814   */\n      add\n      swap1\n        /* \"#utility.yul\":5486:5820   */\n      jump\t// out\n        /* \"#utility.yul\":5825:6170   */\n    tag_190:\n        /* \"#utility.yul\":6027:6029   */\n      0x20\n        /* \"#utility.yul\":6009:6030   */\n      dup1\n      dup3\n      mstore\n        /* \"#utility.yul\":6066:6068   */\n      0x15\n        /* \"#utility.yul\":6046:6064   */\n      swap1\n      dup3\n      add\n        /* \"#utility.yul\":6039:6069   */\n      mstore\n      shl(0x58, 0x496e76616c69642061646d696e2061646472657373)\n        /* \"#utility.yul\":6100:6102   */\n      0x40\n        /* \"#utility.yul\":6085:6103   */\n      dup3\n      add\n        /* \"#utility.yul\":6078:6129   */\n      mstore\n        /* \"#utility.yul\":6161:6163   */\n      0x60\n        /* \"#utility.yul\":6146:6164   */\n      add\n      swap1\n        /* \"#utility.yul\":5825:6170   */\n      jump\t// out\n        /* \"#utility.yul\":6872:7252   */\n    tag_201:\n        /* \"#utility.yul\":6951:6952   */\n      0x01\n        /* \"#utility.yul\":6947:6959   */\n      dup2\n      dup2\n      shr\n      swap1\n        /* \"#utility.yul\":6994:7006   */\n      dup3\n      and\n      dup1\n        /* \"#utility.yul\":7015:7076   */\n      tag_459\n      jumpi\n        /* \"#utility.yul\":7069:7073   */\n      0x7f\n        /* \"#utility.yul\":7061:7067   */\n      dup3\n        /* \"#utility.yul\":7057:7074   */\n      and\n        /* \"#utility.yul\":7047:7074   */\n      swap2\n      pop\n        /* \"#utility.yul\":7015:7076   */\n    tag_459:\n        /* \"#utility.yul\":7122:7124   */\n      0x20\n        /* \"#utility.yul\":7114:7120   */\n      dup3\n        /* \"#utility.yul\":7111:7125   */\n      lt\n        /* \"#utility.yul\":7091:7109   */\n      dup2\n        /* \"#utility.yul\":7088:7126   */\n      sub\n        /* \"#utility.yul\":7085:7246   */\n      tag_460\n      jumpi\n        /* \"#utility.yul\":7168:7178   */\n      0x4e487b71\n        /* \"#utility.yul\":7163:7166   */\n      0xe0\n        /* \"#utility.yul\":7159:7179   */\n      shl\n        /* \"#utility.yul\":7156:7157   */\n      0x00\n        /* \"#utility.yul\":7149:7180   */\n      mstore\n        /* \"#utility.yul\":7203:7207   */\n      0x22\n        /* \"#utility.yul\":7200:7201   */\n      0x04\n        /* \"#utility.yul\":7193:7208   */\n      mstore\n        /* \"#utility.yul\":7231:7235   */\n      0x24\n        /* \"#utility.yul\":7228:7229   */\n      0x00\n        /* \"#utility.yul\":7221:7236   */\n      revert\n        /* \"#utility.yul\":7085:7246   */\n    tag_460:\n      pop\n        /* \"#utility.yul\":6872:7252   */\n      swap2\n      swap1\n      pop\n      jump\t// out\n        /* \"#utility.yul\":7257:7593   */\n    tag_216:\n        /* \"#utility.yul\":7459:7461   */\n      0x20\n        /* \"#utility.yul\":7441:7462   */\n      dup1\n      dup3\n      mstore\n        /* \"#utility.yul\":7498:7500   */\n      0x0c\n        /* \"#utility.yul\":7478:7496   */\n      swap1\n      dup3\n      add\n        /* \"#utility.yul\":7471:7501   */\n      mstore\n      shl(0xa2, 0x139bdd081a5b9a5d081e595d)\n        /* \"#utility.yul\":7532:7534   */\n      0x40\n        /* \"#utility.yul\":7517:7535   */\n      dup3\n      add\n        /* \"#utility.yul\":7510:7552   */\n      mstore\n        /* \"#utility.yul\":7584:7586   */\n      0x60\n        /* \"#utility.yul\":7569:7587   */\n      add\n      swap1\n        /* \"#utility.yul\":7257:7593   */\n      jump\t// out\n        /* \"#utility.yul\":7949:8076   */\n    tag_407:\n        /* \"#utility.yul\":8010:8020   */\n      0x4e487b71\n        /* \"#utility.yul\":8005:8008   */\n      0xe0\n        /* \"#utility.yul\":8001:8021   */\n      shl\n        /* \"#utility.yul\":7998:7999   */\n      0x00\n        /* \"#utility.yul\":7991:8022   */\n      mstore\n        /* \"#utility.yul\":8041:8045   */\n      0x11\n        /* \"#utility.yul\":8038:8039   */\n      0x04\n        /* \"#utility.yul\":8031:8046   */\n      mstore\n        /* \"#utility.yul\":8065:8069   */\n      0x24\n        /* \"#utility.yul\":8062:8063   */\n      0x00\n        /* \"#utility.yul\":8055:8070   */\n      revert\n        /* \"#utility.yul\":8081:8209   */\n    tag_222:\n        /* \"#utility.yul\":8148:8157   */\n      dup2\n      dup2\n      sub\n        /* \"#utility.yul\":8169:8180   */\n      dup2\n      dup2\n      gt\n        /* \"#utility.yul\":8166:8203   */\n      iszero\n      tag_198\n      jumpi\n        /* \"#utility.yul\":8183:8201   */\n      tag_198\n      tag_407\n      jump\t// in\n        /* \"#utility.yul\":8214:8341   */\n    tag_226:\n        /* \"#utility.yul\":8275:8285   */\n      0x4e487b71\n        /* \"#utility.yul\":8270:8273   */\n      0xe0\n        /* \"#utility.yul\":8266:8286   */\n      shl\n        /* \"#utility.yul\":8263:8264   */\n      0x00\n        /* \"#utility.yul\":8256:8287   */\n      mstore\n        /* \"#utility.yul\":8306:8310   */\n      0x32\n        /* \"#utility.yul\":8303:8304   */\n      0x04\n        /* \"#utility.yul\":8296:8311   */\n      mstore\n        /* \"#utility.yul\":8330:8334   */\n      0x24\n        /* \"#utility.yul\":8327:8328   */\n      0x00\n        /* \"#utility.yul\":8320:8335   */\n      revert\n        /* \"#utility.yul\":8346:8473   */\n    tag_233:\n        /* \"#utility.yul\":8407:8417   */\n      0x4e487b71\n        /* \"#utility.yul\":8402:8405   */\n      0xe0\n        /* \"#utility.yul\":8398:8418   */\n      shl\n        /* \"#utility.yul\":8395:8396   */\n      0x00\n        /* \"#utility.yul\":8388:8419   */\n      mstore\n        /* \"#utility.yul\":8438:8442   */\n      0x31\n        /* \"#utility.yul\":8435:8436   */\n      0x04\n        /* \"#utility.yul\":8428:8443   */\n      mstore\n        /* \"#utility.yul\":8462:8466   */\n      0x24\n        /* \"#utility.yul\":8459:8460   */\n      0x00\n        /* \"#utility.yul\":8452:8467   */\n      revert\n        /* \"#utility.yul\":9884:10011   */\n    tag_350:\n        /* \"#utility.yul\":9945:9955   */\n      0x4e487b71\n        /* \"#utility.yul\":9940:9943   */\n      0xe0\n        /* \"#utility.yul\":9936:9956   */\n      shl\n        /* \"#utility.yul\":9933:9934   */\n      0x00\n        /* \"#utility.yul\":9926:9957   */\n      mstore\n        /* \"#utility.yul\":9976:9980   */\n      0x41\n        /* \"#utility.yul\":9973:9974   */\n      0x04\n        /* \"#utility.yul\":9966:9981   */\n      mstore\n        /* \"#utility.yul\":10000:10004   */\n      0x24\n        /* \"#utility.yul\":9997:9998   */\n      0x00\n        /* \"#utility.yul\":9990:10005   */\n      revert\n        /* \"#utility.yul\":10142:10687   */\n    tag_409:\n        /* \"#utility.yul\":10244:10246   */\n      0x1f\n        /* \"#utility.yul\":10239:10242   */\n      dup3\n        /* \"#utility.yul\":10236:10247   */\n      gt\n        /* \"#utility.yul\":10233:10681   */\n      iszero\n      tag_376\n      jumpi\n        /* \"#utility.yul\":10280:10281   */\n      0x00\n        /* \"#utility.yul\":10305:10310   */\n      dup2\n        /* \"#utility.yul\":10301:10303   */\n      dup2\n        /* \"#utility.yul\":10294:10311   */\n      mstore\n        /* \"#utility.yul\":10350:10354   */\n      0x20\n        /* \"#utility.yul\":10346:10348   */\n      dup2\n        /* \"#utility.yul\":10336:10355   */\n      keccak256\n        /* \"#utility.yul\":10420:10422   */\n      0x1f\n        /* \"#utility.yul\":10408:10418   */\n      dup6\n        /* \"#utility.yul\":10404:10423   */\n      add\n        /* \"#utility.yul\":10401:10402   */\n      0x05\n        /* \"#utility.yul\":10397:10424   */\n      shr\n        /* \"#utility.yul\":10391:10395   */\n      dup2\n        /* \"#utility.yul\":10387:10425   */\n      add\n        /* \"#utility.yul\":10456:10460   */\n      0x20\n        /* \"#utility.yul\":10444:10454   */\n      dup7\n        /* \"#utility.yul\":10441:10461   */\n      lt\n        /* \"#utility.yul\":10438:10485   */\n      iszero\n      tag_477\n      jumpi\n      pop\n        /* \"#utility.yul\":10479:10483   */\n      dup1\n        /* \"#utility.yul\":10438:10485   */\n    tag_477:\n        /* \"#utility.yul\":10534:10536   */\n      0x1f\n        /* \"#utility.yul\":10529:10532   */\n      dup6\n        /* \"#utility.yul\":10525:10537   */\n      add\n        /* \"#utility.yul\":10522:10523   */\n      0x05\n        /* \"#utility.yul\":10518:10538   */\n      shr\n        /* \"#utility.yul\":10512:10516   */\n      dup3\n        /* \"#utility.yul\":10508:10539   */\n      add\n        /* \"#utility.yul\":10498:10539   */\n      swap2\n      pop\n        /* \"#utility.yul\":10589:10671   */\n    tag_478:\n        /* \"#utility.yul\":10607:10609   */\n      dup2\n        /* \"#utility.yul\":10600:10605   */\n      dup2\n        /* \"#utility.yul\":10597:10610   */\n      lt\n        /* \"#utility.yul\":10589:10671   */\n      iszero\n      tag_480\n      jumpi\n        /* \"#utility.yul\":10652:10669   */\n      dup3\n      dup2\n      sstore\n        /* \"#utility.yul\":10633:10634   */\n      0x01\n        /* \"#utility.yul\":10622:10635   */\n      add\n        /* \"#utility.yul\":10589:10671   */\n      jump(tag_478)\n    tag_480:\n        /* \"#utility.yul\":10593:10596   */\n      pop\n      pop\n      pop\n        /* \"#utility.yul\":10142:10687   */\n      pop\n      pop\n      pop\n      jump\t// out\n        /* \"#utility.yul\":10863:12069   */\n    tag_280:\n        /* \"#utility.yul\":10987:11005   */\n      0xffffffffffffffff\n        /* \"#utility.yul\":10982:10985   */\n      dup4\n        /* \"#utility.yul\":10979:11006   */\n      gt\n        /* \"#utility.yul\":10976:11029   */\n      iszero\n      tag_484\n      jumpi\n        /* \"#utility.yul\":11009:11027   */\n      tag_484\n      tag_350\n      jump\t// in\n    tag_484:\n        /* \"#utility.yul\":11038:11132   */\n      tag_485\n        /* \"#utility.yul\":11128:11131   */\n      dup4\n        /* \"#utility.yul\":11088:11126   */\n      tag_486\n        /* \"#utility.yul\":11120:11124   */\n      dup4\n        /* \"#utility.yul\":11114:11125   */\n      sload\n        /* \"#utility.yul\":11088:11126   */\n      tag_201\n      jump\t// in\n    tag_486:\n        /* \"#utility.yul\":11082:11086   */\n      dup4\n        /* \"#utility.yul\":11038:11132   */\n      tag_409\n      jump\t// in\n    tag_485:\n        /* \"#utility.yul\":11158:11159   */\n      0x00\n        /* \"#utility.yul\":11183:11185   */\n      0x1f\n        /* \"#utility.yul\":11178:11181   */\n      dup5\n        /* \"#utility.yul\":11175:11186   */\n      gt\n        /* \"#utility.yul\":11200:11201   */\n      0x01\n        /* \"#utility.yul\":11195:11811   */\n      dup2\n      eq\n      tag_488\n      jumpi\n        /* \"#utility.yul\":11855:11856   */\n      0x00\n        /* \"#utility.yul\":11872:11875   */\n      dup6\n        /* \"#utility.yul\":11869:11962   */\n      iszero\n      tag_489\n      jumpi\n      pop\n        /* \"#utility.yul\":11928:11947   */\n      dup4\n      dup3\n      add\n        /* \"#utility.yul\":11915:11948   */\n      calldataload\n        /* \"#utility.yul\":11869:11962   */\n    tag_489:\n      not(0x00)\n        /* \"#utility.yul\":10820:10821   */\n      0x03\n        /* \"#utility.yul\":10816:10827   */\n      dup8\n      swap1\n      shl\n        /* \"#utility.yul\":10812:10836   */\n      shr\n        /* \"#utility.yul\":10808:10837   */\n      not\n        /* \"#utility.yul\":10798:10838   */\n      and\n        /* \"#utility.yul\":10844:10845   */\n      0x01\n        /* \"#utility.yul\":10840:10851   */\n      dup7\n      swap1\n      shl\n        /* \"#utility.yul\":10795:10852   */\n      or\n        /* \"#utility.yul\":11975:12053   */\n      dup4\n      sstore\n        /* \"#utility.yul\":11168:12063   */\n      jump(tag_322)\n        /* \"#utility.yul\":11195:11811   */\n    tag_488:\n        /* \"#utility.yul\":10089:10090   */\n      0x00\n        /* \"#utility.yul\":10082:10096   */\n      dup4\n      dup2\n      mstore\n        /* \"#utility.yul\":10126:10130   */\n      0x20\n        /* \"#utility.yul\":10113:10131   */\n      swap1\n      keccak256\n      not(0x1f)\n        /* \"#utility.yul\":11231:11248   */\n      dup7\n      and\n      swap1\n        /* \"#utility.yul\":11332:11341   */\n      dup4\n        /* \"#utility.yul\":11354:11583   */\n    tag_492:\n        /* \"#utility.yul\":11368:11375   */\n      dup3\n        /* \"#utility.yul\":11365:11366   */\n      dup2\n        /* \"#utility.yul\":11362:11376   */\n      lt\n        /* \"#utility.yul\":11354:11583   */\n      iszero\n      tag_494\n      jumpi\n        /* \"#utility.yul\":11457:11476   */\n      dup7\n      dup6\n      add\n        /* \"#utility.yul\":11444:11477   */\n      calldataload\n        /* \"#utility.yul\":11429:11478   */\n      dup3\n      sstore\n        /* \"#utility.yul\":11564:11568   */\n      0x20\n        /* \"#utility.yul\":11549:11569   */\n      swap5\n      dup6\n      add\n      swap5\n        /* \"#utility.yul\":11517:11518   */\n      0x01\n        /* \"#utility.yul\":11505:11519   */\n      swap1\n      swap3\n      add\n      swap2\n        /* \"#utility.yul\":11384:11396   */\n      add\n        /* \"#utility.yul\":11354:11583   */\n      jump(tag_492)\n    tag_494:\n        /* \"#utility.yul\":11358:11361   */\n      pop\n        /* \"#utility.yul\":11611:11614   */\n      dup7\n        /* \"#utility.yul\":11602:11609   */\n      dup3\n        /* \"#utility.yul\":11599:11615   */\n      lt\n        /* \"#utility.yul\":11596:11755   */\n      iszero\n      tag_495\n      jumpi\n        /* \"#utility.yul\":11735:11736   */\n      0x00\n        /* \"#utility.yul\":11731:11737   */\n      not\n        /* \"#utility.yul\":11725:11728   */\n      0xf8\n        /* \"#utility.yul\":11719:11722   */\n      dup9\n        /* \"#utility.yul\":11716:11717   */\n      0x03\n        /* \"#utility.yul\":11712:11723   */\n      shl\n        /* \"#utility.yul\":11708:11729   */\n      and\n        /* \"#utility.yul\":11704:11738   */\n      shr\n        /* \"#utility.yul\":11700:11739   */\n      not\n        /* \"#utility.yul\":11687:11696   */\n      dup5\n        /* \"#utility.yul\":11682:11685   */\n      dup8\n        /* \"#utility.yul\":11678:11697   */\n      add\n        /* \"#utility.yul\":11665:11698   */\n      calldataload\n        /* \"#utility.yul\":11661:11740   */\n      and\n        /* \"#utility.yul\":11653:11659   */\n      dup2\n        /* \"#utility.yul\":11646:11741   */\n      sstore\n        /* \"#utility.yul\":11596:11755   */\n    tag_495:\n      pop\n      pop\n        /* \"#utility.yul\":11798:11799   */\n      0x01\n        /* \"#utility.yul\":11792:11795   */\n      dup6\n        /* \"#utility.yul\":11789:11790   */\n      0x01\n        /* \"#utility.yul\":11785:11796   */\n      shl\n        /* \"#utility.yul\":11781:11800   */\n      add\n        /* \"#utility.yul\":11775:11779   */\n      dup4\n        /* \"#utility.yul\":11768:11801   */\n      sstore\n        /* \"#utility.yul\":11168:12063   */\n      pop\n      pop\n        /* \"#utility.yul\":10863:12069   */\n      pop\n      pop\n      pop\n      jump\t// out\n        /* \"#utility.yul\":12074:12537   */\n    tag_283:\n        /* \"#utility.yul\":12261:12263   */\n      0x40\n        /* \"#utility.yul\":12250:12259   */\n      dup2\n        /* \"#utility.yul\":12243:12264   */\n      mstore\n        /* \"#utility.yul\":12300:12306   */\n      dup3\n        /* \"#utility.yul\":12295:12297   */\n      0x40\n        /* \"#utility.yul\":12284:12293   */\n      dup3\n        /* \"#utility.yul\":12280:12298   */\n      add\n        /* \"#utility.yul\":12273:12307   */\n      mstore\n        /* \"#utility.yul\":12357:12363   */\n      dup3\n        /* \"#utility.yul\":12349:12355   */\n      dup5\n        /* \"#utility.yul\":12344:12346   */\n      0x60\n        /* \"#utility.yul\":12333:12342   */\n      dup4\n        /* \"#utility.yul\":12329:12347   */\n      add\n        /* \"#utility.yul\":12316:12364   */\n      calldatacopy\n        /* \"#utility.yul\":12413:12414   */\n      0x00\n        /* \"#utility.yul\":12408:12410   */\n      0x60\n        /* \"#utility.yul\":12399:12405   */\n      dup5\n        /* \"#utility.yul\":12388:12397   */\n      dup4\n        /* \"#utility.yul\":12384:12406   */\n      add\n        /* \"#utility.yul\":12380:12411   */\n      add\n        /* \"#utility.yul\":12373:12415   */\n      mstore\n        /* \"#utility.yul\":12224:12228   */\n      0x00\n        /* \"#utility.yul\":12483:12485   */\n      0x60\n        /* \"#utility.yul\":12476:12478   */\n      0x1f\n        /* \"#utility.yul\":12472:12479   */\n      not\n        /* \"#utility.yul\":12467:12469   */\n      0x1f\n        /* \"#utility.yul\":12459:12465   */\n      dup7\n        /* \"#utility.yul\":12455:12470   */\n      add\n        /* \"#utility.yul\":12451:12480   */\n      and\n        /* \"#utility.yul\":12440:12449   */\n      dup4\n        /* \"#utility.yul\":12436:12481   */\n      add\n        /* \"#utility.yul\":12432:12486   */\n      add\n        /* \"#utility.yul\":12424:12486   */\n      swap1\n      pop\n        /* \"#utility.yul\":12524:12530   */\n      dup3\n        /* \"#utility.yul\":12517:12521   */\n      0x20\n        /* \"#utility.yul\":12506:12515   */\n      dup4\n        /* \"#utility.yul\":12502:12522   */\n      add\n        /* \"#utility.yul\":12495:12531   */\n      mstore\n        /* \"#utility.yul\":12074:12537   */\n      swap5\n      swap4\n      pop\n      pop\n      pop\n      pop\n      jump\t// out\n        /* \"#utility.yul\":12542:12677   */\n    tag_300:\n        /* \"#utility.yul\":12581:12584   */\n      0x00\n        /* \"#utility.yul\":12602:12619   */\n      0x01\n      dup3\n      add\n        /* \"#utility.yul\":12599:12642   */\n      tag_499\n      jumpi\n        /* \"#utility.yul\":12622:12640   */\n      tag_499\n      tag_407\n      jump\t// in\n    tag_499:\n      pop\n        /* \"#utility.yul\":12669:12670   */\n      0x01\n        /* \"#utility.yul\":12658:12671   */\n      add\n      swap1\n        /* \"#utility.yul\":12542:12677   */\n      jump\t// out\n        /* \"#utility.yul\":13718:14240   */\n    tag_332:\n        /* \"#utility.yul\":13796:13800   */\n      0x00\n        /* \"#utility.yul\":13802:13808   */\n      dup1\n        /* \"#utility.yul\":13862:13873   */\n      dup4\n        /* \"#utility.yul\":13849:13874   */\n      calldataload\n        /* \"#utility.yul\":13956:13958   */\n      0x1e\n        /* \"#utility.yul\":13952:13959   */\n      not\n        /* \"#utility.yul\":13941:13949   */\n      dup5\n        /* \"#utility.yul\":13925:13939   */\n      calldatasize\n        /* \"#utility.yul\":13921:13950   */\n      sub\n        /* \"#utility.yul\":13917:13960   */\n      add\n        /* \"#utility.yul\":13897:13915   */\n      dup2\n        /* \"#utility.yul\":13893:13961   */\n      slt\n        /* \"#utility.yul\":13883:13979   */\n      tag_504\n      jumpi\n        /* \"#utility.yul\":13975:13976   */\n      0x00\n        /* \"#utility.yul\":13972:13973   */\n      dup1\n        /* \"#utility.yul\":13965:13977   */\n      revert\n        /* \"#utility.yul\":13883:13979   */\n    tag_504:\n        /* \"#utility.yul\":14002:14035   */\n      dup4\n      add\n        /* \"#utility.yul\":14054:14074   */\n      dup1\n      calldataload\n      swap2\n      pop\n        /* \"#utility.yul\":14097:14115   */\n      0xffffffffffffffff\n        /* \"#utility.yul\":14086:14116   */\n      dup3\n      gt\n        /* \"#utility.yul\":14083:14133   */\n      iszero\n      tag_505\n      jumpi\n        /* \"#utility.yul\":14129:14130   */\n      0x00\n        /* \"#utility.yul\":14126:14127   */\n      dup1\n        /* \"#utility.yul\":14119:14131   */\n      revert\n        /* \"#utility.yul\":14083:14133   */\n    tag_505:\n        /* \"#utility.yul\":14162:14166   */\n      0x20\n        /* \"#utility.yul\":14150:14167   */\n      add\n      swap2\n      pop\n        /* \"#utility.yul\":14193:14207   */\n      calldatasize\n        /* \"#utility.yul\":14189:14216   */\n      dup2\n      swap1\n      sub\n        /* \"#utility.yul\":14179:14217   */\n      dup3\n      sgt\n        /* \"#utility.yul\":14176:14234   */\n      iszero\n      tag_439\n      jumpi\n        /* \"#utility.yul\":14230:14231   */\n      0x00\n        /* \"#utility.yul\":14227:14228   */\n      dup1\n        /* \"#utility.yul\":14220:14232   */\n      revert\n        /* \"#utility.yul\":14594:14719   */\n    tag_345:\n        /* \"#utility.yul\":14659:14668   */\n      dup1\n      dup3\n      add\n        /* \"#utility.yul\":14680:14690   */\n      dup1\n      dup3\n      gt\n        /* \"#utility.yul\":14677:14713   */\n      iszero\n      tag_198\n      jumpi\n        /* \"#utility.yul\":14693:14711   */\n      tag_198\n      tag_407\n      jump\t// in\n\n    auxdata: 0xa264697066735822122018e92aa1ff82d6160ea09625a1742e3d4be838a7f0a95d2c6d5dab1899aab80f64736f6c63430008110033\n}\n",
				"bytecode": {
					"linkReferences": {},
					"object": "608060405234801561001057600080fd5b50611d9b806100206000396000f3fe608060405234801561001057600080fd5b50600436106102325760003560e01c8063704b6c0211610130578063c967f90f116100b8578063db78dd281161007c578063db78dd2814610463578063ebf8868d14610487578063efe222661461049a578063f851a440146104a3578063fc3e90e3146104bb57600080fd5b8063c967f90f14610412578063cad0ebf11461042e578063cd779d2114610440578063d507488314610449578063daa77ea21461045a57600080fd5b8063989cf56c116100ff578063989cf56c146103cc578063a314637e146103d4578063a39774a9146103e7578063be645692146103ef578063c47ca91b146103ff57600080fd5b8063704b6c021461038f5780638129fc1c146103a25780638ae53dbd146103aa5780638e204c43146103b957600080fd5b806331a2cac9116101be5780634463ecf3116101825780634463ecf314610342578063591271f914610357578063592ca850146103605780636233be5d14610373578063704802751461037c57600080fd5b806331a2cac9146102da57806332dc3b94146102fc5780633a061bd31461030d57806342127ee714610316578063429b62e51461031f57600080fd5b8063158ef93e11610205578063158ef93e1461026d5780631785f53c1461028a578063182637b81461029d5780631b5e358c146102be57806324d7806c146102c757600080fd5b80630976c65d146102375780630a0b5e51146102375780630e15561a1461025a5780631584589e14610263575b600080fd5b61024768d5f7a0e3e5d2cc000081565b6040519081526020015b60405180910390f35b61024760035481565b61026b6104ce565b005b60005461027a9060ff1681565b6040519015158152602001610251565b61026b610298366004611820565b61052c565b6102a661f00781565b6040516001600160a01b039091168152602001610251565b6102a661f00181565b61027a6102d5366004611820565b61069e565b6102ed6102e8366004611820565b6106de565b60405161025193929190611842565b61024769085be3cbc1c8d988000081565b6102a661f00081565b61024761ea6081565b61027a61032d366004611820565b60016020526000908152604090205460ff1681565b61034a6107af565b60405161025191906118a1565b6102a661100781565b61026b61036e366004611820565b610811565b6102a661f00281565b61026b61038a366004611820565b610a53565b61026b61039d366004611820565b610b6d565b61026b610c4e565b610247670de0b6b3a764000081565b61027a6103c7366004611820565b610d0a565b600754610247565b61026b6103e23660046118ee565b610d50565b61026b610f4d565b6102476801bc16d674ec80000081565b61026b61040d3660046119bd565b611091565b61041b61271081565b60405161ffff9091168152602001610251565b6102476a0343e33f80dc000ca0000081565b61024761753081565b610247695396bc536dbd8924000081565b61024761271081565b61046e6301e1338081565b60405167ffffffffffffffff9091168152602001610251565b61034a610495366004611a29565b61137e565b61024760025481565b6000546102a69061010090046001600160a01b031681565b61026b6104c9366004611a4b565b6114c7565b60005461010090046001600160a01b03163314806104fb57503360009081526001602052604090205460ff165b6105205760405162461bcd60e51b815260040161051790611a8d565b60405180910390fd5b6000805460ff19169055565b60005461010090046001600160a01b031633148061055957503360009081526001602052604090205460ff165b6105755760405162461bcd60e51b815260040161051790611a8d565b6001600160a01b03811661059b5760405162461bcd60e51b815260040161051790611ab1565b6001600160a01b03811660009081526001602052604090205460ff166105f25760405162461bcd60e51b815260206004820152600c60248201526b2737ba1030b71030b236b4b760a11b6044820152606401610517565b6000546001600160a01b036101009091048116908216036106555760405162461bcd60e51b815260206004820152601b60248201527f43616e6e6f742072656d6f7665207072696d6172792061646d696e00000000006044820152606401610517565b6001600160a01b038116600081815260016020526040808220805460ff19169055517fa3b62bc36326052d97ea62d63c3d60308ed4c3ea8ac079dd8499f1e9c4f80c0f9190a250565b600080546001600160a01b038381166101009092041614806106d857506001600160a01b03821660009081526001602052604090205460ff165b92915050565b6001600160a01b038116600090815260046020908152604080832054600583528184205460069093529083208054849360609360ff16929091819061072290611ae0565b80601f016020809104026020016040519081016040528092919081815260200182805461074e90611ae0565b801561079b5780601f106107705761010080835404028352916020019161079b565b820191906000526020600020905b81548152906001019060200180831161077e57829003601f168201915b505050505090509250925092509193909250565b6060600780548060200260200160405190810160405280929190818152602001828054801561080757602002820191906000526020600020905b81546001600160a01b031681526001909101906020018083116107e9575b5050505050905090565b60005461010090046001600160a01b031633148061083e57503360009081526001602052604090205460ff165b61085a5760405162461bcd60e51b815260040161051790611a8d565b60005460ff1661087c5760405162461bcd60e51b815260040161051790611b1a565b6001600160a01b03811660009081526004602052604090205460ff166108dd5760405162461bcd60e51b815260206004820152601660248201527515d85b1b195d081b9bdd08189b1bd8dadb1a5cdd195960521b6044820152606401610517565b6001600160a01b0381166000908152600460209081526040808320805460ff19169055600890915281205460075490919061091a90600190611b56565b90508082146109a25760006007828154811061093857610938611b69565b600091825260209091200154600780546001600160a01b03909216925082918590811061096757610967611b69565b600091825260208083209190910180546001600160a01b0319166001600160a01b039485161790559290911681526008909152604090208290555b60078054806109b3576109b3611b7f565b60008281526020808220830160001990810180546001600160a01b03191690559092019092556001600160a01b03851682526008815260408083208390556005825280832083905560069091528120610a0b91611799565b826001600160a01b03167f740dec1c486dcabe21d37c6d335721bef4bbd5cd295cc5879c5481006c26b90642604051610a4691815260200190565b60405180910390a2505050565b60005461010090046001600160a01b0316331480610a8057503360009081526001602052604090205460ff165b610a9c5760405162461bcd60e51b815260040161051790611a8d565b6001600160a01b038116610ac25760405162461bcd60e51b815260040161051790611ab1565b6001600160a01b03811660009081526001602052604090205460ff1615610b1e5760405162461bcd60e51b815260206004820152601060248201526f20b63932b0b23c9030b71030b236b4b760811b6044820152606401610517565b6001600160a01b0381166000818152600160208190526040808320805460ff1916909217909155517f44d6d25963f097ad14f29f06854a01f575648a1ef82f30e562ccd3889717e3399190a250565b60005461010090046001600160a01b0316331480610b9a57503360009081526001602052604090205460ff165b610bb65760405162461bcd60e51b815260040161051790611a8d565b6001600160a01b038116610bdc5760405162461bcd60e51b815260040161051790611ab1565b600080546001600160a01b03838116610100818102610100600160a81b03198516178555818552600160208190526040808720805460ff19169092179091555193049190911692909183917ff8ccb027dfcd135e000e9d45e6cc2d662578a8825d4c45b5e32e0adf67e79ec691a35050565b60005460ff1615610c975760405162461bcd60e51b8152602060048201526013602482015272105b1c9958591e481a5b9a5d1a585b1a5e9959606a1b6044820152606401610517565b6000805473fcd0191364967c9e5052488208533d62c10805fa8252600160208190527f87dfb223da1c78ec706acf158e88f571a69e268117df6e3e4af970ad7f291459805460ff191690911790556001600160a81b03191674fcd0191364967c9e5052488208533d62c10805fa01179055565b6000805460ff16610d2d5760405162461bcd60e51b815260040161051790611b1a565b506001600160a01b03811660009081526004602052604090205460ff165b919050565b60005461010090046001600160a01b0316331480610d7d57503360009081526001602052604090205460ff165b610d995760405162461bcd60e51b815260040161051790611a8d565b60005460ff16610dbb5760405162461bcd60e51b815260040161051790611b1a565b6001600160a01b038316610e115760405162461bcd60e51b815260206004820152601d60248201527f43616e6e6f7420626c6f636b6c697374207a65726f20616464726573730000006044820152606401610517565b6001600160a01b03831660009081526004602052604090205460ff1615610e7a5760405162461bcd60e51b815260206004820152601a60248201527f57616c6c657420616c726561647920626c6f636b6c69737465640000000000006044820152606401610517565b6001600160a01b0383166000908152600460209081526040808320805460ff191660011790556005825280832042905560069091529020610ebc828483611bf9565b50600780546001600160a01b0385166000818152600860205260408082208490556001840185559390527fa66cc928b5edb82af9bd49922954155ab7b0942694bea4ce44661d9a8736c68890910180546001600160a01b0319168217905590517f6cc60bce05cd62d4ecc0b1b0c2edf39a939f3e2e8df97f2ab44e003e2b690f8d90610a4690859085904290611cb9565b60005461010090046001600160a01b0316331480610f7a57503360009081526001602052604090205460ff165b610f965760405162461bcd60e51b815260040161051790611a8d565b60005460ff16610fb85760405162461bcd60e51b815260040161051790611b1a565b60075460005b8181101561104e57600060078281548110610fdb57610fdb611b69565b60009182526020808320909101546001600160a01b0316808352600482526040808420805460ff1916905560058352808420849055600690925290822090925061102491611799565b6001600160a01b03166000908152600860205260408120558061104681611cf2565b915050610fbe565b5061105b600760006117d6565b6040514281527fddcdcea11d845d60e4d8a91f78d9c4ee80be729fcded0e0a220bc3b49ba18a299060200160405180910390a150565b60005461010090046001600160a01b03163314806110be57503360009081526001602052604090205460ff165b6110da5760405162461bcd60e51b815260040161051790611a8d565b60005460ff166110fc5760405162461bcd60e51b815260040161051790611b1a565b8281146111445760405162461bcd60e51b8152602060048201526016602482015275082e4e4c2f2e640d8cadccee8d040dad2e6dac2e8c6d60531b6044820152606401610517565b826111805760405162461bcd60e51b815260206004820152600c60248201526b456d7074792061727261797360a01b6044820152606401610517565b60648311156111c35760405162461bcd60e51b815260206004820152600f60248201526e426174636820746f6f206c6172676560881b6044820152606401610517565b60005b838110156113775760008585838181106111e2576111e2611b69565b90506020020160208101906111f79190611820565b90506001600160a01b038116158061122757506001600160a01b03811660009081526004602052604090205460ff165b156112325750611365565b6001600160a01b0381166000908152600460209081526040808320805460ff191660011790556005909152902042905583838381811061127457611274611b69565b90506020028101906112869190611d0b565b6001600160a01b0383166000908152600660205260409020916112aa919083611bf9565b50600780546001600160a01b0383166000818152600860205260408120839055600183018455929092527fa66cc928b5edb82af9bd49922954155ab7b0942694bea4ce44661d9a8736c6880180546001600160a01b031916821790557f6cc60bce05cd62d4ecc0b1b0c2edf39a939f3e2e8df97f2ab44e003e2b690f8d85858581811061133957611339611b69565b905060200281019061134b9190611d0b565b4260405161135b93929190611cb9565b60405180910390a2505b8061136f81611cf2565b9150506111c6565b5050505050565b60075460609083106113c95760405162461bcd60e51b81526020600482015260146024820152734f6666736574206f7574206f6620626f756e647360601b6044820152606401610517565b60006113d58385611d52565b6007549091508111156113e757506007545b60006113f38583611b56565b905060008167ffffffffffffffff81111561141057611410611b95565b604051908082528060200260200182016040528015611439578160200160208202803683370190505b50905060005b828110156114bd5760076114538289611d52565b8154811061146357611463611b69565b9060005260206000200160009054906101000a90046001600160a01b031682828151811061149357611493611b69565b6001600160a01b0390921660209283029190910190910152806114b581611cf2565b91505061143f565b5095945050505050565b60005461010090046001600160a01b03163314806114f457503360009081526001602052604090205460ff165b6115105760405162461bcd60e51b815260040161051790611a8d565b60005460ff166115325760405162461bcd60e51b815260040161051790611b1a565b8061156d5760405162461bcd60e51b815260206004820152600b60248201526a456d70747920617272617960a81b6044820152606401610517565b60648111156115b05760405162461bcd60e51b815260206004820152600f60248201526e426174636820746f6f206c6172676560881b6044820152606401610517565b60005b818110156117945760008383838181106115cf576115cf611b69565b90506020020160208101906115e49190611820565b6001600160a01b03811660009081526004602052604090205490915060ff1661160d5750611782565b6001600160a01b0381166000908152600460209081526040808320805460ff19169055600890915281205460075490919061164a90600190611b56565b90508082146116d25760006007828154811061166857611668611b69565b600091825260209091200154600780546001600160a01b03909216925082918590811061169757611697611b69565b600091825260208083209190910180546001600160a01b0319166001600160a01b039485161790559290911681526008909152604090208290555b60078054806116e3576116e3611b7f565b60008281526020808220830160001990810180546001600160a01b03191690559092019092556001600160a01b0385168252600881526040808320839055600582528083208390556006909152812061173b91611799565b826001600160a01b03167f740dec1c486dcabe21d37c6d335721bef4bbd5cd295cc5879c5481006c26b9064260405161177691815260200190565b60405180910390a25050505b8061178c81611cf2565b9150506115b3565b505050565b5080546117a590611ae0565b6000825580601f106117b5575050565b601f0160209004906000526020600020908101906117d391906117f0565b50565b50805460008255906000526020600020908101906117d391905b5b8082111561180557600081556001016117f1565b5090565b80356001600160a01b0381168114610d4b57600080fd5b60006020828403121561183257600080fd5b61183b82611809565b9392505050565b831515815260006020848184015260606040840152835180606085015260005b8181101561187e57858101830151858201608001528201611862565b506000608082860101526080601f19601f83011685010192505050949350505050565b6020808252825182820181905260009190848201906040850190845b818110156118e25783516001600160a01b0316835292840192918401916001016118bd565b50909695505050505050565b60008060006040848603121561190357600080fd5b61190c84611809565b9250602084013567ffffffffffffffff8082111561192957600080fd5b818601915086601f83011261193d57600080fd5b81358181111561194c57600080fd5b87602082850101111561195e57600080fd5b6020830194508093505050509250925092565b60008083601f84011261198357600080fd5b50813567ffffffffffffffff81111561199b57600080fd5b6020830191508360208260051b85010111156119b657600080fd5b9250929050565b600080600080604085870312156119d357600080fd5b843567ffffffffffffffff808211156119eb57600080fd5b6119f788838901611971565b90965094506020870135915080821115611a1057600080fd5b50611a1d87828801611971565b95989497509550505050565b60008060408385031215611a3c57600080fd5b50508035926020909101359150565b60008060208385031215611a5e57600080fd5b823567ffffffffffffffff811115611a7557600080fd5b611a8185828601611971565b90969095509350505050565b6020808252600a908201526941646d696e206f6e6c7960b01b604082015260600190565b602080825260159082015274496e76616c69642061646d696e206164647265737360581b604082015260600190565b600181811c90821680611af457607f821691505b602082108103611b1457634e487b7160e01b600052602260045260246000fd5b50919050565b6020808252600c908201526b139bdd081a5b9a5d081e595d60a21b604082015260600190565b634e487b7160e01b600052601160045260246000fd5b818103818111156106d8576106d8611b40565b634e487b7160e01b600052603260045260246000fd5b634e487b7160e01b600052603160045260246000fd5b634e487b7160e01b600052604160045260246000fd5b601f82111561179457600081815260208120601f850160051c81016020861015611bd25750805b601f850160051c820191505b81811015611bf157828155600101611bde565b505050505050565b67ffffffffffffffff831115611c1157611c11611b95565b611c2583611c1f8354611ae0565b83611bab565b6000601f841160018114611c595760008515611c415750838201355b600019600387901b1c1916600186901b178355611377565b600083815260209020601f19861690835b82811015611c8a5786850135825560209485019460019092019101611c6a565b5086821015611ca75760001960f88860031b161c19848701351681555b505060018560011b0183555050505050565b604081528260408201528284606083013760006060848301015260006060601f19601f8601168301019050826020830152949350505050565b600060018201611d0457611d04611b40565b5060010190565b6000808335601e19843603018112611d2257600080fd5b83018035915067ffffffffffffffff821115611d3d57600080fd5b6020019150368190038213156119b657600080fd5b808201808211156106d8576106d8611b4056fea264697066735822122018e92aa1ff82d6160ea09625a1742e3d4be838a7f0a95d2c6d5dab1899aab80f64736f6c63430008110033",
					"opcodes": "PUSH1 0x80 PUSH1 0x40 MSTORE CALLVALUE DUP1 ISZERO PUSH2 0x10 JUMPI PUSH1 0x0 DUP1 REVERT JUMPDEST POP PUSH2 0x1D9B DUP1 PUSH2 0x20 PUSH1 0x0 CODECOPY PUSH1 0x0 RETURN INVALID PUSH1 0x80 PUSH1 0x40 MSTORE CALLVALUE DUP1 ISZERO PUSH2 0x10 JUMPI PUSH1 0x0 DUP1 REVERT JUMPDEST POP PUSH1 0x4 CALLDATASIZE LT PUSH2 0x232 JUMPI PUSH1 0x0 CALLDATALOAD PUSH1 0xE0 SHR DUP1 PUSH4 0x704B6C02 GT PUSH2 0x130 JUMPI DUP1 PUSH4 0xC967F90F GT PUSH2 0xB8 JUMPI DUP1 PUSH4 0xDB78DD28 GT PUSH2 0x7C JUMPI DUP1 PUSH4 0xDB78DD28 EQ PUSH2 0x463 JUMPI DUP1 PUSH4 0xEBF8868D EQ PUSH2 0x487 JUMPI DUP1 PUSH4 0xEFE22266 EQ PUSH2 0x49A JUMPI DUP1 PUSH4 0xF851A440 EQ PUSH2 0x4A3 JUMPI DUP1 PUSH4 0xFC3E90E3 EQ PUSH2 0x4BB JUMPI PUSH1 0x0 DUP1 REVERT JUMPDEST DUP1 PUSH4 0xC967F90F EQ PUSH2 0x412 JUMPI DUP1 PUSH4 0xCAD0EBF1 EQ PUSH2 0x42E JUMPI DUP1 PUSH4 0xCD779D21 EQ PUSH2 0x440 JUMPI DUP1 PUSH4 0xD5074883 EQ PUSH2 0x449 JUMPI DUP1 PUSH4 0xDAA77EA2 EQ PUSH2 0x45A JUMPI PUSH1 0x0 DUP1 REVERT JUMPDEST DUP1 PUSH4 0x989CF56C GT PUSH2 0xFF JUMPI DUP1 PUSH4 0x989CF56C EQ PUSH2 0x3CC JUMPI DUP1 PUSH4 0xA314637E EQ PUSH2 0x3D4 JUMPI DUP1 PUSH4 0xA39774A9 EQ PUSH2 0x3E7 JUMPI DUP1 PUSH4 0xBE645692 EQ PUSH2 0x3EF JUMPI DUP1 PUSH4 0xC47CA91B EQ PUSH2 0x3FF JUMPI PUSH1 0x0 DUP1 REVERT JUMPDEST DUP1 PUSH4 0x704B6C02 EQ PUSH2 0x38F JUMPI DUP1 PUSH4 0x8129FC1C EQ PUSH2 0x3A2 JUMPI DUP1 PUSH4 0x8AE53DBD EQ PUSH2 0x3AA JUMPI DUP1 PUSH4 0x8E204C43 EQ PUSH2 0x3B9 JUMPI PUSH1 0x0 DUP1 REVERT JUMPDEST DUP1 PUSH4 0x31A2CAC9 GT PUSH2 0x1BE JUMPI DUP1 PUSH4 0x4463ECF3 GT PUSH2 0x182 JUMPI DUP1 PUSH4 0x4463ECF3 EQ PUSH2 0x342 JUMPI DUP1 PUSH4 0x591271F9 EQ PUSH2 0x357 JUMPI DUP1 PUSH4 0x592CA850 EQ PUSH2 0x360 JUMPI DUP1 PUSH4 0x6233BE5D EQ PUSH2 0x373 JUMPI DUP1 PUSH4 0x70480275 EQ PUSH2 0x37C JUMPI PUSH1 0x0 DUP1 REVERT JUMPDEST DUP1 PUSH4 0x31A2CAC9 EQ PUSH2 0x2DA JUMPI DUP1 PUSH4 0x32DC3B94 EQ PUSH2 0x2FC JUMPI DUP1 PUSH4 0x3A061BD3 EQ PUSH2 0x30D JUMPI DUP1 PUSH4 0x42127EE7 EQ PUSH2 0x316 JUMPI DUP1 PUSH4 0x429B62E5 EQ PUSH2 0x31F JUMPI PUSH1 0x0 DUP1 REVERT JUMPDEST DUP1 PUSH4 0x158EF93E GT PUSH2 0x205 JUMPI DUP1 PUSH4 0x158EF93E EQ PUSH2 0x26D JUMPI DUP1 PUSH4 0x1785F53C EQ PUSH2 0x28A JUMPI DUP1 PUSH4 0x182637B8 EQ PUSH2 0x29D JUMPI DUP1 PUSH4 0x1B5E358C EQ PUSH2 0x2BE JUMPI DUP1 PUSH4 0x24D7806C EQ PUSH2 0x2C7 JUMPI PUSH1 0x0 DUP1 REVERT JUMPDEST DUP1 PUSH4 0x976C65D EQ PUSH2 0x237 JUMPI DUP1 PUSH4 0xA0B5E51 EQ PUSH2 0x237 JUMPI DUP1 PUSH4 0xE15561A EQ PUSH2 0x25A JUMPI DUP1 PUSH4 0x1584589E EQ PUSH2 0x263 JUMPI JUMPDEST PUSH1 0x0 DUP1 REVERT JUMPDEST PUSH2 0x247 PUSH9 0xD5F7A0E3E5D2CC0000 DUP2 JUMP JUMPDEST PUSH1 0x40 MLOAD SWAP1 DUP2 MSTORE PUSH1 0x20 ADD JUMPDEST PUSH1 0x40 MLOAD DUP1 SWAP2 SUB SWAP1 RETURN JUMPDEST PUSH2 0x247 PUSH1 0x3 SLOAD DUP2 JUMP JUMPDEST PUSH2 0x26B PUSH2 0x4CE JUMP JUMPDEST STOP JUMPDEST PUSH1 0x0 SLOAD PUSH2 0x27A SWAP1 PUSH1 0xFF AND DUP2 JUMP JUMPDEST PUSH1 0x40 MLOAD SWAP1 ISZERO ISZERO DUP2 MSTORE PUSH1 0x20 ADD PUSH2 0x251 JUMP JUMPDEST PUSH2 0x26B PUSH2 0x298 CALLDATASIZE PUSH1 0x4 PUSH2 0x1820 JUMP JUMPDEST PUSH2 0x52C JUMP JUMPDEST PUSH2 0x2A6 PUSH2 0xF007 DUP2 JUMP JUMPDEST PUSH1 0x40 MLOAD PUSH1 0x1 PUSH1 0x1 PUSH1 0xA0 SHL SUB SWAP1 SWAP2 AND DUP2 MSTORE PUSH1 0x20 ADD PUSH2 0x251 JUMP JUMPDEST PUSH2 0x2A6 PUSH2 0xF001 DUP2 JUMP JUMPDEST PUSH2 0x27A PUSH2 0x2D5 CALLDATASIZE PUSH1 0x4 PUSH2 0x1820 JUMP JUMPDEST PUSH2 0x69E JUMP JUMPDEST PUSH2 0x2ED PUSH2 0x2E8 CALLDATASIZE PUSH1 0x4 PUSH2 0x1820 JUMP JUMPDEST PUSH2 0x6DE JUMP JUMPDEST PUSH1 0x40 MLOAD PUSH2 0x251 SWAP4 SWAP3 SWAP2 SWAP1 PUSH2 0x1842 JUMP JUMPDEST PUSH2 0x247 PUSH10 0x85BE3CBC1C8D9880000 DUP2 JUMP JUMPDEST PUSH2 0x2A6 PUSH2 0xF000 DUP2 JUMP JUMPDEST PUSH2 0x247 PUSH2 0xEA60 DUP2 JUMP JUMPDEST PUSH2 0x27A PUSH2 0x32D CALLDATASIZE PUSH1 0x4 PUSH2 0x1820 JUMP JUMPDEST PUSH1 0x1 PUSH1 0x20 MSTORE PUSH1 0x0 SWAP1 DUP2 MSTORE PUSH1 0x40 SWAP1 KECCAK256 SLOAD PUSH1 0xFF AND DUP2 JUMP JUMPDEST PUSH2 0x34A PUSH2 0x7AF JUMP JUMPDEST PUSH1 0x40 MLOAD PUSH2 0x251 SWAP2 SWAP1 PUSH2 0x18A1 JUMP JUMPDEST PUSH2 0x2A6 PUSH2 0x1007 DUP2 JUMP JUMPDEST PUSH2 0x26B PUSH2 0x36E CALLDATASIZE PUSH1 0x4 PUSH2 0x1820 JUMP JUMPDEST PUSH2 0x811 JUMP JUMPDEST PUSH2 0x2A6 PUSH2 0xF002 DUP2 JUMP JUMPDEST PUSH2 0x26B PUSH2 0x38A CALLDATASIZE PUSH1 0x4 PUSH2 0x1820 JUMP JUMPDEST PUSH2 0xA53 JUMP JUMPDEST PUSH2 0x26B PUSH2 0x39D CALLDATASIZE PUSH1 0x4 PUSH2 0x1820 JUMP JUMPDEST PUSH2 0xB6D JUMP JUMPDEST PUSH2 0x26B PUSH2 0xC4E JUMP JUMPDEST PUSH2 0x247 PUSH8 0xDE0B6B3A7640000 DUP2 JUMP JUMPDEST PUSH2 0x27A PUSH2 0x3C7 CALLDATASIZE PUSH1 0x4 PUSH2 0x1820 JUMP JUMPDEST PUSH2 0xD0A JUMP JUMPDEST PUSH1 0x7 SLOAD PUSH2 0x247 JUMP JUMPDEST PUSH2 0x26B PUSH2 0x3E2 CALLDATASIZE PUSH1 0x4 PUSH2 0x18EE JUMP JUMPDEST PUSH2 0xD50 JUMP JUMPDEST PUSH2 0x26B PUSH2 0xF4D JUMP JUMPDEST PUSH2 0x247 PUSH9 0x1BC16D674EC800000 DUP2 JUMP JUMPDEST PUSH2 0x26B PUSH2 0x40D CALLDATASIZE PUSH1 0x4 PUSH2 0x19BD JUMP JUMPDEST PUSH2 0x1091 JUMP JUMPDEST PUSH2 0x41B PUSH2 0x2710 DUP2 JUMP JUMPDEST PUSH1 0x40 MLOAD PUSH2 0xFFFF SWAP1 SWAP2 AND DUP2 MSTORE PUSH1 0x20 ADD PUSH2 0x251 JUMP JUMPDEST PUSH2 0x247 PUSH11 0x343E33F80DC000CA00000 DUP2 JUMP JUMPDEST PUSH2 0x247 PUSH2 0x7530 DUP2 JUMP JUMPDEST PUSH2 0x247 PUSH10 0x5396BC536DBD89240000 DUP2 JUMP JUMPDEST PUSH2 0x247 PUSH2 0x2710 DUP2 JUMP JUMPDEST PUSH2 0x46E PUSH4 0x1E13380 DUP2 JUMP JUMPDEST PUSH1 0x40 MLOAD PUSH8 0xFFFFFFFFFFFFFFFF SWAP1 SWAP2 AND DUP2 MSTORE PUSH1 0x20 ADD PUSH2 0x251 JUMP JUMPDEST PUSH2 0x34A PUSH2 0x495 CALLDATASIZE PUSH1 0x4 PUSH2 0x1A29 JUMP JUMPDEST PUSH2 0x137E JUMP JUMPDEST PUSH2 0x247 PUSH1 0x2 SLOAD DUP2 JUMP JUMPDEST PUSH1 0x0 SLOAD PUSH2 0x2A6 SWAP1 PUSH2 0x100 SWAP1 DIV PUSH1 0x1 PUSH1 0x1 PUSH1 0xA0 SHL SUB AND DUP2 JUMP JUMPDEST PUSH2 0x26B PUSH2 0x4C9 CALLDATASIZE PUSH1 0x4 PUSH2 0x1A4B JUMP JUMPDEST PUSH2 0x14C7 JUMP JUMPDEST PUSH1 0x0 SLOAD PUSH2 0x100 SWAP1 DIV PUSH1 0x1 PUSH1 0x1 PUSH1 0xA0 SHL SUB AND CALLER EQ DUP1 PUSH2 0x4FB JUMPI POP CALLER PUSH1 0x0 SWAP1 DUP2 MSTORE PUSH1 0x1 PUSH1 0x20 MSTORE PUSH1 0x40 SWAP1 KECCAK256 SLOAD PUSH1 0xFF AND JUMPDEST PUSH2 0x520 JUMPI PUSH1 0x40 MLOAD PUSH3 0x461BCD PUSH1 0xE5 SHL DUP2 MSTORE PUSH1 0x4 ADD PUSH2 0x517 SWAP1 PUSH2 0x1A8D JUMP JUMPDEST PUSH1 0x40 MLOAD DUP1 SWAP2 SUB SWAP1 REVERT JUMPDEST PUSH1 0x0 DUP1 SLOAD PUSH1 0xFF NOT AND SWAP1 SSTORE JUMP JUMPDEST PUSH1 0x0 SLOAD PUSH2 0x100 SWAP1 DIV PUSH1 0x1 PUSH1 0x1 PUSH1 0xA0 SHL SUB AND CALLER EQ DUP1 PUSH2 0x559 JUMPI POP CALLER PUSH1 0x0 SWAP1 DUP2 MSTORE PUSH1 0x1 PUSH1 0x20 MSTORE PUSH1 0x40 SWAP1 KECCAK256 SLOAD PUSH1 0xFF AND JUMPDEST PUSH2 0x575 JUMPI PUSH1 0x40 MLOAD PUSH3 0x461BCD PUSH1 0xE5 SHL DUP2 MSTORE PUSH1 0x4 ADD PUSH2 0x517 SWAP1 PUSH2 0x1A8D JUMP JUMPDEST PUSH1 0x1 PUSH1 0x1 PUSH1 0xA0 SHL SUB DUP2 AND PUSH2 0x59B JUMPI PUSH1 0x40 MLOAD PUSH3 0x461BCD PUSH1 0xE5 SHL DUP2 MSTORE PUSH1 0x4 ADD PUSH2 0x517 SWAP1 PUSH2 0x1AB1 JUMP JUMPDEST PUSH1 0x1 PUSH1 0x1 PUSH1 0xA0 SHL SUB DUP2 AND PUSH1 0x0 SWAP1 DUP2 MSTORE PUSH1 0x1 PUSH1 0x20 MSTORE PUSH1 0x40 SWAP1 KECCAK256 SLOAD PUSH1 0xFF AND PUSH2 0x5F2 JUMPI PUSH1 0x40 MLOAD PUSH3 0x461BCD PUSH1 0xE5 SHL DUP2 MSTORE PUSH1 0x20 PUSH1 0x4 DUP3 ADD MSTORE PUSH1 0xC PUSH1 0x24 DUP3 ADD MSTORE PUSH12 0x2737BA1030B71030B236B4B7 PUSH1 0xA1 SHL PUSH1 0x44 DUP3 ADD MSTORE PUSH1 0x64 ADD PUSH2 0x517 JUMP JUMPDEST PUSH1 0x0 SLOAD PUSH1 0x1 PUSH1 0x1 PUSH1 0xA0 SHL SUB PUSH2 0x100 SWAP1 SWAP2 DIV DUP2 AND SWAP1 DUP3 AND SUB PUSH2 0x655 JUMPI PUSH1 0x40 MLOAD PUSH3 0x461BCD PUSH1 0xE5 SHL DUP2 MSTORE PUSH1 0x20 PUSH1 0x4 DUP3 ADD MSTORE PUSH1 0x1B PUSH1 0x24 DUP3 ADD MSTORE PUSH32 0x43616E6E6F742072656D6F7665207072696D6172792061646D696E0000000000 PUSH1 0x44 DUP3 ADD MSTORE PUSH1 0x64 ADD PUSH2 0x517 JUMP JUMPDEST PUSH1 0x1 PUSH1 0x1 PUSH1 0xA0 SHL SUB DUP2 AND PUSH1 0x0 DUP2 DUP2 MSTORE PUSH1 0x1 PUSH1 0x20 MSTORE PUSH1 0x40 DUP1 DUP3 KECCAK256 DUP1 SLOAD PUSH1 0xFF NOT AND SWAP1 SSTORE MLOAD PUSH32 0xA3B62BC36326052D97EA62D63C3D60308ED4C3EA8AC079DD8499F1E9C4F80C0F SWAP2 SWAP1 LOG2 POP JUMP JUMPDEST PUSH1 0x0 DUP1 SLOAD PUSH1 0x1 PUSH1 0x1 PUSH1 0xA0 SHL SUB DUP4 DUP2 AND PUSH2 0x100 SWAP1 SWAP3 DIV AND EQ DUP1 PUSH2 0x6D8 JUMPI POP PUSH1 0x1 PUSH1 0x1 PUSH1 0xA0 SHL SUB DUP3 AND PUSH1 0x0 SWAP1 DUP2 MSTORE PUSH1 0x1 PUSH1 0x20 MSTORE PUSH1 0x40 SWAP1 KECCAK256 SLOAD PUSH1 0xFF AND JUMPDEST SWAP3 SWAP2 POP POP JUMP JUMPDEST PUSH1 0x1 PUSH1 0x1 PUSH1 0xA0 SHL SUB DUP2 AND PUSH1 0x0 SWAP1 DUP2 MSTORE PUSH1 0x4 PUSH1 0x20 SWAP1 DUP2 MSTORE PUSH1 0x40 DUP1 DUP4 KECCAK256 SLOAD PUSH1 0x5 DUP4 MSTORE DUP2 DUP5 KECCAK256 SLOAD PUSH1 0x6 SWAP1 SWAP4 MSTORE SWAP1 DUP4 KECCAK256 DUP1 SLOAD DUP5 SWAP4 PUSH1 0x60 SWAP4 PUSH1 0xFF AND SWAP3 SWAP1 SWAP2 DUP2 SWAP1 PUSH2 0x722 SWAP1 PUSH2 0x1AE0 JUMP JUMPDEST DUP1 PUSH1 0x1F ADD PUSH1 0x20 DUP1 SWAP2 DIV MUL PUSH1 0x20 ADD PUSH1 0x40 MLOAD SWAP1 DUP2 ADD PUSH1 0x40 MSTORE DUP1 SWAP3 SWAP2 SWAP1 DUP2 DUP2 MSTORE PUSH1 0x20 ADD DUP3 DUP1 SLOAD PUSH2 0x74E SWAP1 PUSH2 0x1AE0 JUMP JUMPDEST DUP1 ISZERO PUSH2 0x79B JUMPI DUP1 PUSH1 0x1F LT PUSH2 0x770 JUMPI PUSH2 0x100 DUP1 DUP4 SLOAD DIV MUL DUP4 MSTORE SWAP2 PUSH1 0x20 ADD SWAP2 PUSH2 0x79B JUMP JUMPDEST DUP3 ADD SWAP2 SWAP1 PUSH1 0x0 MSTORE PUSH1 0x20 PUSH1 0x0 KECCAK256 SWAP1 JUMPDEST DUP2 SLOAD DUP2 MSTORE SWAP1 PUSH1 0x1 ADD SWAP1 PUSH1 0x20 ADD DUP1 DUP4 GT PUSH2 0x77E JUMPI DUP3 SWAP1 SUB PUSH1 0x1F AND DUP3 ADD SWAP2 JUMPDEST POP POP POP POP POP SWAP1 POP SWAP3 POP SWAP3 POP SWAP3 POP SWAP2 SWAP4 SWAP1 SWAP3 POP JUMP JUMPDEST PUSH1 0x60 PUSH1 0x7 DUP1 SLOAD DUP1 PUSH1 0x20 MUL PUSH1 0x20 ADD PUSH1 0x40 MLOAD SWAP1 DUP2 ADD PUSH1 0x40 MSTORE DUP1 SWAP3 SWAP2 SWAP1 DUP2 DUP2 MSTORE PUSH1 0x20 ADD DUP3 DUP1 SLOAD DUP1 ISZERO PUSH2 0x807 JUMPI PUSH1 0x20 MUL DUP3 ADD SWAP2 SWAP1 PUSH1 0x0 MSTORE PUSH1 0x20 PUSH1 0x0 KECCAK256 SWAP1 JUMPDEST DUP2 SLOAD PUSH1 0x1 PUSH1 0x1 PUSH1 0xA0 SHL SUB AND DUP2 MSTORE PUSH1 0x1 SWAP1 SWAP2 ADD SWAP1 PUSH1 0x20 ADD DUP1 DUP4 GT PUSH2 0x7E9 JUMPI JUMPDEST POP POP POP POP POP SWAP1 POP SWAP1 JUMP JUMPDEST PUSH1 0x0 SLOAD PUSH2 0x100 SWAP1 DIV PUSH1 0x1 PUSH1 0x1 PUSH1 0xA0 SHL SUB AND CALLER EQ DUP1 PUSH2 0x83E JUMPI POP CALLER PUSH1 0x0 SWAP1 DUP2 MSTORE PUSH1 0x1 PUSH1 0x20 MSTORE PUSH1 0x40 SWAP1 KECCAK256 SLOAD PUSH1 0xFF AND JUMPDEST PUSH2 0x85A JUMPI PUSH1 0x40 MLOAD PUSH3 0x461BCD PUSH1 0xE5 SHL DUP2 MSTORE PUSH1 0x4 ADD PUSH2 0x517 SWAP1 PUSH2 0x1A8D JUMP JUMPDEST PUSH1 0x0 SLOAD PUSH1 0xFF AND PUSH2 0x87C JUMPI PUSH1 0x40 MLOAD PUSH3 0x461BCD PUSH1 0xE5 SHL DUP2 MSTORE PUSH1 0x4 ADD PUSH2 0x517 SWAP1 PUSH2 0x1B1A JUMP JUMPDEST PUSH1 0x1 PUSH1 0x1 PUSH1 0xA0 SHL SUB DUP2 AND PUSH1 0x0 SWAP1 DUP2 MSTORE PUSH1 0x4 PUSH1 0x20 MSTORE PUSH1 0x40 SWAP1 KECCAK256 SLOAD PUSH1 0xFF AND PUSH2 0x8DD JUMPI PUSH1 0x40 MLOAD PUSH3 0x461BCD PUSH1 0xE5 SHL DUP2 MSTORE PUSH1 0x20 PUSH1 0x4 DUP3 ADD MSTORE PUSH1 0x16 PUSH1 0x24 DUP3 ADD MSTORE PUSH22 0x15D85B1B195D081B9BDD08189B1BD8DADB1A5CDD1959 PUSH1 0x52 SHL PUSH1 0x44 DUP3 ADD MSTORE PUSH1 0x64 ADD PUSH2 0x517 JUMP JUMPDEST PUSH1 0x1 PUSH1 0x1 PUSH1 0xA0 SHL SUB DUP2 AND PUSH1 0x0 SWAP1 DUP2 MSTORE PUSH1 0x4 PUSH1 0x20 SWAP1 DUP2 MSTORE PUSH1 0x40 DUP1 DUP4 KECCAK256 DUP1 SLOAD PUSH1 0xFF NOT AND SWAP1 SSTORE PUSH1 0x8 SWAP1 SWAP2 MSTORE DUP2 KECCAK256 SLOAD PUSH1 0x7 SLOAD SWAP1 SWAP2 SWAP1 PUSH2 0x91A SWAP1 PUSH1 0x1 SWAP1 PUSH2 0x1B56 JUMP JUMPDEST SWAP1 POP DUP1 DUP3 EQ PUSH2 0x9A2 JUMPI PUSH1 0x0 PUSH1 0x7 DUP3 DUP2 SLOAD DUP2 LT PUSH2 0x938 JUMPI PUSH2 0x938 PUSH2 0x1B69 JUMP JUMPDEST PUSH1 0x0 SWAP2 DUP3 MSTORE PUSH1 0x20 SWAP1 SWAP2 KECCAK256 ADD SLOAD PUSH1 0x7 DUP1 SLOAD PUSH1 0x1 PUSH1 0x1 PUSH1 0xA0 SHL SUB SWAP1 SWAP3 AND SWAP3 POP DUP3 SWAP2 DUP6 SWAP1 DUP2 LT PUSH2 0x967 JUMPI PUSH2 0x967 PUSH2 0x1B69 JUMP JUMPDEST PUSH1 0x0 SWAP2 DUP3 MSTORE PUSH1 0x20 DUP1 DUP4 KECCAK256 SWAP2 SWAP1 SWAP2 ADD DUP1 SLOAD PUSH1 0x1 PUSH1 0x1 PUSH1 0xA0 SHL SUB NOT AND PUSH1 0x1 PUSH1 0x1 PUSH1 0xA0 SHL SUB SWAP5 DUP6 AND OR SWAP1 SSTORE SWAP3 SWAP1 SWAP2 AND DUP2 MSTORE PUSH1 0x8 SWAP1 SWAP2 MSTORE PUSH1 0x40 SWAP1 KECCAK256 DUP3 SWAP1 SSTORE JUMPDEST PUSH1 0x7 DUP1 SLOAD DUP1 PUSH2 0x9B3 JUMPI PUSH2 0x9B3 PUSH2 0x1B7F JUMP JUMPDEST PUSH1 0x0 DUP3 DUP2 MSTORE PUSH1 0x20 DUP1 DUP3 KECCAK256 DUP4 ADD PUSH1 0x0 NOT SWAP1 DUP2 ADD DUP1 SLOAD PUSH1 0x1 PUSH1 0x1 PUSH1 0xA0 SHL SUB NOT AND SWAP1 SSTORE SWAP1 SWAP3 ADD SWAP1 SWAP3 SSTORE PUSH1 0x1 PUSH1 0x1 PUSH1 0xA0 SHL SUB DUP6 AND DUP3 MSTORE PUSH1 0x8 DUP2 MSTORE PUSH1 0x40 DUP1 DUP4 KECCAK256 DUP4 SWAP1 SSTORE PUSH1 0x5 DUP3 MSTORE DUP1 DUP4 KECCAK256 DUP4 SWAP1 SSTORE PUSH1 0x6 SWAP1 SWAP2 MSTORE DUP2 KECCAK256 PUSH2 0xA0B SWAP2 PUSH2 0x1799 JUMP JUMPDEST DUP3 PUSH1 0x1 PUSH1 0x1 PUSH1 0xA0 SHL SUB AND PUSH32 0x740DEC1C486DCABE21D37C6D335721BEF4BBD5CD295CC5879C5481006C26B906 TIMESTAMP PUSH1 0x40 MLOAD PUSH2 0xA46 SWAP2 DUP2 MSTORE PUSH1 0x20 ADD SWAP1 JUMP JUMPDEST PUSH1 0x40 MLOAD DUP1 SWAP2 SUB SWAP1 LOG2 POP POP POP JUMP JUMPDEST PUSH1 0x0 SLOAD PUSH2 0x100 SWAP1 DIV PUSH1 0x1 PUSH1 0x1 PUSH1 0xA0 SHL SUB AND CALLER EQ DUP1 PUSH2 0xA80 JUMPI POP CALLER PUSH1 0x0 SWAP1 DUP2 MSTORE PUSH1 0x1 PUSH1 0x20 MSTORE PUSH1 0x40 SWAP1 KECCAK256 SLOAD PUSH1 0xFF AND JUMPDEST PUSH2 0xA9C JUMPI PUSH1 0x40 MLOAD PUSH3 0x461BCD PUSH1 0xE5 SHL DUP2 MSTORE PUSH1 0x4 ADD PUSH2 0x517 SWAP1 PUSH2 0x1A8D JUMP JUMPDEST PUSH1 0x1 PUSH1 0x1 PUSH1 0xA0 SHL SUB DUP2 AND PUSH2 0xAC2 JUMPI PUSH1 0x40 MLOAD PUSH3 0x461BCD PUSH1 0xE5 SHL DUP2 MSTORE PUSH1 0x4 ADD PUSH2 0x517 SWAP1 PUSH2 0x1AB1 JUMP JUMPDEST PUSH1 0x1 PUSH1 0x1 PUSH1 0xA0 SHL SUB DUP2 AND PUSH1 0x0 SWAP1 DUP2 MSTORE PUSH1 0x1 PUSH1 0x20 MSTORE PUSH1 0x40 SWAP1 KECCAK256 SLOAD PUSH1 0xFF AND ISZERO PUSH2 0xB1E JUMPI PUSH1 0x40 MLOAD PUSH3 0x461BCD PUSH1 0xE5 SHL DUP2 MSTORE PUSH1 0x20 PUSH1 0x4 DUP3 ADD MSTORE PUSH1 0x10 PUSH1 0x24 DUP3 ADD MSTORE PUSH16 0x20B63932B0B23C9030B71030B236B4B7 PUSH1 0x81 SHL PUSH1 0x44 DUP3 ADD MSTORE PUSH1 0x64 ADD PUSH2 0x517 JUMP JUMPDEST PUSH1 0x1 PUSH1 0x1 PUSH1 0xA0 SHL SUB DUP2 AND PUSH1 0x0 DUP2 DUP2 MSTORE PUSH1 0x1 PUSH1 0x20 DUP2 SWAP1 MSTORE PUSH1 0x40 DUP1 DUP4 KECCAK256 DUP1 SLOAD PUSH1 0xFF NOT AND SWAP1 SWAP3 OR SWAP1 SWAP2 SSTORE MLOAD PUSH32 0x44D6D25963F097AD14F29F06854A01F575648A1EF82F30E562CCD3889717E339 SWAP2 SWAP1 LOG2 POP JUMP JUMPDEST PUSH1 0x0 SLOAD PUSH2 0x100 SWAP1 DIV PUSH1 0x1 PUSH1 0x1 PUSH1 0xA0 SHL SUB AND CALLER EQ DUP1 PUSH2 0xB9A JUMPI POP CALLER PUSH1 0x0 SWAP1 DUP2 MSTORE PUSH1 0x1 PUSH1 0x20 MSTORE PUSH1 0x40 SWAP1 KECCAK256 SLOAD PUSH1 0xFF AND JUMPDEST PUSH2 0xBB6 JUMPI PUSH1 0x40 MLOAD PUSH3 0x461BCD PUSH1 0xE5 SHL DUP2 MSTORE PUSH1 0x4 ADD PUSH2 0x517 SWAP1 PUSH2 0x1A8D JUMP JUMPDEST PUSH1 0x1 PUSH1 0x1 PUSH1 0xA0 SHL SUB DUP2 AND PUSH2 0xBDC JUMPI PUSH1 0x40 MLOAD PUSH3 0x461BCD PUSH1 0xE5 SHL DUP2 MSTORE PUSH1 0x4 ADD PUSH2 0x517 SWAP1 PUSH2 0x1AB1 JUMP JUMPDEST PUSH1 0x0 DUP1 SLOAD PUSH1 0x1 PUSH1 0x1 PUSH1 0xA0 SHL SUB DUP4 DUP2 AND PUSH2 0x100 DUP2 DUP2 MUL PUSH2 0x100 PUSH1 0x1 PUSH1 0xA8 SHL SUB NOT DUP6 AND OR DUP6 SSTORE DUP2 DUP6 MSTORE PUSH1 0x1 PUSH1 0x20 DUP2 SWAP1 MSTORE PUSH1 0x40 DUP1 DUP8 KECCAK256 DUP1 SLOAD PUSH1 0xFF NOT AND SWAP1 SWAP3 OR SWAP1 SWAP2 SSTORE MLOAD SWAP4 DIV SWAP2 SWAP1 SWAP2 AND SWAP3 SWAP1 SWAP2 DUP4 SWAP2 PUSH32 0xF8CCB027DFCD135E000E9D45E6CC2D662578A8825D4C45B5E32E0ADF67E79EC6 SWAP2 LOG3 POP POP JUMP JUMPDEST PUSH1 0x0 SLOAD PUSH1 0xFF AND ISZERO PUSH2 0xC97 JUMPI PUSH1 0x40 MLOAD PUSH3 0x461BCD PUSH1 0xE5 SHL DUP2 MSTORE PUSH1 0x20 PUSH1 0x4 DUP3 ADD MSTORE PUSH1 0x13 PUSH1 0x24 DUP3 ADD MSTORE PUSH19 0x105B1C9958591E481A5B9A5D1A585B1A5E9959 PUSH1 0x6A SHL PUSH1 0x44 DUP3 ADD MSTORE PUSH1 0x64 ADD PUSH2 0x517 JUMP JUMPDEST PUSH1 0x0 DUP1 SLOAD PUSH20 0xFCD0191364967C9E5052488208533D62C10805FA DUP3 MSTORE PUSH1 0x1 PUSH1 0x20 DUP2 SWAP1 MSTORE PUSH32 0x87DFB223DA1C78EC706ACF158E88F571A69E268117DF6E3E4AF970AD7F291459 DUP1 SLOAD PUSH1 0xFF NOT AND SWAP1 SWAP2 OR SWAP1 SSTORE PUSH1 0x1 PUSH1 0x1 PUSH1 0xA8 SHL SUB NOT AND PUSH21 0xFCD0191364967C9E5052488208533D62C10805FA01 OR SWAP1 SSTORE JUMP JUMPDEST PUSH1 0x0 DUP1 SLOAD PUSH1 0xFF AND PUSH2 0xD2D JUMPI PUSH1 0x40 MLOAD PUSH3 0x461BCD PUSH1 0xE5 SHL DUP2 MSTORE PUSH1 0x4 ADD PUSH2 0x517 SWAP1 PUSH2 0x1B1A JUMP JUMPDEST POP PUSH1 0x1 PUSH1 0x1 PUSH1 0xA0 SHL SUB DUP2 AND PUSH1 0x0 SWAP1 DUP2 MSTORE PUSH1 0x4 PUSH1 0x20 MSTORE PUSH1 0x40 SWAP1 KECCAK256 SLOAD PUSH1 0xFF AND JUMPDEST SWAP2 SWAP1 POP JUMP JUMPDEST PUSH1 0x0 SLOAD PUSH2 0x100 SWAP1 DIV PUSH1 0x1 PUSH1 0x1 PUSH1 0xA0 SHL SUB AND CALLER EQ DUP1 PUSH2 0xD7D JUMPI POP CALLER PUSH1 0x0 SWAP1 DUP2 MSTORE PUSH1 0x1 PUSH1 0x20 MSTORE PUSH1 0x40 SWAP1 KECCAK256 SLOAD PUSH1 0xFF AND JUMPDEST PUSH2 0xD99 JUMPI PUSH1 0x40 MLOAD PUSH3 0x461BCD PUSH1 0xE5 SHL DUP2 MSTORE PUSH1 0x4 ADD PUSH2 0x517 SWAP1 PUSH2 0x1A8D JUMP JUMPDEST PUSH1 0x0 SLOAD PUSH1 0xFF AND PUSH2 0xDBB JUMPI PUSH1 0x40 MLOAD PUSH3 0x461BCD PUSH1 0xE5 SHL DUP2 MSTORE PUSH1 0x4 ADD PUSH2 0x517 SWAP1 PUSH2 0x1B1A JUMP JUMPDEST PUSH1 0x1 PUSH1 0x1 PUSH1 0xA0 SHL SUB DUP4 AND PUSH2 0xE11 JUMPI PUSH1 0x40 MLOAD PUSH3 0x461BCD PUSH1 0xE5 SHL DUP2 MSTORE PUSH1 0x20 PUSH1 0x4 DUP3 ADD MSTORE PUSH1 0x1D PUSH1 0x24 DUP3 ADD MSTORE PUSH32 0x43616E6E6F7420626C6F636B6C697374207A65726F2061646472657373000000 PUSH1 0x44 DUP3 ADD MSTORE PUSH1 0x64 ADD PUSH2 0x517 JUMP JUMPDEST PUSH1 0x1 PUSH1 0x1 PUSH1 0xA0 SHL SUB DUP4 AND PUSH1 0x0 SWAP1 DUP2 MSTORE PUSH1 0x4 PUSH1 0x20 MSTORE PUSH1 0x40 SWAP1 KECCAK256 SLOAD PUSH1 0xFF AND ISZERO PUSH2 0xE7A JUMPI PUSH1 0x40 MLOAD PUSH3 0x461BCD PUSH1 0xE5 SHL DUP2 MSTORE PUSH1 0x20 PUSH1 0x4 DUP3 ADD MSTORE PUSH1 0x1A PUSH1 0x24 DUP3 ADD MSTORE PUSH32 0x57616C6C657420616C726561647920626C6F636B6C6973746564000000000000 PUSH1 0x44 DUP3 ADD MSTORE PUSH1 0x64 ADD PUSH2 0x517 JUMP JUMPDEST PUSH1 0x1 PUSH1 0x1 PUSH1 0xA0 SHL SUB DUP4 AND PUSH1 0x0 SWAP1 DUP2 MSTORE PUSH1 0x4 PUSH1 0x20 SWAP1 DUP2 MSTORE PUSH1 0x40 DUP1 DUP4 KECCAK256 DUP1 SLOAD PUSH1 0xFF NOT AND PUSH1 0x1 OR SWAP1 SSTORE PUSH1 0x5 DUP3 MSTORE DUP1 DUP4 KECCAK256 TIMESTAMP SWAP1 SSTORE PUSH1 0x6 SWAP1 SWAP2 MSTORE SWAP1 KECCAK256 PUSH2 0xEBC DUP3 DUP5 DUP4 PUSH2 0x1BF9 JUMP JUMPDEST POP PUSH1 0x7 DUP1 SLOAD PUSH1 0x1 PUSH1 0x1 PUSH1 0xA0 SHL SUB DUP6 AND PUSH1 0x0 DUP2 DUP2 MSTORE PUSH1 0x8 PUSH1 0x20 MSTORE PUSH1 0x40 DUP1 DUP3 KECCAK256 DUP5 SWAP1 SSTORE PUSH1 0x1 DUP5 ADD DUP6 SSTORE SWAP4 SWAP1 MSTORE PUSH32 0xA66CC928B5EDB82AF9BD49922954155AB7B0942694BEA4CE44661D9A8736C688 SWAP1 SWAP2 ADD DUP1 SLOAD PUSH1 0x1 PUSH1 0x1 PUSH1 0xA0 SHL SUB NOT AND DUP3 OR SWAP1 SSTORE SWAP1 MLOAD PUSH32 0x6CC60BCE05CD62D4ECC0B1B0C2EDF39A939F3E2E8DF97F2AB44E003E2B690F8D SWAP1 PUSH2 0xA46 SWAP1 DUP6 SWAP1 DUP6 SWAP1 TIMESTAMP SWAP1 PUSH2 0x1CB9 JUMP JUMPDEST PUSH1 0x0 SLOAD PUSH2 0x100 SWAP1 DIV PUSH1 0x1 PUSH1 0x1 PUSH1 0xA0 SHL SUB AND CALLER EQ DUP1 PUSH2 0xF7A JUMPI POP CALLER PUSH1 0x0 SWAP1 DUP2 MSTORE PUSH1 0x1 PUSH1 0x20 MSTORE PUSH1 0x40 SWAP1 KECCAK256 SLOAD PUSH1 0xFF AND JUMPDEST PUSH2 0xF96 JUMPI PUSH1 0x40 MLOAD PUSH3 0x461BCD PUSH1 0xE5 SHL DUP2 MSTORE PUSH1 0x4 ADD PUSH2 0x517 SWAP1 PUSH2 0x1A8D JUMP JUMPDEST PUSH1 0x0 SLOAD PUSH1 0xFF AND PUSH2 0xFB8 JUMPI PUSH1 0x40 MLOAD PUSH3 0x461BCD PUSH1 0xE5 SHL DUP2 MSTORE PUSH1 0x4 ADD PUSH2 0x517 SWAP1 PUSH2 0x1B1A JUMP JUMPDEST PUSH1 0x7 SLOAD PUSH1 0x0 JUMPDEST DUP2 DUP2 LT ISZERO PUSH2 0x104E JUMPI PUSH1 0x0 PUSH1 0x7 DUP3 DUP2 SLOAD DUP2 LT PUSH2 0xFDB JUMPI PUSH2 0xFDB PUSH2 0x1B69 JUMP JUMPDEST PUSH1 0x0 SWAP2 DUP3 MSTORE PUSH1 0x20 DUP1 DUP4 KECCAK256 SWAP1 SWAP2 ADD SLOAD PUSH1 0x1 PUSH1 0x1 PUSH1 0xA0 SHL SUB AND DUP1 DUP4 MSTORE PUSH1 0x4 DUP3 MSTORE PUSH1 0x40 DUP1 DUP5 KECCAK256 DUP1 SLOAD PUSH1 0xFF NOT AND SWAP1 SSTORE PUSH1 0x5 DUP4 MSTORE DUP1 DUP5 KECCAK256 DUP5 SWAP1 SSTORE PUSH1 0x6 SWAP1 SWAP3 MSTORE SWAP1 DUP3 KECCAK256 SWAP1 SWAP3 POP PUSH2 0x1024 SWAP2 PUSH2 0x1799 JUMP JUMPDEST PUSH1 0x1 PUSH1 0x1 PUSH1 0xA0 SHL SUB AND PUSH1 0x0 SWAP1 DUP2 MSTORE PUSH1 0x8 PUSH1 0x20 MSTORE PUSH1 0x40 DUP2 KECCAK256 SSTORE DUP1 PUSH2 0x1046 DUP2 PUSH2 0x1CF2 JUMP JUMPDEST SWAP2 POP POP PUSH2 0xFBE JUMP JUMPDEST POP PUSH2 0x105B PUSH1 0x7 PUSH1 0x0 PUSH2 0x17D6 JUMP JUMPDEST PUSH1 0x40 MLOAD TIMESTAMP DUP2 MSTORE PUSH32 0xDDCDCEA11D845D60E4D8A91F78D9C4EE80BE729FCDED0E0A220BC3B49BA18A29 SWAP1 PUSH1 0x20 ADD PUSH1 0x40 MLOAD DUP1 SWAP2 SUB SWAP1 LOG1 POP JUMP JUMPDEST PUSH1 0x0 SLOAD PUSH2 0x100 SWAP1 DIV PUSH1 0x1 PUSH1 0x1 PUSH1 0xA0 SHL SUB AND CALLER EQ DUP1 PUSH2 0x10BE JUMPI POP CALLER PUSH1 0x0 SWAP1 DUP2 MSTORE PUSH1 0x1 PUSH1 0x20 MSTORE PUSH1 0x40 SWAP1 KECCAK256 SLOAD PUSH1 0xFF AND JUMPDEST PUSH2 0x10DA JUMPI PUSH1 0x40 MLOAD PUSH3 0x461BCD PUSH1 0xE5 SHL DUP2 MSTORE PUSH1 0x4 ADD PUSH2 0x517 SWAP1 PUSH2 0x1A8D JUMP JUMPDEST PUSH1 0x0 SLOAD PUSH1 0xFF AND PUSH2 0x10FC JUMPI PUSH1 0x40 MLOAD PUSH3 0x461BCD PUSH1 0xE5 SHL DUP2 MSTORE PUSH1 0x4 ADD PUSH2 0x517 SWAP1 PUSH2 0x1B1A JUMP JUMPDEST DUP3 DUP2 EQ PUSH2 0x1144 JUMPI PUSH1 0x40 MLOAD PUSH3 0x461BCD PUSH1 0xE5 SHL DUP2 MSTORE PUSH1 0x20 PUSH1 0x4 DUP3 ADD MSTORE PUSH1 0x16 PUSH1 0x24 DUP3 ADD MSTORE PUSH22 0x82E4E4C2F2E640D8CADCCEE8D040DAD2E6DAC2E8C6D PUSH1 0x53 SHL PUSH1 0x44 DUP3 ADD MSTORE PUSH1 0x64 ADD PUSH2 0x517 JUMP JUMPDEST DUP3 PUSH2 0x1180 JUMPI PUSH1 0x40 MLOAD PUSH3 0x461BCD PUSH1 0xE5 SHL DUP2 MSTORE PUSH1 0x20 PUSH1 0x4 DUP3 ADD MSTORE PUSH1 0xC PUSH1 0x24 DUP3 ADD MSTORE PUSH12 0x456D70747920617272617973 PUSH1 0xA0 SHL PUSH1 0x44 DUP3 ADD MSTORE PUSH1 0x64 ADD PUSH2 0x517 JUMP JUMPDEST PUSH1 0x64 DUP4 GT ISZERO PUSH2 0x11C3 JUMPI PUSH1 0x40 MLOAD PUSH3 0x461BCD PUSH1 0xE5 SHL DUP2 MSTORE PUSH1 0x20 PUSH1 0x4 DUP3 ADD MSTORE PUSH1 0xF PUSH1 0x24 DUP3 ADD MSTORE PUSH15 0x426174636820746F6F206C61726765 PUSH1 0x88 SHL PUSH1 0x44 DUP3 ADD MSTORE PUSH1 0x64 ADD PUSH2 0x517 JUMP JUMPDEST PUSH1 0x0 JUMPDEST DUP4 DUP2 LT ISZERO PUSH2 0x1377 JUMPI PUSH1 0x0 DUP6 DUP6 DUP4 DUP2 DUP2 LT PUSH2 0x11E2 JUMPI PUSH2 0x11E2 PUSH2 0x1B69 JUMP JUMPDEST SWAP1 POP PUSH1 0x20 MUL ADD PUSH1 0x20 DUP2 ADD SWAP1 PUSH2 0x11F7 SWAP2 SWAP1 PUSH2 0x1820 JUMP JUMPDEST SWAP1 POP PUSH1 0x1 PUSH1 0x1 PUSH1 0xA0 SHL SUB DUP2 AND ISZERO DUP1 PUSH2 0x1227 JUMPI POP PUSH1 0x1 PUSH1 0x1 PUSH1 0xA0 SHL SUB DUP2 AND PUSH1 0x0 SWAP1 DUP2 MSTORE PUSH1 0x4 PUSH1 0x20 MSTORE PUSH1 0x40 SWAP1 KECCAK256 SLOAD PUSH1 0xFF AND JUMPDEST ISZERO PUSH2 0x1232 JUMPI POP PUSH2 0x1365 JUMP JUMPDEST PUSH1 0x1 PUSH1 0x1 PUSH1 0xA0 SHL SUB DUP2 AND PUSH1 0x0 SWAP1 DUP2 MSTORE PUSH1 0x4 PUSH1 0x20 SWAP1 DUP2 MSTORE PUSH1 0x40 DUP1 DUP4 KECCAK256 DUP1 SLOAD PUSH1 0xFF NOT AND PUSH1 0x1 OR SWAP1 SSTORE PUSH1 0x5 SWAP1 SWAP2 MSTORE SWAP1 KECCAK256 TIMESTAMP SWAP1 SSTORE DUP4 DUP4 DUP4 DUP2 DUP2 LT PUSH2 0x1274 JUMPI PUSH2 0x1274 PUSH2 0x1B69 JUMP JUMPDEST SWAP1 POP PUSH1 0x20 MUL DUP2 ADD SWAP1 PUSH2 0x1286 SWAP2 SWAP1 PUSH2 0x1D0B JUMP JUMPDEST PUSH1 0x1 PUSH1 0x1 PUSH1 0xA0 SHL SUB DUP4 AND PUSH1 0x0 SWAP1 DUP2 MSTORE PUSH1 0x6 PUSH1 0x20 MSTORE PUSH1 0x40 SWAP1 KECCAK256 SWAP2 PUSH2 0x12AA SWAP2 SWAP1 DUP4 PUSH2 0x1BF9 JUMP JUMPDEST POP PUSH1 0x7 DUP1 SLOAD PUSH1 0x1 PUSH1 0x1 PUSH1 0xA0 SHL SUB DUP4 AND PUSH1 0x0 DUP2 DUP2 MSTORE PUSH1 0x8 PUSH1 0x20 MSTORE PUSH1 0x40 DUP2 KECCAK256 DUP4 SWAP1 SSTORE PUSH1 0x1 DUP4 ADD DUP5 SSTORE SWAP3 SWAP1 SWAP3 MSTORE PUSH32 0xA66CC928B5EDB82AF9BD49922954155AB7B0942694BEA4CE44661D9A8736C688 ADD DUP1 SLOAD PUSH1 0x1 PUSH1 0x1 PUSH1 0xA0 SHL SUB NOT AND DUP3 OR SWAP1 SSTORE PUSH32 0x6CC60BCE05CD62D4ECC0B1B0C2EDF39A939F3E2E8DF97F2AB44E003E2B690F8D DUP6 DUP6 DUP6 DUP2 DUP2 LT PUSH2 0x1339 JUMPI PUSH2 0x1339 PUSH2 0x1B69 JUMP JUMPDEST SWAP1 POP PUSH1 0x20 MUL DUP2 ADD SWAP1 PUSH2 0x134B SWAP2 SWAP1 PUSH2 0x1D0B JUMP JUMPDEST TIMESTAMP PUSH1 0x40 MLOAD PUSH2 0x135B SWAP4 SWAP3 SWAP2 SWAP1 PUSH2 0x1CB9 JUMP JUMPDEST PUSH1 0x40 MLOAD DUP1 SWAP2 SUB SWAP1 LOG2 POP JUMPDEST DUP1 PUSH2 0x136F DUP2 PUSH2 0x1CF2 JUMP JUMPDEST SWAP2 POP POP PUSH2 0x11C6 JUMP JUMPDEST POP POP POP POP POP JUMP JUMPDEST PUSH1 0x7 SLOAD PUSH1 0x60 SWAP1 DUP4 LT PUSH2 0x13C9 JUMPI PUSH1 0x40 MLOAD PUSH3 0x461BCD PUSH1 0xE5 SHL DUP2 MSTORE PUSH1 0x20 PUSH1 0x4 DUP3 ADD MSTORE PUSH1 0x14 PUSH1 0x24 DUP3 ADD MSTORE PUSH20 0x4F6666736574206F7574206F6620626F756E6473 PUSH1 0x60 SHL PUSH1 0x44 DUP3 ADD MSTORE PUSH1 0x64 ADD PUSH2 0x517 JUMP JUMPDEST PUSH1 0x0 PUSH2 0x13D5 DUP4 DUP6 PUSH2 0x1D52 JUMP JUMPDEST PUSH1 0x7 SLOAD SWAP1 SWAP2 POP DUP2 GT ISZERO PUSH2 0x13E7 JUMPI POP PUSH1 0x7 SLOAD JUMPDEST PUSH1 0x0 PUSH2 0x13F3 DUP6 DUP4 PUSH2 0x1B56 JUMP JUMPDEST SWAP1 POP PUSH1 0x0 DUP2 PUSH8 0xFFFFFFFFFFFFFFFF DUP2 GT ISZERO PUSH2 0x1410 JUMPI PUSH2 0x1410 PUSH2 0x1B95 JUMP JUMPDEST PUSH1 0x40 MLOAD SWAP1 DUP1 DUP3 MSTORE DUP1 PUSH1 0x20 MUL PUSH1 0x20 ADD DUP3 ADD PUSH1 0x40 MSTORE DUP1 ISZERO PUSH2 0x1439 JUMPI DUP2 PUSH1 0x20 ADD PUSH1 0x20 DUP3 MUL DUP1 CALLDATASIZE DUP4 CALLDATACOPY ADD SWAP1 POP JUMPDEST POP SWAP1 POP PUSH1 0x0 JUMPDEST DUP3 DUP2 LT ISZERO PUSH2 0x14BD JUMPI PUSH1 0x7 PUSH2 0x1453 DUP3 DUP10 PUSH2 0x1D52 JUMP JUMPDEST DUP2 SLOAD DUP2 LT PUSH2 0x1463 JUMPI PUSH2 0x1463 PUSH2 0x1B69 JUMP JUMPDEST SWAP1 PUSH1 0x0 MSTORE PUSH1 0x20 PUSH1 0x0 KECCAK256 ADD PUSH1 0x0 SWAP1 SLOAD SWAP1 PUSH2 0x100 EXP SWAP1 DIV PUSH1 0x1 PUSH1 0x1 PUSH1 0xA0 SHL SUB AND DUP3 DUP3 DUP2 MLOAD DUP2 LT PUSH2 0x1493 JUMPI PUSH2 0x1493 PUSH2 0x1B69 JUMP JUMPDEST PUSH1 0x1 PUSH1 0x1 PUSH1 0xA0 SHL SUB SWAP1 SWAP3 AND PUSH1 0x20 SWAP3 DUP4 MUL SWAP2 SWAP1 SWAP2 ADD SWAP1 SWAP2 ADD MSTORE DUP1 PUSH2 0x14B5 DUP2 PUSH2 0x1CF2 JUMP JUMPDEST SWAP2 POP POP PUSH2 0x143F JUMP JUMPDEST POP SWAP6 SWAP5 POP POP POP POP POP JUMP JUMPDEST PUSH1 0x0 SLOAD PUSH2 0x100 SWAP1 DIV PUSH1 0x1 PUSH1 0x1 PUSH1 0xA0 SHL SUB AND CALLER EQ DUP1 PUSH2 0x14F4 JUMPI POP CALLER PUSH1 0x0 SWAP1 DUP2 MSTORE PUSH1 0x1 PUSH1 0x20 MSTORE PUSH1 0x40 SWAP1 KECCAK256 SLOAD PUSH1 0xFF AND JUMPDEST PUSH2 0x1510 JUMPI PUSH1 0x40 MLOAD PUSH3 0x461BCD PUSH1 0xE5 SHL DUP2 MSTORE PUSH1 0x4 ADD PUSH2 0x517 SWAP1 PUSH2 0x1A8D JUMP JUMPDEST PUSH1 0x0 SLOAD PUSH1 0xFF AND PUSH2 0x1532 JUMPI PUSH1 0x40 MLOAD PUSH3 0x461BCD PUSH1 0xE5 SHL DUP2 MSTORE PUSH1 0x4 ADD PUSH2 0x517 SWAP1 PUSH2 0x1B1A JUMP JUMPDEST DUP1 PUSH2 0x156D JUMPI PUSH1 0x40 MLOAD PUSH3 0x461BCD PUSH1 0xE5 SHL DUP2 MSTORE PUSH1 0x20 PUSH1 0x4 DUP3 ADD MSTORE PUSH1 0xB PUSH1 0x24 DUP3 ADD MSTORE PUSH11 0x456D707479206172726179 PUSH1 0xA8 SHL PUSH1 0x44 DUP3 ADD MSTORE PUSH1 0x64 ADD PUSH2 0x517 JUMP JUMPDEST PUSH1 0x64 DUP2 GT ISZERO PUSH2 0x15B0 JUMPI PUSH1 0x40 MLOAD PUSH3 0x461BCD PUSH1 0xE5 SHL DUP2 MSTORE PUSH1 0x20 PUSH1 0x4 DUP3 ADD MSTORE PUSH1 0xF PUSH1 0x24 DUP3 ADD MSTORE PUSH15 0x426174636820746F6F206C61726765 PUSH1 0x88 SHL PUSH1 0x44 DUP3 ADD MSTORE PUSH1 0x64 ADD PUSH2 0x517 JUMP JUMPDEST PUSH1 0x0 JUMPDEST DUP2 DUP2 LT ISZERO PUSH2 0x1794 JUMPI PUSH1 0x0 DUP4 DUP4 DUP4 DUP2 DUP2 LT PUSH2 0x15CF JUMPI PUSH2 0x15CF PUSH2 0x1B69 JUMP JUMPDEST SWAP1 POP PUSH1 0x20 MUL ADD PUSH1 0x20 DUP2 ADD SWAP1 PUSH2 0x15E4 SWAP2 SWAP1 PUSH2 0x1820 JUMP JUMPDEST PUSH1 0x1 PUSH1 0x1 PUSH1 0xA0 SHL SUB DUP2 AND PUSH1 0x0 SWAP1 DUP2 MSTORE PUSH1 0x4 PUSH1 0x20 MSTORE PUSH1 0x40 SWAP1 KECCAK256 SLOAD SWAP1 SWAP2 POP PUSH1 0xFF AND PUSH2 0x160D JUMPI POP PUSH2 0x1782 JUMP JUMPDEST PUSH1 0x1 PUSH1 0x1 PUSH1 0xA0 SHL SUB DUP2 AND PUSH1 0x0 SWAP1 DUP2 MSTORE PUSH1 0x4 PUSH1 0x20 SWAP1 DUP2 MSTORE PUSH1 0x40 DUP1 DUP4 KECCAK256 DUP1 SLOAD PUSH1 0xFF NOT AND SWAP1 SSTORE PUSH1 0x8 SWAP1 SWAP2 MSTORE DUP2 KECCAK256 SLOAD PUSH1 0x7 SLOAD SWAP1 SWAP2 SWAP1 PUSH2 0x164A SWAP1 PUSH1 0x1 SWAP1 PUSH2 0x1B56 JUMP JUMPDEST SWAP1 POP DUP1 DUP3 EQ PUSH2 0x16D2 JUMPI PUSH1 0x0 PUSH1 0x7 DUP3 DUP2 SLOAD DUP2 LT PUSH2 0x1668 JUMPI PUSH2 0x1668 PUSH2 0x1B69 JUMP JUMPDEST PUSH1 0x0 SWAP2 DUP3 MSTORE PUSH1 0x20 SWAP1 SWAP2 KECCAK256 ADD SLOAD PUSH1 0x7 DUP1 SLOAD PUSH1 0x1 PUSH1 0x1 PUSH1 0xA0 SHL SUB SWAP1 SWAP3 AND SWAP3 POP DUP3 SWAP2 DUP6 SWAP1 DUP2 LT PUSH2 0x1697 JUMPI PUSH2 0x1697 PUSH2 0x1B69 JUMP JUMPDEST PUSH1 0x0 SWAP2 DUP3 MSTORE PUSH1 0x20 DUP1 DUP4 KECCAK256 SWAP2 SWAP1 SWAP2 ADD DUP1 SLOAD PUSH1 0x1 PUSH1 0x1 PUSH1 0xA0 SHL SUB NOT AND PUSH1 0x1 PUSH1 0x1 PUSH1 0xA0 SHL SUB SWAP5 DUP6 AND OR SWAP1 SSTORE SWAP3 SWAP1 SWAP2 AND DUP2 MSTORE PUSH1 0x8 SWAP1 SWAP2 MSTORE PUSH1 0x40 SWAP1 KECCAK256 DUP3 SWAP1 SSTORE JUMPDEST PUSH1 0x7 DUP1 SLOAD DUP1 PUSH2 0x16E3 JUMPI PUSH2 0x16E3 PUSH2 0x1B7F JUMP JUMPDEST PUSH1 0x0 DUP3 DUP2 MSTORE PUSH1 0x20 DUP1 DUP3 KECCAK256 DUP4 ADD PUSH1 0x0 NOT SWAP1 DUP2 ADD DUP1 SLOAD PUSH1 0x1 PUSH1 0x1 PUSH1 0xA0 SHL SUB NOT AND SWAP1 SSTORE SWAP1 SWAP3 ADD SWAP1 SWAP3 SSTORE PUSH1 0x1 PUSH1 0x1 PUSH1 0xA0 SHL SUB DUP6 AND DUP3 MSTORE PUSH1 0x8 DUP2 MSTORE PUSH1 0x40 DUP1 DUP4 KECCAK256 DUP4 SWAP1 SSTORE PUSH1 0x5 DUP3 MSTORE DUP1 DUP4 KECCAK256 DUP4 SWAP1 SSTORE PUSH1 0x6 SWAP1 SWAP2 MSTORE DUP2 KECCAK256 PUSH2 0x173B SWAP2 PUSH2 0x1799 JUMP JUMPDEST DUP3 PUSH1 0x1 PUSH1 0x1 PUSH1 0xA0 SHL SUB AND PUSH32 0x740DEC1C486DCABE21D37C6D335721BEF4BBD5CD295CC5879C5481006C26B906 TIMESTAMP PUSH1 0x40 MLOAD PUSH2 0x1776 SWAP2 DUP2 MSTORE PUSH1 0x20 ADD SWAP1 JUMP JUMPDEST PUSH1 0x40 MLOAD DUP1 SWAP2 SUB SWAP1 LOG2 POP POP POP JUMPDEST DUP1 PUSH2 0x178C DUP2 PUSH2 0x1CF2 JUMP JUMPDEST SWAP2 POP POP PUSH2 0x15B3 JUMP JUMPDEST POP POP POP JUMP JUMPDEST POP DUP1 SLOAD PUSH2 0x17A5 SWAP1 PUSH2 0x1AE0 JUMP JUMPDEST PUSH1 0x0 DUP3 SSTORE DUP1 PUSH1 0x1F LT PUSH2 0x17B5 JUMPI POP POP JUMP JUMPDEST PUSH1 0x1F ADD PUSH1 0x20 SWAP1 DIV SWAP1 PUSH1 0x0 MSTORE PUSH1 0x20 PUSH1 0x0 KECCAK256 SWAP1 DUP2 ADD SWAP1 PUSH2 0x17D3 SWAP2 SWAP1 PUSH2 0x17F0 JUMP JUMPDEST POP JUMP JUMPDEST POP DUP1 SLOAD PUSH1 0x0 DUP3 SSTORE SWAP1 PUSH1 0x0 MSTORE PUSH1 0x20 PUSH1 0x0 KECCAK256 SWAP1 DUP2 ADD SWAP1 PUSH2 0x17D3 SWAP2 SWAP1 JUMPDEST JUMPDEST DUP1 DUP3 GT ISZERO PUSH2 0x1805 JUMPI PUSH1 0x0 DUP2 SSTORE PUSH1 0x1 ADD PUSH2 0x17F1 JUMP JUMPDEST POP SWAP1 JUMP JUMPDEST DUP1 CALLDATALOAD PUSH1 0x1 PUSH1 0x1 PUSH1 0xA0 SHL SUB DUP2 AND DUP2 EQ PUSH2 0xD4B JUMPI PUSH1 0x0 DUP1 REVERT JUMPDEST PUSH1 0x0 PUSH1 0x20 DUP3 DUP5 SUB SLT ISZERO PUSH2 0x1832 JUMPI PUSH1 0x0 DUP1 REVERT JUMPDEST PUSH2 0x183B DUP3 PUSH2 0x1809 JUMP JUMPDEST SWAP4 SWAP3 POP POP POP JUMP JUMPDEST DUP4 ISZERO ISZERO DUP2 MSTORE PUSH1 0x0 PUSH1 0x20 DUP5 DUP2 DUP5 ADD MSTORE PUSH1 0x60 PUSH1 0x40 DUP5 ADD MSTORE DUP4 MLOAD DUP1 PUSH1 0x60 DUP6 ADD MSTORE PUSH1 0x0 JUMPDEST DUP2 DUP2 LT ISZERO PUSH2 0x187E JUMPI DUP6 DUP2 ADD DUP4 ADD MLOAD DUP6 DUP3 ADD PUSH1 0x80 ADD MSTORE DUP3 ADD PUSH2 0x1862 JUMP JUMPDEST POP PUSH1 0x0 PUSH1 0x80 DUP3 DUP7 ADD ADD MSTORE PUSH1 0x80 PUSH1 0x1F NOT PUSH1 0x1F DUP4 ADD AND DUP6 ADD ADD SWAP3 POP POP POP SWAP5 SWAP4 POP POP POP POP JUMP JUMPDEST PUSH1 0x20 DUP1 DUP3 MSTORE DUP3 MLOAD DUP3 DUP3 ADD DUP2 SWAP1 MSTORE PUSH1 0x0 SWAP2 SWAP1 DUP5 DUP3 ADD SWAP1 PUSH1 0x40 DUP6 ADD SWAP1 DUP5 JUMPDEST DUP2 DUP2 LT ISZERO PUSH2 0x18E2 JUMPI DUP4 MLOAD PUSH1 0x1 PUSH1 0x1 PUSH1 0xA0 SHL SUB AND DUP4 MSTORE SWAP3 DUP5 ADD SWAP3 SWAP2 DUP5 ADD SWAP2 PUSH1 0x1 ADD PUSH2 0x18BD JUMP JUMPDEST POP SWAP1 SWAP7 SWAP6 POP POP POP POP POP POP JUMP JUMPDEST PUSH1 0x0 DUP1 PUSH1 0x0 PUSH1 0x40 DUP5 DUP7 SUB SLT ISZERO PUSH2 0x1903 JUMPI PUSH1 0x0 DUP1 REVERT JUMPDEST PUSH2 0x190C DUP5 PUSH2 0x1809 JUMP JUMPDEST SWAP3 POP PUSH1 0x20 DUP5 ADD CALLDATALOAD PUSH8 0xFFFFFFFFFFFFFFFF DUP1 DUP3 GT ISZERO PUSH2 0x1929 JUMPI PUSH1 0x0 DUP1 REVERT JUMPDEST DUP2 DUP7 ADD SWAP2 POP DUP7 PUSH1 0x1F DUP4 ADD SLT PUSH2 0x193D JUMPI PUSH1 0x0 DUP1 REVERT JUMPDEST DUP2 CALLDATALOAD DUP2 DUP2 GT ISZERO PUSH2 0x194C JUMPI PUSH1 0x0 DUP1 REVERT JUMPDEST DUP8 PUSH1 0x20 DUP3 DUP6 ADD ADD GT ISZERO PUSH2 0x195E JUMPI PUSH1 0x0 DUP1 REVERT JUMPDEST PUSH1 0x20 DUP4 ADD SWAP5 POP DUP1 SWAP4 POP POP POP POP SWAP3 POP SWAP3 POP SWAP3 JUMP JUMPDEST PUSH1 0x0 DUP1 DUP4 PUSH1 0x1F DUP5 ADD SLT PUSH2 0x1983 JUMPI PUSH1 0x0 DUP1 REVERT JUMPDEST POP DUP2 CALLDATALOAD PUSH8 0xFFFFFFFFFFFFFFFF DUP2 GT ISZERO PUSH2 0x199B JUMPI PUSH1 0x0 DUP1 REVERT JUMPDEST PUSH1 0x20 DUP4 ADD SWAP2 POP DUP4 PUSH1 0x20 DUP3 PUSH1 0x5 SHL DUP6 ADD ADD GT ISZERO PUSH2 0x19B6 JUMPI PUSH1 0x0 DUP1 REVERT JUMPDEST SWAP3 POP SWAP3 SWAP1 POP JUMP JUMPDEST PUSH1 0x0 DUP1 PUSH1 0x0 DUP1 PUSH1 0x40 DUP6 DUP8 SUB SLT ISZERO PUSH2 0x19D3 JUMPI PUSH1 0x0 DUP1 REVERT JUMPDEST DUP5 CALLDATALOAD PUSH8 0xFFFFFFFFFFFFFFFF DUP1 DUP3 GT ISZERO PUSH2 0x19EB JUMPI PUSH1 0x0 DUP1 REVERT JUMPDEST PUSH2 0x19F7 DUP9 DUP4 DUP10 ADD PUSH2 0x1971 JUMP JUMPDEST SWAP1 SWAP7 POP SWAP5 POP PUSH1 0x20 DUP8 ADD CALLDATALOAD SWAP2 POP DUP1 DUP3 GT ISZERO PUSH2 0x1A10 JUMPI PUSH1 0x0 DUP1 REVERT JUMPDEST POP PUSH2 0x1A1D DUP8 DUP3 DUP9 ADD PUSH2 0x1971 JUMP JUMPDEST SWAP6 SWAP9 SWAP5 SWAP8 POP SWAP6 POP POP POP POP JUMP JUMPDEST PUSH1 0x0 DUP1 PUSH1 0x40 DUP4 DUP6 SUB SLT ISZERO PUSH2 0x1A3C JUMPI PUSH1 0x0 DUP1 REVERT JUMPDEST POP POP DUP1 CALLDATALOAD SWAP3 PUSH1 0x20 SWAP1 SWAP2 ADD CALLDATALOAD SWAP2 POP JUMP JUMPDEST PUSH1 0x0 DUP1 PUSH1 0x20 DUP4 DUP6 SUB SLT ISZERO PUSH2 0x1A5E JUMPI PUSH1 0x0 DUP1 REVERT JUMPDEST DUP3 CALLDATALOAD PUSH8 0xFFFFFFFFFFFFFFFF DUP2 GT ISZERO PUSH2 0x1A75 JUMPI PUSH1 0x0 DUP1 REVERT JUMPDEST PUSH2 0x1A81 DUP6 DUP3 DUP7 ADD PUSH2 0x1971 JUMP JUMPDEST SWAP1 SWAP7 SWAP1 SWAP6 POP SWAP4 POP POP POP POP JUMP JUMPDEST PUSH1 0x20 DUP1 DUP3 MSTORE PUSH1 0xA SWAP1 DUP3 ADD MSTORE PUSH10 0x41646D696E206F6E6C79 PUSH1 0xB0 SHL PUSH1 0x40 DUP3 ADD MSTORE PUSH1 0x60 ADD SWAP1 JUMP JUMPDEST PUSH1 0x20 DUP1 DUP3 MSTORE PUSH1 0x15 SWAP1 DUP3 ADD MSTORE PUSH21 0x496E76616C69642061646D696E2061646472657373 PUSH1 0x58 SHL PUSH1 0x40 DUP3 ADD MSTORE PUSH1 0x60 ADD SWAP1 JUMP JUMPDEST PUSH1 0x1 DUP2 DUP2 SHR SWAP1 DUP3 AND DUP1 PUSH2 0x1AF4 JUMPI PUSH1 0x7F DUP3 AND SWAP2 POP JUMPDEST PUSH1 0x20 DUP3 LT DUP2 SUB PUSH2 0x1B14 JUMPI PUSH4 0x4E487B71 PUSH1 0xE0 SHL PUSH1 0x0 MSTORE PUSH1 0x22 PUSH1 0x4 MSTORE PUSH1 0x24 PUSH1 0x0 REVERT JUMPDEST POP SWAP2 SWAP1 POP JUMP JUMPDEST PUSH1 0x20 DUP1 DUP3 MSTORE PUSH1 0xC SWAP1 DUP3 ADD MSTORE PUSH12 0x139BDD081A5B9A5D081E595D PUSH1 0xA2 SHL PUSH1 0x40 DUP3 ADD MSTORE PUSH1 0x60 ADD SWAP1 JUMP JUMPDEST PUSH4 0x4E487B71 PUSH1 0xE0 SHL PUSH1 0x0 MSTORE PUSH1 0x11 PUSH1 0x4 MSTORE PUSH1 0x24 PUSH1 0x0 REVERT JUMPDEST DUP2 DUP2 SUB DUP2 DUP2 GT ISZERO PUSH2 0x6D8 JUMPI PUSH2 0x6D8 PUSH2 0x1B40 JUMP JUMPDEST PUSH4 0x4E487B71 PUSH1 0xE0 SHL PUSH1 0x0 MSTORE PUSH1 0x32 PUSH1 0x4 MSTORE PUSH1 0x24 PUSH1 0x0 REVERT JUMPDEST PUSH4 0x4E487B71 PUSH1 0xE0 SHL PUSH1 0x0 MSTORE PUSH1 0x31 PUSH1 0x4 MSTORE PUSH1 0x24 PUSH1 0x0 REVERT JUMPDEST PUSH4 0x4E487B71 PUSH1 0xE0 SHL PUSH1 0x0 MSTORE PUSH1 0x41 PUSH1 0x4 MSTORE PUSH1 0x24 PUSH1 0x0 REVERT JUMPDEST PUSH1 0x1F DUP3 GT ISZERO PUSH2 0x1794 JUMPI PUSH1 0x0 DUP2 DUP2 MSTORE PUSH1 0x20 DUP2 KECCAK256 PUSH1 0x1F DUP6 ADD PUSH1 0x5 SHR DUP2 ADD PUSH1 0x20 DUP7 LT ISZERO PUSH2 0x1BD2 JUMPI POP DUP1 JUMPDEST PUSH1 0x1F DUP6 ADD PUSH1 0x5 SHR DUP3 ADD SWAP2 POP JUMPDEST DUP2 DUP2 LT ISZERO PUSH2 0x1BF1 JUMPI DUP3 DUP2 SSTORE PUSH1 0x1 ADD PUSH2 0x1BDE JUMP JUMPDEST POP POP POP POP POP POP JUMP JUMPDEST PUSH8 0xFFFFFFFFFFFFFFFF DUP4 GT ISZERO PUSH2 0x1C11 JUMPI PUSH2 0x1C11 PUSH2 0x1B95 JUMP JUMPDEST PUSH2 0x1C25 DUP4 PUSH2 0x1C1F DUP4 SLOAD PUSH2 0x1AE0 JUMP JUMPDEST DUP4 PUSH2 0x1BAB JUMP JUMPDEST PUSH1 0x0 PUSH1 0x1F DUP5 GT PUSH1 0x1 DUP2 EQ PUSH2 0x1C59 JUMPI PUSH1 0x0 DUP6 ISZERO PUSH2 0x1C41 JUMPI POP DUP4 DUP3 ADD CALLDATALOAD JUMPDEST PUSH1 0x0 NOT PUSH1 0x3 DUP8 SWAP1 SHL SHR NOT AND PUSH1 0x1 DUP7 SWAP1 SHL OR DUP4 SSTORE PUSH2 0x1377 JUMP JUMPDEST PUSH1 0x0 DUP4 DUP2 MSTORE PUSH1 0x20 SWAP1 KECCAK256 PUSH1 0x1F NOT DUP7 AND SWAP1 DUP4 JUMPDEST DUP3 DUP2 LT ISZERO PUSH2 0x1C8A JUMPI DUP7 DUP6 ADD CALLDATALOAD DUP3 SSTORE PUSH1 0x20 SWAP5 DUP6 ADD SWAP5 PUSH1 0x1 SWAP1 SWAP3 ADD SWAP2 ADD PUSH2 0x1C6A JUMP JUMPDEST POP DUP7 DUP3 LT ISZERO PUSH2 0x1CA7 JUMPI PUSH1 0x0 NOT PUSH1 0xF8 DUP9 PUSH1 0x3 SHL AND SHR NOT DUP5 DUP8 ADD CALLDATALOAD AND DUP2 SSTORE JUMPDEST POP POP PUSH1 0x1 DUP6 PUSH1 0x1 SHL ADD DUP4 SSTORE POP POP POP POP POP JUMP JUMPDEST PUSH1 0x40 DUP2 MSTORE DUP3 PUSH1 0x40 DUP3 ADD MSTORE DUP3 DUP5 PUSH1 0x60 DUP4 ADD CALLDATACOPY PUSH1 0x0 PUSH1 0x60 DUP5 DUP4 ADD ADD MSTORE PUSH1 0x0 PUSH1 0x60 PUSH1 0x1F NOT PUSH1 0x1F DUP7 ADD AND DUP4 ADD ADD SWAP1 POP DUP3 PUSH1 0x20 DUP4 ADD MSTORE SWAP5 SWAP4 POP POP POP POP JUMP JUMPDEST PUSH1 0x0 PUSH1 0x1 DUP3 ADD PUSH2 0x1D04 JUMPI PUSH2 0x1D04 PUSH2 0x1B40 JUMP JUMPDEST POP PUSH1 0x1 ADD SWAP1 JUMP JUMPDEST PUSH1 0x0 DUP1 DUP4 CALLDATALOAD PUSH1 0x1E NOT DUP5 CALLDATASIZE SUB ADD DUP2 SLT PUSH2 0x1D22 JUMPI PUSH1 0x0 DUP1 REVERT JUMPDEST DUP4 ADD DUP1 CALLDATALOAD SWAP2 POP PUSH8 0xFFFFFFFFFFFFFFFF DUP3 GT ISZERO PUSH2 0x1D3D JUMPI PUSH1 0x0 DUP1 REVERT JUMPDEST PUSH1 0x20 ADD SWAP2 POP CALLDATASIZE DUP2 SWAP1 SUB DUP3 SGT ISZERO PUSH2 0x19B6 JUMPI PUSH1 0x0 DUP1 REVERT JUMPDEST DUP1 DUP3 ADD DUP1 DUP3 GT ISZERO PUSH2 0x6D8 JUMPI PUSH2 0x6D8 PUSH2 0x1B40 JUMP INVALID LOG2 PUSH5 0x6970667358 0x22 SLT KECCAK256 XOR 0xE9 0x2A LOG1 SELFDESTRUCT DUP3 0xD6 AND 0xE LOG0 SWAP7 0x25 LOG1 PUSH21 0x2E3D4BE838A7F0A95D2C6D5DAB1899AAB80F64736F PUSH13 0x63430008110033000000000000 "
				},
				"gasEstimates": {
					"creation": {
						"codeDepositCost": "1515800",
						"executionCost": "1582",
						"totalCost": "1517382"
					},
					"external": {
						"BronzeValidatorStaking()": "253",
						"GoldValidatorStaking()": "295",
						"MaxValidators()": "249",
						"MinimalStakingCoin()": "295",
						"PlatinumValidatorStaking()": "251",
						"ProposalAddr()": "327",
						"PunishContractAddr()": "328",
						"SilverValidatorStaking()": "252",
						"SlashingContractAddr()": "306",
						"StakingLockPeriod()": "248",
						"ValidatorContractAddr()": "306",
						"WalletBlocklistAddr()": "283",
						"addAdmin(address)": "32495",
						"addToBlocklist(address,string)": "infinite",
						"addToBlocklistBatch(address[],string[])": "infinite",
						"admin()": "2458",
						"admins(address)": "2665",
						"clearBlocklist()": "infinite",
						"creatorPartPercent()": "317",
						"deinitialize()": "28822",
						"extraRewardsPerBlock()": "274",
						"getAllBlocklisted()": "infinite",
						"getBlocklistCount()": "2326",
						"getBlocklistInfo(address)": "infinite",
						"getBlocklistedPaginated(uint256,uint256)": "infinite",
						"initialize()": "50825",
						"initialized()": "2356",
						"isAdmin(address)": "4874",
						"isBlocklisted(address)": "infinite",
						"minimumValidatorStaking()": "231",
						"removeAdmin(address)": "34573",
						"removeFromBlocklist(address)": "infinite",
						"removeFromBlocklistBatch(address[])": "infinite",
						"rewardFund()": "2372",
						"setAdmin(address)": "54854",
						"stakerPartPercent()": "273",
						"totalRewards()": "2375",
						"validatorPartPercent()": "296"
					}
				},
				"methodIdentifiers": {
					"BronzeValidatorStaking()": "0a0b5e51",
					"GoldValidatorStaking()": "d5074883",
					"MaxValidators()": "c967f90f",
					"MinimalStakingCoin()": "be645692",
					"PlatinumValidatorStaking()": "cad0ebf1",
					"ProposalAddr()": "6233be5d",
					"PunishContractAddr()": "1b5e358c",
					"SilverValidatorStaking()": "32dc3b94",
					"SlashingContractAddr()": "182637b8",
					"StakingLockPeriod()": "db78dd28",
					"ValidatorContractAddr()": "3a061bd3",
					"WalletBlocklistAddr()": "591271f9",
					"addAdmin(address)": "70480275",
					"addToBlocklist(address,string)": "a314637e",
					"addToBlocklistBatch(address[],string[])": "c47ca91b",
					"admin()": "f851a440",
					"admins(address)": "429b62e5",
					"clearBlocklist()": "a39774a9",
					"creatorPartPercent()": "daa77ea2",
					"deinitialize()": "1584589e",
					"extraRewardsPerBlock()": "8ae53dbd",
					"getAllBlocklisted()": "4463ecf3",
					"getBlocklistCount()": "989cf56c",
					"getBlocklistInfo(address)": "31a2cac9",
					"getBlocklistedPaginated(uint256,uint256)": "ebf8868d",
					"initialize()": "8129fc1c",
					"initialized()": "158ef93e",
					"isAdmin(address)": "24d7806c",
					"isBlocklisted(address)": "8e204c43",
					"minimumValidatorStaking()": "0976c65d",
					"removeAdmin(address)": "1785f53c",
					"removeFromBlocklist(address)": "592ca850",
					"removeFromBlocklistBatch(address[])": "fc3e90e3",
					"rewardFund()": "efe22266",
					"setAdmin(address)": "704b6c02",
					"stakerPartPercent()": "cd779d21",
					"totalRewards()": "0e15561a",
					"validatorPartPercent()": "42127ee7"
				}
			},
			"storageLayout": {
				"storage": [
					{
						"astId": 3,
						"contract": "WalletBlocklist.sol:WalletBlocklist",
						"label": "initialized",
						"offset": 0,
						"slot": "0",
						"type": "t_bool"
					},
					{
						"astId": 5,
						"contract": "WalletBlocklist.sol:WalletBlocklist",
						"label": "admin",
						"offset": 1,
						"slot": "0",
						"type": "t_address"
					},
					{
						"astId": 9,
						"contract": "WalletBlocklist.sol:WalletBlocklist",
						"label": "admins",
						"offset": 0,
						"slot": "1",
						"type": "t_mapping(t_address,t_bool)"
					},
					{
						"astId": 79,
						"contract": "WalletBlocklist.sol:WalletBlocklist",
						"label": "rewardFund",
						"offset": 0,
						"slot": "2",
						"type": "t_uint256"
					},
					{
						"astId": 81,
						"contract": "WalletBlocklist.sol:WalletBlocklist",
						"label": "totalRewards",
						"offset": 0,
						"slot": "3",
						"type": "t_uint256"
					},
					{
						"astId": 348,
						"contract": "WalletBlocklist.sol:WalletBlocklist",
						"label": "blocklist",
						"offset": 0,
						"slot": "4",
						"type": "t_mapping(t_address,t_bool)"
					},
					{
						"astId": 352,
						"contract": "WalletBlocklist.sol:WalletBlocklist",
						"label": "blocklistTimestamp",
						"offset": 0,
						"slot": "5",
						"type": "t_mapping(t_address,t_uint256)"
					},
					{
						"astId": 356,
						"contract": "WalletBlocklist.sol:WalletBlocklist",
						"label": "blocklistReason",
						"offset": 0,
						"slot": "6",
						"type": "t_mapping(t_address,t_string_storage)"
					},
					{
						"astId": 359,
						"contract": "WalletBlocklist.sol:WalletBlocklist",
						"label": "blocklistedAddresses",
						"offset": 0,
						"slot": "7",
						"type": "t_array(t_address)dyn_storage"
					},
					{
						"astId": 363,
						"contract": "WalletBlocklist.sol:WalletBlocklist",
						"label": "blocklistIndex",
						"offset": 0,
						"slot": "8",
						"type": "t_mapping(t_address,t_uint256)"
					}
				],
				"types": {
					"t_address": {
						"encoding": "inplace",
						"label": "address",
						"numberOfBytes": "20"
					},
					"t_array(t_address)dyn_storage": {
						"base": "t_address",
						"encoding": "dynamic_array",
						"label": "address[]",
						"numberOfBytes": "32"
					},
					"t_bool": {
						"encoding": "inplace",
						"label": "bool",
						"numberOfBytes": "1"
					},
					"t_mapping(t_address,t_bool)": {
						"encoding": "mapping",
						"key": "t_address",
						"label": "mapping(address => bool)",
						"numberOfBytes": "32",
						"value": "t_bool"
					},
					"t_mapping(t_address,t_string_storage)": {
						"encoding": "mapping",
						"key": "t_address",
						"label": "mapping(address => string)",
						"numberOfBytes": "32",
						"value": "t_string_storage"
					},
					"t_mapping(t_address,t_uint256)": {
						"encoding": "mapping",
						"key": "t_address",
						"label": "mapping(address => uint256)",
						"numberOfBytes": "32",
						"value": "t_uint256"
					},
					"t_string_storage": {
						"encoding": "bytes",
						"label": "string",
						"numberOfBytes": "32"
					},
					"t_uint256": {
						"encoding": "inplace",
						"label": "uint256",
						"numberOfBytes": "32"
					}
				}
			},
			"userdoc": {
				"kind": "user",
				"methods": {
					"clearBlocklist()": {
						"notice": "This should only be used in extreme circumstances"
					}
				},
				"notice": "This contract allows administrators to blocklist wallets that are identified as bad actors",
				"version": 1
			}
		}
	}
}