{
	"Params.sol": {
		"Params": {
			"abi": [
				{
					"anonymous": false,
					"inputs": [
						{
							"indexed": true,
							"internalType": "address",
							"name": "admin",
							"type": "address"
						}
					],
					"name": "AdminAdded",
					"type": "event"
				},
				{
					"anonymous": false,
					"inputs": [
						{
							"indexed": true,
							"internalType": "address",
							"name": "admin",
							"type": "address"
						}
					],
					"name": "AdminRemoved",
					"type": "event"
				},
				{
					"anonymous": false,
					"inputs": [
						{
							"indexed": true,
							"internalType": "address",
							"name": "previousAdmin",
							"type": "address"
						},
						{
							"indexed": true,
							"internalType": "address",
							"name": "newAdmin",
							"type": "address"
						}
					],
					"name": "AdminTransferred",
					"type": "event"
				},
				{
					"inputs": [],
					"name": "BronzeValidatorStaking",
					"outputs": [
						{
							"internalType": "uint256",
							"name": "",
							"type": "uint256"
						}
					],
					"stateMutability": "view",
					"type": "function"
				},
				{
					"inputs": [],
					"name": "GoldValidatorStaking",
					"outputs": [
						{
							"internalType": "uint256",
							"name": "",
							"type": "uint256"
						}
					],
					"stateMutability": "view",
					"type": "function"
				},
				{
					"inputs": [],
					"name": "MaxValidators",
					"outputs": [
						{
							"internalType": "uint16",
							"name": "",
							"type": "uint16"
						}
					],
					"stateMutability": "view",
					"type": "function"
				},
				{
					"inputs": [],
					"name": "MinimalStakingCoin",
					"outputs": [
						{
							"internalType": "uint256",
							"name": "",
							"type": "uint256"
						}
					],
					"stateMutability": "view",
					"type": "function"
				},
				{
					"inputs": [],
					"name": "PlatinumValidatorStaking",
					"outputs": [
						{
							"internalType": "uint256",
							"name": "",
							"type": "uint256"
						}
					],
					"stateMutability": "view",
					"type": "function"
				},
				{
					"inputs": [],
					"name": "ProposalAddr",
					"outputs": [
						{
							"internalType": "address",
							"name": "",
							"type": "address"
						}
					],
					"stateMutability": "view",
					"type": "function"
				},
				{
					"inputs": [],
					"name": "PunishContractAddr",
					"outputs": [
						{
							"internalType": "address",
							"name": "",
							"type": "address"
						}
					],
					"stateMutability": "view",
					"type": "function"
				},
				{
					"inputs": [],
					"name": "SilverValidatorStaking",
					"outputs": [
						{
							"internalType": "uint256",
							"name": "",
							"type": "uint256"
						}
					],
					"stateMutability": "view",
					"type": "function"
				},
				{
					"inputs": [],
					"name": "SlashingContractAddr",
					"outputs": [
						{
							"internalType": "address",
							"name": "",
							"type": "address"
						}
					],
					"stateMutability": "view",
					"type": "function"
				},
				{
					"inputs": [],
					"name": "StakingLockPeriod",
					"outputs": [
						{
							"internalType": "uint64",
							"name": "",
							"type": "uint64"
						}
					],
					"stateMutability": "view",
					"type": "function"
				},
				{
					"inputs": [],
					"name": "ValidatorContractAddr",
					"outputs": [
						{
							"internalType": "address payable",
							"name": "",
							"type": "address"
						}
					],
					"stateMutability": "view",
					"type": "function"
				},
				{
					"inputs": [],
					"name": "WalletBlocklistAddr",
					"outputs": [
						{
							"internalType": "address",
							"name": "",
							"type": "address"
						}
					],
					"stateMutability": "view",
					"type": "function"
				},
				{
					"inputs": [
						{
							"internalType": "address",
							"name": "_admin",
							"type": "address"
						}
					],
					"name": "addAdmin",
					"outputs": [],
					"stateMutability": "nonpayable",
					"type": "function"
				},
				{
					"inputs": [],
					"name": "admin",
					"outputs": [
						{
							"internalType": "address",
							"name": "",
							"type": "address"
						}
					],
					"stateMutability": "view",
					"type": "function"
				},
				{
					"inputs": [
						{
							"internalType": "address",
							"name": "",
							"type": "address"
						}
					],
					"name": "admins",
					"outputs": [
						{
							"internalType": "bool",
							"name": "",
							"type": "bool"
						}
					],
					"stateMutability": "view",
					"type": "function"
				},
				{
					"inputs": [],
					"name": "creatorPartPercent",
					"outputs": [
						{
							"internalType": "uint256",
							"name": "",
							"type": "uint256"
						}
					],
					"stateMutability": "view",
					"type": "function"
				},
				{
					"inputs": [],
					"name": "extraRewardsPerBlock",
					"outputs": [
						{
							"internalType": "uint256",
							"name": "",
							"type": "uint256"
						}
					],
					"stateMutability": "view",
					"type": "function"
				},
				{
					"inputs": [],
					"name": "initialized",
					"outputs": [
						{
							"internalType": "bool",
							"name": "",
							"type": "bool"
						}
					],
					"stateMutability": "view",
					"type": "function"
				},
				{
					"inputs": [
						{
							"internalType": "address",
							"name": "_address",
							"type": "address"
						}
					],
					"name": "isAdmin",
					"outputs": [
						{
							"internalType": "bool",
							"name": "",
							"type": "bool"
						}
					],
					"stateMutability": "view",
					"type": "function"
				},
				{
					"inputs": [],
					"name": "minimumValidatorStaking",
					"outputs": [
						{
							"internalType": "uint256",
							"name": "",
							"type": "uint256"
						}
					],
					"stateMutability": "view",
					"type": "function"
				},
				{
					"inputs": [
						{
							"internalType": "address",
							"name": "_admin",
							"type": "address"
						}
					],
					"name": "removeAdmin",
					"outputs": [],
					"stateMutability": "nonpayable",
					"type": "function"
				},
				{
					"inputs": [],
					"name": "rewardFund",
					"outputs": [
						{
							"internalType": "uint256",
							"name": "",
							"type": "uint256"
						}
					],
					"stateMutability": "view",
					"type": "function"
				},
				{
					"inputs": [
						{
							"internalType": "address",
							"name": "_admin",
							"type": "address"
						}
					],
					"name": "setAdmin",
					"outputs": [],
					"stateMutability": "nonpayable",
					"type": "function"
				},
				{
					"inputs": [],
					"name": "stakerPartPercent",
					"outputs": [
						{
							"internalType": "uint256",
							"name": "",
							"type": "uint256"
						}
					],
					"stateMutability": "view",
					"type": "function"
				},
				{
					"inputs": [],
					"name": "totalRewards",
					"outputs": [
						{
							"internalType": "uint256",
							"name": "",
							"type": "uint256"
						}
					],
					"stateMutability": "view",
					"type": "function"
				},
				{
					"inputs": [],
					"name": "validatorPartPercent",
					"outputs": [
						{
							"internalType": "uint256",
							"name": "",
							"type": "uint256"
						}
					],
					"stateMutability": "view",
					"type": "function"
				}
			],
			"devdoc": {
				"kind": "dev",
				"methods": {},
				"version": 1
			},
			"evm": {
				"assembly": "    /* \"Params.sol\":57:4580  contract Params {... */\n  mstore(0x40, 0x80)\n  callvalue\n  dup1\n  iszero\n  tag_1\n  jumpi\n  0x00\n  dup1\n  revert\ntag_1:\n  pop\n  dataSize(sub_0)\n  dup1\n  dataOffset(sub_0)\n  0x00\n  codecopy\n  0x00\n  return\nstop\n\nsub_0: assembly {\n        /* \"Params.sol\":57:4580  contract Params {... */\n      mstore(0x40, 0x80)\n      callvalue\n      dup1\n      iszero\n      tag_1\n      jumpi\n      0x00\n      dup1\n      revert\n    tag_1:\n      pop\n      jumpi(tag_2, lt(calldatasize, 0x04))\n      shr(0xe0, calldataload(0x00))\n      dup1\n      0x6233be5d\n      gt\n      tag_29\n      jumpi\n      dup1\n      0xcad0ebf1\n      gt\n      tag_30\n      jumpi\n      dup1\n      0xdaa77ea2\n      gt\n      tag_31\n      jumpi\n      dup1\n      0xdaa77ea2\n      eq\n      tag_25\n      jumpi\n      dup1\n      0xdb78dd28\n      eq\n      tag_26\n      jumpi\n      dup1\n      0xefe22266\n      eq\n      tag_27\n      jumpi\n      dup1\n      0xf851a440\n      eq\n      tag_28\n      jumpi\n      0x00\n      dup1\n      revert\n    tag_31:\n      dup1\n      0xcad0ebf1\n      eq\n      tag_22\n      jumpi\n      dup1\n      0xcd779d21\n      eq\n      tag_23\n      jumpi\n      dup1\n      0xd5074883\n      eq\n      tag_24\n      jumpi\n      0x00\n      dup1\n      revert\n    tag_30:\n      dup1\n      0x6233be5d\n      eq\n      tag_16\n      jumpi\n      dup1\n      0x70480275\n      eq\n      tag_17\n      jumpi\n      dup1\n      0x704b6c02\n      eq\n      tag_18\n      jumpi\n      dup1\n      0x8ae53dbd\n      eq\n      tag_19\n      jumpi\n      dup1\n      0xbe645692\n      eq\n      tag_20\n      jumpi\n      dup1\n      0xc967f90f\n      eq\n      tag_21\n      jumpi\n      0x00\n      dup1\n      revert\n    tag_29:\n      dup1\n      0x1b5e358c\n      gt\n      tag_32\n      jumpi\n      dup1\n      0x3a061bd3\n      gt\n      tag_33\n      jumpi\n      dup1\n      0x3a061bd3\n      eq\n      tag_12\n      jumpi\n      dup1\n      0x42127ee7\n      eq\n      tag_13\n      jumpi\n      dup1\n      0x429b62e5\n      eq\n      tag_14\n      jumpi\n      dup1\n      0x591271f9\n      eq\n      tag_15\n      jumpi\n      0x00\n      dup1\n      revert\n    tag_33:\n      dup1\n      0x1b5e358c\n      eq\n      tag_9\n      jumpi\n      dup1\n      0x24d7806c\n      eq\n      tag_10\n      jumpi\n      dup1\n      0x32dc3b94\n      eq\n      tag_11\n      jumpi\n      0x00\n      dup1\n      revert\n    tag_32:\n      dup1\n      0x0976c65d\n      eq\n      tag_3\n      jumpi\n      dup1\n      0x0a0b5e51\n      eq\n      tag_3\n      jumpi\n      dup1\n      0x0e15561a\n      eq\n      tag_5\n      jumpi\n      dup1\n      0x158ef93e\n      eq\n      tag_6\n      jumpi\n      dup1\n      0x1785f53c\n      eq\n      tag_7\n      jumpi\n      dup1\n      0x182637b8\n      eq\n      tag_8\n      jumpi\n    tag_2:\n      0x00\n      dup1\n      revert\n        /* \"Params.sol\":1660:1732  uint256 public constant minimumValidatorStaking = BronzeValidatorStaking */\n    tag_3:\n      tag_34\n        /* \"Params.sol\":1310:1320  3947 ether */\n      0xd5f7a0e3e5d2cc0000\n        /* \"Params.sol\":1660:1732  uint256 public constant minimumValidatorStaking = BronzeValidatorStaking */\n      dup2\n      jump\n    tag_34:\n      mload(0x40)\n        /* \"#utility.yul\":160:185   */\n      swap1\n      dup2\n      mstore\n        /* \"#utility.yul\":148:150   */\n      0x20\n        /* \"#utility.yul\":133:151   */\n      add\n        /* \"Params.sol\":1660:1732  uint256 public constant minimumValidatorStaking = BronzeValidatorStaking */\n    tag_36:\n      mload(0x40)\n      dup1\n      swap2\n      sub\n      swap1\n      return\n        /* \"Params.sol\":2273:2300  uint256 public totalRewards */\n    tag_5:\n      tag_34\n      sload(0x03)\n      dup2\n      jump\n        /* \"Params.sol\":79:102  bool public initialized */\n    tag_6:\n      sload(0x00)\n      tag_44\n      swap1\n      0xff\n      and\n      dup2\n      jump\n    tag_44:\n      mload(0x40)\n        /* \"#utility.yul\":361:375   */\n      swap1\n      iszero\n        /* \"#utility.yul\":354:376   */\n      iszero\n        /* \"#utility.yul\":336:377   */\n      dup2\n      mstore\n        /* \"#utility.yul\":324:326   */\n      0x20\n        /* \"#utility.yul\":309:327   */\n      add\n        /* \"Params.sol\":79:102  bool public initialized */\n      tag_36\n        /* \"#utility.yul\":196:383   */\n      jump\n        /* \"Params.sol\":4139:4447  function removeAdmin(address _admin) external onlyAdmin {... */\n    tag_7:\n      tag_48\n      tag_49\n      calldatasize\n      0x04\n      tag_50\n      jump\t// in\n    tag_49:\n      tag_51\n      jump\t// in\n    tag_48:\n      stop\n        /* \"Params.sol\":757:854  address... */\n    tag_8:\n      tag_52\n        /* \"Params.sol\":812:854  0x000000000000000000000000000000000000f007 */\n      0xf007\n        /* \"Params.sol\":757:854  address... */\n      dup2\n      jump\n    tag_52:\n      mload(0x40)\n      sub(shl(0xa0, 0x01), 0x01)\n        /* \"#utility.yul\":843:875   */\n      swap1\n      swap2\n      and\n        /* \"#utility.yul\":825:876   */\n      dup2\n      mstore\n        /* \"#utility.yul\":813:815   */\n      0x20\n        /* \"#utility.yul\":798:816   */\n      add\n        /* \"Params.sol\":757:854  address... */\n      tag_36\n        /* \"#utility.yul\":679:882   */\n      jump\n        /* \"Params.sol\":561:656  address... */\n    tag_9:\n      tag_52\n        /* \"Params.sol\":614:656  0x000000000000000000000000000000000000F001 */\n      0xf001\n        /* \"Params.sol\":561:656  address... */\n      dup2\n      jump\n        /* \"Params.sol\":4453:4578  function isAdmin(address _address) external view returns (bool) {... */\n    tag_10:\n      tag_44\n      tag_60\n      calldatasize\n      0x04\n      tag_50\n      jump\t// in\n    tag_60:\n      tag_61\n      jump\t// in\n        /* \"Params.sol\":1340:1400  uint256 public constant SilverValidatorStaking = 39474 ether */\n    tag_11:\n      tag_34\n        /* \"Params.sol\":1389:1400  39474 ether */\n      0x085be3cbc1c8d9880000\n        /* \"Params.sol\":1340:1400  uint256 public constant SilverValidatorStaking = 39474 ether */\n      dup2\n      jump\n        /* \"Params.sol\":440:555  address payable... */\n    tag_12:\n      tag_52\n        /* \"Params.sol\":512:554  0x000000000000000000000000000000000000f000 */\n      0xf000\n        /* \"Params.sol\":440:555  address payable... */\n      dup2\n      jump\n        /* \"Params.sol\":1914:1963  uint public constant validatorPartPercent = 60000 */\n    tag_13:\n      tag_34\n        /* \"Params.sol\":1958:1963  60000 */\n      0xea60\n        /* \"Params.sol\":1914:1963  uint public constant validatorPartPercent = 60000 */\n      dup2\n      jump\n        /* \"Params.sol\":158:196  mapping(address => bool) public admins */\n    tag_14:\n      tag_44\n      tag_74\n      calldatasize\n      0x04\n      tag_50\n      jump\t// in\n    tag_74:\n      mstore(0x20, 0x01)\n      0x00\n      swap1\n      dup2\n      mstore\n      0x40\n      swap1\n      keccak256\n      sload\n      0xff\n      and\n      dup2\n      jump\n        /* \"Params.sol\":860:956  address... */\n    tag_15:\n      tag_52\n        /* \"Params.sol\":914:956  0x0000000000000000000000000000000000001007 */\n      0x1007\n        /* \"Params.sol\":860:956  address... */\n      dup2\n      jump\n        /* \"Params.sol\":662:751  address... */\n    tag_16:\n      tag_52\n        /* \"Params.sol\":709:751  0x000000000000000000000000000000000000F002 */\n      0xf002\n        /* \"Params.sol\":662:751  address... */\n      dup2\n      jump\n        /* \"Params.sol\":3891:4133  function addAdmin(address _admin) external onlyAdmin {... */\n    tag_17:\n      tag_48\n      tag_84\n      calldatasize\n      0x04\n      tag_50\n      jump\t// in\n    tag_84:\n      tag_85\n      jump\t// in\n        /* \"Params.sol\":3613:3885  function setAdmin(address _admin) external onlyAdmin {... */\n    tag_18:\n      tag_48\n      tag_87\n      calldatasize\n      0x04\n      tag_50\n      jump\t// in\n    tag_87:\n      tag_88\n      jump\t// in\n        /* \"Params.sol\":2131:2185  uint256 public constant extraRewardsPerBlock = 1 ether */\n    tag_19:\n      tag_34\n        /* \"Params.sol\":2178:2185  1 ether */\n      0x0de0b6b3a7640000\n        /* \"Params.sol\":2131:2185  uint256 public constant extraRewardsPerBlock = 1 ether */\n      dup2\n      jump\n        /* \"Params.sol\":1166:1219  uint256 public constant MinimalStakingCoin = 32 ether */\n    tag_20:\n      tag_34\n        /* \"Params.sol\":1211:1219  32 ether */\n      0x01bc16d674ec800000\n        /* \"Params.sol\":1166:1219  uint256 public constant MinimalStakingCoin = 32 ether */\n      dup2\n      jump\n        /* \"Params.sol\":984:1028  uint16 public constant MaxValidators = 10000 */\n    tag_21:\n      tag_95\n        /* \"Params.sol\":1023:1028  10000 */\n      0x2710\n        /* \"Params.sol\":984:1028  uint16 public constant MaxValidators = 10000 */\n      dup2\n      jump\n    tag_95:\n      mload(0x40)\n        /* \"#utility.yul\":1285:1291   */\n      0xffff\n        /* \"#utility.yul\":1273:1292   */\n      swap1\n      swap2\n      and\n        /* \"#utility.yul\":1255:1293   */\n      dup2\n      mstore\n        /* \"#utility.yul\":1243:1245   */\n      0x20\n        /* \"#utility.yul\":1228:1246   */\n      add\n        /* \"Params.sol\":984:1028  uint16 public constant MaxValidators = 10000 */\n      tag_36\n        /* \"#utility.yul\":1111:1299   */\n      jump\n        /* \"Params.sol\":1503:1567  uint256 public constant PlatinumValidatorStaking = 3947368 ether */\n    tag_22:\n      tag_34\n        /* \"Params.sol\":1554:1567  3947368 ether */\n      0x0343e33f80dc000ca00000\n        /* \"Params.sol\":1503:1567  uint256 public constant PlatinumValidatorStaking = 3947368 ether */\n      dup2\n      jump\n        /* \"Params.sol\":1813:1859  uint public constant stakerPartPercent = 30000 */\n    tag_23:\n      tag_34\n        /* \"Params.sol\":1854:1859  30000 */\n      0x7530\n        /* \"Params.sol\":1813:1859  uint public constant stakerPartPercent = 30000 */\n      dup2\n      jump\n        /* \"Params.sol\":1422:1481  uint256 public constant GoldValidatorStaking = 394737 ether */\n    tag_24:\n      tag_34\n        /* \"Params.sol\":1469:1481  394737 ether */\n      0x5396bc536dbd89240000\n        /* \"Params.sol\":1422:1481  uint256 public constant GoldValidatorStaking = 394737 ether */\n      dup2\n      jump\n        /* \"Params.sol\":2031:2078  uint public constant creatorPartPercent = 10000 */\n    tag_25:\n      tag_34\n        /* \"Params.sol\":2073:2078  10000 */\n      0x2710\n        /* \"Params.sol\":2031:2078  uint public constant creatorPartPercent = 10000 */\n      dup2\n      jump\n        /* \"Params.sol\":1109:1160  uint64 public constant StakingLockPeriod = 31536000 */\n    tag_26:\n      tag_111\n        /* \"Params.sol\":1152:1160  31536000 */\n      0x01e13380\n        /* \"Params.sol\":1109:1160  uint64 public constant StakingLockPeriod = 31536000 */\n      dup2\n      jump\n    tag_111:\n      mload(0x40)\n        /* \"#utility.yul\":1478:1496   */\n      0xffffffffffffffff\n        /* \"#utility.yul\":1466:1497   */\n      swap1\n      swap2\n      and\n        /* \"#utility.yul\":1448:1498   */\n      dup2\n      mstore\n        /* \"#utility.yul\":1436:1438   */\n      0x20\n        /* \"#utility.yul\":1421:1439   */\n      add\n        /* \"Params.sol\":1109:1160  uint64 public constant StakingLockPeriod = 31536000 */\n      tag_36\n        /* \"#utility.yul\":1304:1504   */\n      jump\n        /* \"Params.sol\":2241:2266  uint256 public rewardFund */\n    tag_27:\n      tag_34\n      sload(0x02)\n      dup2\n      jump\n        /* \"Params.sol\":132:152  address public admin */\n    tag_28:\n      sload(0x00)\n      tag_52\n      swap1\n      0x0100\n      swap1\n      div\n      sub(shl(0xa0, 0x01), 0x01)\n      and\n      dup2\n      jump\n        /* \"Params.sol\":4139:4447  function removeAdmin(address _admin) external onlyAdmin {... */\n    tag_51:\n        /* \"Params.sol\":3513:3518  admin */\n      sload(0x00)\n      0x0100\n      swap1\n      div\n      sub(shl(0xa0, 0x01), 0x01)\n      and\n        /* \"Params.sol\":3499:3509  msg.sender */\n      caller\n        /* \"Params.sol\":3499:3518  msg.sender == admin */\n      eq\n      dup1\n        /* \"Params.sol\":3499:3540  msg.sender == admin || admins[msg.sender] */\n      tag_122\n      jumpi\n      pop\n        /* \"Params.sol\":3529:3539  msg.sender */\n      caller\n        /* \"Params.sol\":3522:3540  admins[msg.sender] */\n      0x00\n      swap1\n      dup2\n      mstore\n        /* \"Params.sol\":3522:3528  admins */\n      0x01\n        /* \"Params.sol\":3522:3540  admins[msg.sender] */\n      0x20\n      mstore\n      0x40\n      swap1\n      keccak256\n      sload\n      0xff\n      and\n        /* \"Params.sol\":3499:3540  msg.sender == admin || admins[msg.sender] */\n    tag_122:\n        /* \"Params.sol\":3491:3555  require(msg.sender == admin || admins[msg.sender], \"Admin only\") */\n      tag_123\n      jumpi\n      mload(0x40)\n      shl(0xe5, 0x461bcd)\n      dup2\n      mstore\n      0x04\n      add\n      tag_124\n      swap1\n      tag_125\n      jump\t// in\n    tag_124:\n      mload(0x40)\n      dup1\n      swap2\n      sub\n      swap1\n      revert\n    tag_123:\n      sub(shl(0xa0, 0x01), 0x01)\n        /* \"Params.sol\":4213:4233  _admin != address(0) */\n      dup2\n      and\n        /* \"Params.sol\":4205:4259  require(_admin != address(0), \"Invalid admin address\") */\n      tag_127\n      jumpi\n      mload(0x40)\n      shl(0xe5, 0x461bcd)\n      dup2\n      mstore\n      0x04\n      add\n      tag_124\n      swap1\n      tag_129\n      jump\t// in\n    tag_127:\n      sub(shl(0xa0, 0x01), 0x01)\n        /* \"Params.sol\":4277:4291  admins[_admin] */\n      dup2\n      and\n      0x00\n      swap1\n      dup2\n      mstore\n        /* \"Params.sol\":4277:4283  admins */\n      0x01\n        /* \"Params.sol\":4277:4291  admins[_admin] */\n      0x20\n      mstore\n      0x40\n      swap1\n      keccak256\n      sload\n      0xff\n      and\n        /* \"Params.sol\":4269:4308  require(admins[_admin], \"Not an admin\") */\n      tag_130\n      jumpi\n      mload(0x40)\n      shl(0xe5, 0x461bcd)\n      dup2\n      mstore\n        /* \"#utility.yul\":2400:2402   */\n      0x20\n        /* \"Params.sol\":4269:4308  require(admins[_admin], \"Not an admin\") */\n      0x04\n      dup3\n      add\n        /* \"#utility.yul\":2382:2403   */\n      mstore\n        /* \"#utility.yul\":2439:2441   */\n      0x0c\n        /* \"#utility.yul\":2419:2437   */\n      0x24\n      dup3\n      add\n        /* \"#utility.yul\":2412:2442   */\n      mstore\n      shl(0xa1, 0x2737ba1030b71030b236b4b7)\n        /* \"#utility.yul\":2458:2476   */\n      0x44\n      dup3\n      add\n        /* \"#utility.yul\":2451:2493   */\n      mstore\n        /* \"#utility.yul\":2510:2528   */\n      0x64\n      add\n        /* \"Params.sol\":4269:4308  require(admins[_admin], \"Not an admin\") */\n      tag_124\n        /* \"#utility.yul\":2198:2534   */\n      jump\n        /* \"Params.sol\":4269:4308  require(admins[_admin], \"Not an admin\") */\n    tag_130:\n        /* \"Params.sol\":4336:4341  admin */\n      sload(0x00)\n      sub(shl(0xa0, 0x01), 0x01)\n      0x0100\n      swap1\n      swap2\n      div\n      dup2\n      and\n        /* \"Params.sol\":4326:4341  _admin != admin */\n      swap1\n      dup3\n      and\n      sub\n        /* \"Params.sol\":4318:4373  require(_admin != admin, \"Cannot remove primary admin\") */\n      tag_133\n      jumpi\n      mload(0x40)\n      shl(0xe5, 0x461bcd)\n      dup2\n      mstore\n        /* \"#utility.yul\":2741:2743   */\n      0x20\n        /* \"Params.sol\":4318:4373  require(_admin != admin, \"Cannot remove primary admin\") */\n      0x04\n      dup3\n      add\n        /* \"#utility.yul\":2723:2744   */\n      mstore\n        /* \"#utility.yul\":2780:2782   */\n      0x1b\n        /* \"#utility.yul\":2760:2778   */\n      0x24\n      dup3\n      add\n        /* \"#utility.yul\":2753:2783   */\n      mstore\n        /* \"#utility.yul\":2819:2848   */\n      0x43616e6e6f742072656d6f7665207072696d6172792061646d696e0000000000\n        /* \"#utility.yul\":2799:2817   */\n      0x44\n      dup3\n      add\n        /* \"#utility.yul\":2792:2849   */\n      mstore\n        /* \"#utility.yul\":2866:2884   */\n      0x64\n      add\n        /* \"Params.sol\":4318:4373  require(_admin != admin, \"Cannot remove primary admin\") */\n      tag_124\n        /* \"#utility.yul\":2539:2890   */\n      jump\n        /* \"Params.sol\":4318:4373  require(_admin != admin, \"Cannot remove primary admin\") */\n    tag_133:\n      sub(shl(0xa0, 0x01), 0x01)\n        /* \"Params.sol\":4383:4397  admins[_admin] */\n      dup2\n      and\n        /* \"Params.sol\":4400:4405  false */\n      0x00\n        /* \"Params.sol\":4383:4397  admins[_admin] */\n      dup2\n      dup2\n      mstore\n        /* \"Params.sol\":4383:4389  admins */\n      0x01\n        /* \"Params.sol\":4383:4397  admins[_admin] */\n      0x20\n      mstore\n      0x40\n      dup1\n      dup3\n      keccak256\n        /* \"Params.sol\":4383:4405  admins[_admin] = false */\n      dup1\n      sload\n      not(0xff)\n      and\n      swap1\n      sstore\n        /* \"Params.sol\":4420:4440  AdminRemoved(_admin) */\n      mload\n      0xa3b62bc36326052d97ea62d63c3d60308ed4c3ea8ac079dd8499f1e9c4f80c0f\n      swap2\n        /* \"Params.sol\":4400:4405  false */\n      swap1\n        /* \"Params.sol\":4420:4440  AdminRemoved(_admin) */\n      log2\n        /* \"Params.sol\":4139:4447  function removeAdmin(address _admin) external onlyAdmin {... */\n      pop\n      jump\t// out\n        /* \"Params.sol\":4453:4578  function isAdmin(address _address) external view returns (bool) {... */\n    tag_61:\n        /* \"Params.sol\":4511:4515  bool */\n      0x00\n        /* \"Params.sol\":4546:4551  admin */\n      dup1\n      sload\n      sub(shl(0xa0, 0x01), 0x01)\n        /* \"Params.sol\":4534:4551  _address == admin */\n      dup4\n      dup2\n      and\n        /* \"Params.sol\":4546:4551  admin */\n      0x0100\n      swap1\n      swap3\n      div\n      and\n        /* \"Params.sol\":4534:4551  _address == admin */\n      eq\n      dup1\n        /* \"Params.sol\":4534:4571  _address == admin || admins[_address] */\n      tag_137\n      jumpi\n      pop\n      sub(shl(0xa0, 0x01), 0x01)\n        /* \"Params.sol\":4555:4571  admins[_address] */\n      dup3\n      and\n      0x00\n      swap1\n      dup2\n      mstore\n        /* \"Params.sol\":4555:4561  admins */\n      0x01\n        /* \"Params.sol\":4555:4571  admins[_address] */\n      0x20\n      mstore\n      0x40\n      swap1\n      keccak256\n      sload\n      0xff\n      and\n        /* \"Params.sol\":4534:4571  _address == admin || admins[_address] */\n    tag_137:\n        /* \"Params.sol\":4527:4571  return _address == admin || admins[_address] */\n      swap3\n        /* \"Params.sol\":4453:4578  function isAdmin(address _address) external view returns (bool) {... */\n      swap2\n      pop\n      pop\n      jump\t// out\n        /* \"Params.sol\":3891:4133  function addAdmin(address _admin) external onlyAdmin {... */\n    tag_85:\n        /* \"Params.sol\":3513:3518  admin */\n      sload(0x00)\n      0x0100\n      swap1\n      div\n      sub(shl(0xa0, 0x01), 0x01)\n      and\n        /* \"Params.sol\":3499:3509  msg.sender */\n      caller\n        /* \"Params.sol\":3499:3518  msg.sender == admin */\n      eq\n      dup1\n        /* \"Params.sol\":3499:3540  msg.sender == admin || admins[msg.sender] */\n      tag_139\n      jumpi\n      pop\n        /* \"Params.sol\":3529:3539  msg.sender */\n      caller\n        /* \"Params.sol\":3522:3540  admins[msg.sender] */\n      0x00\n      swap1\n      dup2\n      mstore\n        /* \"Params.sol\":3522:3528  admins */\n      0x01\n        /* \"Params.sol\":3522:3540  admins[msg.sender] */\n      0x20\n      mstore\n      0x40\n      swap1\n      keccak256\n      sload\n      0xff\n      and\n        /* \"Params.sol\":3499:3540  msg.sender == admin || admins[msg.sender] */\n    tag_139:\n        /* \"Params.sol\":3491:3555  require(msg.sender == admin || admins[msg.sender], \"Admin only\") */\n      tag_140\n      jumpi\n      mload(0x40)\n      shl(0xe5, 0x461bcd)\n      dup2\n      mstore\n      0x04\n      add\n      tag_124\n      swap1\n      tag_125\n      jump\t// in\n    tag_140:\n      sub(shl(0xa0, 0x01), 0x01)\n        /* \"Params.sol\":3962:3982  _admin != address(0) */\n      dup2\n      and\n        /* \"Params.sol\":3954:4008  require(_admin != address(0), \"Invalid admin address\") */\n      tag_143\n      jumpi\n      mload(0x40)\n      shl(0xe5, 0x461bcd)\n      dup2\n      mstore\n      0x04\n      add\n      tag_124\n      swap1\n      tag_129\n      jump\t// in\n    tag_143:\n      sub(shl(0xa0, 0x01), 0x01)\n        /* \"Params.sol\":4027:4041  admins[_admin] */\n      dup2\n      and\n      0x00\n      swap1\n      dup2\n      mstore\n        /* \"Params.sol\":4027:4033  admins */\n      0x01\n        /* \"Params.sol\":4027:4041  admins[_admin] */\n      0x20\n      mstore\n      0x40\n      swap1\n      keccak256\n      sload\n      0xff\n      and\n        /* \"Params.sol\":4026:4041  !admins[_admin] */\n      iszero\n        /* \"Params.sol\":4018:4062  require(!admins[_admin], \"Already an admin\") */\n      tag_145\n      jumpi\n      mload(0x40)\n      shl(0xe5, 0x461bcd)\n      dup2\n      mstore\n        /* \"#utility.yul\":3097:3099   */\n      0x20\n        /* \"Params.sol\":4018:4062  require(!admins[_admin], \"Already an admin\") */\n      0x04\n      dup3\n      add\n        /* \"#utility.yul\":3079:3100   */\n      mstore\n        /* \"#utility.yul\":3136:3138   */\n      0x10\n        /* \"#utility.yul\":3116:3134   */\n      0x24\n      dup3\n      add\n        /* \"#utility.yul\":3109:3139   */\n      mstore\n      shl(0x81, 0x20b63932b0b23c9030b71030b236b4b7)\n        /* \"#utility.yul\":3155:3173   */\n      0x44\n      dup3\n      add\n        /* \"#utility.yul\":3148:3194   */\n      mstore\n        /* \"#utility.yul\":3211:3229   */\n      0x64\n      add\n        /* \"Params.sol\":4018:4062  require(!admins[_admin], \"Already an admin\") */\n      tag_124\n        /* \"#utility.yul\":2895:3235   */\n      jump\n        /* \"Params.sol\":4018:4062  require(!admins[_admin], \"Already an admin\") */\n    tag_145:\n      sub(shl(0xa0, 0x01), 0x01)\n        /* \"Params.sol\":4072:4086  admins[_admin] */\n      dup2\n      and\n      0x00\n      dup2\n      dup2\n      mstore\n        /* \"Params.sol\":4089:4093  true */\n      0x01\n        /* \"Params.sol\":4072:4086  admins[_admin] */\n      0x20\n      dup2\n      swap1\n      mstore\n      0x40\n      dup1\n      dup4\n      keccak256\n        /* \"Params.sol\":4072:4093  admins[_admin] = true */\n      dup1\n      sload\n      not(0xff)\n      and\n      swap1\n      swap3\n      or\n      swap1\n      swap2\n      sstore\n        /* \"Params.sol\":4108:4126  AdminAdded(_admin) */\n      mload\n      0x44d6d25963f097ad14f29f06854a01f575648a1ef82f30e562ccd3889717e339\n      swap2\n        /* \"Params.sol\":4072:4086  admins[_admin] */\n      swap1\n        /* \"Params.sol\":4108:4126  AdminAdded(_admin) */\n      log2\n        /* \"Params.sol\":3891:4133  function addAdmin(address _admin) external onlyAdmin {... */\n      pop\n      jump\t// out\n        /* \"Params.sol\":3613:3885  function setAdmin(address _admin) external onlyAdmin {... */\n    tag_88:\n        /* \"Params.sol\":3513:3518  admin */\n      sload(0x00)\n      0x0100\n      swap1\n      div\n      sub(shl(0xa0, 0x01), 0x01)\n      and\n        /* \"Params.sol\":3499:3509  msg.sender */\n      caller\n        /* \"Params.sol\":3499:3518  msg.sender == admin */\n      eq\n      dup1\n        /* \"Params.sol\":3499:3540  msg.sender == admin || admins[msg.sender] */\n      tag_149\n      jumpi\n      pop\n        /* \"Params.sol\":3529:3539  msg.sender */\n      caller\n        /* \"Params.sol\":3522:3540  admins[msg.sender] */\n      0x00\n      swap1\n      dup2\n      mstore\n        /* \"Params.sol\":3522:3528  admins */\n      0x01\n        /* \"Params.sol\":3522:3540  admins[msg.sender] */\n      0x20\n      mstore\n      0x40\n      swap1\n      keccak256\n      sload\n      0xff\n      and\n        /* \"Params.sol\":3499:3540  msg.sender == admin || admins[msg.sender] */\n    tag_149:\n        /* \"Params.sol\":3491:3555  require(msg.sender == admin || admins[msg.sender], \"Admin only\") */\n      tag_150\n      jumpi\n      mload(0x40)\n      shl(0xe5, 0x461bcd)\n      dup2\n      mstore\n      0x04\n      add\n      tag_124\n      swap1\n      tag_125\n      jump\t// in\n    tag_150:\n      sub(shl(0xa0, 0x01), 0x01)\n        /* \"Params.sol\":3684:3704  _admin != address(0) */\n      dup2\n      and\n        /* \"Params.sol\":3676:3730  require(_admin != address(0), \"Invalid admin address\") */\n      tag_153\n      jumpi\n      mload(0x40)\n      shl(0xe5, 0x461bcd)\n      dup2\n      mstore\n      0x04\n      add\n      tag_124\n      swap1\n      tag_129\n      jump\t// in\n    tag_153:\n        /* \"Params.sol\":3740:3761  address previousAdmin */\n      0x00\n        /* \"Params.sol\":3764:3769  admin */\n      dup1\n      sload\n      sub(shl(0xa0, 0x01), 0x01)\n        /* \"Params.sol\":3779:3793  admin = _admin */\n      dup4\n      dup2\n      and\n        /* \"Params.sol\":3764:3769  admin */\n      0x0100\n        /* \"Params.sol\":3779:3793  admin = _admin */\n      dup2\n      dup2\n      mul\n      not(sub(shl(0xa8, 0x01), 0x0100))\n      dup6\n      and\n      or\n      dup6\n      sstore\n        /* \"Params.sol\":3803:3817  admins[_admin] */\n      dup2\n      dup6\n      mstore\n        /* \"Params.sol\":3764:3769  admin */\n      0x01\n        /* \"Params.sol\":3803:3817  admins[_admin] */\n      0x20\n      dup2\n      swap1\n      mstore\n      0x40\n      dup1\n      dup8\n      keccak256\n        /* \"Params.sol\":3803:3824  admins[_admin] = true */\n      dup1\n      sload\n      not(0xff)\n      and\n      swap1\n      swap3\n      or\n      swap1\n      swap2\n      sstore\n        /* \"Params.sol\":3839:3878  AdminTransferred(previousAdmin, _admin) */\n      mload\n        /* \"Params.sol\":3764:3769  admin */\n      swap4\n      div\n      swap2\n      swap1\n      swap2\n      and\n      swap3\n        /* \"Params.sol\":3779:3793  admin = _admin */\n      swap1\n      swap2\n        /* \"Params.sol\":3764:3769  admin */\n      dup4\n      swap2\n        /* \"Params.sol\":3839:3878  AdminTransferred(previousAdmin, _admin) */\n      0xf8ccb027dfcd135e000e9d45e6cc2d662578a8825d4c45b5e32e0adf67e79ec6\n      swap2\n      log3\n        /* \"Params.sol\":3666:3885  {... */\n      pop\n        /* \"Params.sol\":3613:3885  function setAdmin(address _admin) external onlyAdmin {... */\n      pop\n      jump\t// out\n        /* \"#utility.yul\":388:674   */\n    tag_50:\n        /* \"#utility.yul\":447:453   */\n      0x00\n        /* \"#utility.yul\":500:502   */\n      0x20\n        /* \"#utility.yul\":488:497   */\n      dup3\n        /* \"#utility.yul\":479:486   */\n      dup5\n        /* \"#utility.yul\":475:498   */\n      sub\n        /* \"#utility.yul\":471:503   */\n      slt\n        /* \"#utility.yul\":468:520   */\n      iszero\n      tag_159\n      jumpi\n        /* \"#utility.yul\":516:517   */\n      0x00\n        /* \"#utility.yul\":513:514   */\n      dup1\n        /* \"#utility.yul\":506:518   */\n      revert\n        /* \"#utility.yul\":468:520   */\n    tag_159:\n        /* \"#utility.yul\":542:565   */\n      dup2\n      calldataload\n      sub(shl(0xa0, 0x01), 0x01)\n        /* \"#utility.yul\":594:625   */\n      dup2\n      and\n        /* \"#utility.yul\":584:626   */\n      dup2\n      eq\n        /* \"#utility.yul\":574:644   */\n      tag_160\n      jumpi\n        /* \"#utility.yul\":640:641   */\n      0x00\n        /* \"#utility.yul\":637:638   */\n      dup1\n        /* \"#utility.yul\":630:642   */\n      revert\n        /* \"#utility.yul\":574:644   */\n    tag_160:\n        /* \"#utility.yul\":663:668   */\n      swap4\n        /* \"#utility.yul\":388:674   */\n      swap3\n      pop\n      pop\n      pop\n      jump\t// out\n        /* \"#utility.yul\":1509:1843   */\n    tag_125:\n        /* \"#utility.yul\":1711:1713   */\n      0x20\n        /* \"#utility.yul\":1693:1714   */\n      dup1\n      dup3\n      mstore\n        /* \"#utility.yul\":1750:1752   */\n      0x0a\n        /* \"#utility.yul\":1730:1748   */\n      swap1\n      dup3\n      add\n        /* \"#utility.yul\":1723:1753   */\n      mstore\n      shl(0xb0, 0x41646d696e206f6e6c79)\n        /* \"#utility.yul\":1784:1786   */\n      0x40\n        /* \"#utility.yul\":1769:1787   */\n      dup3\n      add\n        /* \"#utility.yul\":1762:1802   */\n      mstore\n        /* \"#utility.yul\":1834:1836   */\n      0x60\n        /* \"#utility.yul\":1819:1837   */\n      add\n      swap1\n        /* \"#utility.yul\":1509:1843   */\n      jump\t// out\n        /* \"#utility.yul\":1848:2193   */\n    tag_129:\n        /* \"#utility.yul\":2050:2052   */\n      0x20\n        /* \"#utility.yul\":2032:2053   */\n      dup1\n      dup3\n      mstore\n        /* \"#utility.yul\":2089:2091   */\n      0x15\n        /* \"#utility.yul\":2069:2087   */\n      swap1\n      dup3\n      add\n        /* \"#utility.yul\":2062:2092   */\n      mstore\n      shl(0x58, 0x496e76616c69642061646d696e2061646472657373)\n        /* \"#utility.yul\":2123:2125   */\n      0x40\n        /* \"#utility.yul\":2108:2126   */\n      dup3\n      add\n        /* \"#utility.yul\":2101:2152   */\n      mstore\n        /* \"#utility.yul\":2184:2186   */\n      0x60\n        /* \"#utility.yul\":2169:2187   */\n      add\n      swap1\n        /* \"#utility.yul\":1848:2193   */\n      jump\t// out\n\n    auxdata: 0xa2646970667358221220bd70926123879ccc3f3f46bbbe2e18a7cbbe9476b2e738c5911fd4b412d0339b64736f6c63430008110033\n}\n",
				"bytecode": {
					"linkReferences": {},
					"object": "608060405234801561001057600080fd5b506107d0806100206000396000f3fe608060405234801561001057600080fd5b506004361061018e5760003560e01c80636233be5d116100de578063cad0ebf111610097578063daa77ea211610071578063daa77ea214610313578063db78dd281461031c578063efe2226614610340578063f851a4401461034957600080fd5b8063cad0ebf1146102e7578063cd779d21146102f9578063d50748831461030257600080fd5b80636233be5d1461027d5780637048027514610286578063704b6c02146102995780638ae53dbd146102ac578063be645692146102bb578063c967f90f146102cb57600080fd5b80631b5e358c1161014b5780633a061bd3116101255780633a061bd31461023f57806342127ee714610248578063429b62e514610251578063591271f91461027457600080fd5b80631b5e358c1461021257806324d7806c1461021b57806332dc3b941461022e57600080fd5b80630976c65d146101935780630a0b5e51146101935780630e15561a146101b6578063158ef93e146101bf5780631785f53c146101dc578063182637b8146101f1575b600080fd5b6101a368d5f7a0e3e5d2cc000081565b6040519081526020015b60405180910390f35b6101a360035481565b6000546101cc9060ff1681565b60405190151581526020016101ad565b6101ef6101ea366004610717565b610361565b005b6101fa61f00781565b6040516001600160a01b0390911681526020016101ad565b6101fa61f00181565b6101cc610229366004610717565b6104dc565b6101a369085be3cbc1c8d988000081565b6101fa61f00081565b6101a361ea6081565b6101cc61025f366004610717565b60016020526000908152604090205460ff1681565b6101fa61100781565b6101fa61f00281565b6101ef610294366004610717565b61051c565b6101ef6102a7366004610717565b610636565b6101a3670de0b6b3a764000081565b6101a36801bc16d674ec80000081565b6102d461271081565b60405161ffff90911681526020016101ad565b6101a36a0343e33f80dc000ca0000081565b6101a361753081565b6101a3695396bc536dbd8924000081565b6101a361271081565b6103276301e1338081565b60405167ffffffffffffffff90911681526020016101ad565b6101a360025481565b6000546101fa9061010090046001600160a01b031681565b60005461010090046001600160a01b031633148061038e57503360009081526001602052604090205460ff165b6103b35760405162461bcd60e51b81526004016103aa90610747565b60405180910390fd5b6001600160a01b0381166103d95760405162461bcd60e51b81526004016103aa9061076b565b6001600160a01b03811660009081526001602052604090205460ff166104305760405162461bcd60e51b815260206004820152600c60248201526b2737ba1030b71030b236b4b760a11b60448201526064016103aa565b6000546001600160a01b036101009091048116908216036104935760405162461bcd60e51b815260206004820152601b60248201527f43616e6e6f742072656d6f7665207072696d6172792061646d696e000000000060448201526064016103aa565b6001600160a01b038116600081815260016020526040808220805460ff19169055517fa3b62bc36326052d97ea62d63c3d60308ed4c3ea8ac079dd8499f1e9c4f80c0f9190a250565b600080546001600160a01b0383811661010090920416148061051657506001600160a01b03821660009081526001602052604090205460ff165b92915050565b60005461010090046001600160a01b031633148061054957503360009081526001602052604090205460ff165b6105655760405162461bcd60e51b81526004016103aa90610747565b6001600160a01b03811661058b5760405162461bcd60e51b81526004016103aa9061076b565b6001600160a01b03811660009081526001602052604090205460ff16156105e75760405162461bcd60e51b815260206004820152601060248201526f20b63932b0b23c9030b71030b236b4b760811b60448201526064016103aa565b6001600160a01b0381166000818152600160208190526040808320805460ff1916909217909155517f44d6d25963f097ad14f29f06854a01f575648a1ef82f30e562ccd3889717e3399190a250565b60005461010090046001600160a01b031633148061066357503360009081526001602052604090205460ff165b61067f5760405162461bcd60e51b81526004016103aa90610747565b6001600160a01b0381166106a55760405162461bcd60e51b81526004016103aa9061076b565b600080546001600160a01b03838116610100818102610100600160a81b03198516178555818552600160208190526040808720805460ff19169092179091555193049190911692909183917ff8ccb027dfcd135e000e9d45e6cc2d662578a8825d4c45b5e32e0adf67e79ec691a35050565b60006020828403121561072957600080fd5b81356001600160a01b038116811461074057600080fd5b9392505050565b6020808252600a908201526941646d696e206f6e6c7960b01b604082015260600190565b602080825260159082015274496e76616c69642061646d696e206164647265737360581b60408201526060019056fea2646970667358221220bd70926123879ccc3f3f46bbbe2e18a7cbbe9476b2e738c5911fd4b412d0339b64736f6c63430008110033",
					"opcodes": "PUSH1 0x80 PUSH1 0x40 MSTORE CALLVALUE DUP1 ISZERO PUSH2 0x10 JUMPI PUSH1 0x0 DUP1 REVERT JUMPDEST POP PUSH2 0x7D0 DUP1 PUSH2 0x20 PUSH1 0x0 CODECOPY PUSH1 0x0 RETURN INVALID PUSH1 0x80 PUSH1 0x40 MSTORE CALLVALUE DUP1 ISZERO PUSH2 0x10 JUMPI PUSH1 0x0 DUP1 REVERT JUMPDEST POP PUSH1 0x4 CALLDATASIZE LT PUSH2 0x18E JUMPI PUSH1 0x0 CALLDATALOAD PUSH1 0xE0 SHR DUP1 PUSH4 0x6233BE5D GT PUSH2 0xDE JUMPI DUP1 PUSH4 0xCAD0EBF1 GT PUSH2 0x97 JUMPI DUP1 PUSH4 0xDAA77EA2 GT PUSH2 0x71 JUMPI DUP1 PUSH4 0xDAA77EA2 EQ PUSH2 0x313 JUMPI DUP1 PUSH4 0xDB78DD28 EQ PUSH2 0x31C JUMPI DUP1 PUSH4 0xEFE22266 EQ PUSH2 0x340 JUMPI DUP1 PUSH4 0xF851A440 EQ PUSH2 0x349 JUMPI PUSH1 0x0 DUP1 REVERT JUMPDEST DUP1 PUSH4 0xCAD0EBF1 EQ PUSH2 0x2E7 JUMPI DUP1 PUSH4 0xCD779D21 EQ PUSH2 0x2F9 JUMPI DUP1 PUSH4 0xD5074883 EQ PUSH2 0x302 JUMPI PUSH1 0x0 DUP1 REVERT JUMPDEST DUP1 PUSH4 0x6233BE5D EQ PUSH2 0x27D JUMPI DUP1 PUSH4 0x70480275 EQ PUSH2 0x286 JUMPI DUP1 PUSH4 0x704B6C02 EQ PUSH2 0x299 JUMPI DUP1 PUSH4 0x8AE53DBD EQ PUSH2 0x2AC JUMPI DUP1 PUSH4 0xBE645692 EQ PUSH2 0x2BB JUMPI DUP1 PUSH4 0xC967F90F EQ PUSH2 0x2CB JUMPI PUSH1 0x0 DUP1 REVERT JUMPDEST DUP1 PUSH4 0x1B5E358C GT PUSH2 0x14B JUMPI DUP1 PUSH4 0x3A061BD3 GT PUSH2 0x125 JUMPI DUP1 PUSH4 0x3A061BD3 EQ PUSH2 0x23F JUMPI DUP1 PUSH4 0x42127EE7 EQ PUSH2 0x248 JUMPI DUP1 PUSH4 0x429B62E5 EQ PUSH2 0x251 JUMPI DUP1 PUSH4 0x591271F9 EQ PUSH2 0x274 JUMPI PUSH1 0x0 DUP1 REVERT JUMPDEST DUP1 PUSH4 0x1B5E358C EQ PUSH2 0x212 JUMPI DUP1 PUSH4 0x24D7806C EQ PUSH2 0x21B JUMPI DUP1 PUSH4 0x32DC3B94 EQ PUSH2 0x22E JUMPI PUSH1 0x0 DUP1 REVERT JUMPDEST DUP1 PUSH4 0x976C65D EQ PUSH2 0x193 JUMPI DUP1 PUSH4 0xA0B5E51 EQ PUSH2 0x193 JUMPI DUP1 PUSH4 0xE15561A EQ PUSH2 0x1B6 JUMPI DUP1 PUSH4 0x158EF93E EQ PUSH2 0x1BF JUMPI DUP1 PUSH4 0x1785F53C EQ PUSH2 0x1DC JUMPI DUP1 PUSH4 0x182637B8 EQ PUSH2 0x1F1 JUMPI JUMPDEST PUSH1 0x0 DUP1 REVERT JUMPDEST PUSH2 0x1A3 PUSH9 0xD5F7A0E3E5D2CC0000 DUP2 JUMP JUMPDEST PUSH1 0x40 MLOAD SWAP1 DUP2 MSTORE PUSH1 0x20 ADD JUMPDEST PUSH1 0x40 MLOAD DUP1 SWAP2 SUB SWAP1 RETURN JUMPDEST PUSH2 0x1A3 PUSH1 0x3 SLOAD DUP2 JUMP JUMPDEST PUSH1 0x0 SLOAD PUSH2 0x1CC SWAP1 PUSH1 0xFF AND DUP2 JUMP JUMPDEST PUSH1 0x40 MLOAD SWAP1 ISZERO ISZERO DUP2 MSTORE PUSH1 0x20 ADD PUSH2 0x1AD JUMP JUMPDEST PUSH2 0x1EF PUSH2 0x1EA CALLDATASIZE PUSH1 0x4 PUSH2 0x717 JUMP JUMPDEST PUSH2 0x361 JUMP JUMPDEST STOP JUMPDEST PUSH2 0x1FA PUSH2 0xF007 DUP2 JUMP JUMPDEST PUSH1 0x40 MLOAD PUSH1 0x1 PUSH1 0x1 PUSH1 0xA0 SHL SUB SWAP1 SWAP2 AND DUP2 MSTORE PUSH1 0x20 ADD PUSH2 0x1AD JUMP JUMPDEST PUSH2 0x1FA PUSH2 0xF001 DUP2 JUMP JUMPDEST PUSH2 0x1CC PUSH2 0x229 CALLDATASIZE PUSH1 0x4 PUSH2 0x717 JUMP JUMPDEST PUSH2 0x4DC JUMP JUMPDEST PUSH2 0x1A3 PUSH10 0x85BE3CBC1C8D9880000 DUP2 JUMP JUMPDEST PUSH2 0x1FA PUSH2 0xF000 DUP2 JUMP JUMPDEST PUSH2 0x1A3 PUSH2 0xEA60 DUP2 JUMP JUMPDEST PUSH2 0x1CC PUSH2 0x25F CALLDATASIZE PUSH1 0x4 PUSH2 0x717 JUMP JUMPDEST PUSH1 0x1 PUSH1 0x20 MSTORE PUSH1 0x0 SWAP1 DUP2 MSTORE PUSH1 0x40 SWAP1 KECCAK256 SLOAD PUSH1 0xFF AND DUP2 JUMP JUMPDEST PUSH2 0x1FA PUSH2 0x1007 DUP2 JUMP JUMPDEST PUSH2 0x1FA PUSH2 0xF002 DUP2 JUMP JUMPDEST PUSH2 0x1EF PUSH2 0x294 CALLDATASIZE PUSH1 0x4 PUSH2 0x717 JUMP JUMPDEST PUSH2 0x51C JUMP JUMPDEST PUSH2 0x1EF PUSH2 0x2A7 CALLDATASIZE PUSH1 0x4 PUSH2 0x717 JUMP JUMPDEST PUSH2 0x636 JUMP JUMPDEST PUSH2 0x1A3 PUSH8 0xDE0B6B3A7640000 DUP2 JUMP JUMPDEST PUSH2 0x1A3 PUSH9 0x1BC16D674EC800000 DUP2 JUMP JUMPDEST PUSH2 0x2D4 PUSH2 0x2710 DUP2 JUMP JUMPDEST PUSH1 0x40 MLOAD PUSH2 0xFFFF SWAP1 SWAP2 AND DUP2 MSTORE PUSH1 0x20 ADD PUSH2 0x1AD JUMP JUMPDEST PUSH2 0x1A3 PUSH11 0x343E33F80DC000CA00000 DUP2 JUMP JUMPDEST PUSH2 0x1A3 PUSH2 0x7530 DUP2 JUMP JUMPDEST PUSH2 0x1A3 PUSH10 0x5396BC536DBD89240000 DUP2 JUMP JUMPDEST PUSH2 0x1A3 PUSH2 0x2710 DUP2 JUMP JUMPDEST PUSH2 0x327 PUSH4 0x1E13380 DUP2 JUMP JUMPDEST PUSH1 0x40 MLOAD PUSH8 0xFFFFFFFFFFFFFFFF SWAP1 SWAP2 AND DUP2 MSTORE PUSH1 0x20 ADD PUSH2 0x1AD JUMP JUMPDEST PUSH2 0x1A3 PUSH1 0x2 SLOAD DUP2 JUMP JUMPDEST PUSH1 0x0 SLOAD PUSH2 0x1FA SWAP1 PUSH2 0x100 SWAP1 DIV PUSH1 0x1 PUSH1 0x1 PUSH1 0xA0 SHL SUB AND DUP2 JUMP JUMPDEST PUSH1 0x0 SLOAD PUSH2 0x100 SWAP1 DIV PUSH1 0x1 PUSH1 0x1 PUSH1 0xA0 SHL SUB AND CALLER EQ DUP1 PUSH2 0x38E JUMPI POP CALLER PUSH1 0x0 SWAP1 DUP2 MSTORE PUSH1 0x1 PUSH1 0x20 MSTORE PUSH1 0x40 SWAP1 KECCAK256 SLOAD PUSH1 0xFF AND JUMPDEST PUSH2 0x3B3 JUMPI PUSH1 0x40 MLOAD PUSH3 0x461BCD PUSH1 0xE5 SHL DUP2 MSTORE PUSH1 0x4 ADD PUSH2 0x3AA SWAP1 PUSH2 0x747 JUMP JUMPDEST PUSH1 0x40 MLOAD DUP1 SWAP2 SUB SWAP1 REVERT JUMPDEST PUSH1 0x1 PUSH1 0x1 PUSH1 0xA0 SHL SUB DUP2 AND PUSH2 0x3D9 JUMPI PUSH1 0x40 MLOAD PUSH3 0x461BCD PUSH1 0xE5 SHL DUP2 MSTORE PUSH1 0x4 ADD PUSH2 0x3AA SWAP1 PUSH2 0x76B JUMP JUMPDEST PUSH1 0x1 PUSH1 0x1 PUSH1 0xA0 SHL SUB DUP2 AND PUSH1 0x0 SWAP1 DUP2 MSTORE PUSH1 0x1 PUSH1 0x20 MSTORE PUSH1 0x40 SWAP1 KECCAK256 SLOAD PUSH1 0xFF AND PUSH2 0x430 JUMPI PUSH1 0x40 MLOAD PUSH3 0x461BCD PUSH1 0xE5 SHL DUP2 MSTORE PUSH1 0x20 PUSH1 0x4 DUP3 ADD MSTORE PUSH1 0xC PUSH1 0x24 DUP3 ADD MSTORE PUSH12 0x2737BA1030B71030B236B4B7 PUSH1 0xA1 SHL PUSH1 0x44 DUP3 ADD MSTORE PUSH1 0x64 ADD PUSH2 0x3AA JUMP JUMPDEST PUSH1 0x0 SLOAD PUSH1 0x1 PUSH1 0x1 PUSH1 0xA0 SHL SUB PUSH2 0x100 SWAP1 SWAP2 DIV DUP2 AND SWAP1 DUP3 AND SUB PUSH2 0x493 JUMPI PUSH1 0x40 MLOAD PUSH3 0x461BCD PUSH1 0xE5 SHL DUP2 MSTORE PUSH1 0x20 PUSH1 0x4 DUP3 ADD MSTORE PUSH1 0x1B PUSH1 0x24 DUP3 ADD MSTORE PUSH32 0x43616E6E6F742072656D6F7665207072696D6172792061646D696E0000000000 PUSH1 0x44 DUP3 ADD MSTORE PUSH1 0x64 ADD PUSH2 0x3AA JUMP JUMPDEST PUSH1 0x1 PUSH1 0x1 PUSH1 0xA0 SHL SUB DUP2 AND PUSH1 0x0 DUP2 DUP2 MSTORE PUSH1 0x1 PUSH1 0x20 MSTORE PUSH1 0x40 DUP1 DUP3 KECCAK256 DUP1 SLOAD PUSH1 0xFF NOT AND SWAP1 SSTORE MLOAD PUSH32 0xA3B62BC36326052D97EA62D63C3D60308ED4C3EA8AC079DD8499F1E9C4F80C0F SWAP2 SWAP1 LOG2 POP JUMP JUMPDEST PUSH1 0x0 DUP1 SLOAD PUSH1 0x1 PUSH1 0x1 PUSH1 0xA0 SHL SUB DUP4 DUP2 AND PUSH2 0x100 SWAP1 SWAP3 DIV AND EQ DUP1 PUSH2 0x516 JUMPI POP PUSH1 0x1 PUSH1 0x1 PUSH1 0xA0 SHL SUB DUP3 AND PUSH1 0x0 SWAP1 DUP2 MSTORE PUSH1 0x1 PUSH1 0x20 MSTORE PUSH1 0x40 SWAP1 KECCAK256 SLOAD PUSH1 0xFF AND JUMPDEST SWAP3 SWAP2 POP POP JUMP JUMPDEST PUSH1 0x0 SLOAD PUSH2 0x100 SWAP1 DIV PUSH1 0x1 PUSH1 0x1 PUSH1 0xA0 SHL SUB AND CALLER EQ DUP1 PUSH2 0x549 JUMPI POP CALLER PUSH1 0x0 SWAP1 DUP2 MSTORE PUSH1 0x1 PUSH1 0x20 MSTORE PUSH1 0x40 SWAP1 KECCAK256 SLOAD PUSH1 0xFF AND JUMPDEST PUSH2 0x565 JUMPI PUSH1 0x40 MLOAD PUSH3 0x461BCD PUSH1 0xE5 SHL DUP2 MSTORE PUSH1 0x4 ADD PUSH2 0x3AA SWAP1 PUSH2 0x747 JUMP JUMPDEST PUSH1 0x1 PUSH1 0x1 PUSH1 0xA0 SHL SUB DUP2 AND PUSH2 0x58B JUMPI PUSH1 0x40 MLOAD PUSH3 0x461BCD PUSH1 0xE5 SHL DUP2 MSTORE PUSH1 0x4 ADD PUSH2 0x3AA SWAP1 PUSH2 0x76B JUMP JUMPDEST PUSH1 0x1 PUSH1 0x1 PUSH1 0xA0 SHL SUB DUP2 AND PUSH1 0x0 SWAP1 DUP2 MSTORE PUSH1 0x1 PUSH1 0x20 MSTORE PUSH1 0x40 SWAP1 KECCAK256 SLOAD PUSH1 0xFF AND ISZERO PUSH2 0x5E7 JUMPI PUSH1 0x40 MLOAD PUSH3 0x461BCD PUSH1 0xE5 SHL DUP2 MSTORE PUSH1 0x20 PUSH1 0x4 DUP3 ADD MSTORE PUSH1 0x10 PUSH1 0x24 DUP3 ADD MSTORE PUSH16 0x20B63932B0B23C9030B71030B236B4B7 PUSH1 0x81 SHL PUSH1 0x44 DUP3 ADD MSTORE PUSH1 0x64 ADD PUSH2 0x3AA JUMP JUMPDEST PUSH1 0x1 PUSH1 0x1 PUSH1 0xA0 SHL SUB DUP2 AND PUSH1 0x0 DUP2 DUP2 MSTORE PUSH1 0x1 PUSH1 0x20 DUP2 SWAP1 MSTORE PUSH1 0x40 DUP1 DUP4 KECCAK256 DUP1 SLOAD PUSH1 0xFF NOT AND SWAP1 SWAP3 OR SWAP1 SWAP2 SSTORE MLOAD PUSH32 0x44D6D25963F097AD14F29F06854A01F575648A1EF82F30E562CCD3889717E339 SWAP2 SWAP1 LOG2 POP JUMP JUMPDEST PUSH1 0x0 SLOAD PUSH2 0x100 SWAP1 DIV PUSH1 0x1 PUSH1 0x1 PUSH1 0xA0 SHL SUB AND CALLER EQ DUP1 PUSH2 0x663 JUMPI POP CALLER PUSH1 0x0 SWAP1 DUP2 MSTORE PUSH1 0x1 PUSH1 0x20 MSTORE PUSH1 0x40 SWAP1 KECCAK256 SLOAD PUSH1 0xFF AND JUMPDEST PUSH2 0x67F JUMPI PUSH1 0x40 MLOAD PUSH3 0x461BCD PUSH1 0xE5 SHL DUP2 MSTORE PUSH1 0x4 ADD PUSH2 0x3AA SWAP1 PUSH2 0x747 JUMP JUMPDEST PUSH1 0x1 PUSH1 0x1 PUSH1 0xA0 SHL SUB DUP2 AND PUSH2 0x6A5 JUMPI PUSH1 0x40 MLOAD PUSH3 0x461BCD PUSH1 0xE5 SHL DUP2 MSTORE PUSH1 0x4 ADD PUSH2 0x3AA SWAP1 PUSH2 0x76B JUMP JUMPDEST PUSH1 0x0 DUP1 SLOAD PUSH1 0x1 PUSH1 0x1 PUSH1 0xA0 SHL SUB DUP4 DUP2 AND PUSH2 0x100 DUP2 DUP2 MUL PUSH2 0x100 PUSH1 0x1 PUSH1 0xA8 SHL SUB NOT DUP6 AND OR DUP6 SSTORE DUP2 DUP6 MSTORE PUSH1 0x1 PUSH1 0x20 DUP2 SWAP1 MSTORE PUSH1 0x40 DUP1 DUP8 KECCAK256 DUP1 SLOAD PUSH1 0xFF NOT AND SWAP1 SWAP3 OR SWAP1 SWAP2 SSTORE MLOAD SWAP4 DIV SWAP2 SWAP1 SWAP2 AND SWAP3 SWAP1 SWAP2 DUP4 SWAP2 PUSH32 0xF8CCB027DFCD135E000E9D45E6CC2D662578A8825D4C45B5E32E0ADF67E79EC6 SWAP2 LOG3 POP POP JUMP JUMPDEST PUSH1 0x0 PUSH1 0x20 DUP3 DUP5 SUB SLT ISZERO PUSH2 0x729 JUMPI PUSH1 0x0 DUP1 REVERT JUMPDEST DUP2 CALLDATALOAD PUSH1 0x1 PUSH1 0x1 PUSH1 0xA0 SHL SUB DUP2 AND DUP2 EQ PUSH2 0x740 JUMPI PUSH1 0x0 DUP1 REVERT JUMPDEST SWAP4 SWAP3 POP POP POP JUMP JUMPDEST PUSH1 0x20 DUP1 DUP3 MSTORE PUSH1 0xA SWAP1 DUP3 ADD MSTORE PUSH10 0x41646D696E206F6E6C79 PUSH1 0xB0 SHL PUSH1 0x40 DUP3 ADD MSTORE PUSH1 0x60 ADD SWAP1 JUMP JUMPDEST PUSH1 0x20 DUP1 DUP3 MSTORE PUSH1 0x15 SWAP1 DUP3 ADD MSTORE PUSH21 0x496E76616C69642061646D696E2061646472657373 PUSH1 0x58 SHL PUSH1 0x40 DUP3 ADD MSTORE PUSH1 0x60 ADD SWAP1 JUMP INVALID LOG2 PUSH5 0x6970667358 0x22 SLT KECCAK256 0xBD PUSH17 0x926123879CCC3F3F46BBBE2E18A7CBBE94 PUSH23 0xB2E738C5911FD4B412D0339B64736F6C63430008110033 "
				},
				"gasEstimates": {
					"creation": {
						"codeDepositCost": "400000",
						"executionCost": "436",
						"totalCost": "400436"
					},
					"external": {
						"BronzeValidatorStaking()": "230",
						"GoldValidatorStaking()": "273",
						"MaxValidators()": "337",
						"MinimalStakingCoin()": "295",
						"PlatinumValidatorStaking()": "229",
						"ProposalAddr()": "239",
						"PunishContractAddr()": "262",
						"SilverValidatorStaking()": "274",
						"SlashingContractAddr()": "350",
						"StakingLockPeriod()": "270",
						"ValidatorContractAddr()": "261",
						"WalletBlocklistAddr()": "327",
						"addAdmin(address)": "32372",
						"admin()": "2458",
						"admins(address)": "2585",
						"creatorPartPercent()": "228",
						"extraRewardsPerBlock()": "273",
						"initialized()": "2400",
						"isAdmin(address)": "4773",
						"minimumValidatorStaking()": "208",
						"removeAdmin(address)": "34582",
						"rewardFund()": "2372",
						"setAdmin(address)": "54840",
						"stakerPartPercent()": "251",
						"totalRewards()": "2352",
						"validatorPartPercent()": "251"
					}
				},
				"methodIdentifiers": {
					"BronzeValidatorStaking()": "0a0b5e51",
					"GoldValidatorStaking()": "d5074883",
					"MaxValidators()": "c967f90f",
					"MinimalStakingCoin()": "be645692",
					"PlatinumValidatorStaking()": "cad0ebf1",
					"ProposalAddr()": "6233be5d",
					"PunishContractAddr()": "1b5e358c",
					"SilverValidatorStaking()": "32dc3b94",
					"SlashingContractAddr()": "182637b8",
					"StakingLockPeriod()": "db78dd28",
					"ValidatorContractAddr()": "3a061bd3",
					"WalletBlocklistAddr()": "591271f9",
					"addAdmin(address)": "70480275",
					"admin()": "f851a440",
					"admins(address)": "429b62e5",
					"creatorPartPercent()": "daa77ea2",
					"extraRewardsPerBlock()": "8ae53dbd",
					"initialized()": "158ef93e",
					"isAdmin(address)": "24d7806c",
					"minimumValidatorStaking()": "0976c65d",
					"removeAdmin(address)": "1785f53c",
					"rewardFund()": "efe22266",
					"setAdmin(address)": "704b6c02",
					"stakerPartPercent()": "cd779d21",
					"totalRewards()": "0e15561a",
					"validatorPartPercent()": "42127ee7"
				}
			},
			"storageLayout": {
				"storage": [
					{
						"astId": 3,
						"contract": "Params.sol:Params",
						"label": "initialized",
						"offset": 0,
						"slot": "0",
						"type": "t_bool"
					},
					{
						"astId": 5,
						"contract": "Params.sol:Params",
						"label": "admin",
						"offset": 1,
						"slot": "0",
						"type": "t_address"
					},
					{
						"astId": 9,
						"contract": "Params.sol:Params",
						"label": "admins",
						"offset": 0,
						"slot": "1",
						"type": "t_mapping(t_address,t_bool)"
					},
					{
						"astId": 79,
						"contract": "Params.sol:Params",
						"label": "rewardFund",
						"offset": 0,
						"slot": "2",
						"type": "t_uint256"
					},
					{
						"astId": 81,
						"contract": "Params.sol:Params",
						"label": "totalRewards",
						"offset": 0,
						"slot": "3",
						"type": "t_uint256"
					}
				],
				"types": {
					"t_address": {
						"encoding": "inplace",
						"label": "address",
						"numberOfBytes": "20"
					},
					"t_bool": {
						"encoding": "inplace",
						"label": "bool",
						"numberOfBytes": "1"
					},
					"t_mapping(t_address,t_bool)": {
						"encoding": "mapping",
						"key": "t_address",
						"label": "mapping(address => bool)",
						"numberOfBytes": "32",
						"value": "t_bool"
					},
					"t_uint256": {
						"encoding": "inplace",
						"label": "uint256",
						"numberOfBytes": "32"
					}
				}
			},
			"userdoc": {
				"kind": "user",
				"methods": {},
				"version": 1
			}
		}
	}
}